:020000040800F2
:1000000048AC0020D54500084D5D0008595D00084A
:10001000615D0008695D0008715D00080000000076
:10002000000000000000000000000000795D0008F2
:10003000855D000800000000915D00089D5D0008DE
:1000400035460008354600083546000835460008A4
:100050003546000835460008354600083546000894
:100060003546000835460008354600083546000884
:100070003546000835460008354600083546000874
:100080003546000835460008354600083546000864
:100090003546000835460008354600083546000854
:1000A0003546000835460008354600083546000844
:1000B0003546000835460008354600083546000834
:1000C0003546000835460008354600083546000824
:1000D0003546000835460008354600083546000814
:1000E0003546000835460008354600083546000804
:1000F00035460008354600083546000835460008F4
:1001000035460008354600083546000835460008E3
:1001100035460008354600083546000835460008D3
:1001200035460008354600083546000835460008C3
:1001300035460008354600083546000835460008B3
:1001400035460008354600083546000835460008A3
:100150003546000835460008354600083546000893
:100160003546000835460008354600083546000883
:100170003546000835460008354600083546000873
:10018000354600083546000880B483B000AF78607B
:10019000034B7A681A600C37BD465DF8047B7047E4
:1001A000DC00274280B485B000AF7860294B1A6824
:1001B0007B681B881344FB607A68FB689A421FD0F7
:1001C000FB681B79002B1BD1234B1B68FA689A42F2
:1001D00016D0224B1A68FB689A4202D11F4B7A68EC
:1001E0001A60FB681A887B681A801A4B1A68FB68C9
:1001F0001B8813447968174A12688A1A92B25A8087
:10020000144B1A687B685B881344BB60BA687B68D0
:100210009A421AD0BB681B79002B16D10F4B1A6873
:100220007B689A4202D10D4BBA681A607B681A88C3
:10023000BB681A80074B1A687B681B881344B9682F
:10024000044A12688A1A92B25A801437BD465DF881
:10025000047B7047F0310020F4310020F831002099
:1002600080B483B000AF1A4B033323F003031A4664
:10027000184B1A60174B1B687B607B684FF4205249
:100280001A807B6800225A807B6800221A71114B09
:100290001B6803F52052104B1A600F4B1B6801229C
:1002A0001A710D4B1B684FF420521A800A4B1B68C1
:1002B0004FF420525A80094B01221A70054B1A68DC
:1002C000074B1A600C37BD465DF8047B704700BFD2
:1002D000DC090020F0310020F4310020FC31002046
:1002E000F831002080B584B000AF78607B68002BC7
:1002F00000D11BE00F4B1B687A689A4204D30E4B67
:100300001B687A689A4200D310E07B68083BFB6068
:10031000FB6800221A71094B1B68FA689A4202D2E4
:10032000064BFA681A60F868FFF73CFF1037BD46C5
:1003300080BD00BFF0310020F4310020F8310020F2
:1003400080B487B000AF78600B467B807B88033336
:100350009BB223F003037B807B880B2B01D80C23FB
:100360007B807B88B3F5205F01D9002396E04E4B5C
:100370001B687A689A4204D34C4B1B687A689A428D
:1003800001D37B688AE07B68083B7B617A69464BD6
:100390001B68D31A7B827B691A887B8AD31A9BB22B
:1003A000083B3B827A883B8A9A4201D9002375E058
:1003B0007A883B8A9A4201D17B686FE03A4B1A688F
:1003C0007B691B881344FB60FB681B79002B32D1CF
:1003D000FB681B887B817A8A7B8813449BB2083335
:1003E0003B81334B1A68FB689A4205D12E4B1A6841
:1003F0003B891A442E4B1A602B4B1A683B891344D5
:10040000FB60FB6800221A71FB687A891A80FB681E
:100410007A8A5A807B693A891A80FB681B88B3F50F
:10042000205F07D0204B1A68FB681B8813443A8969
:100430005A8032E031E07B8803F114023B8A9A4211
:100440002BD87A8A7B8813449BB208333B81164BA6
:100450001A683B891344FB60154B1B68FA689A4283
:1004600002D2134BFA681A60FB6800221A717B698A
:100470001A88FB681A80FB687A8A5A807B693A89F5
:100480001A80FB681B88B3F5205F06D0064B1A68FC
:10049000FB681B8813443A895A807B6818461C37CE
:1004A000BD465DF8047B7047F0310020F431002038
:1004B000F831002080B487B000AF0346FB80FB8892
:1004C000002B01D100238AE0FB8803339BB223F089
:1004D0000303FB80FB880B2B01D80C23FB80FB88DC
:1004E000B3F5205F01D9002379E0404B1B681A4621
:1004F0003F4B1B68D31AFB826AE03D4B1A68FB8AAC
:1005000013443B613B691B79002B5BD13B691B8822
:100510001A46FB8AD31AA3F10802FB889A4251D3E8
:100520003B691B881A46FB8AD31AA3F10802FB8891
:1005300014339A4227D3FA8AFB8813449BB20833B8
:10054000FB812B4B1A68FB891344BB60BB680022FC
:100550001A713B691A88BB681A80BB68FA8A5A808C
:100560003B69FA891A803B6901221A71BB681B88B2
:10057000B3F5205F0AD01E4B1A68BB681B88134472
:10058000FA895A8002E03B6901221A71174B1B68F5
:100590003A699A4213D107E0154B1A68134B1B684E
:1005A0001B881A44114B1A60104B1B681B79002BD7
:1005B00005D00E4B1A680F4B1B689A42ECD13B6971
:1005C00008330CE00A4B1A68FB8A13441B88FB8231
:1005D000FA8AFB88C3F520539A428EDB0023184623
:1005E0001C37BD465DF8047B704700BFF831002022
:1005F000F0310020F431002080B584B000AF034614
:10060000FB800023FB73FB8818460AF00DF90346B4
:10061000FB73FB7B002B03D0144B01221A701FE0ED
:1006200001F0A2F90346002B02D10323FB7317E06C
:100630000F4B104A1A60104B104A1A60104B114AA7
:100640001A60114B114A1A60114B00221A60114BAB
:1006500001221A70104B02221A70044B01221A70E8
:10066000FB7B18461037BD4680BD00BF0000002050
:100670000832002055A800080C32002061A80008AC
:10068000103200206DA8000804320020DDA8000808
:1006900014320020003200200132002080B582B0E8
:1006A00000AF0023FB71094B1B78012B06D1084BCF
:1006B0001B689847054B00221A7001E00623FB7166
:1006C000FB7918460837BD4680BD00BF00000020FA
:1006D0000832002080B582B000AF0023FB704F4B82
:1006E0001B78002B01D0062393E0BB1C184601F0B9
:1006F0005FF90346012B40F08B80BB78032B00F29F
:10070000878001A252F823F0110800081907000899
:100710004D07000811080008414B1B684148424939
:10072000424A98470346FB70FB78002B0DD13D4BA6
:100730001A783F4B1B789A4203D03A4B1B78002B18
:1007400003D1022001F01EF962E061E0364B1B6824
:100750001A78384B1A70384B01221A7000237B60CC
:1007600020E0364B7A6813F83230002B00D11CE0C1
:10077000324B7A6813F832202E4B1B789A420ED1F6
:100780002E4A7B68DB0013445B68274A12681046D8
:100790002649984703461A46274B1A7005E07B689E
:1007A00001337B607B680F2BDBDD1E4B1B78002B3E
:1007B0002DD0214B1B78002B1DD01C4B00221A8002
:1007C000194B1A68194B1B88591C88B217490880A5
:1007D0001344184A127862F07F02D2B21A70124B98
:1007E0001A68124B1B88591C88B2104908801344A0
:1007F000114A12781A70124B1B680D4A10780A4A77
:1008000011680A4A128898470346FB70FFE700BF49
:10081000002318460837BD4680BD00BF00000020F9
:1008200010320020183200201C320020203200201C
:100830000032002022320020233200200400002059
:100840000432002080B586B000AF786039600023A4
:10085000BB753B681B88052B6CD17B6801331B780B
:100860001B02BB827B6802331B781A46BB8A134388
:10087000BB82BB8A0133BB827B6803331B781B02BC
:100880007B827B6804331B781A467B8A13437B8206
:100890007B8A002B4AD07B8AB3F5FA6F46D27B68FD
:1008A000FB603B6800221A80FB685A1CFA60022237
:1008B0001A703B681B8801339AB23B681A807B8AA6
:1008C00003F00703002B06D07B8ADB089BB2DBB268
:1008D0000133FB7503E07B8ADB089BB2FB75FB6889
:1008E0005A1CFA60FA7D1A703B681B8801339AB271
:1008F0003B681A80BA8A7B8AF86811461A4605F066
:10090000ABF80346FB72FB7A002B06D0FB7A184645
:1009100003F05AFD0346BB750BE03B681A88FB7D6C
:100920009BB213449AB23B681A8002E00323BB7562
:1009300002E001E00323BB75BB7D18461837BD46B6
:1009400080BD00BF80B500AF00F032FD074B1B78C3
:100950000133DAB2054B1A70044B1B7803F0010324
:10096000002B01D000F040FB80BD00BF24320020EE
:1009700080B584B000AF78607B681B7C072B00F2E9
:100980008B8001A252F823F0A90900080B0A000885
:10099000250A00083F0A00085D0A0008990A0008B5
:1009A000990A00087B0A00080023FB73454B1A686C
:1009B0007B689A4205D1434B1B68DA68414B1A6049
:1009C00019E0404B1A68404B1A6010E03E4B1B6820
:1009D000DA687B689A4205D13B4B1B687A68D2681B
:1009E000DA6008E0384B1B68DA68374B1A60364B20
:1009F0001B68002BEAD17B680022DA60022079684C
:100A000002F022FF00237B604BE00023FB732F48A2
:100A1000796800F021FF0320796802F015FF0023B8
:100A20007B603EE00023FB732948796800F014FFE7
:100A30000220796802F008FF00237B6031E07868CB
:100A400001210AF057FA0346FB7397F90F30002B88
:100A500003D17B6805221A7423E022E07868012123
:100A60000AF048FA0346FB7397F90F30002B03D1C5
:100A70007B6805221A7414E013E0786801210AF0FB
:100A800039FA0346FB7397F90F30002B03D17B68CB
:100A900009221A7405E004E00023FB7300237B6045
:100AA00000BF7B68002B06D097F90F30002B02D1D6
:100AB00078680AF059FDFB7B5BB218461037BD46DB
:100AC00080BD00BF00660020FC650020F8650020A6
:100AD000F065002080B58CB002AF786039607B682B
:100AE0001B7C0A2B08D13048796800F0B5FE022043
:100AF000796802F0A9FE54E07B689B6D7B627B689D
:100B00005B6A3B627B68002B02D07B681B6800E05D
:100B10000023FB607B680433002B02D07B685B689A
:100B200000E000233B617B681B8BFB837B681B8C95
:100B3000BB837B68D3F89030BB617B685B697B616A
:100B40001A48796800F088FE7B689B6F002B04D000
:100B50007B689B6F184600F08BFC7B685B6F002BFB
:100B600004D07B685B6F184600F082FC0220796835
:100B700002F06AFEBB69002B04D0BB6978696FF094
:100B8000040198473B68002B0BD007F10C0207F1DA
:100B90001003F98B0091B98B0191786A396A0AF0D8
:100BA000E7FE2837BD4680BD04660020F0650020C2
:100BB00080B586B000AFF860B9601346FB80FB6873
:100BC0001B7C002B01D0F323A2E0FB88002B03D178
:100BD00000F0B4F90346FB80504B1B687B611DE0BD
:100BE0007B691B8BFA889A4215D17B69002B10D048
:100BF0007B691B68002B0CD0BB68002B09D0BB683D
:100C00001B68002B05D07B691A68BB681B689A4279
:100C100001D1F5237CE07B69DB687B617B69002B7C
:100C2000DED13F4B1B687B611DE07B691B8BFA8823
:100C30009A4215D17B69002B10D07B691B68002B71
:100C40000CD0BB68002B09D0BB681B68002B05D0FB
:100C50007B691A68BB681B689A4201D1F52357E08B
:100C60007B69DB687B617B69002BDED12D4B1B68C8
:100C70007B611DE07B691B8BFA889A4215D17B69E9
:100C8000002B10D07B691B68002B0CD0BB68002B9D
:100C900009D0BB681B68002B05D07B691A68BB684C
:100CA0001B689A4201D1F52332E07B69DB687B61E6
:100CB0007B69002BDED11C4B1B687B610FE07B69DD
:100CC0001B8BFA889A4207D17B691A68BB681B683C
:100CD0009A4201D1F5231BE07B69DB687B617B696C
:100CE000002BECD1BB68002B07D0BB681B68002B26
:100CF00003D0FB68BA6810681860FB68FA881A832A
:100D0000084B1A68FB68DA60064BFA681A60002321
:100D10005BB218461837BD4680BD00BFF86500209D
:100D2000F0650020006600200466002080B485B0D5
:100D300000AFF860B9601346FB71FB235BB2184645
:100D40001437BD465DF8047B704700BF80B584B0A2
:100D500000AF78600B46FB707B681B7C002B01D0DA
:100D600000236CE07B681B7C012B01D17B6866E073
:100D7000032002F047FDF860FB68002B01D100233F
:100D80005DE07B685A69FB685A617B681A8BFB6877
:100D90001A83FB6801221A747B681A89FB681A811E
:100DA000FB681B8943F002039AB2FB681A817B68D7
:100DB000DA7AFB68DA727B689A7AFB689A727B68E7
:100DC000002B02D07B681B6800E00023FA681360E8
:100DD0001D4B1A687B689A4205D11B4B1B68DA6869
:100DE000194B1A6019E0184B1A68184B1A6010E07A
:100DF000164B1B68DA687B689A4205D1134B1B6857
:100E00007A68D268DA6008E0104B1B68DA680F4B2A
:100E10001A600E4B1B68002BEAD17B680022DA6057
:100E20000220796802F010FDFB68094ADA61094B7B
:100E30001A68FB68DA60074BFA681A60FB681846A4
:100E40001037BD4680BD00BF00660020FC65002055
:100E50002D0D0008F865002080B485B000AF7860E3
:100E60007B685A6A7B681B8D1344FB607B68DA6A77
:100E70007B68198F40F2B453994202D87B681B8F6C
:100E800001E040F2B4531344FA68D31A002B08DB94
:100E90007B681A8D7B685A857B68DB6AFA68D31A8F
:100EA00015E07B685A6A7B68DB6AD31A002B03DD86
:100EB0007B6800225A8509E07B68DB6A9AB27B680E
:100EC0005B6A9BB2D31A9AB27B685A850023184694
:100ED0001437BD465DF8047B704700BF80B584B011
:100EE00000AF78600B467B807B681A8D7B8813444B
:100EF0009AB27B681A857B681A8D40F668339A42ED
:100F000003D97B6840F668321A857868FFF7A4FF3A
:100F10000346FB60FA6840F2D9239A420BDD7B68F6
:100F200093F8223043F00203DAB27B6883F8222080
:100F300078680AF019FB1037BD4680BD80B483B0D5
:100F400000AF254B1B8801339AB2234B1A80224BEA
:100F50001B889BB21BB2002B03DA1F4B4FF480524D
:100F60001A801E4B1B687B6009E07B681A8B1A4B4A
:100F70001B889A4200D1E4E77B68DB687B607B6872
:100F8000002BF2D1164B1B687B6009E07B681A8B43
:100F9000114B1B889A4200D1D3E77B68DB687B60EA
:100FA0007B68002BF2D10F4B1B687B6009E07B68EC
:100FB0001A8B094B1B889A4200D1C2E77B68DB6819
:100FC0007B607B68002BF2D1034B1B8818460C37E3
:100FD000BD465DF8047B7047B0000020F06500203E
:100FE00004660020F8650020B0B588B002AF002389
:100FF0007B73974B1B685A1C954B1A6000233B610F
:10100000944B1B687B618FE10023FB730023BB7350
:101010007B691B7C022B08D17B6993F84A30062B35
:1010200003D1FB7B0133FB7390E07B6993F84A307B
:101030000C2B03D1FB7B0133FB7387E07B6993F8B7
:101040009C30002B26D07B69D3F898305A1C7B69E2
:10105000C3F898207B69D3F898207B6993F89C307B
:10106000013B7D49CB5C9A4270D37B690022C3F877
:1010700098207B6993F89C30062B07D87B6993F8FE
:101080009C300133DAB27B6983F89C2078690AF0DE
:10109000DBFD5BE07B69DB8E1BB2002B05DB7B6934
:1010A000DB8E01339AB27B69DA867B699B6F002BFA
:1010B0004CD07B69DA8E7B69B3F8483012B21BB230
:1010C0009A4243DB7B691B7C022B16D07B69B3F809
:1010D00044301BB2DB109BB21AB27B69B3F84630C6
:1010E0001BB21A447B6993F84A305C49CB5C02FA24
:1010F00003F39AB27B69A3F848207B690022DA8661
:101100007B69B3F85C207B69B3F852309A4238BFF0
:1011100013467B817B895B089AB27B69A3F85420D4
:101120007B69B3F854207B691B8F9A4206D27B6996
:101130001B8F5B009AB27B69A3F854207B691A8FDE
:101140007B69A3F8522078690AF08AFC7B691B7CD2
:10115000062B09D13E4B1A687B691B6BD31A282BCF
:1011600002D9FB7B0133FB737B691B8903F0080306
:10117000002B40D07B691B7C042B03D07B691B7C3C
:10118000072B38D1324B1A687B691B6BD21A7B69EB
:10119000D3F8943003F5242303F6B8433049A1FB78
:1011A00003035B099A4206D9FB7B0133FB73BB7BCC
:1011B0000133BB731FE0264B1A687B691B6BD21A85
:1011C0007B69D3F894107B6993F89D30254800FB28
:1011D00003F31944224BA3FB01035B099A420AD98A
:1011E00078690AF005FD7B6993F89D300133DAB226
:1011F0007B6983F89D207B691B7C032B09D1144BF1
:101200001A687B691B6BD31A282B02D9FB7B01332D
:10121000FB737B691B7C092B09D10D4B1A687B6919
:101220001B6BD31AF02B02D9FB7B0133FB73FB7BC7
:10123000002B47D0786900F0DFFA3B69002B13D010
:101240003B69002B10D07B69DA683B69DA600FE0FC
:10125000F4650020F0650020783301086833010848
:10126000D34D6210F82401007B69DA684D4B1A6097
:101270007B69D3F89030002B08D07B69D3F890308D
:101280007A69526910466FF004019847BB7B002BC6
:101290000ED07B69986D7B69596A7A697B690433E2
:1012A0007C69258B7C69248C009501940AF060FB95
:1012B0007B69DB687B600220796902F0C5FA7B6894
:1012C0007B6131E07B6993F834300133DAB27B69BA
:1012D00083F834207B6993F834207B6993F83530A8
:1012E0009A421CD37B69002283F834207B69D3F8AF
:1012F0008C30002B0AD07B69D3F88C307A69526924
:1013000010467969984703467B7301E000237B739D
:1013100097F90D30002B02D178690AF025F97B6925
:101320003B617B69DB687B617B69002B7FF46CAE82
:1013300000233B611C4B1B687B612CE00023FB738B
:101340001A4B1A687B691B6BD31AF02B02D9FB7BF3
:101350000133FB73FB7B002B18D0786900F04CFA4B
:101360003B69002B04D07B69DA683B69DA6003E0F3
:101370007B69DA680C4B1A607B69DB687B60022052
:10138000796902F061FA7B687B6104E07B693B610B
:101390007B69DB687B617B69002BCFD11837BD4649
:1013A000B0BD00BFF065002004660020F465002099
:1013B00090B583B000AF2D4B1B687B604FE07B681E
:1013C000DA687B689A4202D17B680022DA607B6827
:1013D000DB6F002B24D07B68D3F88430002B0ED039
:1013E0007B68D3F884407B685A697B68DB6F104662
:1013F00079681A460023A0470346FB7009E07B6822
:10140000DB6F002079681A46002300F079F8034664
:10141000FB7097F90330002B02D17B680022DA675A
:101420007B6893F8223003F00103002B14D07B6813
:1014300093F8223043F00203DAB27B6883F822206B
:1014400078680AF091F87B6893F8223023F0030360
:10145000DAB27B6883F822207B68DB687B607B687C
:10146000002BACD10C37BD4690BD00BFF06500200D
:1014700080B584B000AF78600023FB730CE07B681C
:101480001B68BB60786800F00FF803461A46FB7BC8
:101490001344FB73BB687B607B68002BEFD1FB7B45
:1014A00018461037BD4680BD80B584B000AF786067
:1014B0000023FB737B68002B0ED07B685B68002BDE
:1014C00006D07B685B68184607F01CFC0346FB737C
:1014D0000420796802F0B8F9FB7B18461037BD4646
:1014E00080BD00BF80B483B000AF78600B46FB7056
:1014F0007B68FA785A740C37BD465DF8047B7047F8
:1015000080B584B000AFF860B9607A60FB707B682A
:10151000002B09D07B681B89B8681946FFF7DEFCF1
:10152000786807F0EFFB08E097F90330002B04D14F
:10153000B868FFF71DFA034600E000235BB21846C7
:101540001037BD4680BD00BF80B586B000AF0346F2
:10155000FB717F23FB720023FB6000233B61184B70
:101560001B687B611FE07B695B7CFA799A4217D329
:101570007B695B7CFA7A9A4212D3124B1A687B69B8
:101580001B6BD21AFB689A420AD30E4B1A687B690E
:101590001B6BD31AFB607B693B617B695B7CFB72D5
:1015A0007B69DB687B617B69002BDCD13B69002BAD
:1015B00003D038690121FFF78DFA1837BD4680BD89
:1015C000F0650020F465002080B584B000AF0023F2
:1015D0007B600023BB60124B1B68FB6012E0114B69
:1015E0001A68FB681B6BD21A7B689A4207D30D4BB3
:1015F0001A68FB681B6BD31A7B60FB68BB60FB68D7
:10160000DB68FB60FB68002BE9D1BB68002B03D0D3
:10161000B8680121FFF75EFA1037BD4680BD00BFF4
:1016200004660020F465002080B584B000AF034656
:10163000FB71022002F0E6F8F860FB68002B10D185
:10164000FFF7C2FF022002F0DDF8F860FB68002B14
:1016500007D1FB791846FFF777FF022002F0D2F896
:10166000F860FB68002B59D0F8680021A0220BF02D
:1016700069F8FB6840225A74FB6841F2D062A3F813
:101680006E20FB680022A3F87020FB6840F66832E9
:101690001A85FB6840F668325A85FB6800229A7208
:1016A000FB68FF22DA72FB684FF406721A87FB6848
:1016B0000622A3F84820FB680022A3F84420FB6818
:1016C0000622A3F84620FB684FF6FF72DA86FB6815
:1016D0000122A3F8522000F013F9B860FB68BA6841
:1016E0005A66FB68BA689A65FB68BA68DA64FB6890
:1016F000BA689A660C4B1A68FB681A63FB6800228A
:1017000083F83420FB68094AC3F88420FB68084A40
:10171000C3F89420FB68002283F89D20FB681846DC
:101720001037BD4680BD00BFF465002001150008DC
:1017300000DD6D0080B500AF4020FFF775FF034668
:10174000184680BD80B483B000AF786039607B6894
:101750003A685A610C37BD465DF8047B704700BF9C
:1017600080B483B000AF786039607B683A68C3F8B2
:1017700084200C37BD465DF8047B704780B483B08D
:1017800000AF786039607B683A68C3F880200C3716
:10179000BD465DF8047B704780B483B000AF7860CD
:1017A00039607B683A68C3F890200C37BD465DF815
:1017B000047B704780B483B000AF786039607B6889
:1017C0003A68DA610C37BD465DF8047B704700BFAC
:1017D00080B485B000AFF860B9601346FB71FB6858
:1017E000BA68C3F88C20FB68FA7983F8352014377F
:1017F000BD465DF8047B704780B582B000AF78606D
:101800007B681B7C002B24D07B681B7C0A2B20D0A0
:101810007B681B7C012B1CD07B68DB6F002B07D007
:101820007B68DB6F184607F06DFA7B680022DA6789
:101830007B685B6F1846FFF71BFE7B689B6F184643
:10184000FFF716FE7B6800225A677B685A6F7B6839
:101850009A670837BD4680BD80B582B000AF78601A
:1018600039607B681A683B689A4205D17B681B68BF
:10187000DA687B681A6019E07B681A681F4B1A6087
:1018800010E01E4B1B68DA683B689A4205D11B4B7F
:101890001B683A68D268DA6008E0184B1B68DA689F
:1018A000164B1A60154B1B68002BEAD13B680022CF
:1018B000DA603868FFF7A0FF3B681B7C0A2B16D064
:1018C0003B681B7C012B12D03B6893F8223003F05D
:1018D0000103002B0BD03B6893F8223043F0020346
:1018E000DAB23B6883F82220386809F03DFE3B6895
:1018F00000221A740837BD4680BD00BFFC65002079
:1019000080B400AF064B1A68064B1B681A44044BA0
:101910001A60034B1B681846BD465DF8047B704790
:10192000B4000020F465002080B584B000AF034609
:101930003960FB80386808F033FAF860FB68002BE8
:101940000DD0FB681B8E002B09D0FB681B8E283B3B
:101950007B817A89FB889A4238BF1346FB80FB88DB
:1019600018461037BD4680BD80B400AF044B00223E
:101970001A7001231846BD465DF8047B704700BF0E
:101980002632002080B483B000AF0346FB71064BC3
:1019900001221A70054BFA791A70012318460C3788
:1019A000BD465DF8047B70472632002025320020BA
:1019B00080B485B000AF78600023FB73094B1B78BF
:1019C000002B08D0084B1A787B681A70054B002250
:1019D0001A700123FB73FB7B18461437BD465DF874
:1019E000047B7047263200202532002080B586B067
:1019F00000AF0346FB8000237B75FB88002B03D1DF
:101A00004FF4FB73FB8201E0FB88FB82FFF792FE41
:101A100038613B69FB60FB68002B02D100237B75BA
:101A200028E0FB8AF86817491A46FFF7C1F8034611
:101A3000002B05D03869FEF79BFF00237B7519E06A
:101A4000F868FF21FFF782F9F860FB68002B05D1E9
:101A50003869FEF78DFF00237B750BE0F8680A49B3
:101A6000FFF7A8FE094BFA681A6000200849094AE6
:101A700007F03AFF01237B757B7D18461837BD467A
:101A800080BD00BF940102085D1B000828320020C1
:101A90008033010890330108F0B587B004AF786057
:101AA0007B68002B45D07868FEF762FF0346002B69
:101AB00003D078680121FFF70DF81F4B1B687A6887
:101AC0009A422ED17B685B68184607F0E7FA034616
:101AD0001B0E9BB2DCB27B685B68184607F0DEFA2F
:101AE00003461B0C9BB2DEB27B685B68184607F0AE
:101AF000D5FA03461B0A9BB2DDB27B685B681846C9
:101B000007F0CCFA03469BB2DBB200960195029334
:101B100000200A490A4A234607F0E6FE064B002247
:101B20001A60084B1B687A689A4202D1054B002262
:101B30001A600C37BD46F0BD2C320020A8330108D6
:101B4000B43301082832002080B500AF024B1B6877
:101B50001846FFF7A1FF80BD2C320020F0B58BB0F6
:101B600004AFF860B9601346FB7197F90730002B9A
:101B700001D0FB794AE0284B1B68002B40D1264B53
:101B8000BA681A60B8682549FFF7EAFDB8682449C1
:101B9000FFF702FEB868B968FFF7D4FD214B0022B9
:101BA0001A80BB685B68184607F078FA03461B0E7C
:101BB0009BB2DCB2BB685B68184607F06FFA03465D
:101BC0001B0C9BB2DEB2BB685B68184607F066FA76
:101BD00003461B0A9BB2DDB2BB685B68184607F080
:101BE0005DFA03469BB2DBB200960195029300209A
:101BF0000D490E4A234607F077FE0023FB7504E0EB
:101C0000B868FFF749FF0023FB75FB7D5BB2184600
:101C10001C37BD46F0BD00BF2C320020651C0008FB
:101C2000311C00083833002080330108D833010804
:101C300080B584B000AF78600B46FB707B68FB60BA
:101C4000FB68002B07D000200449054A07F04CFE32
:101C5000F868FFF721FF1037BD4680BDFC3301084F
:101C60000834010880B586B000AFF860B9607A60CA
:101C7000FB70FB78FB7597F91730002B01D0FB7DCB
:101C800065E07B68002B04D1B868FFF705FF0023EF
:101C90005DE07B685B89B8681946FFF71FF92E4B3A
:101CA0001B881A467B685B891344B3F5837F05DD87
:101CB000B868FFF7F1FE0023FB7544E0264B1B8854
:101CC0001A46264BD1187B685A687B685B890846A0
:101CD00011461A460AF09CFC7B685A891E4B1B88E9
:101CE00013449AB21C4B1A801B4B1B88062B2AD913
:101CF0001A4B1B791B02BB82184B5B791A46BB8AB5
:101D00001343BB82144B1B881A46BB8A06339A4284
:101D100019DB114B1B881A46BB8A06339A420AD13B
:101D20000D4B1B880E480D491A4607F017FD012080
:101D3000FFF728FE07E000200A490B4A07F0D4FD10
:101D4000B868FFF7A9FE786806F0DCFFFB7D5BB2A0
:101D500018461837BD4680BD383300203032002089
:101D600034340108FC3301084034010880B483B0E6
:101D700000AF786039607B68074A1A60074B1A88A1
:101D80003B681A80054B00221A80012318460C3745
:101D9000BD465DF8047B70473032002038330020A8
:101DA00080B584B000AF78600B467B800023FB7366
:101DB000134B1B68002B1ED0114B1A687B881046F2
:101DC00079681A46012309F0ABF80346002B0DD1C0
:101DD0007B880C480C491A4607F0C0FC084B1B686E
:101DE000184609F0C1FB0123FB7304E0044B1B6898
:101DF0001846FFF751FEFB7B18461037BD4680BDE5
:101E00002C3200206C3401083032002080B584B0C0
:101E100000AF3A600246FA710A46BA71BB800023ED
:101E2000FB73BB8802331F2B30DC1C4B00221A8053
:101E30001A4B1B885A1C91B2184A1180184AF9791A
:101E4000D154164B1B885A1C91B2144A11801A4661
:101E5000BB79002B01D0FF2300E0002310498B54F5
:101E6000BB88002B14D00D4B1B881A460C4B1A4410
:101E7000BB88104639681A460AF0CAFB074B1A8815
:101E8000BB8813449AB2054B1A8001E00423FB730C
:101E9000FB7B18461037BD4680BD00BF5C33002079
:101EA0003C33002080B582B000AF786039607B6839
:101EB0005A1C094B1B88104608491A460AF0A8FB11
:101EC000054B1B8801339AB23B681A8000231846E1
:101ED0000837BD4680BD00BF5C3300203C33002086
:101EE000B0B588B002AF786039607B685A68994BAA
:101EF0001A607B685C68974B1B681B889BB218460E
:101F000007F0A4F803461B0A9BB203F00F039B00E3
:101F1000E218914B1A608F4B1B681B889BB21846C6
:101F200007F094F803461B0A9BB203F00F039BB221
:101F30009B009BB25B429BB29BB21BB27868194676
:101F400006F070FE0346002B03D17B681B89132B20
:101F500003D8786806F0D6FE96E27E4B1B681033F5
:101F60001846396803F06EFA0346002B0FD1794BFF
:101F70001B681C694FF0704007F090F803461C4046
:101F80004FF0604007F08AF803469C4203D178681E
:101F900006F0B8FE78E2704B1B689B899BB218462E
:101FA00007F054F803461B0B9BB2BB72BB7A9BB283
:101FB0001A469203D31A9B009BB29BB21BB278685D
:101FC000194606F02FFE0346002B03D0786806F072
:101FD00099FE59E2604B1C685F4B1B681B889BB2E3
:101FE000184607F033F8034623805B4B1C685A4BB6
:101FF0001B685B889BB2184607F028F8034663808D
:10200000554B1C68544B1B685B68184607F046F834
:10201000034663606268514B1A604F4B1C684E4B1D
:102020001B689B68184607F039F80346A360A2684E
:102030004B4B1A60484B1C68474B1B68DB899BB2B3
:10204000184607F003F80346E381434B1B689B895E
:102050009BB2184606F0FAFF0346DBB203F03F03DB
:10206000DAB2404B1A707B681A893E4B1B7803F03A
:102070000303002B0CBF00230123DBB213449AB2ED
:10208000394B1A8000233B61384B1B687B6132E07F
:102090007B691A8C304B1B681B889BB29A4225D1F6
:1020A0007B691A8B2C4B1B685B889BB29A421DD1B3
:1020B0007B695A68274B1B68DB689A4216D17B699B
:1020C0001A68244B1B681B699A420FD13B69002B8D
:1020D0000BD07B69DA683B69DA60244B1A687B694C
:1020E000DA60224B7A691A6008E007E07B693B619D
:1020F0007B69DB687B617B69002BC9D17B69002B25
:1021000077D11B4B1B687B6137E07B691A8C124BC4
:102110001B681B889BB29A422CD17B691A8B0E4B91
:102120001B685B889BB29A4224D17B695A68094B31
:102130001B68DB689A421DD17B691A68054B1B68D6
:102140001B699A4216D1786900F07EFA786806F029
:10215000D9FD99E178330020743300207C330020CE
:10216000803300208433002086330020F065002077
:10217000046600207B69DB687B617B69002BC4D12E
:1021800000233B61934B1B68FB602FE0FB68002B37
:102190000AD0FB681B68002B06D0FB681A688E4BC0
:1021A0001B681B699A421CD1FB681A8B8B4B1B68FE
:1021B0005B889BB29A4214D13B69002B0AD0FB6822
:1021C000DA683B69DA60834B1A68FB68DA60814B36
:1021D000FA681A60F86800F069F9786806F092FD0C
:1021E00052E1FB683B61FB68DB68FB60FB68002B2E
:1021F000CCD17B69002B00F01D81794B00221A6045
:102200007B681A89764B9A817B685A68744B9A600E
:10221000734B7A685A60714B1A68714B1A61714B33
:1022200000221A60704B00221A707B69DB6F002B52
:1022300029D07B69D3F88430002B0ED07B69D3F88A
:1022400084407B695A697B69DB6F104679691A465D
:102250000023A0470346FB7209E07B69DB6F002087
:1022600079691A460023FFF74BF90346FB7297F989
:102270000B30002B03D17B690022DA6703E078681A
:1022800006F040FD00E1594B7A691A60786900F068
:102290004BFA0346FB7297F90B3013F1050F00F070
:1022A000B980514B1B7803F00803002B16D07B69D3
:1022B000D3F89030002B08D07B69D3F890307A693E
:1022C000526910466FF00501984749487969FFF750
:1022D000C3FA0220796901F0B7FA9BE0424B1B7800
:1022E00003F01003002B08D041487969FFF7B4FAD6
:1022F0000220796901F0A8FA8CE00023FB727B6967
:10230000B3F86C30002B14D07B69D3F88030002BED
:102310000DD07B69D3F880307A6951697A69B2F857
:102320006C200846796998470346FB7201E0002358
:10233000FB722C4B1B68002B34D02E4B1B7803F008
:102340000803002B08D0274B1B68264A1268527BD3
:1023500042F00102D2B25A737B69D3F88430002B69
:102360000ED07B69D3F884407B695A691D4B1B688A
:10237000104679691A460023A0470346FB7209E01C
:10238000184B1B68002079691A460023FFF7B8F83C
:102390000346FB7297F90B30002B03D0114B1A68E0
:1023A0007B69DA67104B1B7803F02003002B2BD0DE
:1023B0007B69D3F88430002B1ED07B69D3F884402E
:1023C0007B695B691846796900220023A0470346B0
:1023D000FB7219E0F8650020783300207433002088
:1023E000603300208C3300208833002008660020F2
:1023F000F06500208433002000207969002200234A
:10240000FFF77EF80346FB72214B00221A607869C1
:1024100009F0AAF81E4B00221A601E4B5B68002BC5
:1024200032D01C4B5B68184606F06CFC194B00223E
:102430005A6029E0184B1B689B899BB2184606F02E
:1024400005FE034603F00403002B1AD1134B186852
:10245000134B1B881A46134B1B68D118124B1B6871
:1024600003F11002104B1B680C330B4C246864887A
:10247000A5B2094C24682488A4B20095019409F0FF
:1024800077FA786806F03EFC1837BD46B0BD00BF4D
:102490000866002060330020743300208033002061
:1024A000863300207C33002078330020B0B586B01E
:1024B00002AF78605D4B1B7803F01003002B1CD03B
:1024C0005B4B1B68581C5B4B1B881A465A4B1B689E
:1024D000D1185A4B1B6803F11002584B1B680C3380
:1024E000574C24686488A5B2554C24682488A4B24B
:1024F0000095019409F03CFA92E04C4B1B7803F0F4
:102500000203002B00F08C807B685B7C1846FFF791
:102510008BF8F860FB68002B01D1FF2381E0474B6B
:102520001B681033002B03D0444B1B681B6900E071
:102530000023FA6813607B681A8BFB681A833F4B91
:102540001B680C33002B03D03C4B1B68DB6800E09E
:102550000023FA6853603A4B1B681B889AB2FB68E9
:102560001A84FB6803221A74334B1B685A1CFB68DD
:102570005A62FB685A6AFB68DA62314B1B68DB8976
:102580009AB2FB68A3F85C20FB68B3F85C20FB6898
:10259000A3F85420284B1B685A1EFB681A667B68F8
:1025A0005A69FB685A617B68DA69FB68DA617B68A3
:1025B0001A8940F2991313409AB2FB681A81214B91
:1025C0001A68FB68DA601F4BFA681A60F86801F055
:1025D0004DF8FB681A8FFB68043310461946FFF765
:1025E000A3F903461A46FB681A87002300930123C8
:1025F0000193F86800210022122308F0C1FC034671
:10260000FB7297F90B30002B05D0F8680021FEF71C
:1026100061FAFB7A05E0F86808F0A6FF034600E0DF
:1026200000235BB218461037BD46B0BD843300208E
:1026300080330020863300207C3300207833002054
:1026400074330020F0650020B0B584B002AF78602C
:102650002E4B1B7803F00403002B01D0002350E025
:102660002A4B1B7803F00203002B2DD0284B1A684D
:102670007B685B6AD31A002B30DB254B1A687B68BA
:10268000596A7B681B8D0B44D31A002B26DC214B27
:102690001868214B1B881A461D4B1B68D1181F4B0D
:1026A0001B6803F110021D4B1B680C331C4C246883
:1026B0006488A5B21A4C24682488A4B200950194B9
:1026C00009F056F900231CE0104B1B7803F00103BE
:1026D000002B03D0134B1A687B681A630E4B1B88C0
:1026E000002B0DD07B6893F8223043F00203DAB25E
:1026F0007B6883F82220786808F036FF034600E004
:1027000000235BB218460837BD46B0BD84330020B5
:102710007C33002080330020863300207833002073
:1027200074330020F4650020B0B588B002AF786043
:102730000023FB750023BB75A34B1B7803F0040338
:10274000002B36D07B681B7C022B08D17B689A6DEE
:102750009E4B1B689A4215D10123FB7512E09C4BDE
:102760001A687B685B6AD31A002B0BDB984B1A68DC
:102770007B68596A7B681B8D0B44D31A002B01DCE4
:102780000123FB75FB7D002B11D0924B1B7843F08E
:102790000803DAB28F4B1A707B6893F8223023F06B
:1027A0000103DAB27B6883F82220FA230AE30023CC
:1027B00008E3854B1B7803F00203002B15D07B68E0
:1027C0001B7C022B11D07B681B7C032B0DD07B68FC
:1027D00093F8223043F00203DAB27B6883F82220B8
:1027E000786808F0C1FE0023ECE27B4B1A687B6836
:1027F0001A637B68002283F89D20786800F036FF1A
:102800007B681B7C023B072B00F2DA8201A252F8A4
:1028100023F000BF35280008E92900081F2B000815
:10282000532B00086D2C00081F2B0008052D0008F5
:10283000912D0008644B1B7803F01003002B00F06F
:10284000A080614B1B7803F00203002B00F09980FD
:102850007B689B6F1B695B68184606F01FFC03468C
:102860005A1C5A4B1B689A4240F08B807B68B3F825
:102870006E3001339AB27B68A3F86E20544B1B680C
:102880005A1C7B685A627B685A6A7B68DA624F4BD3
:102890001A687B68DA64514B1B68DB899AB27B68E3
:1028A000A3F85C204A4B1B685A1E7B681A667B683B
:1028B00004221A747B681A8F7B6804331046194609
:1028C000FFF732F803461A467B681A877B681B8F2E
:1028D0001A46920013445B009AB27B68A3F8542016
:1028E0007B68B3F85230012B04D17B681B8F5B00EF
:1028F0009BB201E07B681B8F7A68A2F852307B683C
:10290000B3F87030013B9AB27B68A3F870207B6803
:102910009B6F3B613B691A687B689A677B689B6F1A
:10292000002B04D17B684FF6FF72DA8606E07B68E5
:102930000022DA867B68002283F84A203869FEF795
:10294000B3FD7B68D3F88830002B0BD07B68D3F8BD
:1029500088307A68526910467968002298470346A1
:10296000BB7501E00023BB757B6893F8223043F010
:102970000203DAB27B6883F82220786808F0F4FD5D
:1029800021E0114B1B7803F01003002B1BD00F4BE1
:102990001868134B1B881A460D4B1B68D118114B36
:1029A0001B6803F110020F4B1B680C330B4C24689F
:1029B0006488A5B2094C24682488A4B200950194C7
:1029C00008F0D6FFFDE1FCE18433002080330020D5
:1029D0007C33002088330020F4650020743300200D
:1029E0008633002078330020964B1B7803F01003C9
:1029F000002B00F08280944B1A687B68DB6CD31A42
:102A0000013B002B5CDB904B1A687B689B6DD31AF3
:102A1000002B55DC7B6804221A747B68DB69002B71
:102A20000AD07B68DB697A685269104679680022AF
:102A300098470346BB7501E00023BB7597F9163034
:102A4000002B05D078680121FEF744F8FB23B9E19B
:102A50007B68B3F85230FB81786800F0C5F97B6879
:102A6000B3F86C30002B07D07B68B3F86C30013BB7
:102A70009AB27B68A3F86C20FB89012B04D17B6898
:102A80001B8F5B009BB201E07B681B8F7A68A2F80A
:102A900052306E4B1B7803F02003002B0FD07B6865
:102AA00093F8223043F00203DAB27B6883F82220E5
:102AB000786808F059FD7B6807221A741CE01BE057
:102AC000614B1868624B1B881A46624B1B68D11811
:102AD000614B1B6803F110025F4B1B680C335F4CAA
:102AE00024686488A5B25D4C24682488A4B200954B
:102AF000019408F03DFF11E010E0524B1B7803F009
:102B00000203002B0AD07B685B6A5A1E514B1B687C
:102B10009A4203D1786808F0D3FF52E151E1786816
:102B200000F062F9494B1B7803F02003002B0FD013
:102B30007B6893F8223043F00203DAB27B6883F8B3
:102B40002220786808F010FD7B6807221A7438E1AB
:102B500037E1786800F048F93C4B1B7803F020031C
:102B6000002B5DD0374B1B7803F01003002B47D0B0
:102B70007B689A6D344B1B689A4241D17B6893F80D
:102B8000223043F00203DAB27B6883F822207868AF
:102B900008F0EAFC7868FEF72FFE314B1A687B6874
:102BA0009A4205D12E4B1B68DA682D4B1A6019E04A
:102BB0002B4B1A682B4B1A6010E02A4B1B68DA6803
:102BC0007B689A4205D1274B1B687A68D268DA6025
:102BD00008E0244B1B68DA68224B1A60214B1B6803
:102BE000002BEAD17B680022DA607B680A221A7423
:102BF0001D4B1A687B68DA601B4B7A681A601FE00D
:102C00007B6893F8223043F00203DAB27B6883F8E2
:102C10002220786808F0A8FC7B6808221A740FE06C
:102C2000084B1B7803F01003002B09D07B689A6DCA
:102C3000054B1B689A4203D17B6806221A74C0E0D8
:102C4000BFE000BF843300208033002088330020A1
:102C5000863300207C33002078330020743300203A
:102C6000F0650020FC65002004660020786800F014
:102C7000BBF8574B1B7803F02003002B41D07B6837
:102C800093F8223043F00203DAB27B6883F8222003
:102C9000786808F069FC7868FEF7AEFD4D4B1A685D
:102CA0007B689A4205D14B4B1B68DA68494B1A6026
:102CB00019E0484B1A68484B1A6010E0464B1B68F5
:102CC000DA687B689A4205D1434B1B687A68D26800
:102CD000DA6008E0404B1B68DA683F4B1A603E4BF5
:102CE0001B68002BEAD17B680022DA607B680A222D
:102CF0001A743A4B1A687B68DA60384B7A681A6043
:102D00005FE05EE0786800F06FF8354B1B7803F009
:102D10001003002B3BD07B689A6D324B1B689A42A4
:102D200035D17868FEF768FD2A4B1A687B689A42AD
:102D300005D1284B1B68DA68264B1A6019E0254B31
:102D40001A68254B1A6010E0234B1B68DA687B6811
:102D50009A4205D1204B1B687A68D268DA6008E095
:102D60001D4B1B68DA681C4B1A601B4B1B68002B41
:102D7000EAD17B680022DA607B680A221A74174B5A
:102D80001A687B68DA60154B7A681A6019E018E0F7
:102D9000786800F029F8124B1B7803F01003002B21
:102DA0000DD07B689A6D0F4B1B689A4207D1084B78
:102DB0001B7843F01003DAB2054B1A7001E000E013
:102DC00000BF00235BB218461837BD46B0BD00BF38
:102DD00088330020F0650020FC6500200466002098
:102DE0008433002080330020F0B58BB000AF7860D2
:102DF0000023BB61A54B1B7803F01003002B00F0F0
:102E00007B827B68B3F85C301A467B685B6E134448
:102E10007B617B681A6E9E4B1B68D31A002B1BDBF1
:102E20007B681A6E9A4B1B689A4206D17B685A6E71
:102E3000984B1B68D31A002B0EDB7B685A6E954BA0
:102E40001B689A4225D1944B1B68DB899AB27B6838
:102E5000B3F85C309A421CD98F4B1B68DB899AB25D
:102E60007B68A3F85C208A4B1A687B681A66894BDA
:102E70001A687B685A667B68B3F85C30002B08D010
:102E80007B6893F89C30002B03D07B68002283F88A
:102E90009C20804B1A687B68DB6CD31A002B5BDCB0
:102EA0007B680022A3F86C207C4B1B88002B4AD146
:102EB0007B685A6E7B68B3F85C301A447B699A422F
:102EC00041D17B68DB8E1BB2002B3CDB7B68DA6C6C
:102ED000704B1B689A4236D10123BB617B6893F823
:102EE00050305A1C7B6893F850309A4207DD7B685B
:102EF00093F850300133DAB27B6883F850207B6856
:102F000093F85030032B16D97B68B3F852207B68B6
:102F10001B8F13449AB27B68B3F852309A4212D98D
:102F20007B68B3F852207B681B8F13449AB27B688E
:102F3000A3F8522007E07B6893F85030032B02D1AE
:102F4000786808F0FFFDBB69002B40F018817B68B2
:102F5000002283F8502045E14E4B1A687B68DB6CF9
:102F6000D31A013B002BC0F205814A4B1A687B68DB
:102F70009B6DD31A002B00F3FD807B6893F8223001
:102F800003F00403002B0ED07B6893F8223023F06B
:102F90000403DAB27B6883F822207B68B3F85420FC
:102FA0007B68A3F852207B68002283F84A207B6864
:102FB000B3F844301BB2DB109BB29AB27B68B3F813
:102FC00046309BB213449BB29AB27B68A3F8482068
:102FD000304B1B689AB27B68DB6C9BB2D31A9AB2F7
:102FE0007B68A3F86C207B68B3F86E207B68B3F82D
:102FF0006C3013449AB27B68A3F86E207B68002281
:1030000083F85020234B1A687B68DA647B681B7C4A
:10301000032B3AD97B68B3F852207B68B3F854305D
:103020009A4216D27B68B3F852207B681B8F1344F8
:103030009AB27B68B3F852309A4226D97B68B3F8CB
:1030400052207B681B8F13449AB27B68A3F85220EE
:1030500058E07B68B3F852207B681B8F7968098F32
:1030600001FB03F17B68B3F8523091FBF3F39BB2A1
:1030700013447B827B68B3F852307A8A9A4204D92F
:103080007B687A8AA3F852203CE03BE0843300203E
:103090007C330020803300207433002086330020EE
:1030A0007B689B6FFB607B689B6F1A687B689A6785
:1030B0007B68B3F86C30002B13D0FB681B699B89CD
:1030C0009BB2184605F0C2FF034603F00103002B34
:1030D00007D07B68B3F86C30013B9AB27B68A3F8E9
:1030E0006C207B68B3F87040FB685B68184605F09D
:1030F0004DFE0346E31A9AB27B68A3F87020F86885
:10310000FEF7D2F97B689B6F002B22D07B689B6F08
:103110001B695B68184605F0C1FF04467B689B6F1E
:103120009B891D467B689B6F1B699B899BB21846D8
:1031300005F08CFF034603F00303002B0CBF0023B4
:103140000123DBB22B44E218934B1B68D31A002BEC
:10315000A6DD7B689B6F002B04D17B684FF6FF7266
:10316000DA8602E07B680022DA867B68002283F838
:10317000342004E07B680022A3F86C2032E031E0C8
:103180007B685B6FFB607B685B6F1A687B685A6764
:103190007B68B3F86C30002B13D0FB681B699B89EC
:1031A0009BB2184605F052FF034603F00103002BC3
:1031B00007D07B68B3F86C30013B9AB27B68A3F808
:1031C0006C207B68B3F87040FB685B68184605F0BC
:1031D000DDFD0346E31A9AB27B68A3F87020F86815
:1031E000FEF762F97B685B6F002B29D06A4B1C6885
:1031F0007B685B6F1B695B68184605F04FFF0546EF
:103200007B685B6F9B891E467B685B6F1B699B8934
:103210009BB2184605F01AFF034603F00303002B88
:103220000CBF00230123DBB233442B44E31A002BF1
:1032300006DB594B1A687B689B6DD31A002B9FDD08
:103240007B68DB6B002B57D07B681A6C524B1B687A
:10325000D31A002B50DA514B1B689AB27B68DB6B98
:103260009BB2D31A9BB2FB83FA8B7B68B3F84430D2
:103270001BB2DB109BB29BB2D31A9BB2FB837B6861
:10328000B3F844309AB2FB8B13449BB29AB27B687A
:10329000A3F84420B7F91E30002B03DAFB8B5B4206
:1032A0009BB2FB83FA8B7B68B3F846301BB29B1052
:1032B0009BB29BB2D31A9BB2FB837B68B3F84630B8
:1032C0009AB2FB8B13449BB29AB27B68A3F8462058
:1032D0007B68B3F844301BB2DB109BB29AB27B68B8
:1032E000B3F846309BB213449BB29AB27B68A3F802
:1032F00048207B680022DA63294B1B88002B00F0F2
:1033000091817B685A6A274B1B68D31A013B002BBB
:1033100074DB7B685A6A224B1B881946214B1B6859
:103320000B44D31A0133002B68DC7B685A6A1D4BAF
:103330001B68D31A3B621C4B5B687B621A4B5B6851
:103340005B891A463B6A9A4230DA174B5B681A89E6
:103350003B6A9BB2D31A7B810DE07B6A5B893A6A38
:10336000D31A3B627B6A7A891A817B6A00225A816E
:103370007B6A1B687B627B6A5B891A463B6A9A425E
:10338000EBDB3B6A9BB25B429BB29BB21BB2786A9F
:10339000194605F047FC15E080330020F465002055
:1033A000863300207C33002060330020984B5A681D
:1033B0003B6A9BB25B429BB29BB21BB21046194662
:1033C00005F030FC7B6A5A68914B9A60904B9A8961
:1033D000904B1B6899B27B685B6A9BB2CB1A9BB21D
:1033E00013449AB28A4B9A81894B1B697A68516A55
:1033F000884A1160874A12685A6012E0854B1A6841
:103400007B685B6AD31A002B0BDA7B6893F8223057
:1034100043F00203DAB27B6883F82220786808F070
:10342000A3F87C4B1A687B685B6AD31A002BC0F246
:10343000E980784B1A687B68596A7B681B8D0B445E
:10344000D31A0133002B00F3DD807B685A6A714B7D
:103450001B689A4240F0D2806D4B9C896C4B1B6973
:103460009B899BB2184605F0F1FD034603F0030368
:10347000002B0CBF00230123DBB223449AB2664B1E
:103480001A807B681A8D644B1B889A425DD2604B10
:103490001B699B899BB2184605F0D8FD034603F0D3
:1034A0000103002B1ED05A4B1C69594B1B699B8989
:1034B0009DB24FF6C07005F0B3FD03462B409DB2A0
:1034C000534B1B699B899BB2184605F0BFFD034611
:1034D00003F03E039BB2184605F0A2FD03462B43C2
:1034E0009BB2A3817B681A8D494B9A81484B1B691B
:1034F0009B899BB2184605F0A9FD034603F0020321
:10350000002B05D0424B9B89013B9AB2404B9A81DC
:103510003F4B5A683E4B9B891046194605F02AFBE3
:103520003B4B9C893A4B1B699B899BB2184605F023
:103530008DFD034603F00303002B0CBF0023012382
:10354000DBB223449AB2344B1A80334B1B881A46A1
:10355000304B1B681A447B685A627B681A8D2E4B6D
:103560001B88D31A9AB27B681A857868FDF774FCB9
:10357000274B5B681B89002B06D0254B5A68274BCD
:103580001A60234B00225A60214B1B699B899BB216
:10359000184605F05BFD034603F00103002B06D03F
:1035A0001F4B1B7843F02003DAB21D4B1A707B6867
:1035B00093F8223003F00103002B15D07B6893F8B9
:1035C000223023F00103DAB27B6883F822207B6883
:1035D00093F8223043F00203DAB27B6883F82220AA
:1035E000786807F0C1FF11E07B6893F8223043F060
:1035F0000103DAB27B6883F8222007E0786807F0DD
:1036000073FF03E0786807F06FFF29E028E000BF50
:10361000603300207C330020863300208C33002070
:1036200088330020104B1A687B685B6AD31A002B22
:103630000ADB0D4B1A687B68596A7B681B8D0B444B
:10364000D31A0133002B0BDD7B6893F8223043F053
:103650000203DAB27B6883F82220786807F084FFDF
:103660002C37BD46F0BD00BF7C33002080B586B04E
:1036700000AF78603C4B1B6814333B613A4B1B68CE
:103680009B899BB2184605F0E1FC03461B0B9BB2DD
:10369000052B66D9344B1B689B899BB2184605F0F5
:1036A000D5FC03461B0B9BB2053B9BB29B00FB81E9
:1036B0000023FB824FE0FB8A3A6913441B787B733B
:1036C0007B7B012B04D0022B06D0002B48D031E0AD
:1036D000FB8A0133FB823EE0FB8A01333A691344E3
:1036E0001B78042B04D1FB8A1A1DFB899A4200DD4A
:1036F00037E0FB8A02333A6913441B781B029AB203
:10370000FB8A033339690B441B7813439BB27B81DB
:103710007A8940F2B4539A4204D87B89002B01D0B5
:103720007B8901E040F2B4537A681387FB8A043343
:10373000FB8210E0FB8A01333A6913441B78002BAB
:1037400000D10EE0FB8A01333A6913441B781A4614
:10375000FB8A1344FB82FA8AFB899A42ABD300E0CE
:1037600000BF1837BD4680BD7433002080B483B0DD
:1037700000AF00237B8002E07B8801337B807B8865
:10378000082BF9D91B4B033323F003037B60002381
:103790007B8026E07A88184B002143F82210002312
:1037A0003B8014E07A88144B53F822207B681A601F
:1037B0007A88114B796843F822107A880F4B33F8D6
:1037C00012307A6813447B603B8801333B807A88EF
:1037D0000B4B33F812303A889A42E3D37B8801339B
:1037E0007B807B88082BD5D90C37BD465DF8047BE0
:1037F000704700BFB43300209033002078340108B4
:103800008C34010880B485B000AF0346FB71FB79AE
:10381000082B01D900230EE0FA790A4B53F8223025
:10382000FB60FB68002B05D0FA79FB681968054B33
:1038300043F82210FB6818461437BD465DF8047B38
:10384000704700BF9033002080B485B000AF0346BE
:103850003960FB713B68002B00D10CE03B68FB60DA
:10386000FA79074B53F82220FB681A60FA79044B67
:10387000F96843F822101437BD465DF8047B7047A1
:103880009033002080B584B000AF78600123FB73D3
:10389000FB7B002B10D07B689B6A1B7A002B03D02C
:1038A000786800F075F80AE0786800F04FF87B68F7
:1038B0009B6A64221A7202E0786800F069F8103797
:1038C000BD4680BD80B584B000AF786039607B684C
:1038D00093F837301A467B6893F838301B021A4346
:1038E000174B1344184605F0BFFB0346184605F076
:1038F000D5FBF8607B689B6A5B7AFA681344FB60CF
:10390000FB689BB243F0294343F47E03FB60FA68F3
:103910000C4B9A4203D8FB6803F57E43FB60FA68C0
:10392000094B9A4203D9FB68A3F57E43FB60F86814
:1039300005F09AFB02463B681A601037BD4680BD11
:103940000001FEA9FF00FEA9FFFEFEA980B586B01A
:1039500004AF78607B6803F133027B6833337968A6
:10396000896A08467968896A00900748019002913F
:103970000121039178681146044A03F075FC03465F
:1039800018460837BD4680BDAC010208A4010208F4
:1039900080B584B000AF78607B689B6AFB600023D1
:1039A000FB72786805F0BEFC0346002B02D07868F5
:1039B00005F098FC7B6800225A607B6800229A60C0
:1039C0007B680022DA60FB68002B11D10A20FCF72B
:1039D00071FDF860FB68002B01D1FF2329E0F86836
:1039E00000210A2208F0AEFE7B68FA689A6211E0B4
:1039F000FB6800221A71FB680022DA80FB68002253
:103A00005A71FB6818460021042208F09BFEFB68EF
:103A100000221A72FB6878681946FFF753FFFB68AB
:103A20005B7A0133DAB2FB685A72786800F006F804
:103A3000FB7A5BB218461037BD4680BD80B485B0B6
:103A400000AF78607B689B6AFB60FB6801221A719B
:103A5000FB6800225A717B6893F838301A067B683D
:103A600093F836301B041A437B6893F835301B02F9
:103A70001A437B6893F837301A437B689B6A002BA4
:103A800003D07B689B6A5B7A00E00023D1180C4B63
:103A9000A3FB0123DA0813469B0013445B00CA1AF8
:103AA00092B2FB68DA80FB685B7A0A2B03D9FB6869
:103AB0004FF41672DA801437BD465DF8047B704708
:103AC000CDCCCCCC80B586B000AF786039607B6857
:103AD0009B6A002B69D07B689B6A1B79002B64D0A2
:103AE0007B6893F833303B727B6893F834307B7299
:103AF0007B6893F83530BB727B6893F83630FB7285
:103B00007B6893F837303B737B6893F838307B736E
:103B10003A6807F114030E32106818603A6807F12A
:103B200010031832106818607B689B6A1B79012BA0
:103B300009D07B689B6A1B79022B21D17B689B6A29
:103B40005B79002B1CD17A697B689B6A1B689A425F
:103B500011D03A697B689B6A1B689A420FD13B6817
:103B6000083307F1080210461946062208F01CFD2A
:103B70000346002B03D07868FFF70AFF15E014E036
:103B80007A697B689B6A1B689A420ED13B6808334E
:103B900007F1080210461946062208F005FD034603
:103BA000002B02D07868FFF76DFE1837BD4680BD48
:103BB00080B586B000AF7860396000237B617B6898
:103BC0005B685B68FB60FB689B889BB2002B1DD128
:103BD0007B685B683B61FB681A687B685A603B697D
:103BE0005A687B68083310461946142208F010FD05
:103BF0003869012106F086FD386905F0C7F80346EB
:103C00007A6913447B61386905F07CF87B685B68EE
:103C10003B6111E03B695B68FB603B69BB60FB6833
:103C20001B683B61B86805F0B1F803467A69134434
:103C30007B61B86805F066F83B69002BEAD17868CB
:103C4000396800F0A5F8064B1A887B699BB2D31A35
:103C50009AB2034B1A807B6918461837BD4680BD5F
:103C6000CC57002080B588B000AF78603960002361
:103C70003B610023BB6100237B610023FB60264B7B
:103C80001B68FB612CE0FB695A697B68DB689A4220
:103C90000CD1FB699A697B681B699A4206D1FB6962
:103CA0009A897B689B889BB29A4210D0FB6801334B
:103CB000FB60BB69002B02D1FB69BB6107E0FB69BC
:103CC000DA7FBB69DB7F9A4201D8FB69BB61FB6984
:103CD0001B68002B01D0FB697B61FB691B68FB61E2
:103CE000FB69002BCFD1BB69002B08D0B86979697B
:103CF000FFF75EFFB8603A69BB6813443B613A69FD
:103D00003B689A4202DAFB68012BB2DC3B69184639
:103D10002037BD4680BD00BFC857002080B584B0A5
:103D200000AF786039600520FFF76CFDF860FB6834
:103D3000002B10D178683968FFF794FF02463B6882
:103D40009A4203DB0520FFF75DFDF860FB68002B5E
:103D500001D1002316E0F8680021202208F0F2FCCF
:103D6000FB680322DA77094B1A68FB681A60074B75
:103D7000FA681A60FB68083318467968142208F05C
:103D800047FCFB6818461037BD4680BDC857002069
:103D900080B582B000AF786039600A4B1A687B68E2
:103DA0009A4204D17B681A68064B1A6003E07B686C
:103DB0001A683B681A6005207968FFF745FD0837E7
:103DC000BD4680BDC857002090B58BB000AF78606D
:103DD000396000237B620123FB613B685B68BB6148
:103DE000BB695B889BB2184605F030F903461C4658
:103DF000BB691B889BB2184605F028F903461B0ACD
:103E00009BB203F00F039BB21A469203D31A9B0096
:103E10009BB22344FB82BB69DB889BB2184605F04A
:103E200015F90346C3F30C039BB2DB00BB823B686E
:103E30005B683B613B6900221A7000225A700022C5
:103E40009A700022DA703B69BA8A9A80BA8AFB8A31
:103E500013449AB23B69DA807B685B683B624DE051
:103E60003B6A5B68FB603B699B889AB2FB689B88F6
:103E70009BB29A421ED23B693A6A1A607B6A002B57
:103E800014D03B699B889AB27B6ADB889BB29A42CA
:103E9000C0F082803B69DB889AB2FB689B889BB24A
:103EA0009A4279D87B6A3A681A602AE07B683A6855
:103EB0005A6026E03B699B889AB2FB689B889BB25C
:103EC0009A4200D168E03B699B889AB2FB68DB8824
:103ED0009BB29A4200D25FE07B6A002B09D07B6ADA
:103EE000DB889AB2FB689B889BB29A4201D0002380
:103EF000FB61FB681B683B62FB687B623B6A002BD3
:103F0000AED13B6A002B13D17B6A002B0DD07B6AAC
:103F10003A681A607B6ADB889AB23B699B889BB2DD
:103F20009A4205D00023FB6102E07B683A685A6040
:103F30007B689B7F03F00103002B2BD0FB69002BD8
:103F400026D07B685B685B689B889BB2002B02D0A5
:103F50000023FB611CE03B697B623B691B683B62A1
:103F600013E03B6A5B683B617B6ADB889AB23B6922
:103F70009B889BB29A4203D00023FB6100BF07E0FD
:103F80003B697B623B691B683B623B6A002BE8D163
:103F9000FB690FE000230DE0084B1C88386804F033
:103FA000F5FE0346E31A9AB2044B1A80386804F00F
:103FB000A9FE002318462C37BD4690BDCC570020E3
:103FC00090B58BB000AF78600023FB617B685B68C5
:103FD000BB61BB691B889BB2184605F037F80346E6
:103FE0001B0A9BB203F00F039B00142B00D00CE1C3
:103FF000BB69DB889BB2184605F028F80346C3F37B
:104000000C039BB2DB00FB82BB695B889BB218464A
:1040100005F01CF803461C46BB691B889BB218467A
:1040200005F014F803461B0A9BB203F00F039BB282
:104030001A469203D31A9B009BB22344BB82786832
:1040400004F0A4FE0346FB74744B1B881A46FB7CE9
:1040500013440A2B10DDFB7CB8691946FFF702FEFA
:104060000346002B00F0D1806C4B1B881A46FB7C6A
:1040700013440A2B00F3C980694B1B683B6218E0AC
:104080003B6A5A69BB69DB689A420DD13B6A9A69FF
:10409000BB691B699A4207D13B6A9A89BB699B88B5
:1040A0009BB29A4200D107E03B6AFB613B6A1B6806
:1040B0003B623B6A002BE3D13B6A002B09D1FB7CBE
:1040C000B8691946FFF72AFE38623B6A002B1CD1FB
:1040D0009BE0BB69DB889BB2184604F0B7FF034640
:1040E000C3F30C03002B10D13B6ADB89184604F0A4
:1040F000ADFF0346C3F30C03002B06D03B6A083325
:104100001846B969142208F083FAFB7C9AB2434B33
:104110001B8813449AB2414B1A80BB69DB889BB25F
:10412000184604F093FF034603F40053002B0CD110
:104130003B6A9B7F43F00103DAB23B6A9A77FA8AC3
:10414000BB8A13449AB23B6A9A83386A7968FFF74C
:104150003BFE0346002B56D03B6A9B8B14339AB22E
:104160003B6A9A833B6A5B685B681B687B623B6A5D
:104170005B685B68BB613B6A0833B8691946142207
:1041800008F046FA3B6A9B8B184604F049FF034649
:104190001A46BB695A80BB6900229A710022DA7103
:1041A000BB6900229A720022DA72B869142101F008
:1041B000D5FA03461A46BB695A813B6A5B687B6045
:1041C0000EE07B6A5B68FB60786A6FF0130104F0B5
:1041D00029FD7868796A04F003FEFB681B687B623E
:1041E0007B6A002BEDD1386AF969FFF7D1FD0B4BE3
:1041F0001C88786804F0CAFD0346E31A9AB2074B9C
:104200001A807B6805E0002303E0786804F07AFDFB
:10421000002318462C37BD4690BD00BFCC57002068
:10422000C857002080B58CB000AFF860B9607A60E4
:10423000BB681B8EFB8414237B8502200021022295
:1042400004F09CFB38623B6A002B01D1FF23B4E0F1
:104250003B6AFA8C5A813B6A5A893B6A1A81594BEC
:10426000033323F003031A463B6A5A603B6A5B68D8
:10427000FB61FB685B68F8691946142208F0C8F90D
:10428000FB69DB889BB2184604F0E0FE03463B85E1
:104290003B8DC3F30C03BB853B8D03F400537B8341
:1042A000FB681B89143BFB85FB8C143B002B00DA5D
:1042B0000733DB103B8379E0FA8DFB8C143B9A4289
:1042C000CCBF00230123DBB2FB82BB8DC3F30C0305
:1042D0009AB27B8B13433B85FB8A002B03D13B8D2A
:1042E00043F400533B85FB8A002B03D13B8BDB005F
:1042F0009BB200E0FB8DBB82FB6903F11401BA8A1B
:104300007B8DF86804F02AFE03461A467B8D134421
:104310007B853B8D184604F083FE03461A46FB69F5
:10432000DA80BB8A14339BB2184604F079FE034648
:104330001A46FB695A80FB6900229A720022DA72DF
:10434000F869142101F00AFA03461A46FB695A81FA
:10435000FB8A002B06D0FB8D14339BB2386A1946BA
:1043600004F008FC02200021002204F007FB386161
:104370003B69002B15D03869396A04F05FFDBB68D2
:104380005B69B86839697A689847386904F0BAFC9B
:10439000FA8DBB8AD31AFB85BA8D3B8B1344BB8540
:1043A00004E0386A04F0AEFCFF2306E0FB8D002B2E
:1043B00082D1386A04F0A6FC00235BB2184630377D
:1043C000BD4680BDD057002080B485B000AF034605
:1043D000FB71FB79012B06D0072B07D0002B08D1EE
:1043E0000023FB7308E00223FB7305E00623FB7345
:1043F00002E00423FB7300BFFB7B18461437BD4665
:104400005DF8047B704700BF80B483B000AF002329
:104410007B601FE014497A6813465B001344DB009D
:104420000B4410331B79002B11D10F497A681346C6
:104430005B001344DB000B44103301221A717A68CD
:1044400013465B001344DB00074A134406E07B6815
:1044500001337B607B68092BDCDD002318460C37B9
:10446000BD465DF8047B70470C66002080B485B0C3
:1044700000AF78600023FB6017E0FA6813465B002A
:104480001344DB000D4A1A447B689A420AD10B4957
:10449000FA6813465B001344DB000B441033002220
:1044A0001A7105E0FB680133FB60FB68092BE4DD52
:1044B00000BF1437BD465DF8047B70470C660020D2
:1044C00080B584B000AF7860FFF79EFFB860BB682E
:1044D000002B01D100232AE0174BFB6020E0FB6892
:1044E0005B687868194608F039FA0346002B14D146
:1044F000FB689A68BB681A60FB68DA68BB685A6038
:10450000FB68DA68BB689A60BB680022DA60FB6807
:104510001A7CBB681A74BB6809E0FB681B68FB6007
:10452000FB68002BDBD1B868FFF7A0FF002318461B
:104530001037BD4680BD00BF2001020880B582B0A3
:1045400000AF78607868FFF791FF0837BD4680BDFF
:1045500080B586B000AFF860B9607A60FB689A6891
:10456000FB685B689A4202D14FF0FF331DE0FB68A5
:104570005A68FB689B68D31A7B617A697B689A42A8
:1045800001DD7B687B61FB681A68FB689B681A44E5
:104590007B69B86811461A4608F03AF8FB689A68D1
:1045A0007B691A44FB689A607B6918461837BD46D8
:1045B00080BD00BF80B483B000AF78607B685A686C
:1045C0007B689B68D31A18460C37BD465DF8047BA0
:1045D000704700BF80B582B000AF114B7B60114BBC
:1045E0003B6007E03B681A1D3A607A68111D7960EC
:1045F00012681A603A680C4B9A42F3D30B480C4984
:104600004FF000028842B8BF40F8042BFFF6FAAF23
:1046100004F08CFF01F000F90837BD4680BD00BFF3
:104620001C05020800000020DC090020DC09002035
:1046300048A4002080B400AFFEE700BF80B584B07E
:1046400000AF0346FB71FA79104B53F8223018463D
:10465000012101F0BBFAFA790D4B33F81230BB603F
:1046600001233B730023BB730123FB7302237B7382
:10467000FA79084B53F8222007F10803104619462F
:1046800004F064FE1037BD4680BD00BF3C01020847
:1046900034010208B800002080B483B000AF0346A4
:1046A000FB71FA79064B53F82230F979054A32F852
:1046B00011201A830C37BD465DF8047B704700BF9C
:1046C000B80000203401020880B483B000AF034674
:1046D000FB71FA79064B53F82230F979054A32F822
:1046E00011205A830C37BD465DF8047B704700BF2C
:1046F000B80000203401020880B485B000AF7860B3
:104700000023FB607B68FB6002E0FB68013BFB6011
:10471000FB68002BF9D11437BD465DF8047B704768
:1047200080B500AF4FF00070012101F08BFA4FF01F
:104730000070002101F086FA80BD00BF80B483B014
:1047400000AF78607B6801221A607B6800225A60A3
:104750007B6800229A607B680022DA607B68002216
:104760001A617B684FF480425A617B6800229A612B
:104770007B680022DA617B684FF400621A627B6812
:1047800000225A627B6800229A627B680022DA6209
:104790007B6800221A637B6800225A637B680022D0
:1047A0009A637B680022DA637B6840221A647B6824
:1047B00020225A647B6800229A647B680022DA64B3
:1047C0007B6800221A657B6800225A657B6800229C
:1047D0009A657B680022DA657B6800221A667B682E
:1047E00080225A667B6800229A667B680022DA661D
:1047F0007B6800221A677B6800225A677B68002268
:104800009A677B680022DA677B684FF08062C3F8A2
:1048100080207B684FF00072C3F884207B68002200
:10482000C3F888207B684FF40012C3F88C207B68A3
:104830000022C3F890207B680022C3F894207B6894
:104840000022C3F898207B680022C3F89C207B6874
:104850000022C3F8A0207B684FF00072C3F8A420A8
:104860007B684FF48032C3F8A8207B684FF4800245
:10487000C3F8AC207B684FF40052C3F8B0207B68CB
:104880000022C3F8B4207B680022C3F8B8200C379C
:10489000BD465DF8047B704780B58CB000AF786092
:1048A0000B467B800023BB620023FB628C4B7B6248
:1048B0000023FB6000233B628A4B1B69FB62FB6A9F
:1048C00023F01C03FB6207F11003184601F0D4F833
:1048D0007B697B627A6A844B9A4208D97A6A834BF5
:1048E0009A4204D8FB6A43F00803FB6226E07A6A26
:1048F0007E4B9A4208D97A6A7D4B9A4204D8FB6A69
:1049000043F00C03FB6219E07A6A794B9A4204D9AE
:104910007A6A784B9A4200D810E07A6A754B9A42CC
:1049200008D97A6A744B9A4204D8FB6A43F00403AC
:10493000FB6203E0FB6A43F01003FB62694BFA6A17
:104940001A610023FB60FB680133FB607B8818461B
:10495000012100F0D7FC03463B623B6A03F00403ED
:10496000002B03D1FA68654B9A42ECD9FA68644B84
:104970009A4201D100239FE17B681B68002B00F065
:104980009A800023FB607B88184600214FF48052F8
:1049900000F006FD0346002B01D100238CE16FF0EF
:1049A0007F40FFF7A9FEFB680133FB607B88184658
:1049B000012100F0A7FC03463B623B6A03F02003A1
:1049C000002B03D1FA684D4B9A42ECD9FA684C4B54
:1049D0009A4201D100236FE10023FB600023FB60BA
:1049E0007B8818461D2100F08DFC0346BB627B8846
:1049F00018461F2100F086FC0346BB62BB6A03F029
:104A00001C03BB62BB6A043B142B4DD801A252F8B5
:104A100023F000BF9B4A0008A94A0008A94A0008E1
:104A2000A94A00087B4A0008A94A0008A94A0008C8
:104A3000A94A0008A94A0008A94A0008A94A00088A
:104A4000A94A0008A94A0008A94A0008A94A00087A
:104A5000A94A00088B4A0008A94A0008A94A000888
:104A6000A94A0008694A00087B684FF400621A628C
:104A70007B684FF480425A6119E07B6800221A6219
:104A80007B684FF480425A6111E07B684FF400620A
:104A90001A627B6800225A6109E07B6800221A6270
:104AA0007B6800225A6102E00123FB6000BFFB68C3
:104AB000012B93D026E07B681B6ADB089AB27B68E7
:104AC0005B695B089BB213439BB27A881046002156
:104AD0001A4600F065FC0346002B13D10023EBE0DF
:104AE0000087930300800240FF2C3101BF0E1602A5
:104AF000FF869303FFE0F505007A030AFEFF050039
:104B0000FFFF05006E4B1B68FB62FA6A6D4B13409A
:104B1000FB627B685A687B689B681A437B68DB682A
:104B20001A437B681B691A437B685B691A437B687D
:104B30009B691A437B68DB691A437B681B6A1A43CB
:104B40007B685B6A1A437B689B6A1A437B68DB6AF3
:104B50001A437B681B6B1A437B685B6B1343FA6ACF
:104B60001343FB62564BFA6A1A60554B7A68916B95
:104B70007A68D26B11437A68126C11437A68526C6E
:104B800011437A68926C11437A68D26C11437A6847
:104B9000126D11437A68526D0A435A60484B7A6825
:104BA000926D9A60464B7A68D26DDA60444B9B698D
:104BB000FB62FA6A4FF641731340FB627B681B6E1F
:104BC0001A047B685B6E1A437B689B6E1A437B6892
:104BD000DB6E1A437B681B6F1A437B685B6F134362
:104BE000FA6A1343FB62364BFA6A9A61344B7A686D
:104BF000916F7A68D26F0A43DA61314B03F58053C3
:104C000018331B68FB62FA6A2F4B1340FB627B6808
:104C1000D3F880207B68D3F884301A437B68D3F8BC
:104C200088301A437B68D3F88C301A437B68D3F8FA
:104C300090301A437B68D3F894301A437B68D3F8DA
:104C400098301A437B68D3F89C301A437B68D3F8BA
:104C5000A0301343FA6A1343FB62194B03F58053E8
:104C60001833FA6A1A60164B7A68D2F8A4107A6878
:104C7000D2F8A82011437A68D2F8AC2011437A68A0
:104C8000D2F8B02011437A68D2F8B42092001143D0
:104C90007A68D2F8B8200A4342F4000203F5805340
:104CA0001A60074B064A02F58052126842F08002F1
:104CB00003F580531A60012318463037BD4680BD86
:104CC000008002400F8120FF233FDEF880B500AF57
:104CD000012000F00DF800F0B1FA012000F024F8F6
:104CE000012000F0BFFA012000F0E4FA80BD00BF0F
:104CF00080B483B000AF0346FB71FB79002B06D074
:104D0000084B084A126842F008021A6005E0054B99
:104D1000044A126822F008021A600C37BD465DF89A
:104D2000047B70470080024080B483B000AF03462C
:104D3000FB71FB79002B06D0084B084A126842F041
:104D400004021A6005E0054B044A126822F00402CE
:104D50001A600C37BD465DF8047B70470080024046
:104D600080B485B000AF786039603B6805331B784C
:104D70001A023B6804331B781343FB607A68104BBC
:104D80001344FA681A603B6803331B781A063B68C1
:104D900002331B781B041A433B6801331B781B0248
:104DA0001A433B681B781343FB607A68054B134436
:104DB000FA681A601437BD465DF8047B704700BF7F
:104DC000408002404480024080B487B000AF7860E9
:104DD00000237B610023BB600023FB6000233B6159
:104DE000164B1B681A68164B13401B0C043B7B6167
:104DF0007B69BB60134B1B689B68012B05D9114B6A
:104E00001B681B689B68FB6003E00C4B1B689B687E
:104E1000FB600A4B1B683B61084B1B68DB681A464A
:104E2000064B1A607B6807F1080207CA83E807008F
:104E300078681C37BD465DF8047B70470867002022
:104E40000000FF3F7885002080B487B000AF0346A4
:104E5000FB8000237B610023BB6000233B61514B3F
:104E60001B681B68002B01DA002395E04D4B1B6883
:104E7000FB60FA8840F2F4539A4217D9FA884A4BF9
:104E8000A3FB02139B0A9BB27B61FB88464AA2FBF1
:104E90000312920A40F2F45101FB02F29B1A9BB2F8
:104EA000002B05D07B6901337B6101E001237B612D
:104EB0007B69012B1CD13B4B1B683A4A1268126874
:104EC00042F040521A60374B1B68FA88C2F30C025A
:104ED0005A60344B1B68334A1268126842F0004231
:104EE0001A60304B1B68DB681A462E4B1A603DE097
:104EF00000233B6133E03B69002B07D1294B1B6842
:104F0000284A1268126842F080521A60FB6840F228
:104F1000F4525A607B695A1E3B699A4213D1FB686E
:104F20001B6843F00052FB681A60FA887B691F49CE
:104F300001FB03F3134403F2F453BB60BB68C3F3F8
:104F40000C02FB685A60FB681B6843F00042FB6878
:104F50001A60FB68DB68FB603B6901333B613A69BF
:104F60007B699A42C7D30F4BFA681A60104B03F55E
:104F7000805314331B6803F00403002B0BD00C4B3D
:104F800003F58053143304221A60094B03F5805350
:104F9000043300221A60012318461C37BD465DF811
:104FA000047B70470C6700200BB002AC0CFAFFFFCB
:104FB0000080024080B487B000AFF860B9607A60CA
:104FC00000237B61214BFA681A6000237B612AE091
:104FD0007B695B01FA6813443B613B694FF0004217
:104FE0001A603B6944F2F4525A607B6940F2F45211
:104FF00002FB03F3BA6813441A463B699A607B6864
:105000005A1E7B699A4208D97B6901335B01FA68B1
:1050100013441A463B69DA6002E0FA683B69DA60D9
:105020007B6901337B617A697B689A42D0D3084BF4
:10503000FA6803F580530C331A60064B064A1A606F
:105040001C37BD465DF8047B704700BF0867002031
:105050000080024078850020FC66002080B400AF0C
:10506000314B1B681B68002B12DB2F4B1B681B6826
:1050700003F48073002B0BD02C4B1B682A4A126858
:105080005A602A4B1B689A6801329A60012345E0F6
:10509000254B1B681B68002B21DB234B1B681B68FF
:1050A00003F40073002B1AD01F4B1B681B6803F41A
:1050B0008073002B13D11D4B1B681B4A12681A60AA
:1050C0001A4B1B6800225A60184B1B6801229A6019
:1050D000154B1B68DB681A46134B1A601DE0124B18
:1050E0001B681B68002B18DB0F4B1B681B6803F445
:1050F0000073002B11D10C4B1B681B6803F48073E9
:10510000002B0AD1094B1B689A6801329A60064B42
:105110001B68DB681A46044B1A6000231846BD461C
:105120005DF8047B704700BF086700207885002089
:1051300080B487B000AFF860B9607A6000237B610B
:105140001D4BFA681A6000237B6126E07B695B01D6
:10515000FA6813443B613B694FF480121A607B6923
:1051600040F2F45202FB03F3BA6813441A463B6957
:105170009A607B685A1E7B699A4208D97B69013321
:105180005B01FA6813441A463B69DA6002E0FA6888
:105190003B69DA607B6901337B617A697B689A429B
:1051A000D4D3064BFA6803F5805310331A601C37CA
:1051B000BD465DF8047B70470C670020008002400C
:1051C00080B483B000AF786039607B681A683B6850
:1051D0001A437B681A600C37BD465DF8047B704744
:1051E00080B400AF064B064A02F58052126842F0C6
:1051F000010203F580531A60BD465DF8047B7047D9
:105200000080024080B483B000AF0023FB710A4BE2
:1052100003F580531B6803F00103002B02D0012328
:10522000FB7101E00023FB71FB7918460C37BD468A
:105230005DF8047B704700BF0080024080B400AF7F
:105240000749074B03F5805318331B6843F480125A
:1052500001F5805318331A60BD465DF8047B704732
:105260000080024080B483B000AF0346FB71FB793D
:10527000002B0CD00E490E4B03F5805318331B68DE
:1052800043F4005201F5805318331A600BE00849CB
:10529000074B03F5805318331B6823F4005201F5C4
:1052A000805318331A600C37BD465DF8047B704795
:1052B0000080024080B483B000AF0346FB71FB79ED
:1052C000002B0CD00E490E4B03F5805318331B688E
:1052D00043F0020201F5805318331A600BE00849CD
:1052E000074B03F5805318331B6823F0020201F5C6
:1052F000805318331A600C37BD465DF8047B704745
:105300000080024080B485B000AF02460B46FA80B0
:10531000BB800023FB600023BB601E4B1B69FB604E
:10532000FB6803F01C03FB60FB88DB029BB2FA689E
:105330001343FB60BB889B0103F4F863FA681343D3
:10534000FB60FB6823F00203FB60FB6843F0010392
:10535000FB60104BFA681A61BB680133BB600D4BF0
:105360001B69FB60FB6803F00103002B03D0BA68E4
:10537000094B9A42F0D9BA68084B9A4201D10023EE
:1053800002E0044B5B699BB218461437BD465DF8DA
:10539000047B704700800240FEFF0500FFFF050010
:1053A00080B485B000AF13460246FA800A46BA8040
:1053B0007B800023FB600023BB601F4B1B69FB60ED
:1053C000FB6803F01C03FB60FB88DB029BB2FA68FE
:1053D0001343FB60BB889B0103F4F863FA68134333
:1053E000FB60FB6843F00203FB60FB6843F00103D2
:1053F000FB60114B7A885A610F4BFA681A61BB68DF
:105400000133BB600C4B1B69FB60FB6803F00103BD
:10541000002B03D0BA68094B9A42F0D9BA68084BFE
:105420009A4201D1002300E0012318461437BD46FB
:105430005DF8047B704700BF00800240FEFF05005E
:10544000FFFF050080B485B000AF786039607B68ED
:105450001B68FB60FB68B3F1FF3F02D0FB68002BC9
:1054600001D1012326E03B6893F8393003F00203B1
:10547000002B01D100231DE03B685A68FB689A426B
:1054800001D1002316E07B681A683B685B685A40CC
:105490003B689B681340002B0BD13B689B68DA4349
:1054A000FB681A403B689B68DB439A4201D10123A9
:1054B00000E0002318461437BD465DF8047B7047B2
:1054C00080B584B000AF786039600023FB733B681F
:1054D0001B88052B23D17B6801331B781B02BB8102
:1054E0007B6802331B781A46BB891343BB81BB8997
:1054F0000133BB817B68DA1CBB8910461946012247
:10550000012300F02FFA0346FB72FB7A002B08D030
:10551000FB7A1846FEF758FF0346FB7301E00323AE
:10552000FB73FB7B18461037BD4680BD80B584B049
:1055300000AF786039600023FB733B681B88052B44
:1055400048D97B6801331B781B02BB817B6802331F
:105550001B781A46BB891343BB81BB890133BB81CE
:105560007B6803331B781B027B817B6804331B78C9
:105570001A467B8913437B817B685B797B727B89CD
:10558000002B23D07B89782B20D87B89DBB25B0072
:10559000DBB27A7A9A4219D17B68991DBA897B89E4
:1055A000084611461A46012300F0DCF903463B7217
:1055B0003B7A002B06D03B7A1846FEF705FF0346E0
:1055C000FB7306E03B6805221A8002E00323FB73AD
:1055D00002E001E00323FB73FB7B18461037BD4656
:1055E00080BD00BF80B586B000AF78603960002311
:1055F000FB753B681B88052B5DD17B6801331B78ED
:105600001B02BB827B6802331B781A46BB8A13439A
:10561000BB82BB8A0133BB827B6803331B781B02CE
:105620007B827B6804331B787B827B8A002B3ED095
:105630007B8A7D2B3BD87B68FB603B6800221A800D
:10564000FB685A1CFA6003221A703B681B880133FE
:105650009AB23B681A80FB685A1CFA607A8AD2B206
:105660005200D2B21A703B681B8801339AB23B6871
:105670001A80BA8A7B8AF86811461A46002300F01D
:1056800071F90346FB72FB7A002B06D0FB7A1846B1
:10569000FEF79AFE0346FB750CE03B681A887B8A8E
:1056A0005B009BB213449AB23B681A8002E003236A
:1056B000FB7502E001E00323FB75FB7D18461837FC
:1056C000BD4680BD80B586B000AF78600B467B805C
:1056D00000237B617B683B6116E03B691B781B0202
:1056E000FB813B6901333B613B691B781A46FB89AF
:1056F0001343FB813B6901333B61FB897A691344A6
:105700007B617B88023B7B807B88012BE5D87B8893
:10571000002B07D03B691B781B02FB81FB897A6950
:1057200013447B617B691A0C7B699BB213447B61D8
:105730007B691B0C1B04002B05D07B691A0C7B6951
:105740009BB213447B617B699BB2184603F068FCF3
:10575000034618461837BD4680BD00BF80B582B0ED
:1057600000AF78600B467B807B8878681946FFF72E
:10577000A9FF0346DB439BB218460837BD4680BDF0
:1057800080B586B000AF786000237B610023FB7397
:105790007B683B6128E03B695A683B695B8910463E
:1057A0001946FFF78FFF03467A6913447B617B69D3
:1057B0001A0C7B699BB213447B613B695B8903F0E4
:1057C00001039BB2002B0CD0FB7BC3F10103FB73E5
:1057D0007B691B029AB27B6903F47F431B0A134364
:1057E0007B613B691B683B613B69002BD3D1FB7B31
:1057F000002B08D07B691B029AB27B6903F47F43BC
:105800001B0A13437B617B699BB2DB439BB2184647
:105810001837BD4680BD00BF80B500AF4FF4407063
:1058200004F0D4FF00F032F800F0A2FC00F028FAF7
:1058300002F0D6FE0020FAF7DFFEFAF72FFF012074
:105840000121094A0E23FCF7E1FAFAF743FFFFF7BB
:1058500005FC0346002B01D000F04CFA034B1B68FB
:10586000184600F04FFAF0E7E8000020BC5E002088
:1058700080B400AF044B1B6803F10A02024B1A60AC
:10588000BD465DF8047B7047BC5E002080B500AF6C
:105890000020FEF7D3FE0120FEF7D0FE0220FEF727
:1058A000CDFE0320FEF7CAFE80BD00BF80B485B0E8
:1058B00000AF786013460A467A803B800023FB7372
:1058C000254B5B699BB223F47F6323F00F039AB2ED
:1058D000224B1A80214B1B881B0B9AB21F4B1A803C
:1058E0001E4B1A881D4B5A807B88B3F57A7F29D3CB
:1058F0007A883B881344B3F57B7F23DC7A88184B86
:105900001B88D31ABB6019E07B685A1C7A60134A63
:10591000B96832F81120120A92B2D2B21A707B68BA
:105920005A1C7A600D4AB96832F81120D2B21A7046
:10593000BB680133BB603B88013B3B803B88002B4D
:10594000E2D101E00123FB73FB7B18461437BD460F
:105950005DF8047B704700BF000C0240B05D002082
:10596000E400002080B487B000AFF86079813A810C
:10597000FB710023FB757B89B3F5FA6F51D37A89EC
:105980003B891A4440F652039A424ADC7A89294BF1
:105990001B88D31A3B61FB79002B1CD0012B3CD018
:1059A00041E0FB685A1CFA60234A396932F8112039
:1059B000120A92B2D2B21A70FB685A1CFA601E4ADE
:1059C000396932F81120D2B21A703B6901333B6158
:1059D0003B89013B3B813B89002BE2D120E0FB6806
:1059E0005A1CFA601B781B0299B2134B3A6923F8D0
:1059F0001210114B3A6933F81220FB68591CF960F8
:105A00001B78134399B20C4B3A6923F812103B6987
:105A100001333B613B89013B3B813B89002BDED15C
:105A200001E00123FB75FB7D18461C37BD465DF880
:105A3000047B7047E6000020B85D002080B485B08C
:105A400000AFF86079813A81FB7101231846143761
:105A5000BD465DF8047B704780B483B000AF7860CA
:105A600013460A467A803B80012318460C37BD4610
:105A70005DF8047B704700BF80B489B000AF7860E8
:105A80000023BB6100237B610023FB6102233B6198
:105A90000023FB600223BB60484B9B6803F00C03B0
:105AA000BB61BB69042B07D0082B09D0002B3FD169
:105AB0007B68434A1A603FE07B68424A1A603BE0D9
:105AC0003E4B5B6803F480039B0DFB603B4B5B68C4
:105AD00003F03F03BB60FB68002B0DD0394ABB6865
