:020000040800F2
:10000000304701207963000815070008170700082A
:10001000190700081B0700081D0700080000000062
:100020000000000000000000000000009D0100082A
:100030002107000800000000F9010008250700085A
:1000400093630008936300089363000893630008B8
:1000500093630008936300089363000893630008A8
:100060009363000893630008936300089363000898
:100070009363000893630008936300089363000888
:100080009363000893630008936300089363000878
:100090009363000893630008936300089363000868
:1000A0009363000893630008936300089363000858
:1000B000850C00082B070008936300089363000871
:1000C0009363000893630008936300089363000838
:1000D00093630008936300083B0B00083D0B000886
:1000E0009363000893630008936300089363000818
:1000F0009363000893630008936300089363000808
:1001000093630008936300089363000893630008F7
:10011000590B000893630008936300089363000879
:1001200093630008936300089363000893630008D7
:10013000936300082907000893630008936300088D
:1001400093630008936300089363000893630008B7
:10015000936300089363000893630008630B00082F
:100160009363000893630008936300089363000897
:100170009363000893630008936300089363000887
:100180009363000893630008DFF80CD006F048F989
:10019000004800470F040008304701202C4B196825
:1001A0000868B0E8F04F80F30988BFF36F8F4FF015
:1001B000000080F3118870470000000008480068C4
:1001C000006880F308884FF0000080F3148862B65E
:1001D00061B6BFF34F8FBFF36F8F00DF00BF00BF6B
:1001E00008ED00E0DFF80C00016841F470010160E7
:1001F000704700BF88ED00E0EFF30980BFF36F8F19
:10020000134B1A681EF0100F08BF20ED108A20E96A
:10021000F04F106009B44FF0200080F31188BFF355
:100220004F8FBFF36F8F05F02CF84FF0000080F375
:10023000118809BC19680868B0E8F04F1EF0100F6B
:1002400008BFB0EC108A80F30988BFF36F8F704746
:1002500038010020EFF30580704700001FB501252D
:1002600000208DF800008DF80400A74E0EE06CB160
:10027000002001F0D3FA012001F0D0FA022001F0B1
:10028000CDFA032001F0CAFA00240CE0002001F0AE
:100290009BFA012001F098FA022001F095FA032060
:1002A00001F092FA01249DF8000030B105282ED00B
:1002B00007280AD008282AD126E094A006F0EEF8F4
:1002C00007208DF8000095A01BE09AA006F0E6F844
:1002D000002202A9706804F0E8FA012817D196A05C
:1002E00005F09AF90299884211D19DF80C00012875
:1002F0000DD19DF80D00012809D108208DF80000CE
:1003000090A006F0CBF804E00A2004F0E6FE012DF0
:100310000BD1002201A9B06804F0C7FA00231A46E5
:100320006946B06804F041F80025FA2004F0D5FED3
:1003300001F098FA01F0B2FA9DF800000828B2D056
:1003400095E71CB5002003F04EFA11208DF8070048
:1003500001208DF805008DF806008DF8040001A934
:10036000002003F0F2FA40208DF8030000208DF801
:1003700000008DF801008DF80200694603F06BFA69
:10038000012003F030FA43F2F221002003F0C2FD15
:100390001CBD10B5012186B0080702F0ACFA01209F
:1003A00003F08CFE002002F07CFA012002F0B6F986
:1003B0000121042002F081FA4FF4804000900320D4
:1003C000634C8DF804006946204602F0BBF84FF4F8
:1003D000004100916946204602F0B4F8412002F045
:1003E00065F90028FAD04FF4807002F045FA012038
:1003F00002F057FA03F030F97F200390FF200490B9
:100400004020029002A803F0C2F906B010BD1CB54E
:10041000FFF7BFFF002003F085FDA0F54851F2393A
:1004200001D0FFF78EFF4FF4E1314A4800F0BBFFE7
:10043000002001F0D1F9012001F0CEF9022001F0F5
:10044000CBF9032001F0C8F90021084601F02DFA8C
:1004500001F00CFA01F0F4F901F020FA0121002278
:10046000084603F00FFF284C00220821A060052059
:1004700003F008FF6060A0B1A06890B105214FF4BF
:10048000027000F08FF9002105200B46CDE9000134
:100490004FF4827230A1AFF23B2004F0B1FC05F0C2
:1004A00030F8FEE710B5002001F049FA80B10020D5
:1004B00015490A8840EA420080B240F46040088052
:1004C000A0F57F41FF3901D0002010BD012010BDF3
:1004D0000120EDE7202080F31188BFF34F8FBFF399
:1004E0006F8F05F03EFF01461FA005F0D7FFFEE726
:1004F000202080F31188BFF34F8FBFF36F8F1FA0B1
:1005000005F0CCFFFEE70000000000200D0A537943
:100510007374656D20737461727400000D0A5379F1
:100520007374656D2073746172742052533438355E
:10053000427573002E000000525334383520534C5E
:1005400041564500476F20746F2049444500000024
:100550000008024000100140436F6E74726F6C20FF
:100560005461736B000000000D0A66726565486592
:10057000617073697A65203D202564000D0A53740B
:1005800061636B204F766572666C6F7720486F6F82
:100590006B0000000CB500225449009201920868DB
:1005A00040F4803008604FF4A063086800F4003025
:1005B00001900098401C0090019810B90098984252
:1005C000F3D10868800334D50120019047484030BA
:1005D000026842F0805202604548026842F480425C
:1005E00002604248083002680260026842F4004239
:1005F0000260026842F4A0520260031F3D4A1A6082
:100600000A6842F080720A600A689201FCD53A4991
:1006100040F205220A60016821F0030101600168CF
:1006200041F0020101600168C1F381010229FAD1A0
:100630000CBD01920CBD314810B5016841F4700148
:1006400001602A48016841F001010160274A002148
:100650000832116002682A4B1A400260031D294AC1
:100660001A60026822F48022026020480C30016087
:10067000FFF790FF21494FF000608039086010BDFE
:1006800070B51A4D083528681F4B204910F00C0032
:1006900004D01F4E042803D0082803D00B601BE0B1
:1006A0000E6019E0114A121D1068C0F380541068E2
:1006B00000F03F0014B1B6FBF0F001E0B3FBF0F046
:1006C00013681268C3F388135843C2F30142521CE3
:1006D0005200B0FBF2F0086028680C4AC0F3031027
:1006E000121D105C0A68C2400A6070BD00380240EA
:1006F000007000400C544007003C024088ED00E0D0
:10070000FFFFF6FE103000240024F4000C0000204F
:10071000001BB7007047FEE7FEE7FEE7FEE7704705
:100720007047704705F063BD704710B5054C012157
:10073000204602F0DAFE2046BDE81040002102F01B
:10074000A3BB0000000400400EB51BA004F064FF32
:100750001C4C00901E2004F0C0FC002202A920685E
:1007600004F02FF99DF808000728F3D100234FF477
:1007700016520821184600F0E7FA00F055FB012058
:100780008DF805008DF804000F4800231A466946CD
:10079000006803F00AFE642004F09FFC00F060FB98
:1007A000FA20F9E71CB50023CDE90013024602A1A7
:1007B000064804F025FB1CBD525334383520534CF9
:1007C00041564500080000200400002049070008A9
:1007D00010B501210022084603F054FD1A490028F3
:1007E000086000D0012010BD08B500238DF800007E
:1007F00015481A466946006803F098FF012800D0A2
:10080000002008BD38B5104D04460022694628680E
:1008100004F0D7F89DF8000020709DF8000050B15A
:10082000012808D0022806D0032804D01E2004F096
:1008300054FC002038BD207000226946286804F06E
:1008400034F8012038BD000020000020F0B4C74A71
:10085000C74B95154FF48064961459B1E8B101283F
:100860001DD002281DD003281ED110211046F0BC37
:1008700001F0CDBE50B101280AD002280AD00328C9
:1008800012D110211046F0BC01F0C3BE2146F9E799
:10089000294600E031461846F5E72146E6E72946B5
:1008A00000E031461846E2E7F0BC704738B1012855
:1008B00007D0022807D0032800D1AE487047AE48C1
:1008C0007047AE487047AE48704738B501218DF883
:1008D0000010AC4C002840F225514FF000000ED023
:1008E000FFF7E4FF012201F01EFB00210846FFF79D
:1008F000ADFF00226946206803F0D7FF38BDFFF73F
:10090000D5FF002201F00FFB01210020FFF79EFF21
:1009100000231A466946206803F047FD38BD08B534
:10092000984D994C4FF0FF3632466946286803F0DF
:10093000BCFF20688047F7E738B1012807D00228BC
:1009400007D0032800D12620704727207047472072
:100950007047342070477CB501218DF804100221C6
:100960008DF807108DF805100021804E8DF80610C7
:10097000A8B17F4D01281FD0022820D003280DD117
:10098000102000900121082001F097FF69463046B1
:1009900001F0D8FD1021304601F03BFE7CBD4FF444
:1009A000806401210820009401F087FF69463046E9
:1009B00001F0C8FD2146EEE74FF4807401E04FF4EA
:1009C000805401210420009401F077FF69462846F5
:1009D00001F0B8FD21462846DEE7F0B5074687B0AE
:1009E00014460E460020FFF761FF00F033FC0020A4
:1009F000FFF75CFF00F06BFC0020FFF7ACFF00206E
:100A0000FFF79AFF8DF8180006208DF819000025D1
:100A10008DF81A5001208DF81B0006A801F0DBFAB2
:100A2000029724B1012C05D0022C35D105E0ADF898
:100A3000105006E04FF4C06001E04FF48060ADF864
:100A40001000072E06D0082E26D124B17002ADF872
:100A50000C0002E004B3ADF80C500C20ADF812000D
:100A6000ADF80E50ADF814500020FFF71FFF02A99B
:100A700001F049F90020FFF719FF012240F225514A
:100A800001F051FA0020FFF711FF012101F0ACF94C
:100A90003C4C206818B111E0002007B0F0BD0121E6
:100AA0000022084603F0EEFB20600D20CDE9000592
:100AB0000023822235A1384804F0A2F90120ECE796
:100AC00008B501460020FFF7F1FE01F0B3F9002060
:100AD000FFF7ECFE402101F03EFA0028F7D001209C
:100AE0008DF80000274800231A466946006803F085
:100AF0005CFC012008BD10B504460020FFF7D6FEBF
:100B000001F09CF92070012010BD08B50020FFF70E
:100B100013FF8DF8000006208DF8010000208DF8ED
:100B200002008DF80300684601F055FA0020FFF737
:100B3000BDFE002101F058F908BD704710B540F224
:100B400025510D4801F011FA002804D0134800681F
:100B5000BDE81040004710BD40F22551084801F0A3
:100B600004BA40F22551054801F0FFB9000C0240DB
:100B700000080240004400400048004000140140CA
:100B8000004C00402400002058000020736572696A
:100B9000616C20706F6C6C001F090008540000200D
:100BA0007FB54B4D4FF0804668802878B8BB012157
:100BB000084601F0A0FE1C208DF80C0007208DF8DF
:100BC0000D0000248DF80E4001208DF80F0003A8C1
:100BD00001F001FA7015ADF8080064200190ADF83D
:100BE00002402820ADF800008DF80A4069463046E2
:100BF00002F0D2F80021304602F022F901213046FD
:100C000002F028F90521304602F008F901213046AA
:100C100002F06BFC01221146304602F046FC686887
:100C200028B904210022084603F02CFB686000214B
:100C3000304602F0F3F80121304602F025F904B005
:100C4000012070BD1CB50020019001208DF800002E
:100C50006420ADF802001E48022301AA69464068DC
:100C600003F064FD1CBD1CB50020ADF8060000902B
:100C70008DF80400164802236A4601A9406803F073
:100C800055FD1CBD7CB5124C002501956946606878
:100C900003F06EFF9DF80000012812D1BDF802009C
:100CA000401E0004000CADF8020004D109488DF884
:100CB000005000688047022301AA6946606803F07B
:100CC00035FDBDE87C400121880702F00EBC000024
:100CD000280000205C000020F0B51A4E491E89B2A1
:100CE0000025174C36888F18642F26D8891B89B2A7
:100CF0007BB1012B22D11DE034F811301B0A00F822
:100D0000013B14F81130491C521E00F8013B89B216
:100D100092B2002AF0D111E010F8013B1B0224F836
:100D2000113010F8016B334324F81130491C521E66
:100D300089B292B2002AEFD100E001252846F0BD29
:100D4000980100203000002070B51446064629B1F5
:100D5000F72903D86E4D084629710EB102241BE015
:100D60006C4929616C4969616C49E9606C49A96108
:100D70000021E9616B4929626B4969626B49A9628B
:100D80001A46214600F0D4F8040005D1FFF720FDF3
:100D900020B16E7101202870204670BD0324FBE74E
:100DA00070B50446401E0D467E282CD804F090F9FC
:100DB00057482C30BDB1002200EBC2014B680BB18B
:100DC000AB4205D100F8324000EBC200456002E0C2
:100DD000521C102AF0DB102A01D0002400E0042469
:100DE00004F0E7F810E0002110F83120A24206D10B
:100DF000002200F8312000EBC1004260EDE7491C01
:100E00001029F1DBE9E70224204670BD404810B507
:100E100001780024012902D00624204610BDC169B2
:100E20000029FAD08847F8E770B5394D00242878B2
:100E3000012802D00624204670BD28698047002082
:100E40002870F8E710B5324C207818B1012805D089
:100E5000062010BD6069804701202070002010BD71
:100E600038B52B4C207808B1062038BD6846FFF70E
:100E7000C9FC012849D19DF80000E8B3012802D03F
:100E8000022842D10FE0224AA369921D911CC81F7B
:100E9000984788BB60782179884200D060BB0220E7
:100EA000FFF7A2FC31E0A0680121194B0578A5707D
:100EB000E17000212C3313F8312062B1AA4207D12E
:100EC00003EBC1014A681249891D9047E07002E0B6
:100ED000491C1029EFDB607870B1E27882B1002004
:100EE000E080A07840F08001A0680170E188491C92
:100EF00089B2E180425400E007E0E088401CE080D5
:100F0000D4E90213E28820799847002038BD000018
:100F100034000020710F0008910F0008F90F00083D
:100F2000AB0F000861100008C1100008171100087D
:100F300070B516460D46002404F0CAF83246082162
:100F40002846FFF74AFD01280DD1B5F5964F01D986
:100F5000232003E07E496800B1FBF0F080B2FFF788
:100F60001FFE012800D0032404F023F8204670BDA2
:100F700010B504F0ADF87749002048700146012013
:100F8000FFF7A3FCFFF75EFEBDE8104004F011B8C8
:100F900010B504F09DF800210846FFF796FCFFF716
:100FA00062FEBDE8104004F004B82DE9F041164699
:100FB00088460746002404F08BF8664DA888FF2871
:100FC00001D9AFF30080A888042804D3A988624817
:100FD00000F0C4F828B1052403F0EBFF2046BDE87B
:100FE000F0815D4800783870A888C01E30805A486B
:100FF000401CC8F80000EFE72DE9F04791460D4688
:101000000746002604F064F8524C6078012805D0A9
:10101000052603F0CEFF3046BDE8F0876D1E4FF089
:101020000108A5602846A4F802802F70628802EBB0
:1010300009016180618800F091F86188464A53187F
:10104000491C61801870010A60880244401C60805D
:10105000117084F8008001210020FFF736FCD8E7EA
:1010600038B53C4C0025207808B1AFF300806846C5
:10107000FFF741FD617831B1374A012907D00229D4
:1010800010D0032901D1FFF7DDFD284638BD00202F
:10109000A0809DF80000A1880A44491CA18010701E
:1010A00002200BE0A088FF2807D89DF80010A08838
:1010B0000244401CA0801170E5E703206070E2E765
:1010C00070B5244C00256078012801D0AFF3008072
:1010D000217811B101291CD104E000210120FFF782
:1010E000F4FB16E0608850B1A0680078FFF7E8FCD8
:1010F000A068401CA0606088401E608009E003205A
:10110000FFF772FB054600210120FFF7DEFB002000
:101110002070284670BD70B50E4D0024687870B1FF
:1011200002280BD003280DD0687858B168780228BF
:1011300008D06878032805D0AFF300800120FFF7BE
:1011400053FB0446FFF78FFD01206870204670BDF9
:10115000A07F1700E00000206002002070B5094D5C
:10116000FF231A4605F5807605E010F8014B544040
:101170002A5D5A40335D491E89B2F6D242EA032005
:1011800070BD00003066000870B5082A01D9AFF3C1
:101190000080CC08654201EBC5018B4001259540DC
:1011A0006D1E8D400219015D567841EA0621A94362
:1011B00019430155080A507070BD10B5CB085C4248
:1011C00001EBC40401219140C25C1844407842EA1A
:1011D0000020E040491E0840C0B210BD002804D0E5
:1011E000012803D0072803D004207047022070474D
:1011F0000620704770B50C4609880026052925D1C0
:10120000417805790A0281781143491C6A1E89B226
:101210007C2A1BD800222280032200F8012B22887E
:101220000023521C22806A0000F8012B2288521CE5
:1012300022802A46FFF750FD18B1FFF7CFFF064680
:1012400005E0208800EB4500208000E003263046C2
:1012500070BD0000FC4910B5884206D10121102064
:1012600001F053FB012108462CE0F849884202D1E5
:101270000121480404E0F649884206D1012188048E
:1012800001F039FB012108201CE0F249884204D119
:101290000121C80401F02FFB12E0EF49884208D178
:1012A0000121080501F027FB0121042001F005FBC5
:1012B000E8E7EA49884209D10121202001F025FB15
:1012C00001210420BDE8104001F0F7BA10BD2DE95E
:1012D000FC47DFF87483E24AE2494FF400734FF4AD
:1012E000806C404504D1E04F1D4664463E4607E011
:1012F000DFF85883404505D140251646174620247F
:10130000072311E0DFF84883404505D14FF480758D
:10131000164617461C46F3E7CE4B984205D1C41437
:1013200065460E460F4608239946CB4B984205D199
:1013300085140F46042416464FF00809C74A904208
:1013400005D140250E460F4680244FF008090220A3
:101350008DF8040000218DF806108DF807108DF827
:10136000050000956946384601F0ECF869463046BC
:10137000009401F0E7F800216D0803D0491CC9B2C0
:101380000F29F9D94A46384601F050F9002164087E
:1013900003D0491CC9B20F29F9D94A46304601F099
:1013A00045F9BDE8FC877FB5B04C0E460546606048
:1013B000FFF750FF2846FFF78AFF0020ADF8040032
:1013C000ADF80600ADF80800ADF80C000C20009652
:1013D000ADF80A006946606800F095FC012160687C
:1013E00000F002FD7FBD10B5A04C2021606800F028
:1013F000B2FD0028F9D0606800F020FDC0B210BD39
:101400002DE9F0410F4605460024984E0DE029785D
:101410000A290FD06D1C706800F00CFD80217068E7
:1014200000F099FD0028F9D0641CBC42EFD320469F
:10143000BDE8F0810A217068EEE72DE9F041002453
:101440008A4F06464D1EA0462021786800F083FD95
:101450000028F9D0786800F0F1FCC0B2082812D05A
:101460000A2818D00D281BD00A2807D01B2805D021
:10147000AC42E9D23055641CAC42E5D1387890B129
:101480000A20305511E0002CDED0032178A0FFF7B0
:10149000B7FF641ED8E7387828B187F80080D3E713
:1014A00001203870ECE706F804802046C0E710B54C
:1014B0006E4C0146606800F0BDFC8021606800F061
:1014C0004AFD0028F9D0012010BD10B5674C81B24B
:1014D000606800F0AFFC8021606800F03CFD0028EF
:1014E000F9D0012010BD002070470FB42DE9F04F56
:1014F0004FF000092DED028B87B013ADB2EE048AD8
:101500004FF02D0B0DF1080A4AE1002400E0641CA5
:10151000015D252901D00029F9D12146FFF770FF8F
:1015200012982044129001782529EDD1401C002406
:1015300020261290129911F8010B129138282CD004
:1015400014DC332829D008DC25287BD0302824D08F
:10155000312822D032281DD11FE034281DD0352853
:101560001BD0362819D0372814D116E0662832D07F
:1015700008DC392811D0582865D0632819D0642890
:1015800008D11BE070285ED0732879D0752878D0F8
:10159000782858D0052137A000E111F8010C302837
:1015A00001D104B9302604EB8401490030394418D4
:1015B000C0E701CD0190012101A8EFE001CD01902C
:1015C00001980021002803DA40420123019000E045
:1015D00000230A229FE09DED000A4FF00109BDEEB5
:1015E000C00A8DED010AEBE79DED000A4FF00009FE
:1015F000B5EEC00AF1EE10FA03D2B1EE400A8DED5D
:10160000000AF0EE400A9DED010A0027B8EE400AFC
:1016100030EEC00A8DED000A9DED000A20EE080AAA
:101620008DED000ABDEEC00A10EE100A019018B947
:101630007F1CFFB2072FEFD3012110A0FFF7E0FEC0
:10164000002025E0A7E05DE00010014000440040DC
:1016500000480040004C0040005000400014014091
:10166000000C02400008024000000240EC00002094
:10167000082008004552524F520000002E00000082
:1016800026E03AE001214CA0FFF7BAFE0198401C89
:101690000190B842F6D3C7F1070004E020EE080A33
:1016A000401E8DED000A9DED000A10F0FF00F5D1FF
:1016B000BDEEC00A8DED010A9DED000AB5EEC00A2F
:1016C000F1EE10FA6CD0BCEEC00A8DED010A77E79E
:1016D00001CD002600E0761C815D0029FBD131465A
:1016E000FFF78EFEB4425BD9A41B03E0012133A0B7
:1016F000FFF786FE641E53D3F8E701CD00210A22CE
:10170000019007E001CD019002212DA0FFF778FEA6
:101710000021102200230120019F01E06046641E89
:1017200000FB02FCBC4503D8BCFBF2F88045F5D0B9
:1017300033B1641E302E03D10AF801B00023491CD6
:10174000A4F1020CBCF10E0F07D2641E05D0D446E2
:101750000CF80160491C641EFAD113B10AF801B0FB
:10176000491CDFF8608078B1B7FBF0F3B3FBF2FC03
:1017700002FB1C3CD8F80030B0FBF2F013F80CC0B0
:101780000AF801C0491CEEE702A8FFF739FEB9F1DB
:10179000000F05D028E712980121401EFFF730FE08
:1017A0001298017800297FF4B0AE07B0BDEC028B2F
:1017B000BDE8F00F5DF814FB3000000020000000D1
:1017C0003078000030680008FE49FF4A31F81010F8
:1017D00052F82000418370471CB5044601208DF863
:1017E000040002208DF807008DF8050000208DF818
:1017F0000600F448012130F814000090F1480C3044
:1018000050F8240001F059F8EF48694650F82400D8
:1018100000F098FE2046FFF7D7FF1CBDE949EA4AD1
:1018200031F8101052F8200001837047E64951F852
:1018300020104A69E34B33F8100042404A61704778
:101840001CB50121022001F038F801208DF80400B8
:1018500002208DF80500102000906946DB4800F05A
:1018600071FE1CBD0421DA4800F0D3BE1CB5012175
:10187000102001F022F801208DF8040002208DF8DC
:101880000500042000906946D14800F05BFEFFF798
:10189000E9FF1CBD0421CE4800F0B9BE1021CB48A1
:1018A00000F0B7BECBA004F0F9BDF0B50446C548C2
:1018B0000F46343885B050F82400012100F0FDFFB8
:1018C0000121880301F021F8BE4800268DF8106040
:1018D000012538388DF8135030F814000390BA48B9
:1018E00003A91C3850F8240000F02CFE012F24D14D
:1018F000B4483B38015D401E005D01F0B6F8B148C8
:10190000363830F8140000908DF8046008208DF807
:1019100005008DF80650684600F04EFDA9483A389B
:10192000005D8DF808000F208DF809008DF80A0081
:101930008DF80B5002A800F04EFB05B0F0BDA14998
:10194000A14A38391C3A31F8101052F8200000F042
:101950004ABE2DE9FC41884604469A489949103808
:10196000083950F8240051F824100843012100F0F0
:10197000A4FF94480121183850F8240000F0C5FF56
:101980009048914E2038103E10F81420083830F856
:10199000141056F8240000F049FE8A4806F10807A2
:1019A0001C3810F81420083830F8141057F82400A8
:1019B00000F03CFE00208DF8060001208DF80700A5
:1019C0008048022530388DF8045030F8140000901B
:1019D0008DF8055056F82400694600F0B3FD7948AB
:1019E0008DF804502C38694630F81400009057F8F0
:1019F000240000F0A7FDA6F10805414655F8240093
:101A000000F081F955F82400012100F0EDF9BDE85E
:101A1000FC817CB5002001F07DF8002001F07EF80B
:101A200001F050F800214FF4006000F06EFF704CA0
:101A300000220821204600F0F9FD0022092120465D
:101A400000F0F4FD00220A21204600F0EFFD002204
:101A50000B21204600F0EAFD00220C21204600F078
:101A6000E5FD644D00220221284600F0DFFD002143
:101A70004FF470608DF8041000908DF807106946DF
:101A8000204600F05FFD042000906946284600F0E3
:101A900059FDA01400906946204600F053FD7CBD1E
:101AA0002DE9FC4101210E2000F007FF504E0C22D1
:101AB0000821304600F0BAFD0C220921304600F022
:101AC000B5FD0C220A21304600F0B0FD0C220B219E
:101AD000304600F0ABFD0C221146304600F0A6FD6A
:101AE000444F0C220221384600F0A0FD4FF47060F4
:101AF000012400908DF8054002208DF80400002597
:101B00008DF806508DF807406946304600F01AFD02
:101B1000042000906946384600F014FD2003009030
:101B20008DF807506946304600F00CFDE003009048
:101B30008DF804508DF807406946244800F002FDF6
:101B40000121C80200F0E1FE0121880500F0B5FE88
:101B50005DE730B5284D04468FB04FF0FA51284666
:101B600000F0B1FB0021284600F049FB284600F0B8
:101B700085FA4FF0006000902048CDE90104402034
:101B80000390002029150490CDE9050189000791F3
:101B90008900CDE908104FF440300A9004200B90E2
:101BA00003200C9048020D9080100E906946284644
:101BB00000F0ECFA01221021284600F095FB2021CC
:101BC00028461DE07068000814010020000402404F
:101BD000001002400D0A42757A7A657220697320FE
:101BE00062757A7A696E67676767676700000000E9
:101BF00000080240000C024058640240802C014062
:101C000000F011FB0121284600F0F9FA0FB030BDB9
:101C100030B51E4D04468FB04FF0FA51284600F003
:101C200052FB0021284600F0EAFA284600F026FA86
:101C30004FF0006000901648CDE9010400200390A9
:101C400029150490CDE90501890007918900CDE9A6
:101C500008104FF440300A9004200B9003200C90A1
:101C600048020D9080100E906946284600F08EFACA
:101C700001221021284600F037FB2021284600F0E1
:101C8000D2FA0121284600F0BAFABFE758640240B0
:101C9000802C0140C74910B5884206D1012110208F
:101CA00000F065FE0021102028E0C349884202D1DF
:101CB00001214C0410E0C149884202D101218C0469
:101CC0000AE0BF49884202D10121CC0404E0BD49A9
:101CD00088420AD101210C05204600F03EFE204634
:101CE000BDE81040002100F038BEB749884209D154
:101CF0000121202000F03BFE00212020BDE8104003
:101D000000F035BE10BD7FB50446008A0D46C98877
:101D100020F4405001432182A08941F20C618843A4
:101D2000A9882A8911436A8902431143A181A08AA3
:101D300020F44071A8890843A082684600F056FD4F
:101D40009C48844202D0A048844201D1039800E01C
:101D50000298A189090400EBC00101EB0010296879
:101D600001D5490000E08900B0FBF1F06422B0FB2E
:101D7000F2F109010B096FF018056B4300EB8300CA
:101D8000A3891D044FF0320306D503EBC000B0FB5E
:101D9000F2F000F0070005E003EB0010B0FBF2F0FA
:101DA00000F00F00084320817FBD4FF41651016001
:101DB00000218180C18001810C2242818181704794
:101DC00010B5028A4C8822F470630A8822438C88FA
:101DD000C9880C4322431A43028210BD00210180AE
:101DE00041808180C18070470029818902D041F4FF
:101DF000005101E021F4005181817047028B02F40F
:101E00007F420283028B0A43028370470029818943
:101E100002D041F4004101E0C1F30E01818170471D
:101E20000029818A02D041F4006101E021F40061BF
:101E300081827047C1F30801818070478088C0F3B8
:101E400008007047028A22F00F020282028A0A43C7
:101E5000028270470029818902D041F0020101E02D
:101E600021F0020181817047828922F4006282811F
:101E700082890A4382817047028A22F0200202820C
:101E8000028A0A43028270470029018A02D041F483
:101E9000804101E021F4804101827047818941F055
:101EA0000101818170470029818A02D041F0080137
:101EB00001E021F0080181827047028BD2B20283D7
:101EC000028B42EA0121018370470029818A02D0F6
:101ED00041F0200101E021F02001818270470029BA
:101EE000818A02D041F0100101E021F010018182CD
:101EF0007047828A22F004028282828A0A438282A6
:101F000070470029818A02D041F0020101E021F0EE
:101F1000020181827047002A828A01D00A4300E0D0
:101F20008A438282704710B5C1F3421301F01F0447
:101F30000121A140012B07D0022B07D01430002A29
:101F4000026805D00A4304E00C30F8E71030F6E7E9
:101F50008A43026010BD0246002012880A4200D067
:101F600001207047C9430180704770B501F01F051B
:101F700001260024C1F3421306FA05F2012B0FD00B
:101F8000022B0FD0838A4FEA11210088134206FAF0
:101F900001F600EA060001D000B10124204670BD20
:101FA0008389F0E7038AEEE70A0A01219140C943D9
:101FB000018070470010014000440040004800408C
:101FC000004C0040005000400014014028490843E4
:101FD00028490860704730B50F23C2780178012581
:101FE000FAB1244A126801F1E02102F4E062C2F57C
:101FF000E062C2F30722C2F10404D3404278A24057
:1020000084781C401443220181F80024007800F0F9
:102010001F018D404009800000F1E020C0F8005110
:1020200030BD01F01F0085404809800000F1E0202C
:10203000C0F8805130BD104A114001430D48001FC7
:10204000016070470B4A121D0029116801D001433D
:1020500000E08143116070474FF0E02104280869D7
:1020600003D020F004000861704740F00400FAE754
:102070000000FA050CED00E080FFFF1F2DE9F043A2
:10208000016821F00101016000210160416081606F
:10209000C160016121214161B849B84A3D2510392B
:1020A000904202D18D60BDE8F083B44A4FF474666B
:1020B0001832904201D18E60F5E7B04A4FF47417A0
:1020C0003032904201D18F60EDE7AC4A4FF0746C32
:1020D0004832904202D1C1F808C0E4E7A74BA84AB1
:1020E0006033984201D1CA60DDE7A44CA54B783437
:1020F000A04201D1CB60D6E7DFF88082A24C08F184
:102100009008404501D1CC60CDE7DFF870824FF0F8
:102110003D5908F1A808404502D1C1F80C90C2E72A
:102120009A49DFF868820839404501D10D60BAE765
:10213000964D1835A84201D10E60B4E7934D303565
:10214000A84201D10F60AEE7904D4835A84202D1B8
:10215000C1F800C0A7E78D4D8C496035091FA84222
:1021600001D10A609FE7894A7832904201D10B6021
:1021700099E7864A9032904201D10C6093E7834AF6
:10218000A83290428FD1C1F800908CE730B5036837
:102190007F4ACC6813400A682243D1E905452C43A5
:1021A0002243CC6922430C6A22434C6A22438C6A44
:1021B00022434C6B22438C6B22431A4302604269D8
:1021C00022F00703D1E90B2422431A4342610A6932
:1021D00042604A6882608968C16030BD0021016048
:1021E00041608160C160016141618161C1610162E1
:1021F00041628162C162016341638163704700296A
:10220000016802D041F0010101E021F0010101600B
:1022100070470029016802D041F4004101E021F437
:102220000041016070470029016802D041F020019F
:1022300001E021F020010160704741607047406873
:1022400080B27047002A026802D042F4002201E006
:1022500022F400220260016170470029016802D067
:1022600041F4802101E021F48021016070470AB12E
:1022700001617047C1607047014600200968090389
:1022800000D501207047014600200968C90700D029
:1022900001207047406900F03800704702463B4B10
:1022A00000209A4202D2354A103A01E0374A103AE9
:1022B0008B0001D5526800E01268364B1A400A4282
:1022C00000D001207047314A904202D22B4810388A
:1022D00001E02E4810382F4A8B0001EA020101D597
:1022E000C1607047816070470B0607D5436912B122
:1022F00043F0800301E023F080034361802908D08C
:10230000002A026801F01E0101D00A4300E08A435E
:102310000260704730B51D4A0024904202D2174A2D
:10232000103A01E0194A103A1B4B194205D01E23FE
:1023300003EAD12503682B4002E0406900F08003E6
:10234000880001D5506800E01068124A1040084229
:1023500001D003B10124204630BD0C4A904202D284
:102360000648103801E0094810380A4A8B0001EA93
:10237000020101D5C1607047816070471060024062
:102380003D000020400F002000003D20106402406E
:102390003F801CF07D0F7D0F3C0F3C0F3749002024
:1023A0000860091D0860091D0860091D086033499F
:1023B000334814310860704730B5304A837901687A
:1023C00053B313688B431360111D0B680468A34358
:1023D0000B60017911440B68046823430B60274BA1
:1023E000083319680468A14319601C1D2168056839
:1023F000A94321604179102905D011440A68006879
:1024000002430A6030BD19680268114319602168EF
:1024100000680143216030BD0079104402688A439E
:10242000026030BD0021016001710C224271817196
:102430007047124910310A6802430A60704701462A
:102440000E4A0020143212680A4200D00120704760
:102450000A49143108607047084A01460020126892
:10246000064B0A4014331B680B4202D0002A00D0EE
:10247000012070470149143108607047003C014059
:10248000FFFF7F00714910B5884206D1012108463F
:1024900000F045FA002101204FE06D49884206D145
:1024A0000121022000F03BFA0021022045E06949A9
:1024B000884206D10121042000F031FA00210420D5
:1024C0003BE06549884206D10121082000F027FA47
:1024D0000021082031E06149884206D10121102005
:1024E00000F01DFA0021102027E05D49884206D146
:1024F0000121202000F013FA002120201DE059497D
:10250000884206D10121402000F009FA0021402034
:1025100013E05549884206D10121802000F0FFF9DF
:102520000021802009E0514988420AD18415012107
:10253000204600F0F4F900212046BDE8104000F0EC
:10254000EEB910BDF0B5002201274FF0030C0B6867
:1025500007FA02F52B40AB422CD1066853000CFA67
:1025600003F4A64306600E79D0F800E09E4046EAE8
:102570000E0606600E79012E01D0022E12D1866859
:10258000A64386604E79D0F808E09E4046EA0E06E3
:1025900086604668AE43466045688E799640B6B21E
:1025A00035434560C568A543C560CC799C40C36888
:1025B0001C43C460521C102AC9D3F0BD4FF6FF71F2
:1025C00001600021017141718171C171704708B5CD
:1025D00041F480320092C261C1610099C161C16958
:1025E000C069009008BD0246002012690A4200D06E
:1025F00001207047006980B270470246002052698E
:102600000A4200D001207047406980B270470183C0
:102610007047418370470AB1018370474183704717
:102620004161704742694A40426170474B07DB0E87
:102630009A40C90810B500EB8100016A0F249C4044
:10264000A1430162016A1143016210BD0000024012
:102650000004024000080240000C0240001002404A
:102660000014024000180240001C024000200240FA
:10267000EC48016841F001010160EA4A002108329A
:1026800011600268E84B1A400260031DE74A1A60B5
:10269000026822F480220260E2480C300160704738
:1026A000E0490022891C0A70087070470246002029
:1026B000510901290CD002290CD0DA49743109687A
:1026C00002F01F02012393400B4200D0012070470B
:1026D000D449F4E7D3497031F1E718B500204FF43D
:1026E000A06400903120FFF7E1FF0099491C0091A0
:1026F000A14201D00028F5D03120FFF7D7FF0028F4
:1027000000D0012018BDC74A116821F0F80141EA44
:10271000C00010607047C64908607047C149002278
:1027200070310A700A70012802D0042801D10520F6
:1027300008707047BF490860704741EA82115A0823
:1027400010B5BD4B029C03EB02421143014341EA29
:102750000460B449091D086010BDB549086670479A
:10276000800140EA0170AF49843108607047B04988
:1027700088667047AE49C8647047AA4B08331A6828
:10278000084322F0EC62104318607047A54B0833F1
:102790001A68084322F07842104318607047A14A33
:1027A0000832116821F003010143116070479D4810
:1027B0000830006800F00C0070479A4A083211682F
:1027C00021F0F001014311607047964A0832116808
:1027D00021F4E051014311607047924A08321168B8
:1027E00021F4604141EAC0001060704770B58D4B24
:1027F00008331968914C11F00C0104D0904E042953
:1028000003D0082903D004601EE006601CE0854A5E
:10281000121D1168C1F38055116801F03F012DB1FF
:10282000B6FBF1F41168C1F3881104E0B4FBF1F1D7
:102830001468C4F3881412686143C2F30142521C45
:102840005200B1FBF2F1016019680F2202EA111186
:102850007C4A545C0168E14041601C68072505EA38
:102860009424145D21FA04F484601B6805EA533350
:10287000D25CD140C16070BDC0F30121032908D1F1
:10288000684B08331968704A21F4F81102400A4372
:102890001A60644970310A68C0F30B0002430A6091
:1028A000704764494439086070476249403908609C
:1028B00070475F49C1F85C0170475A4A30320029BD
:1028C000116801D0014300E0814311607047554A0F
:1028D00034320029116801D0014300E081431160C6
:1028E0007047504A38320029116801D0014300E096
:1028F0008143116070474B4A40320029116801D072
:10290000014300E0814311607047464A4432002988
:10291000116801D0014300E0814311607047414AD2
:1029200010320029116801D0014300E08143116099
:1029300070473C4A14320029116801D0014300E07D
:10294000814311607047374A18320029116801D05D
:10295000014300E0814311607047324A2032002970
:10296000116801D0014300E08143116070472D4A96
:1029700024320029116801D0014300E08143116035
:102980007047284A50320029116801D0014300E005
:10299000814311607047234A54320029116801D0E5
:1029A000014300E08143116070471E4A58320029FC
:1029B000116801D0014300E0814311607047194A5A
:1029C00060320029116801D0014300E081431160A9
:1029D0007047144A64320029116801D0014300E0B5
:1029E0008143116070470F4A0D320029117801D0E0
:1029F000014300E08143117070470A487430016858
:102A000041F08071016070470146064A00200C3297
:102A100012680A4200D00120704702490E31087046
:102A20007047000000380240FFFFF6FE103000241F
:102A300000004742800E47420000FFFF0024F400E0
:102A4000001BB70028010020FFFCFF0F10B501217B
:102A50008C032046FFF78BFF2046BDE81040002185
:102A6000FFF785BF13490860704710B58A0721F04A
:102A700003041149120F21440F23D1F80848934051
:102A80009C43C1F80848D1F8083890400343C1F886
:102A9000083810BD0949C1F8DC00704708490860D2
:102AA00070470449002020310968C90500D501207C
:102AB000704700000038014000300140000027420C
:102AC0000004274210B50121CC022046FFF74FFF3A
:102AD0002046BDE810400021FFF749BF30B5644BE8
:102AE0001A6847F6FF618A43017D8468C5682143FF
:102AF00044682C4321430468006921430143114386
:102B0000196030BD00210175016041608160C160C4
:102B1000016170475749C1F8A00070475449091F27
:102B2000086070475248001F006800F003007047BB
:102B30004F4A10B5121D01681160131D1968D0E9C4
:102B400001242243D0E9034004436FF30A012243E6
:102B50000A431A6010BD0021016041608160C160BC
:102B60000161704742480C300068C0B2704740496C
:102B700008B5103108440090006808BD3C4A10B503
:102B8000203201681160121D41681160131D19681F
:102B9000D0E902242243D0E90440044321F0F701A4
:102BA00022430A431A6010BD4FF0FF31016000213B
:102BB00041608160C1600161416170472C482C30E7
:102BC000006870472A487C300068704728497C318B
:102BD00008607047264844300068704726490860FE
:102BE00070472549091D086070472349083108606E
:102BF000704721490C31086070471E49C1F8AC018B
:102C000070471C49C1F8B001704701218143194840
:102C1000C0F8B41170471749C1F8B8017047164998
:102C2000143908607047124A38320029116801D0FF
:102C3000014300E081431160704701460C4A0020C7
:102C4000303212680A4200D00120704708493431FE
:102C5000086070470146064A0020303212680A4276
:102C600000D00120704702493431086070470000ED
:102C7000042C014000802542A0852542FE4910B564
:102C8000884206D101210846FFF771FE002101208C
:102C90005BE0B0F1804F09D0F84988420DD10121A5
:102CA0000220FFF75AFE0021022070E001210846B1
:102CB000FFF753FE0021012069E0F149884206D167
:102CC00001210420FFF749FE002104205FE0ED49C7
:102CD000884206D101210820FFF73FFE002108208D
:102CE00055E0E949884206D101211020FFF735FE61
:102CF000002110204BE0E549884206D10121202027
:102D0000FFF72BFE0021202041E0E149884206D157
:102D100001210220FFF72BFE0021022015E0DD49F2
:102D2000884202D101210C040AE0DB49884202D129
:102D300001214C0404E0D94988420AD101218C04C4
:102D40002046FFF714FE00212046BDE81040FFF7A3
:102D50000EBED349884206D101214020FFF7FDFD78
:102D60000021402013E0CF49884206D10121802074
:102D7000FFF7F3FD0021802009E0CB4988420AD10A
:102D8000841501212046FFF7E8FD00212046BDE81B
:102D90001040FFF7E2BD10BD30B50288B64CBC4D07
:102DA000A0420DD0A8420BD0B0F1804F08D0B34B59
:102DB000984205D0B24B984202D0B24B984203D110
:102DC00022F070034A881A43AF4B984206D0AF4BAB
:102DD000984203D022F440730A891A4302804A6859
:102DE000C2620A880285A04201D0A84201D1897A34
:102DF00001860121818230BD4FF0FF314160002109
:102E00000180018141808172704701858282704713
:102E1000028822F070020A430280704741627047C4
:102E2000C1627047406A7047008D70470029018871
:102E300002D041F0020101E021F00201018070475F
:102E40000029018802D041F0040101E021F00401D1
:102E5000018070470029018802D041F0800101E023
:102E600021F0800101807047028822F00802028070
:102E700002880A4302807047028822F4407202806E
:102E800002880A43028070470029018802D041F07D
:102E9000010101E021F001010180704730B5028C91
:102EA00022F001020284028C8388048B22F0020249
:102EB00024F073050C882C438D8915434A882A43D6
:102EC0006D4DA84202D0724DA8420DD122F00805E6
:102ED000CA8923F440732A4322F004058A882A43CE
:102EE0000D8A1D434B8A2B43838004838968416389
:102EF000028430BD70B5028C22F010020284028C74
:102F00008388048B0D8824F4E6464FF6FF7404EAA8
:102F1000052535438E8922F0200204EA0616164361
:102F20004A8804EA02123243534EB04202D0584E4D
:102F3000B04215D122F08006CA8923F4406304EA26
:102F40000212324322F040068A8804EA0212324317
:102F50000E8A04EA86061E434B8A04EA830333433F
:102F60008380058389688163028470BD70B5028C9B
:102F700022F480720284028C8388848B0D8824F072
:102F8000730425438E894FF6FF7422F4007204EA1D
:102F9000062616434A8804EA02223243364EB042DD
:102FA00002D03B4EB04215D122F40066CA8923F408
:102FB000405304EA0222324322F480668A8804EAFB
:102FC000022232430E8A04EA06161E434B8A04EAA2
:102FD00003133343838085838968C163028470BD92
:102FE00070B5028C22F480520284058C8288838B17
:102FF0000C8823F4E6464FF6FF7303EA04243443B7
:1030000025F400568D8903EA053535434E8803EAD9
:1030100006362E43184DA84202D01D4DA84205D1B8
:1030200022F480450A8A03EA82122A43828084833A
:1030300089680164068470BD00210180418081801F
:1030400081608181C18101824182704730B5012454
:10305000058C00F118038C40A543058431B3082981
:103060002CD0091FC1F34E001844016848F6FF73C5
:103070001940016001681AE00000014000040040AE
:1030800000080040000C0040001000400014004008
:10309000000401400040014000440140004801405C
:1030A00000180040001C00400020004006E04FF6E1
:1030B000FF7303EA02221143016030BD03EB5100AC
:1030C00001684FF68F73194001600168F3E74163AF
:1030D000704781637047C163704701647047028B1A
:1030E00022F070020A4302837047028B4FF6FF738F
:1030F00022F4E04203EA0121114301837047828BED
:1031000022F070020A4382837047828B4FF6FF736E
:1031100022F4E04203EA0121114381837047028BCC
:1031200022F008020A4302837047028B4FF6FF73B6
:1031300022F4006203EA0121114301837047828B6C
:1031400022F008020A4382837047828B4FF6FF7396
:1031500022F4006203EA0121114381837047028B4C
:1031600022F004020A4302837047028B4FF6FF737A
:1031700022F4806203EA0121114301837047828BAC
:1031800022F004020A4382837047828B4FF6FF735A
:1031900022F4806203EA0121114381837047028B8C
:1031A00022F080020A4302837047028B4FF6FF73BE
:1031B000C2F30E0203EA0121114301837047828B9F
:1031C00022F080020A4382837047828B4FF6FF739E
:1031D000C2F30E0203EA0121114381837047028C7E
:1031E00022F002020A4302847047028C22F0080295
:1031F0000A4302847047028C4FF6FF7322F02002CC
:1032000003EA0111114301847047028C4FF6FF73EA
:1032100022F0800203EA0111114301847047028CFD
:103220004FF6FF7322F4007203EA01211143018477
:103230007047028C4FF6FF7322F4006203EA01210B
:10324000114301847047028C4FF6FF7322F4005241
:1032500003EA013111430184704710B50123048C46
:103260008B409C430484038C8A401343038410BD29
:1032700010B50423048C8B409C430484038C8A4047
:103280001343038410BD828B22F440628283828BBD
:103290004FF6FF7303EA01210A4382837047828B52
:1032A00022F00C028283828B0A4382837047028B56
:1032B00022F440620283028B4FF6FF7303EA01217E
:1032C0000A4302837047F0B5048C24F01004048490
:1032D000078B068C4FF6FF7404EA011527F4734739
:1032E00004EA0331394304EA02220A4326F0A0012A
:1032F000294341F0100102830184F0BD028B22F0CA
:103300000C020283028B0A43028370472DE9F041CD
:103310000C460E884988A288238905460EB3042EE0
:1033200026D0082E2E8C4FF6FF7028D026F480561B
:103330002E84AF8B2E8C00EA022200EA013127F4A2
:1033400073473A4300EA0330104326F420420A430D
:1033500042F48051A8832984E1882846BDE8F041E1
:1033600091E700F062F9E1882846BDE8F041C5E741
:10337000FFF7A9FFE1882846BDE8F04197E726F46A
:1033800080762E84AF8B2E8C00EA012100EA031098
:10339000104327F0F307384326F420620A4342F42F
:1033A0008071A8832984E1882846BDE8F04176E74A
:1033B00000210180418001228280C180018170470B
:1033C0002DE9F0410C46002649880746012501B940
:1033D0000226A288012A00D10225208823890028FC
:1033E000384610D0FFF76FFFE1883846FFF75FFFE0
:1033F00023892A463146384600F017F9E1883846D5
:10340000BDE8F0417AE700F010F9E1883846FFF7AF
:1034100075FF23892A4631463846FFF754FFE18875
:103420003846BDE8F04142E7406B7047806B70471B
:10343000C06B7047006C704710B50A884B88CC8809
:103440001A438B8823431A430B891A434B89898972
:103450001A430A43A0F8442010BD00210180418096
:103460008180C1800181418181817047002930F8CC
:10347000441F02D041F4004101E0C1F30E0101807C
:1034800070470029818802D041F0040101E021F059
:103490000401818070470029818802D041F0010138
:1034A00001E021F0010181807047002A828901D06A
:1034B0000A4300E08A438281704781827047024656
:1034C0000020128A0A4200D001207047C9430182BD
:1034D000704702460020138A92890B4202EA0102D9
:1034E00002D0002A00D001207047C94301827047F2
:1034F0001143A0F848107047002A828901D00A437E
:1035000000E08A43828170470029818802D041F01F
:10351000080101E021F0080181807047018921F054
:10352000070101817047028922F070020A4302817B
:10353000704700B50346FFF7F6FF188940F0070013
:10354000188100BD70B516460D46602904464FF03F
:10355000010231460AD000F068F829462046FFF7FC
:10356000E2FF208940F00700208170BDFFF7ABFE2D
:10357000F3E730B504894FF6FF7505EA03231343DB
:10358000E4B20B432343038130BD10B50446FFF77B
:10359000F0FF208940F07700208110BD10B504466F
:1035A000FFF7E7FF208940F48040208110BD82882A
:1035B00022F07002828082880A43828070470289EA
:1035C00022F00702028102890A43028170470289C0
:1035D00022F08002028102890A430281704770B59D
:1035E0000589048B068C25F007050D434FF6FC4139
:1035F0000C4040F201110C434FF6FF7101EA031138
:1036000026F022061143314305810483018470BDF5
:103610000029818802D041F0800101E021F0800181
:1036200081807047A0F85010704770B5048C24F06A
:1036300001040484058B048C4FF6FF7606EA03131D
:10364000134325F0F3052B4324F00A020A4342F00A
:1036500001010383018470BD18B50020FA4B00906E
:10366000CA20186053201860F7491839086820F0FC
:10367000A00008604FF400340868009A00F02000B1
:10368000521C0092A24201D00028F5D008688006A2
:1036900001D5012000E00020FF21196018BD08B508
:1036A000E9490020183900900868400612D44FF00C
:1036B000FF3008608B130868009A00F04000521C2D
:1036C00000929A4201D00028F5D00868400601D443
:1036D000002008BD012008BD78B50024DA4ECA20BC
:1036E00000942546306053203060FFF7D8FFE0B3E8
:1036F000D54824380460D44942F2011020390860CA
:103700000B1D186800F0070018608D131A1D106853
:10371000009900F00400491C0091A94201D0002842
:10372000F5D01068400729D518681C60C6494FF6C7
:10373000FF7010390860091FC4480860C2480C387F
:103740000460001D0460001D0460BF480830046070
:10375000BD4818300460BC4820300460001D04607F
:103760001460B9481C30046000E003E0FFF774FF08
:1037700020B10125FF203060284678BD0025F9E7FB
:10378000B1481838016821F080010160704770B5B8
:10379000AD4E04460025CA20306053203060FFF74C
:1037A0007EFFA8B1A8481C38016821F040010160E3
:1037B0000168226811430160A348A16814380160C0
:1037C0000168A28841EA02410160FFF7D9FF0125A3
:1037D000FF203060284670BD002101607F214160DC
:1037E000FF2181607047984908B1FF2002E0CA209C
:1037F000086053200860704770B5934E054600245A
:10380000CA20306053203060FFF749FF60B18E4816
:103810001C38016815B141F0100101E021F01001E0
:103820000160FFF7ADFF0124FF203060204670BD2E
:10383000854ACA2111605321116083491C3900282F
:10384000086802D040F0200001E000F0DF000860CE
:10385000FF20106070472DE9F0410C4600267C4F98
:1038600001002078396832464FEA416104D00029CE
:103870002FDA00F008FC2DE0002900DBE27000F0F8
:10388000F6FB0504607800F0F2FB45EA0025A0781D
:1038900000F0EDFB0543E07845EA00456A4CCA209C
:1038A000206053202060FFF7FAFE68B169480540A8
:1038B000674808380560FFF763FF3868800602D460
:1038C000FFF7CAFE00B10126FF2020603046BDE8A8
:1038D000F081E270A078217840EA01456078E178D3
:1038E000000240EA01400543D8E70021C1700170A1
:1038F000417081707047020010B557480C4601684E
:10390000544801EA0001C1F305402070C1F30623C9
:10391000637001F07F03A3704FF0400303EA11418D
:10392000E1700AD100F0AFFB2070607800F0ABFBD3
:103930006070A07800F0A7FBA07010BD4248001D89
:1039400000684349091F0968704770B50C46002696
:10395000010060780FD000F096FBA07800F093FB98
:10396000A078E17840EA014560782178000240EAD9
:103970004130054315E0C10603D520F010000A30A0
:103980006070E07800F073FB0504607800F06FFB76
:1039900045EA0025A07800F06AFB0543207845EA57
:1039A0004035294CCA20206053202060FFF777FE65
:1039B00070B12A4805402648001F0560FFF7E0FE69
:1039C00023480068800602D4FFF746FE00B10126B6
:1039D000FF202060304670BD012101708170417070
:1039E0000021C1707047020010B51D480C460168E7
:1039F0001A4801EA00014FEA1140E070C1F30423C4
:103A0000637001F03F03A370C1F3423121700AD10A
:103A100000F039FBE070607800F035FB6070A07852
:103A200000F031FBA07010BD70B514460D46084A79
:103A30000021002810684FEA406013D000282ADADD
:103A4000207800F020FB27E024280040FF007F00C2
:103A5000082800407F7F7F00002800403FFFFF00D4
:103A600004280040002800DBE170207800F0FFFA15
:103A70000604607800F0FBFA46EA0026A07800F021
:103A8000F6FA0643E07846EA0046207B00F0EFFABB
:103A900046EA006010E0E170207B00F0F4FAA078C4
:103AA0002178E27840EA01406178090241EA024166
:103AB0000843217B40EA0160A1680843616808432C
:103AC000F849CA220A6053220A60B5F5807F04D003
:103AD0000A1F1060FF20086070BDF24A083AF8E73C
:103AE0000021C170017041708170012281600273F8
:103AF0004160704710B514460246B1F5807F2AD068
:103B0000E848001F0168C1F305402070C1F3062397
:103B1000637001F07F03A370402303EA1143E37055
:103B2000C1F30563237301F0804301F08031C4E9E0
:103B30000113002A0ED100F0A6FA2070607800F080
:103B4000A2FA6070A07800F09EFAA070207B00F0CE
:103B50009AFA207310BDD3480838D3E738B500224D
:103B6000D04C0092CA22226053222260CD4A1C3AD5
:103B70000029116802D00143116012E081431160F5
:103B8000C84A183A95131168009B01EA10215B1C82
:103B90000093AB4201D00029F5D0116811EA102042
:103BA00000D00120FF21216038BD10B5BD4BCA24D3
:103BB0001C6053241C601143B0F5807F05D0B948C8
:103BC00024300160FF20186010BDB6482030F8E7AF
:103BD000B0F5807F05D0B34824300068C0F30E00F4
:103BE0007047B0482030F8E7AE4ACA21116053212F
:103BF0001160AC491C390B6823F007030B600B689C
:103C000003430B60FF2010607047A649CA220A6078
:103C100053220A60A34A103A1060FF2008607047E0
:103C2000A0481038006880B2704718B500219D4B3D
:103C30000091CA211960532119609A491C39002842
:103C4000086803D040F48060086014E020F48060CD
:103C50000860944918398C130868009A00F0040031
:103C6000521C0092A24201D00028F5D008684007FB
:103C700001D4002000E00120FF21196018BD894B0C
:103C800010B5CA221A6053221A60864A1C3A146878
:103C900024F4802414601468084304431460FF2053
:103CA000186010BD7F481C38006800F48020704701
:103CB0007C4B10B5CA221A6053221A60794A1C3A0A
:103CC000146824F4E0041460146808430443146086
:103CD000FF20186010BDF0B5724D06460024CA20C2
:103CE0000F46286053202860FFF7D9FC30B16D489B
:103CF0003E430C380660FFF743FD0124FF20286097
:103D00002046F0BD70B5674E05460024CA203060DD
:103D100053203060FFF7C3FC60B162481C38016873
:103D200015B141F0800101E021F080010160FFF751
:103D300027FD0124FF203060204670BD594ACA216A
:103D400011605321116057491C390028086802D0BE
:103D500040F4000001E020F400000860FF20106043
:103D60007047504ACA211160532111604D491C39D6
:103D70000B6823F400230B600B6803430B60FF20E8
:103D800010607047F0B5474D0023CA242C605324BF
:103D90002C60444C183C2668F60308D54FF40036D6
:103DA0002768FF0303D5B34201D05B1CF8E7236803
:103DB000DB0306D408433B49104318310860012057
:103DC00000E00020FF212960F0BD364B10B51C3B00
:103DD0001A6840F60804A24342EA000209B142F41C
:103DE00000623048CA210160532101601A60FF213E
:103DF000016010BD70B50D462A4914460C310968A2
:103E0000294A1140274A103212684FF63F731A4070
:103E1000C1F305432B70C1F306236B7001F07F03E0
:103E2000AB70402303EA1141E9700021E170C2F355
:103E30000421617002F03F01A170C2F34231217090
:103E4000002817D1287800F01EF92870687800F053
:103E50001AF96870A87800F016F9A870607800F078
:103E600012F96070A07800F00EF9A070207800F0D0
:103E70000AF9207070BD0B48143000687047094A79
:103E80001C320029116803D041EA400010607047DD
:103E900021EA4000FAE7034A1C320029116805D0E4
:103EA000014304E0242800407F7F7F0081431160AC
:103EB000704779490A6822F4C0520A600A680243CE
:103EC0000A60704774490A6822F4E0620A600A686E
:103ED00002430A60704770490A6822F4C0420A60CF
:103EE0000A6802430A6070476B490028086802D0DC
:103EF00040F0800001E020F08000086070476649D3
:103F00000028086802D020F4004001E040F400409E
:103F100008607047604A08B5103202EB80000090DC
:103F2000016008BD5C4908B5103101EB80000090CC
:103F3000006808BD58490A6822F480320A600A689D
:103F400002430A60704754490A6822F400320A604A
:103F50000A6802430A6070474F490A6822F48022C7
:103F60000A600A6802430A60704770B54A4C002232
:103F7000CA231C3C236053232360474B343B1D68FA
:103F80002D0707D59E141D682D0703D5B24201D019
:103F9000521CF8E71A6812070DD43F4A383A1268E3
:103FA000D20608D401433C4814380160FFF754FBA3
:103FB00010B1012000E00020FF21216070BD30B56C
:103FC000354DCA221C3D2A6053222A60324C20F013
:103FD0000402383C0029304B216800F0040004D072
:103FE000114321601968014303E09143216019687E
:103FF00081431960FF20286030BD02462649002019
:1040000034390968254B1940114200D0012070470E
:1040100080B240F08000C1431F483438026802F08B
:1040200080021143016070471B4A0021126802F0B0
:104030000403194A383A126803EAD03302401A439B
:10404000174B1B6803EA101003D00004000C00D0CB
:10405000012108467047C0F30F1040F08000C143B3
:104060000F48026802F0800211430160704700218E
:1040700003E0491C0A38C9B2C0B20A28F9D20907BC
:1040800040EA11607047010901EB810100F00F0067
:1040900000EB4100C0B27047402800407F3F010064
:1040A0000C28004010B501210C072046FEF755FCF6
:1040B0002046BDE810400021FEF74FBC2A490862A7
:1040C00070472A4A116821F0E001014311607047EE
:1040D0002549086170472449C1F8A000704722496A
:1040E000C1F8A400704721490028086803D040F4B3
:1040F00080400860704720F48040FAE71A4948621F
:1041000070471A4B1A6822F0030202431A601848DB
:10411000026842F004020260012905D020BF016854
:1041200021F004010160704730BFF8E70F480168D3
:1041300041F004010160016841F0020101600C4896
:10414000016841F00401016030BF7047074A014631
:10415000002052680A4200D00120704703490A68D3
:1041600042EA80000860704700000E420070004084
:1041700010ED00E000F108014FF0FF32C0E901123C
:10418000C160016100210160704700210161704739
:1041900042684A6093688B609368596091600861D7
:1041A0000168491C0160704730B50C68621C02D080
:1041B00000F1080202E0026904E01A4653681D6833
:1041C000A542FAD953684B6099608A6051600861D2
:1041D0000168491C016030BDD0E9013201699A6073
:1041E000D0E901235A604A68824201D182684A605C
:1041F000002202610868401E0860086870470000DD
:1042000070B50D46040025D001F0C4FFD4E90F209D
:10421000216802FB001161600021A1632168A16097
:104220000A46D4E90F01401E00FB0121E16021464E
:104230004FF0FF3001F8440F487004F110008DB1C9
:10424000FFF798FF04F12400FFF794FF01F0BEFF91
:10425000012070BD202080F31188BFF34F8FBFF382
:104260006F8FFEE721690029F0D001F0FDFA0028E8
:10427000ECD0FF494FF080500860BFF34F8FBFF381
:104280006F8FE3E72DE9F04117460E46050016D083
:10429000EEB105FB06F0503001F0F2FF04000CD047
:1042A00004F15000AEB12060C4E90F562046012150
:1042B000FFF7A6FF204684F84C70BDE8F08120206F
:1042C00080F31188BFF34F8FBFF36F8FFEE700209D
:1042D000E1E72460E8E72DE9F041044601F05AFFE8
:1042E00094F9455004F1240609E0606A48B130466B
:1042F00001F0BAFA08B101F07AFB6D1E6DB2002D23
:10430000F3DC4FF0FF3684F8456001F05FFF01F009
:1043100041FF94F9445004F1100709E0206948B1C5
:10432000384601F0A1FA08B101F061FB6D1E6DB2D3
:10433000002DF3DC84F84460BDE8F04101F046BF95
:104340002DE9F041856B174604460026026C82B1C8
:10435000C7B1E06802F022F8E168206C091AE16058
:104360002268914202D26168081AE060022F16D0DA
:1043700017E02068A8B9606801F08EFB06460020AF
:1043800060600EE0A06802F009F8216CA0680844A3
:10439000A0606168884204D32068A06001E005B194
:1043A0006D1E6D1CA563304687E72DE9FF4F83B076
:1043B0001F468B4604004FF0000603D0BBF1000FF0
:1043C00008D011E0202080F31188BFF34F8FBFF396
:1043D0006F8FFEE7206C38B1202080F31188BFF387
:1043E0004F8FBFF36F8FFEE7DFF884924FF0000A24
:1043F0004FF08058022F0AD1E06B012807D020200F
:1044000080F31188BFF34F8FBFF36F8FFEE701F08A
:10441000C1FEA06BE16B884205D3022F03D0059843
:10442000C8B1DEB11EE03A4659462046FFF788FF84
:10443000616A19B104F1240001F016FA28B1C9F833
:104440000080BFF34F8FBFF36F8F01F0BFFE0120DD
:1044500007B0BDE8F08F01F0B9FE21E0684601F039
:1044600089FA012601F0B2FE00F032FE01F092FE60
:1044700094F94400401C01D184F844A094F945000B
:10448000401C01D184F845A001F0A0FE05A96846B2
:1044900001F076FA30B12046FFF71DFF00F089FDEC
:1044A0000020D5E701F076FEA06BE16B884201D1D8
:1044B000012500E0002501F089FE95B104F110000E
:1044C000059901F099F92046FFF705FF00F071FD0D
:1044D00000289CD1C9F80080BFF34F8FBFF36F8FC6
:1044E00095E72046FFF7F7FE00F063FD8FE710B574
:1044F000024600210120FFF7C5FE041E07D000215F
:10450000416001600B460A46C160FFF74EFF20463E
:1045100010BD10B5040009D001F075FA6168884239
:1045200014D1E068401EE06008D00DE0202080F348
:104530001188BFF34F8FBFF36F8FFEE700231A463A
:1045400019462046FFF731FF012010BD002010BDA5
:104550002DE9F3434FF0000583B004002E460ED042
:10456000DFF80C91206C00274FF0805878B12020A4
:1045700080F31188BFF34F8FBFF36F8FFEE72020CA
:1045800080F31188BFF34F8FBFF36F8FFEE701F009
:1045900001FEA06BC8B1401EA063206810B901F0F5
:1045A0001EFB6060206950B104F1100001F05CF95D
:1045B00028B1C9F80080BFF34F8FBFF36F8F01F0B0
:1045C00005FE012005B0BDE8F083049808B165B18F
:1045D0000FE03EB1202080F31188BFF34F8FBFF36F
:1045E0006F8FFEE701F0F2FD61E0684601F0C2F96D
:1045F000012501F0EBFD00F06BFD01F0CBFD94F91E
:104600004400401C01D184F8447094F94500401CDA
:1046100001D184F8457001F0D9FD04A9684601F084
:10462000AFF90028204612D0FFF755FE00F0C1FC7C
:10463000204600F074FB0028A9D08EB301F0AAFD3B
:10464000606A70B3206B0068C0F10F012BE000F0CE
:1046500066FBF8B1206838B901F09CFD606801F094
:10466000D5F9064601F0B2FD04F12400049901E0F9
:1046700004ED00E001F0C0F82046FFF72CFE00F04A
:1046800098FC002883D1C9F80080BFF34F8FBFF397
:104690006F8F7CE72046FFF71EFE00F08AFC76E76E
:1046A00005E0FFE70021606801F03EFA9AE700208C
:1046B00088E770B50D46040009D001F0A4F96168DF
:1046C00088420CD1E068401CE060012070BD2020D1
:1046D00080F31188BFF34F8FBFF36F8FFEE729463A
:1046E0002046FFF735FF0028F0D0E168491CE16063
:1046F00070BD10B50C4648B184420FD9202080F31C
:104700001188BFF34F8FBFF36F8FFEE7202080F338
:104710001188BFF34F8FBFF36F8FFEE70222002196
:10472000FFF7B0FD002800D0846310BD2DE9F047ED
:104730001F4690468946040003D0B9F1000F08D007
:1047400011E0202080F31188BFF34F8FBFF36F8FEC
:10475000FEE7206C38B1202080F31188BFF34F8F23
:10476000BFF36F8FFEE7022F0AD1E06B012807D05D
:10477000202080F31188BFF34F8FBFF36F8FFEE7C8
:1047800001F049FD2020EFF3118680F31188BFF37B
:104790004F8FBFF36F8FA06BE16B884206D3022F60
:1047A00004D0002086F31188BDE8F08794F94550C5
:1047B0003A4649462046FFF7C3FD681C04D06D1CED
:1047C00084F845500120EDE7606A0028FAD004F132
:1047D000240001F049F80028F4D0B8F1000FF1D01E
:1047E0000121C8F80010EDE770B50E46040009D0AD
:1047F000206C78B1202080F31188BFF34F8FBFF376
:104800006F8FFEE7202080F31188BFF34F8FBFF337
:104810006F8FFEE7206848B9606838B1202080F3C8
:104820001188BFF34F8FBFF36F8FFEE701F0F3FCEA
:104830002020EFF3118580F31188BFF34F8FBFF372
:104840006F8FA16BE06B884218D994F94500491C21
:10485000A163411C04D0401C84F8450001200EE0F7
:10486000606A0028FAD004F1240000F0FDFF00285F
:10487000F4D0002EF2D001203060EFE7002085F365
:10488000118870BD30B4026C0B46002A0BD0C16891
:104890001144C1604468A14201D30168C16030BCC9
:1048A000184601F07BBD30BC70472DE9F74783B057
:1048B0008A4604004FF0000608D00027DFF87894FD
:1048C0004FF08058BAF1000F08D011E0202080F39B
:1048D0001188BFF34F8FBFF36F8FFEE7206C38B1A5
:1048E000202080F31188BFF34F8FBFF36F8FFEE757
:1048F00001F050FCA56BBDB151462046FFF7C2FF49
:104900006D1EA563206950B104F1100000F0ACFFEA
:1049100028B1C9F80080BFF34F8FBFF36F8F01F04C
:1049200055FC012006B03FE7059808B11EB106E02E
:1049300001F04CFC27E0684601F01CF8012601F06C
:1049400045FC00F0C5FB01F025FC94F94400401C37
:1049500001D184F8447094F94500401C01D184F8D9
:10496000457001F033FC05A9684601F009F80028FC
:1049700020460AD0FFF7AFFC00F01BFB204600F0FA
:10498000CEF90028B4D00020CCE700F0C8F990B1EF
:1049900004F12400059900F02FFF2046FFF79BFC4F
:1049A00000F007FB0028A3D1C9F80080BFF34F8FA8
:1049B000BFF36F8F9CE72046FFF78DFC00F0F9FAFC
:1049C00096E72DE9F74382B0894604004FF00005D1
:1049D00008D00026DFF860834FF08057B9F1000F50
:1049E00008D011E0202080F31188BFF34F8FBFF370
:1049F0006F8FFEE7206C38B1202080F31188BFF361
:104A00004F8FBFF36F8FFEE701F0C4FBA06BB0B117
:104A100049462046E568FFF735FFE560606A50B11A
:104A200004F1240000F020FF28B1C8F80070BFF3A3
:104A30004F8FBFF36F8F01F0C9FB0120C2E50498CF
:104A400008B11DB106E001F0C1FB27E0684600F0A7
:104A500091FF012501F0BAFB00F03AFB01F09AFB4F
:104A600094F94400401C01D184F8446094F9450055
:104A7000401C01D184F8456001F0A8FB04A96846F8
:104A800000F07EFF002820460AD0FFF724FC00F04B
:104A900090FA204600F043F90028B5D0002091E5B7
:104AA00000F03DF990B104F12400049900F0A4FE57
:104AB0002046FFF710FC00F07CFA0028A4D1C8F8CB
:104AC0000070BFF34F8FBFF36F8F9DE72046FFF756
:104AD00002FC00F06EFA97E72DE9F0479046894610
:104AE000040003D0B9F1000F08D011E0202080F3BA
:104AF0001188BFF34F8FBFF36F8FFEE7206C38B183
:104B0000202080F31188BFF34F8FBFF36F8FFEE734
:104B100001F081FB2020EFF3118780F31188BFF3B0
:104B20004F8FBFF36F8FA66BF6B194F9445049468F
:104B30002046FFF7A7FE761EA663681C04D06D1CF6
:104B400084F84450012010E020690028FAD004F1D4
:104B5000100000F089FE0028F4D0B8F1000FF1D069
:104B60000121C8F80010EDE7002087F311881BE64B
:104B70002DE9F0410E4604001AD00EB3206C48B364
:104B800001F049FB2020EFF3118580F31188BFF37A
:104B90004F8FBFF36F8FA06B30B131462046E7686F
:104BA000FFF770FE0120E76085F31188BDE8F08112
:104BB000202080F31188BFF34F8FBFF36F8FFEE784
:104BC000006C38B1202080F31188BFF34F8FBFF302
:104BD0006F8FFEE7202080F31188BFF34F8FBFF364
:104BE0006F8FFEE710B5040006D001F0D3FAA46B76
:104BF00001F0ECFA204610BD202080F31188BFF3AD
:104C00004F8FBFF36F8FFEE710B5040008D001F09F
:104C1000C1FAD4E90E10441A01F0D8FA204610BDAA
:104C2000202080F31188BFF34F8FBFF36F8FFEE713
:104C300008B1806B7047202080F31188BFF34F8F3D
:104C4000BFF36F8FFEE73D4A002102EBC1035B68B3
:104C5000834206D1002042F8310002EBC1014860D6
:104C60007047491C0829F0D3704710B5040006D0DE
:104C7000FFF7E9FF2046BDE8104001F056BB2020B9
:104C800080F31188BFF34F8FBFF36F8FFEE7806C07
:104C900070478164704790F84C00704718B1806B82
:104CA00048B100207047202080F31188BFF34F8F58
:104CB000BFF36F8FFEE70120704728B1816BC06B97
:104CC000814209D101207047202080F31188BFF371
:104CD0004F8FBFF36F8FFEE70020704710B5174B63
:104CE000002253F832401CB1521C082AF9D310BDDF
:104CF00043F8321003EBC201486010BD10B5002428
:104D00000E4A214602EBC1035B68834202D152F88E
:104D1000314002E0491C0829F4D3204610BD10B5EB
:104D2000044601F037FAA06B20B1002401F04EFADE
:104D3000204610BD0124F9E704ED00E060030020E7
:104D40002DE9F041054601F025FAF94EB068401C06
:104D5000B0603068F74F10B1706930B32BE0356048
:104D6000B068012827D1002404EB840007EB800001
:104D7000FFF700FA641C0F2CF6D3EF48FFF7FAF99F
:104D8000ED481430FFF7F6F9EB482830FFF7F2F959
:104D9000E9483C30FFF7EEF9E7485030FFF7EAF911
:104DA000E54870631430B06305E03068E96AC06AB2
:104DB000884200D83560706A0121401C70626864C6
:104DC000E86A326981401143316100EB800007EBF2
:104DD0008000291DFFF7DCF901F0F8F9706900285F
:104DE0000CD03068E96AC06A884207D2D3494FF0D4
:104DF00080500860BFF34F8FBFF36F8FBDE8F08125
:104E00002DE9FF5F8346DDE90E87994616468A46FF
:104E1000900001F035FA05001AD05C2001F030FA5C
:104E2000040012D025630021CDE90241CDE90087BD
:104E30004B4632465146584601F08BF82046FFF764
:104E40007FFF012004B0BDE8F09F284601F06DFA15
:104E50004FF0FF30F6E770B5044601F09BF9B44D12
:104E600004B92C68201DFFF7B7F958B9E06AB14AB8
:104E700000EB800152F8211021B9012181402869FD
:104E800088432861A06A18B104F11800FFF7A4F95B
:104E9000686A401C68622868844208D1A648211DBF
:104EA0003C30FFF775F96868401C686007E0A86847
:104EB000401EA860204601F0A6F801F097F801F026
:104EC00085F96869002814D02868844211D1286BBC
:104ED00038B1202080F31188BFF34F8FBFF36F8F5D
:104EE000FEE796494FF080500860BFF34F8FBFF345
:104EF0006F8F70BD2DE9F0418D4F0026386B38B1B2
:104F0000B869401CB861F86900B10126304675E700
:104F1000FD686D1CFD6013D1786B006838B12020EE
:104F200080F31188BFF34F8FBFF36F8FFEE7786B6D
:104F3000B96B7963B863386A401C386201F056F87F
:104F4000B86ADFF8F081854209D3786B006880B1D8
:104F5000786BC068C468606885420DD2B8623868F2
:104F6000C06A00EB800158F821000128CBD9012646
:104F7000C9E74FF0FF30F1E7201DFFF72DF9A06AD8
:104F800018B104F11800FFF727F9E06A01213A6926
:104F900081401143396100EB800108EB8100211D44
:104FA000FFF7F6F8E06A3968C96A8842CDD301266E
:104FB000CBE72DE9F0475E4D00242746286B38B13A
:104FC00001F0E8F8286B401E2863286B40B147E0E9
:104FD000202080F31188BFF34F8FBFF36F8FFEE760
:104FE000A868554928310126D0B3DFF84891884692
:104FF000D8F80010E9B1D8F80C00C46804F1180022
:10500000FFF7EAF8201DFFF7E7F8E06A2A6906FAD9
:1050100000F11143296100EB800109EB8100211DA2
:10502000FFF7B6F8E06A2968C96A8842E0D3EE6102
:10503000DEE70CB100F0DAFFAC693CB1FFF75AFFD4
:1050400000B1EE61641EF9D10020A861E86938B1B1
:105050003A49012738070860BFF34F8FBFF36F8FBE
:1050600001F0B4F83846BDE8F0872DE9F041304E44
:105070000F460446F5683068001DFFF7ADF838B9F3
:10508000306890F82C1001208840316981433161EB
:10509000601C08D13FB13168BDE8F041264850306E
:1050A000091DFFF775B830682C44AC424460316884
:1050B00005D2B06BBDE8F041091DFFF775B8706B04
:1050C000091DFFF771F8B06A844200D2B46295E618
:1050D0001748016B491C0163704710B5020014D0DA
:1050E0001348006B38B1202080F31188BFF34F8F35
:1050F000BFF36F8FFEE7FFF7EBFF00211046FFF7CE
:10510000B4FFFFF756FF002807D10C494FF080503D
:105110000860BFF34F8FBFF36F8F10BD70B50500F0
:105120000ED0034E3068854212D1002070BD0000C1
:1051300038010020A0030020CC04002004ED00E092
:10514000202080F31188BFF34F8FBFF36F8FFEE7EE
:1051500001F020F86C6901F039F8706B844202D0DC
:10516000B06B844201D10220E0E7FB48844204D1C5
:10517000A86A0028F7D10320D8E7F74814388442FA
:1051800002D00CB10120D1E70420CFE710B50446CE
:1051900001F000F80CB9F1480468E46A01F016F86F
:1051A000204610BD10B5044601F035F82020EFF37D
:1051B000118180F31188BFF34F8FBFF36F8F0CB94C
:1051C000E6480468E06A81F3118810BD2DE9F041DA
:1051D00000260D4604460F2907D3202080F31188AE
:1051E000BFF34F8FBFF36F8FFEE700F0D3FFDB4FAE
:1051F00004B93C68E06CA8423FD03968854206D9C2
:105200008C4207D03968C96AA94202D902E08C42AF
:1052100000D10126E16A8846884200D1E562E56452
:10522000A069002802DBC5F10F00A061CC4D08EB9E
:105230008800616905EB8000814215D1201DFEF7D1
:10524000CBFF012120B93A6901FA08F082433A61A3
:10525000E06A3A6981401143396100EB800005EB57
:105260008000211DFEF794FF3EB1BE494FF08050F3
:105270000860BFF34F8FBFF36F8FBDE8F04100F0C0
:10528000A5BF10B5B54C206B10B10120E06110BD79
:105290000020E061206821680068096B884204D81A
:1052A000216820683431FBF723F92069AC49B0FA52
:1052B00080F0C0F11F0000EB800051F820206AB19F
:1052C00001EB800000F108024168496841609142A9
:1052D00001D149684160C868206010BD202080F37A
:1052E0001188BFF34F8FBFF36F8FFEE770B5044691
:1052F00000F050FF994D04B92C68201DFEF76CFF9B
:1053000058B9E06A964A00EB800152F8211021B9A1
:1053100001218140286988432861A06A18B104F1FD
:105320001800FEF759FF211D8B48FEF731FF94F856
:1053300058000026012801D184F8586000F046FF8B
:10534000686928B100F026FF00F050FE00F03EFF33
:105350002868844213D1686990B1286B38B1202045
:1053600080F31188BFF34F8FBFF36F8FFEE77D4946
:105370004FF080500860BFF34F8FBFF36F8FD5E6BB
:1053800075480068A968884201D12E60CEE6BDE864
:10539000704076E7002150B16F4B42699A420FD1BD
:1053A000806AA3F1280290420AD040B108E0202090
:1053B00080F31188BFF34F8FBFF36F8FFEE701219A
:1053C0000846704770B504002BD0644D28688442AD
:1053D0002FD000F0DFFE2046FFF7DCFFE8B1201DF4
:1053E000FEF7FAFEE06A01212A6981401143296132
:1053F0005B4900EB800001EB8000211DFEF7C8FE39
:10540000E06A2968C96A884207D356494FF080503C
:105410000860BFF34F8FBFF36F8FBDE8704000F09F
:10542000D5BE202080F31188BFF34F8FBFF36F8F5D
:10543000FEE77BE62DE9F0410026040016D000F0DF
:10544000EAFE2020EFF3118580F31188BFF34F8F20
:10545000BFF36F8F2046FFF79DFF30B33F4F386B90
:1054600060B13D4804F1180128381CE0202080F389
:105470001188BFF34F8FBFF36F8FFEE7E06A396883
:10548000C96A884200D30126201DFEF7A5FEE06A06
:1054900001213A69814011433961314900EB8000B3
:1054A00001EB8000211DFEF773FE85F31188304665
:1054B000A4E4294E294D143E294F4FF08058DFF8BF
:1054C000A49011E000F066FEF068C468201DFEF7AD
:1054D00083FEA868401EA8606868401E686000F0EF
:1054E00075FE204600F08FFD68680028EAD1386814
:1054F0000128F9D9C9F80080BFF34F8FBFF36F8F30
:10550000F2E71CB5154800242C30CDE900402346B5
:10551000822215A11648FFF773FC012809D0401C10
:1055200019D1202080F31188BFF34F8FBFF36F8F05
:10553000FEE7202080F31188BFF34F8FBFF36F8FFA
:1055400006484FF0FF31816201214161C460BDE82E
:105550001C4000F0A1BD1CBD1C050020380100202E
:10556000A003002004ED00E049444C450000000089
:10557000B3540008202080F31188BFF34F8FBFF38E
:105580006F8FF9490020486100F0F6BDF648C06809
:10559000704710B500F03FFEF348C06810BDF248F8
:1055A0008068704708B9F048006808B13430704727
:1055B000202080F31188BFF34F8FBFF36F8FFEE77A
:1055C000F0B5026800252AB3426800F10806526867
:1055D0004260B24201D1536843604268D768426872
:1055E00052684260B24201D1536843604268D36856
:1055F00000229C1811F802C094F83440A44503D14D
:1056000024B1521C102AF4D325B901E01D46FBE752
:10561000BB42E4D12846F0BD2DE9F04107460F25F5
:1056200000F0E0FE102807D3202080F31188BFF39C
:105630004F8FBFF36F8FFEE7FFF74AFDCB4E6D1E16
:1056400005EB850006EB80003946FFF7B9FF040043
:105650001AD1002DF3D1C44D3946686BFFF7B0FF66
:10566000040011D13946A86BFFF7AAFF04000BD143
:105670003946BF48FFF7A4FF040005D1BC483946AE
:105680001438FFF79DFF0446FFF793FC20463EE4E5
:105690002DE9F0410C46B4491746A8B1054605F17D
:1056A0003400C4E90050E86A2061286BE061686C4E
:1056B000A0600026E86CC4E90506052B12D0086836
:1056C000854203D1267311E00D68E8E72373032BAD
:1056D0000CD1FFF7FDFCA86A08B102202073FFF788
:1056E00068FC03E02846FFF719FD207357B100213D
:1056F000286B01E0401C491C0278A52AFAD08808D2
:10570000208404E42684E2E42DE9F0478146086819
:1057100092460C460025F8B1486801F10806406839
:105720004860B04201D140684860D0F80C806068A1
:1057300042686260B24201D151686160606805EB05
:10574000C50109EB8101C768534601223846FFF7BE
:105750009FFF6D1C4745EAD1284684E42DE9F047B8
:1057600017460A46064600240F25FFF7B1FCDFF86E
:10577000F881D8F8080082423AD3DFF8F0916D1E24
:1057800005EB850104EBC40009EB810106EB800009
:105790000122FFF7B9FF0444002DF0D104EBC4004F
:1057A00006EB800002224546D8F83410FFF7ACFF24
:1057B000044404EBC40006EB80000222A96BFFF74F
:1057C000A3FF04446A4904EBC40006EB80000422F2
:1057D0001439FFF799FF044404EBC40006EB800082
:1057E00003226349FFF790FF04440FB100203860A3
:1057F000FFF7DFFB204636E410B50C4648B15A49A6
:1058000009681831FEF7D0FC2046BDE810400121A0
:105810002BE4202080F31188BFF34F8FBFF36F8FED
:10582000FEE710B5144678B14F4B1A6BA2B11A6857
:1058300041F00041916119681831FEF7A9FC20463A
:10584000BDE81040012110E4202080F31188BFF34F
:105850004F8FBFF36F8FFEE7202080F31188BFF3D7
:105860004F8FBFF36F8FFEE72DE9F041C068C4682A
:10587000ACB104F118000746FEF7AEFC3A4D286BB8
:105880000126A0B13A4839462838FEF781FCE06A83
:105890002968C96A88421AD90120EE6117E42020DC
:1058A00080F31188BFF34F8FBFF36F8FFEE7201D8A
:1058B000FEF792FCE06A2A6906FA00F111432961B9
:1058C0002A4900EB800001EB8000211DDDE700206C
:1058D000EEE570B5244D2A6BFAB141F0004101604C
:1058E000C46814B3FEF778FC201DFEF775FCE06A6F
:1058F00001262A6906FA00F1114329611B4900EBD0
:10590000800001EB8000211DFEF742FCE06A29685F
:10591000C96A884200D9EE6108E4202080F311882A
:10592000BFF34F8FBFF36F8FFEE7202080F3118806
:10593000BFF34F8FBFF36F8FFEE710B504000AD09F
:1059400000F028FC0848016A2160C0686060BDE87A
:10595000104000F03BBC202080F31188BFF34F8F34
:10596000BFF36F8FFEE7000038010020A003002086
:105970001C050020FD490A6A0260C9684160704741
:105980002DE9F0410C46050011D0C4B100F002FC35
:10599000F64EF1686B682268C81A571C17D02F683A
:1059A000366AB74218D08B4216D8012410E0202066
:1059B00080F31188BFF34F8FBFF36F8FFEE7202076
:1059C00080F31188BFF34F8FBFF36F8FFEE7002482
:1059D00000F0FCFB20466BE5824205D9101A2060DE
:1059E0002846FFF7C7FFF2E700202060DDE7DF4928
:1059F0000120C8617047002800D0806C70470028E3
:105A000000D081647047D9480068704770B50400C1
:105A10004FF0000039D0D54DE16A2A68D26A914230
:105A200034D2A069002804DB2868C06AC0F10F00E6
:105A3000A061E06ACE4E00EB8000616906EB800059
:105A400081421ED1201DFEF7C7FB012150B9E06A3B
:105A500000EB800256F8222022B92A6901FA00F0F0
:105A600082432A612868C06AE0622A698140114342
:105A7000296100EB800006EB8000211DFEF788FB0A
:105A800002E02868C06AE062012078E4E16C2A68DC
:105A9000D26A9142F8D372E470B504004FF000006E
:105AA00041D0B24D29688C4207D0202080F3118864
:105AB000BFF34F8FBFF36F8FFEE7216D71B1491EAA
:105AC0002165E36CE26A9A422DD000292BD1201D7A
:105AD000FEF782FBA649012240B112E0202080F3AC
