:020000040800F2
:1000000008D9012089190108590D00085B0D000865
:100010005D0D00085F0D0008610D00080000000084
:100020000000000000000000000000009D0100082A
:10003000650D000800000000F9010008690D0008C6
:10004000A3190108A3190108A3190108A31901089C
:10005000A3190108A3190108A3190108A31901088C
:10006000A3190108A3190108A3190108A31901087C
:10007000A3190108A3190108A3190108A31901086C
:10008000A3190108A3190108A3190108A31901085C
:10009000A3190108A3190108A3190108A31901084C
:1000A000A3190108A3190108A3190108A31901083C
:1000B000A9430008AD0D0008A3190108A319010800
:1000C000A3190108A3190108A3190108A31901081C
:1000D000A3190108A3190108F541000811420008FD
:1000E000A3190108A3190108A3190108A3190108FC
:1000F000A3190108A3190108A3190108A3190108EC
:10010000A3190108A3190108A3190108A3190108DB
:100110002D420008A3190108A3190108A319010819
:10012000A3190108A3190108A3190108A3190108BB
:10013000A31901086D0D0008A3190108A3190108EE
:10014000A3190108A3190108A3190108A31901089B
:10015000A3190108A3190108A319010849420008BD
:10016000A3190108A3190108A3190108A31901087B
:10017000A3190108A3190108A3190108A31901086B
:10018000A3190108A3190108DFF80CD011F00AFD2A
:1001900000480047090A000808D901202C4B1968BB
:1001A0000868B0E8F04F80F30988BFF36F8F4FF015
:1001B000000080F3118870470000000008480068C4
:1001C000006880F308884FF0000080F3148862B65E
:1001D00061B6BFF34F8FBFF36F8F00DF00BF00BF6B
:1001E00008ED00E0DFF80C00016841F470010160E7
:1001F000704700BF88ED00E0EFF30980BFF36F8F19
:10020000134B1A681EF0100F08BF20ED108A20E96A
:10021000F04F106009B44FF0500080F31188BFF325
:100220004F8FBFF36F8F10F034FB4FF0000080F35F
:10023000118809BC19680868B0E8F04F1EF0100F6B
:1002400008BFB0EC108A80F30988BFF36F8F704746
:10025000DC010020EFF30580704700004FF4FA76D0
:10026000304610F042FAFC4C012584F82D5094F8E9
:100270002F0040F0200084F82F00F8A011F030FD8E
:10028000304610F032FAF0E72DE9F041F248C0258F
:100290009038A82705704770012484703221C170FE
:1002A000FF210171417181710026C671057247728B
:1002B0008472C4720673EEA1103011F0EFFBE648B1
:1002C000EBA1743811F0EAFBE348C721683800F865
:1002D000015B00F8017B00F8024B00F8011CE6A16D
:1002E00011F0DCFBDC48E7A1243811F0D7FBDA4839
:1002F000E6A1183811F0D2FBD748E6A10C3811F06E
:10030000CDFBD54A062010701471547110765676C4
:10031000022082F82C0082F82D40032000EB80019F
:1003200002EB8101401C0E714E711178C0B2814206
:10033000F4D8BDE8F04101F03DB8012786B00020B7
:100340008DF80C008DF8100005464FF0040A4FF0B0
:10035000030B4FF005080EE06EB100200BF082FC9D
:1003600001200BF07FFC02200BF07CFC03200BF043
:1003700079FC002620E000200BF04AFC01200BF065
:1003800047FC02200BF044FC03200BF041FC01264B
:1003900012E0DFF8C492022404EB840109EB81002F
:1003A00080790128A4F10200C0B221D00BF030FC0A
:1003B000641CE4B2062CEFD3B84C207868B100F08E
:1003C00026FF50B172B600F0F5FF62B600F028FFCC
:1003D00000202070B2A011F083FC9DF80C000928C9
:1003E00077D2DFE800F008104F6ADBEFA87DEE005F
:1003F0000BF038FCDCE7AEA011F072FC01208DF8A8
:100400000C00AFA03BE0B5A011F06AFC002201A9EE
:1004100060680FF052FD01285BD1B1A010F004FC20
:1004200001998842F8D19DF808000128F4D19DF87F
:1004300009000328F0D1ADA011F052FCB3A011F0D7
:100440004FFC854F903FF8780090BB787A783978E8
:10045000B8A011F045FCF8790090BB797A79397928
:10046000C1A011F03DFCF87A0090BB7A7A7A397A13
:10047000CAA011F035FC02208DF80C00D4A011F0B8
:100480002FFC2EE295A011F02BFC002201A9606840
:100490000FF013FD0128BFD1D4A010F0C5FB0199C6
:1004A000884231D19DF808000128B5D19DF8090096
:1004B0000228B1D18DF80CB013E201F005F86648BE
:1004C00068380068411C07D030B107208DF80C0057
:1004D00000E075E0C8A0D2E7CC4811F001FC5AE07A
:1004E0007EA011F0FDFB002201A960680FF0E5FC81
:1004F000012891D1C6A010F097FB019988428BD1B9
:100500009DF80800012806D0C4A010F08DFB0199C9
:1005100088422DD0E3E19DF809000128FAD1062098
:100520008DF80C00C1A011F0DBFB02214FF47A70B2
:1005300002F0E1F9D5E1002201A960680FF0BDFCED
:100540000128E7D1C0A010F06FFB0199884209D1C2
:100550009DF808000128DDD19DF809000128D9D1B6
:10056000082044E0ADA010F05FFB0199884204D15F
:100570009DF8080001286DD0B1E1B6A010F054FB41
:10058000019988421CD19DF80800012818D19DF8D6
:100590000900012814D18DF80CA0A2E1002201A9C4
:1005A00060680FF08AFC01280AD190A010F03CFB93
:1005B0000199884204D19DF80800012803D070B148
:1005C0008DE125E016E09DF8090001282CD10BF003
:1005D0008DFB9DA010F028FB0FF045FF6AE79DF80A
:1005E0000900022820D10BF081FB9DF810008DF846
:1005F0000C0076E1FFF748FEBFF34F8F984908687B
:10060000984A00F4E06010430860BFF34F8FFEE7A4
:10061000002201A960680FF050FC012804D19DF868
:10062000080010B1012816D059E12DA010F0FCFAF5
:10063000019988420DD06DA010F0F6FA0199884218
:1006400007D081A010F0F0FA0199884201D19DF8FD
:10065000095044E11DE107E1D002002053656E64BA
:10066000206461746120746F20446573740000001D
:1006700061646D696E0000006C6F63616C686F731C
:10068000740000004443303200000000746573744D
:100690000000000031323334000000000000002070
:1006A0000D0A466C617368207570646174650000A2
:1006B0000D0A53797374656D207374617274000050
:1006C0000D0A53797374656D20636F6E6E65637484
:1006D0002045746865726E65740000002E0000008D
:1006E00044484350205461736B0000000D0A0945D3
:1006F000746865726E6574206164617074657220DF
:1007000045746865726E65743A0000000D0A090947
:10071000436F6E6E656374696F6E2D737065636988
:1007200066696320444E53205375666669782020BD
:100730002E203A000D0A090949507634204164649C
:10074000726573732E202E202E202E202E202E2018
:100750002E202E202E202E202E203A2025642E25DD
:10076000642E25642E2564000D0A09095375626EF6
:100770006574204D61736B202E202E202E202E209C
:100780002E202E202E202E202E202E202E203A20ED
:1007900025642E25642E25642E2564000D0A090982
:1007A00044656661756C7420476174657761792072
:1007B0002E202E202E202E202E202E202E202E20C9
:1007C0002E203A2025642E25642E25642E256400D3
:1007D0000D0A53797374656D207374617274207798
:1007E000656273657276657200000000485454506B
:1007F000205461736B0000000D0A53797374656DAA
:1008000020737461727420706F727400C8240108C0
:10081000525334383520534C415645004B455920EE
:100820005343414E205461736B0000000D0A53790D
:100830007374656D20636F6E6E65637420746F20D2
:1008400073657276657200004D5154542054617383
:100850006B000000554450205461736B0000000091
:100860000CED00E00400FA05AFF28C1010F0DCF99A
:100870000199884233D0AFF28C0010F0D5F901997C
:1008800088422CD0AFF26C0010F0CEF9019988426A
:1008900006D19DF80900022821D18DF80C801EE0B8
:1008A000AFF25C0010F0C0F90199884217D19DF8B1
:1008B000090005280AD0032808D0022806D00628F7
:1008C00004D0092805D0012808D008E00BF00EFA62
:1008D00005E00BF00BFA0BF001FA00E00025012F08
:1008E0000BD1002204A9A0680FF0E7FA00231A46F2
:1008F00003A9A0680FF061F80027FA200FF0F5FEB9
:100900000BF0D4F90BF0EEF99DF80C0008283FF439
:1009100040AD21E530B400208F4B0246322400EB7D
:10092000800103EB8101401C4A71CA718A71C0B217
:100930008C600628F3D330BC00F02EBE1CB500201E
:100940000EF059FA11208DF8070001208DF80500EE
:100950008DF806008DF8040001A900200EF0FDFAC4
:1009600040208DF8030000208DF800008DF8010074
:100970008DF8020069460EF076FA01200EF03BFA7F
:1009800043F2F22100200EF0CDFD1CBD10B5012177
:1009900086B008070DF0EFF801200EF097FE00205A
:1009A0000DF0BFF801200CF0F9FF012104200DF03B
:1009B000C4F84FF4804000900320684C8DF8040088
:1009C000694620460CF0FEFE4FF400410091694656
:1009D00020460CF0F7FE41200CF0A8FF0028FAD0CA
:1009E0004FF480700DF088F801200DF09AF80EF0A9
:1009F0003BF97F200390FF2004904020029002A842
:100A00000EF0CDF906B010BD1CB5FFF7BFFF0020FA
:100A10000EF090FDA0F54851F23901D0FFF78EFF9E
:100A20004FF4E1314E480AF0E2FE00244DA011F0EF
:100A300057F9641CE4B2142CF8D3FFF76BFF00F0F5
:100A40009AFD454890380068411C03D000210028D9
:100A50004FD000E001210020014304D042A011F05A
:100A60003FF9FFF711FC00200BF0DAF801200BF042
:100A7000D7F802200BF0D4F803200BF0D1F80021B6
:100A800008460BF036F90BF015F90BF0FDF80BF0FA
:100A900029F900F023FB0121002208460EF0FAFE9E
:100AA000384C00220821A06005200EF0F3FE6060A3
:100AB000F0B1A068E0B14FF482750521284602F03C
:100AC00058F800240521CDE9001423462A462EA11A
:100AD000AFF299700FF09CFC0720CDE900040023D1
:100AE0002A462DA1AFF68B000FF092FC10F011F802
:100AF000FEE70120B0E710B500200BF044F980B10B
:100B0000002020494A8840EA420080B240F4604018
:100B10004880A0F57F41FF3901D0002010BD0120A1
:100B200010BD0120EDE7502080F31188BFF34F8FF7
:100B3000BFF36F8F10F01DFF01461CA011F0D0F81D
:100B4000FEE7502080F31188BFF34F8FBFF36F8F04
:100B50001BA011F0C5F8FEE7D002002000080240FB
:100B6000001001400D0A00000D0A53797374656D81
:100B70002064656661756C742073657474696E6752
:100B80000000000000000020436F6E74726F6C2044
:100B90005461736B0000000054657374206D6F64C2
:100BA000627573205461736B000000000D0A667259
:100BB00065654865617073697A65203D202564002C
:100BC0000D0A537461636B204F766572666C6F77A4
:100BD00020486F6F6B0000000CB500225449009252
:100BE0000192086840F4803008604FF4A063086800
:100BF00000F4003001900098401C0090019810B95A
:100C000000989842F3D10868800334D50120019000
:100C100047484030026842F080520260454802680E
:100C200042F4804202604248083002680260026872
:100C300042F400420260026842F4A0520260031FC4
:100C40003D4A1A600A6842F080720A600A6892019E
:100C5000FCD53A4940F205220A60016821F00301FF
:100C60000160016841F0020101600168C1F3810186
:100C70000229FAD10CBD01920CBD314810B50168B2
:100C800041F4700101602A48016841F001010160EE
:100C9000274A00210832116002682A4B1A4002607C
:100CA000031D294A1A60026822F48022026020484B
:100CB0000C300160FFF790FF21494FF00060803950
:100CC000086010BD70B51A4D083528681F4B2049C3
:100CD00010F00C0004D01F4E042803D0082803D0C5
:100CE0000B601BE00E6019E0114A121D1068C0F382
:100CF0008054106800F03F0014B1B6FBF0F001E042
:100D0000B3FBF0F013681268C3F388135843C2F3BF
:100D10000142521C5200B0FBF2F0086028680C4AF5
:100D2000C0F30310121D105C0A68C2400A6070BD57
:100D300000380240007000400C544007003C024064
:100D400088ED00E0FFFFF6FE103000240024F400E0
:100D50000C000020001BB7007047FEE7FEE7FEE72F
:100D6000FEE770477047704710F049BD08B5002096
:100D7000009040200BF0EBFD012804D1114869469A
:100D800000680FF039F840200BF006FE4FF4803079
:100D90000BF002FE0098002807D00B494FF080505E
:100DA0000860BFF34F8FBFF36F8F08BD10B5074CBE
:100DB000012120460DF0D9FC2046BDE8104000215D
:100DC0000DF0A2B97801002004ED00E0000400401D
:100DD000F0B506465E4887B00D460660C0E90121C1
:100DE00000211F461446084605F0B1FC38004FF0BC
:100DF000000703D00397049705971AE03068F1784D
:100E000000BA20F0FF00084309F0D4FC03902868E2
:100E1000E97800BA20F0FF00084309F0CBFC049009
:100E20002068E17800BA20F0FF00084309F0C2FC16
:100E30000590484848490097CDE9011005AB04AA40
:100E400003A9464806F0A1FD444806F0C2FD434808
:100E500006F0F9FD07B0F0BD0EB5002540A00FF07B
:100E6000E3FE00900120DFF804813C4F404E8DF8F6
:100E700004000024002202A9D8F800000FF0A9F80D
:100E800034B1012C0DD0022C50D0032C56D159E096
:100E9000324806F0DCF910B9002001247860022005
:100EA00041E078680025A0B3294A030E02241168A6
:100EB000CB70030C8B70030A4B700870F868010E3E
:100EC0005068C170F968090C8170B989090A4170CC
:100ED000397B0170B868010E9068C170B968090C5F
:100EE00081703989090A4170397A0170386A856CD4
:100EF0001A4806F0E8F803208DF805009DF8080070
:100F000001281BD100231A46694630680EF055FDB2
:100F100014E0FFE7386AC07C05280FD903240F4886
:100F200006F0D1F804208DF80500EBE72DB14FF461
:100F30002F706D1E0FF0D9FB00E00024FA200FF097
:100F4000D4FB97E74FF4FA600FF0CFFBF5E7000012
:100F500020000020176600083BB300084C03002067
:100F600044484350205461736B0000000800002087
:100F70000400002000B5AFB068460BF0BBF80120BC
:100F8000009000204FF40071CDE90A100904079089
:100F90001190CDE920010E90149013900A11159034
:100FA0002590269023920420CDE9280180032A90E1
:100FB00080012B9040122C9040002E900121684619
:100FC0000BF02AF998494860012198480BF0CAFCB7
:100FD0002FB000BDFEB5012147200CF0AEFD012170
:100FE00088030CF0D2FD01200CF094FE8E200090BE
:100FF00003208DF8050002258DF8045000248C4E46
:101000008DF806408DF80740694630460CF0DAFB53
:101010000B22012130460CF049FC0B220221304604
:101020000CF044FC0B22032130460CF03FFC0B2259
:10103000072130460CF03AFC4FF460507D4F009091
:10104000694638460CF0BEFB0B22114638460CF0C0
:101050002DFC0B220C2138460CF028FC0B220D2114
:1010600038460CF023FC3220734F00906946384616
:101070000CF0A8FB0B22012138460CF017FC0B22C8
:10108000042138460CF012FC0B22052138460CF0E6
:101090000DFC01208DF804008DF806408DF8070046
:1010A00000908DF80550694630460CF08BFB01210D
:1010B00030460CF0EEFB44F6206502940298401C8A
:1010C0000290A842FAD3012130460CF0E0FB0294D2
:1010D0000298401C0290A842FAD3FEBD08B5FFF763
:1010E00079FF4FF440700BF007FF3D208DF80000B2
:1010F00006208DF8010000208DF8020001208DF8F7
:10110000030068460BF0FDFE01214FF060600CF01B
:1011100014FD0AF0E3FF0BF00DFC0BF011FC0128AD
:10112000FBD0BDE8084025E786B00027434C049774
:10113000002205A920680EF04CFF9DF8140001283C
:10114000F6D13FA00FF070FD029040480124364ECA
:101150008DF80C4090F80C80B4603D4D4FF4FA7A55
:10116000B9F1000F4FD0012108460BF02DF84007D0
:1011700039D5B068002830782FD0002843D134709A
:101180008DF80D4000231A4602A928680EF015FCC0
:10119000FFF7F0FE0BF07FF9B8F1000F0DD00498C7
:1011A00000BB04A90C20CDE9000100234FF482729A
:1011B00028A12B480FF02CF925E026A00FF034FDD4
:1011C00002908DF80C4003208DF80D0000231A4684
:1011D00002A928680EF0F1FB15E018B10BF06BF9CD
:1011E000377077600FE037708DF80D7000231A4666
:1011F00002A928680EF0E1FB0BF05DF9049810B12C
:101200000FF031F9049750460FF06FFAA8E706483F
:1012100000218160406808B10020704701207047BC
:1012200001490120886070472C0000204000010027
:1012300000000240000402400008024008000020B4
:10124000455448205461736B0000000040020020A8
:101250000400002044484350205461736B00000098
:10126000590E000800F00F00102829D2DFE800F026
:10127000080A0C0E10121416181A1C1E20222426FE
:10128000302070473120704732207047332070473C
:10129000342070473520704736207047372070471C
:1012A00038207047392070474120704742207047EE
:1012B00043207047442070474520704746207047C0
:1012C0007820704700F00F000A281AD2DFE800F0FB
:1012D0000507090B0D0F111315173020704731202A
:1012E00070473220704733207047342070473520D4
:1012F00070473620704737207047382070473920B4
:1013000070477820704730B504464FF000000D005C
:10131000107001D0002311E0012030BDE05C00F02E
:101320000F00FFF79FFF02EB43014870E05C0009EC
:10133000FFF798FF02F813005B1CDBB2AB42EDD362
:10134000002030BD30B5154B1E2218B930209877DB
:101350001D220CE0B0FBF1F401FB1404B0FBF1F032
:101360000FA52C5D9C54521E08B1002AF2D198188A
:10137000401C30BD008870470870000A48707047F4
:101380000178D0F8010041EA002070470870020A95
:101390004A70020C8A70000EC870704788030020E3
:1013A00030313233343536373839616263646566DB
:1013B0000000000070B50DF0BFFAF1200DF046FC02
:1013C000022130200DF0F2FA0828F9D1FE4CFD4838
:1013D00021680DF06BFBFB486168001D0DF066FB9A
:1013E000F848A16808300DF061FBF648217B0C300D
:1013F0000DF05CFBF34DF54E10350024284656F8F1
:1014000024100DF053FB641C2D1D032CF6D3ED4D61
:101410002035002406EB8400C16828460DF046FB09
:10142000641C2D1D032CF5D3E94DE64830302968A6
:101430000DF03CFBE34E4036002405EB8400416890
:1014400030460DF033FB641C361D102CF5D3DD4EF9
:101450009036002405EB8400416C30460DF026FBED
:10146000641C361D032CF5D3D64EA036002405EBA4
:101470008400016D30460DF019FB641C361D032CF1
:10148000F5D3D04EB036002405EB8400C16D304654
:101490000DF00CFB641C361D032CF5D3C94E002443
:1014A000CC4DC03609E004EB840105EB810106EB6D
:1014B000840089880DF017FB641C2878A042F2D8BC
:1014C0000DF046FA012070BDC34810B5417811B146
:1014D0000121017010BDBB48BD4A3030B9490068D8
:1014E00040311060002002EB800408C9401CC0B2EB
:1014F00063601028F7D3B3499031002002EB8004D9
:1015000008C9401CC0B263640328F7D3AD49A031B9
:10151000002002EB800408C9401CC0B223650328E8
:10152000F7D3A849B031002002EB800408C9401C61
:10153000C0B2E3650328F7D310BDA74810B54178C2
:1015400011B10121017010BD9E49A04A1031002047
:1015500008C942F82030401CC0B20328F8D399498A
:101560002031002002EB800408C9401CC0B2E360B7
:101570000328F7D310BD9848417811B101210170BB
:1015800070479048904902680A6042684A608268E1
:101590008A60007B0873704730B58F48417811B17D
:1015A0000121017030BD8B4B0620864C1870002045
:1015B00004EB800100EB800203EB820211F8C05FB4
:1015C000157149785171401C1978C0B28142EFD829
:1015D00030BD70B50546FFF777FFFFF7CCFFFFF78B
:1015E000ACFFFFF7D9FF7DA1284610F00FFA764C2B
:1015F00038B17DA110F00AFA18B1401C10F076FA4B
:1016000020707AA1284610F001FA38B176A110F0C6
:10161000FDF918B1401C10F069FA607076A12846F7
:1016200010F0F4F938B170A110F0F0F918B1401CC5
:1016300010F05CFAA07073A1284610F0E7F938B1F9
:1016400069A110F0E3F918B1401C10F04FFAE070F6
:101650006FA1284610F0DAF938B163A110F0D6F97D
:1016600018B1401C10F042FA20716CA1284610F00D
:10167000CDF938B15CA110F0C9F918B1401C10F0D7
:1016800035FA607168A1284610F0C0F938B156A14A
:1016900010F0BCF918B1401C10F028FAA07165A137
:1016A000284610F0B3F938B14FA110F0AFF918B1D6
:1016B000401C10F01BFAE07161A1284610F0A6F959
:1016C00038B149A110F0A2F918B1401C10F00EFA7F
:1016D00020725EA1284610F099F938B142A110F0AD
:1016E00095F918B1401C10F001FA60725AA1284611
:1016F00010F08CF938B13CA110F088F918B1401CF9
:1017000010F0F4F9A07257A1284610F07FF938B113
:1017100035A110F07BF918B1401C10F0E7F9E07228
:1017200053A1284610F072F938B12FA110F06EF9CC
:1017300018B1401C10F0DAF92073274901204870D5
:1017400070BDF0B589B00646FFF7BEFEFFF713FF88
:10175000FFF7F3FEFFF720FF47A1304610F056F9E0
:10176000194DB8B120A110F051F9401C044644A114
:1017700010F04CF907466CB167B12021684610F0B3
:101780002EF93A1B2146684610F074F9684609F0B4
:101790008AF828603BA1304610F038F980B112A1D8
:1017A00010F034F9401C044635A110F02FF907461B
:1017B00034B12FB12021684610F011F93A1B65E0D1
:1017C0006CE00000000004084002002050020020ED
:1017D00068020020D002002038000020646576698D
:1017E00063656970310000003D0000006465766942
:1017F00063656970320000006465766963656970CD
:101800003300000064657669636569703400000028
:101810006465766963656D61736B310064657669D3
:1018200063656D61736B32006465766963656D61D4
:10183000736B33006465766963656D61736B340047
:1018400064657669636567617465310064657669AE
:1018500063656761746532006465766963656761B5
:101860007465330064657669636567617465340027
:1018700044686370000000005365745F6970000085
:10188000260000005375626E6574000021466846AC
:1018900010F0F0F8684609F006F86860FAA13046E2
:1018A00010F0B4F8C8B1AFF2C00110F0AFF8401CAE
:1018B0000446AFF2340110F0A9F807466CB167B1E5
:1018C0002021684610F08BF83A1B2146684610F03C
:1018D000D1F8684608F0E7FFA860AFF26C01304627
:1018E00010F094F8E8B1AFF2001110F08FF8401C3E
:1018F000040016D0E6A110F0E9F80646202168465B
:1019000010F06DF80EB1321B03E0204610F090F895
:1019100002462146684610F0ADF8684610F0E6F839
:101920002873DC490120487009B0F0BD70B5064647
:10193000FFF7CAFDFFF71FFEFFF7FFFDFFF72CFEC5
:10194000D5A1304610F062F8D54C40B1AFF2681125
:1019500010F05CF818B1401C10F0C8F82070D1A14C
:10196000304610F053F840B1AFF2841110F04EF849
:1019700018B1401C10F0BAF86070CCA1304610F0DD
:1019800045F840B1AFF2A01110F040F818B1401C7A
:1019900010F0ACF8A070C7A1304610F037F840B195
:1019A000AFF2BC1110F032F818B1401C10F09EF8E4
:1019B000E070C2A1304610F029F898B1AFF2D8110A
:1019C00010F024F870B1451C4021201D10F007F8DC
:1019D000AFF25411284610F019F8421B2946201D79
:1019E00010F048F8B8A1304610F010F8A0B1AFF2EE
:1019F000082110F00BF878B1451C00206064A06449
:101A0000AFF28411E064284610F000F8421BA448AD
:101A10002946443010F02EF89E490120487070BDD0
:101A20002DE9F04188B08046FFF74EFDFFF7A3FD9A
:101A3000FFF783FDFFF7B0FDA6A140460FF0E6FFDC
:101A4000974CE8B1AFF260210FF0E0FFC0B1401C4D
:101A500005468FA110F03AF80646202168460FF09F
:101A6000BEFF0EB1721B03E028460FF0E1FF0246F5
:101A7000294668460FF0FEFF684608F014FF206014
:101A80008EA140460FF0C2FFC8B1AFF2A4210FF003
:101A9000BDFFA0B1401C05467DA110F017F8064619
:101AA0004021201D0FF09BFF0EB1721B03E0284662
:101AB0000FF0BEFF02462946201D0FF0DBFF87A175
:101AC00040460FF0A3FF0025C8B1AFF2E4210FF0AC
:101AD0009DFFA0B1401C06466DA10FF0F7FF2565E4
:101AE0006F4F65655037A56508B1821B03E030462E
:101AF0000FF09EFF0246314638460FF0BBFF7AA139
:101B000040460FF083FFC8B1AFF224310FF07EFFE3
:101B1000A0B1401C06465EA10FF0D8FFE565256622
:101B200065665F4C5C3408B1821B03E030460FF001
:101B30007FFF0246314620460FF09CFF55490120A9
:101B4000487008B0BDE8F0812DE9F04190B08046C2
:101B5000FFF7BAFCFFF70FFDFFF7EFFCFFF71CFDE7
:101B60000024644D6AE068460FF039FF224662A106
:101B7000684610F0C5F8694640460FF047FF38B395
:101B8000AFF29C310FF042FF10B3401C064640A15B
:101B90000FF09CFF0746202168460FF020FF0FB191
:101BA000BA1B03E030460FF043FF02463146684659
:101BB0000FF060FF68460FF099FF04EB840105EB1E
:101BC00081010871C87940F04000C87132208860F6
:101BD000202168460FF003FF22464AA1684610F014
:101BE0008FF8694640460FF011FF28B3AFF2084165
:101BF0000FF00CFF00B3401C064625A10FF066FF56
:101C00000746202168460FF0EAFE0FB1BA1B03E039
:101C100030460FF00DFF0246314668460FF02AFFAE
:101C200068460FF063FF04EB840105EB8101487106
:101C3000C87940F04000C871641CE4B228784FF0C5
:101C40002001A0428FD808A80FF0C9FE31A108A832
:101C500010F056F808A940460FF0D8FE88B1AFF250
:101C600078410FF0D3FE60B1401C054608A10FF08B
:101C70002DFF0B49002201F144044A6410B1421BBC
:101C800052E055E04CE000004761746577617900EF
:101C90002620000038000020686F737469703100DE
:101CA00068020020686F737469703200686F737423
:101CB00069703300686F737469703400686F73748F
:101CC0006E616D65000000006465766963656E6134
:101CD0006D650000686F73746970000075736572DC
:101CE0006E616D650000000070617373776F7264E0
:101CF00000000000D0020020706F727425645F74D1
:101D000079706500706F727425645F6163746976C1
:101D10006500000064657669636549440000000061
:101D200028460FF085FE0246294620460FF0A2FE07
:101D3000A0490120487010B004E72DE9F0410646A3
:101D4000FFF7C2FBFFF717FCFFF7F7FBFFF724FCD9
:101D5000AFF2780130460FF059FE002844D0AFF2C0
:101D600078510FF053FE00283ED0471CAFF2E0013F
:101D700038460FF0ABFE904C002525606560A560ED
:101D800028B1C21B394620460FF074FE03E03946E5
:101D900089480FF02FFE89A130460FF037FE20B999
:101DA00088A130460FF032FED0B1AFF2C4510FF02F
:101DB0002DFEA8B1401C0646AFF22C110FF086FE96
:101DC000E5607D4B25610C33656128B1821B31468E
:101DD00018460FF04FFE03E0314618460FF00AFE9A
:101DE0007449012048700870ACE61CB50446694689
:101DF00000200DF088F801A900200DF0FCF874A176
:101E000020460FF003FE78B1AFF224610FF0FEFD23
:101E100050B1401C0FF06AFE10F0FF008DF8030077
:101E200000D040208DF803006BA120460FF0EEFD9E
:101E300048B1AFF24C610FF0E9FD20B1401C0FF04A
:101E400055FE8DF8020067A120460FF0DFFD48B176
:101E5000AFF26C610FF0DAFD20B1401C0FF046FECE
:101E60008DF8010062A120460FF0D0FD48B1AFF21D
:101E700088610FF0CBFD20B1401C0FF037FE8DF8CC
:101E800000005EA120460FF0C1FD48B1AFF2A8618D
:101E90000FF0BCFD20B1401C0FF028FE8DF80400AF
:101EA00059A120460FF0B2FD48B1AFF2C4610FF066
:101EB000ADFD20B1401C0FF019FE8DF8060054A1B5
:101EC00020460FF0A3FD48B1AFF2E4610FF09EFD94
:101ED00020B1401C0FF00AFE8DF805004FA12046EE
:101EE0000FF094FD48B1AFF200710FF08FFD20B1FB
:101EF000401C0FF0FBFD8DF80700694600200CF038
:101F0000B2FF0128F9D101A900200DF026F801281F
:101F1000F9D11CBD2749012088707047254810B5AC
:101F200042784049012A07D10278012A04D10022CF
:101F30004270027001220A708078002811D008785F
:101F40000028FDD10A200EF0D0FBBFF34F8F36489A
:101F50000168364A01F4E06111430160BFF34F8F1D
:101F6000FEE710BD3249002000EB800201EB820247
:101F700000F10100D279C0B2920601D40628F3D351
:101F800070472B4A002101EB810302EB8303DB79CD
:101F90009B0603D4491CC9B20629F4D3012908D1F0
:101FA000020024484FF4006101D00BF070BC0BF02C
:101FB00070BC704738000020500200206E657770BA
:101FC00061737300636F6E6669726D706173730025
:101FD00073657431324800007365747365636F6EA6
:101FE000647300007365746D696E757465730000C9
:101FF000736574686F7572730000000073657477A1
:1020000065656B6461790000736574646174650073
:102010007365746D6F6E7468000000007365747989
:1020200065617200000000200CED00E00400FA057C
:10203000D0020020000802402DE9F0470646006863
:102040008AB0002581680091C3687068D0E90112E8
:10205000F0A00FF045FEF94FDFF8E4A3A94605EB29
:1020600085010AEB81046079012859D1202101A85A
:102070000FF0B5FCF34901A80FF0BCFCF2A101A8D8
:102080000FF0B8FC0A212846FFF75CF9014601A8C9
:102090000FF0B0FCEEA101A80FF0ACFC706801A934
:1020A00080680FF0B3FC5FEA000839D037F81500FC
:1020B0000A21FFF747F90146306880680FF0A6FC57
:1020C00070B3E7A140460FF0A1FC20B1E07900F029
:1020D000F000401C1DE0E5A140460FF097FC28B140
:1020E000E07900F0F000401CE07115E0E1A140460D
:1020F0000FF08CFC20B1E07900F0F000801C08E0CB
:10210000DEA140460FF082FC30B1E07900F0F00033
:10211000C01CE07127F81590E07940F02000E071D4
:102120006D1CEDB2062D9AD30AB0BDE8F087ADF56F
:10213000047D5822D34935A80FF038FC002007460B
:1021400082908146819082468090CFA00EF06CFDF7
:10215000D04C33901E200EF0C8FA002283A92068CC
:102160000DF037FF9DF80C020628F3D100F079FC42
:10217000B448539054A801F07DF950206CA9CDE9E2
:102180000001029058AB47F2305254A903A800F066
:1021900031FDFFF799F9AB4C443CE0780090A3780F
:1021A00062782178BCA00FF09BFD012540F25B7B9B
:1021B0000026DFF80C8314E0E0780090A3786278C2
:1021C0002178C0A00FF08CFD8DF8D1508DF8D06033
:1021D00000231A4633A9D8F800000DF0EEFBFFF7F4
:1021E00073F95A4654A8216801F050F90028E3D148
:1021F0005398389093484FF0030B0C3045900C30B7
:10220000489001208DF8EF00BBA03E908DF8DCB027
:1022100053980024419015E0BAA00FF061FD022010
:102220008DF8D1008DF8D06000231A4633A9D8F874
:1022300000000DF0C2FB641CE4B2052C2AD8C820B3
:102240000EF053FA35A903A800F00AFF0028E3D1E5
:10225000002520214BA80FF0C2FB53980FF0E8FB9C
:1022600002464BA853990FF005FCB1A14BA80FF003
:10227000C1FB444615E000208DF8D1B08DF8D000A8
:102280000346024633A920680DF097FB6D1CEDB2A2
:102290000A2D03D9549803F0D5FB6BE7C8200EF044
:1022A00024FAAFF26B2300224BA903A800F067FFCA
:1022B0000028E0D14FF0010B81488DF8D1B08DF8A6
:1022C000D0B000231A4633A900680DF076FB9BA01E
:1022D0000FF006FD504600F0FEFB00F0E6FBDFF8D5
:1022E0006081044698F80500012865D1BAF1000F15
:1022F00062D1642C60D340F2A460844207D23221C0
:1023000088F806B00120C8F80810819054E088F8D9
:1023100006B03222C8F808208199584601294BD1CD
:1023200000218DF8BC00834681910E468DF8BD10CA
:102330001FA8202131900FF052FB40490888401C13
:1023400080B208800A21FEF7FDFF01461FA80FF0AA
:1023500051FB80A11FA80FF04DFB1FA80FF068FBD9
:102360003290202127A80FF03AFB53980FF060FB22
:10237000024627A853990FF07DFB7AA127A80FF0FA
:1023800039FB2FAA27A903A800F047FF28B1042092
:102390008DF8D1008DF8D06004E005208DF8D100D3
:1023A0008DF8D0B0464800231A4633A900680DF0D6
:1023B00004FB6FA00FF094FC2148407E012802D15D
:1023C000BAF1010F03D0BAF1000F21D03BE1642C28
:1023D00002D20627002019E040F2A46084420BD20A
:1023E000B9F1010F15D016480827322180F81AB02C
:1023F0004FF00109C161CFE0B9F1020F09D01048D7
:102400003221072780F81AB0C16102208146BFE05F
:1024100032E1BBE00D0A4D6573736167652061723F
:102420007269766564206F6E20746F706963202511
:102430002E2A733A20252E2A73000000A8030020BC
:10244000D0020020AC0200202F706F7274732F0036
:102450002F6163636573735F6175746800000000CA
:10246000666F7263656F70656E00000070617373F4
:10247000000000006661696C000000006572726F08
:10248000720000009C2001084D5154542054617387
:102490006B000000080000200D0A09436F6E6E6596
:1024A000637420746F20746865205365727665725A
:1024B0002025642E25642E25642E2564000000004E
:1024C0000400002009436F6E6E65637420466169E5
:1024D0006C0D0A09436F6E6E65637420746F20740F
:1024E0006865205365727665722025642E25642EFA
:1024F00025642E256400000064657669636577694C
:102500006C6C2F000D0A09506C656173652063685F
:1025100065636B20557365726E616D6520616E64D5
:102520002050617373776F726420616761696E0018
:102530002F706F7274732F230000000009436F6EB9
:102540006E656374205375636365737366756C0D94
:102550000A0000002F62746E5F70726573736564A9
:10256000000000002F706F7274732F3000000000A5
:102570000D0A546865204578697420427574746F3B
:102580006E2069732070726573730000082F03D08A
:102590000020072F3FD000E001200021084352D047
:1025A000B9F1000F4FD08DF8BCB000261FA85C46D3
:1025B0008DF8BD60202131900FF011FA072F2CD03B
:1025C000D2A11FA80FF09CFB1FA80FF031FA329088
:1025D000202127A80FF003FA53980FF029FA02469A
:1025E00027A853990FF046FACBA127A80FF002FABB
:1025F0002FAA27A903A800F010FE80B104208DF8AF
:10260000D100C8488DF8D06000231A4633A900686D
:102610000DF0D3F916E00121C0E7C3A1D1E7072FE0
:1026200026D008208DF8D100BE488DF8D040002378
:102630001A4633A900680DF0C0F9072F1AD0BDA0C3
:102640000FF04EFB0027002082464FF00208BE49E3
:1026500008EB880001EB8004E079420604D50122F2
:1026600020F040008092E0716079012806D086E079
:102670000720D7E7B5A0E3E70120E5E7A079012827
:102680007DD1E079C0067AD58DF8BCB000208DF8F8
:10269000BD001FA83190B24830F81810491C8EB206
:1026A00020F8186020211FA80FF099F90A21304660
:1026B000FEF748FE01461FA80FF09CF91FA80FF077
:1026C000B7F9024632901FA82F2181543298401C3E
:1026D00032902079022801D003281CD1002617E06F
:1026E000A0190090407B0009FEF7BCFD1FA9329A9B
:1026F00001EB460150540098407B00F00F00FEF7BC
:10270000B1FD329A1FA90A440BEB4601761C5054C6
:10271000207BB042E4DCE07920F01000E0711FA8DB
:102720000FF086F93290202127A80FF058F953981E
:102730000FF07EF9024627A853990FF09BF9AFF2EC
:10274000F82127A80FF056F90A214046FEF7FAFDB6
:10275000014627A80FF04EF92FAA27A903A800F0D9
:102760005CFD18B16D1CEDB2052D02D9002502E00B
:1027700005E00028F0D141467AA00FF0B1FA08F147
:102780000108B8F1060FFFF662AF6F4E002404EBAC
:10279000840006EB8000816811B1491E816042E02F
:1027A0000021817132228260407901283BD18DF86D
:1027B000BCB08DF8BD101FA8202131900FF00FF98B
:1027C00070A11FA80FF016F90A212046FEF7BAFDE6
:1027D00001461FA80FF00EF9E4B36CA11FA80FF07B
:1027E00009F91FA80FF024F93290202127A80FF033
:1027F000F6F853980FF01CF9024627A853990FF0EA
:1028000039F964A127A80FF0F5F82FAA27A903A882
:1028100000F003FD0CB3012C21D021465FA00FF086
:102820005FFA01208290641C062CB0DB829868B1AC
:102830000020829002208DF8D1003A488DF8D0B067
:1028400000231A4633A900680DF0B7F880980128D4
:1028500009D030E0FFE759A1C0E75BA000E063A02A
:102860000FF03EFADDE700208DF8BCB080908DF8C7
:10287000BD001FA8202131900FF0B1F864A11FA85E
:102880000FF0B8F81FA80FF0D3F83290202127A836
:102890000FF0A5F853980FF0CBF8024627A85399EC
:1028A0000FF0E8F83BA127A80FF0A4F82FAA27A95A
:1028B00003A800F0B2FC03A800F05FFB48B1C821F8
:1028C00003A800F03FFB90B1014655A00FF008FAB5
:1028D00000E502208DF8D10000208DF8D0000346DD
:1028E0000246104833A900680DF067F8D2E40A20C8
:1028F0000DF0FBFEEEE41CB50023CDE9001302460B
:10290000AFF27C414E480DF083FD1CBD446F6F72E9
:102910005F636C6F736500002F706F7274732F317B
:102920000000000004000020446F6F725F6F70654C
:102930006E0000000D0A54686520446F6F722069B4
:102940007320636C6F736500D00200200D0A546819
:102950006520446F6F72206973206F70656E000090
:10296000A80300200D0A52656365697665642044FA
:102970006174612066726F6D20706F7274202564BF
:1029800000000000706F7274732F00002065727277
:102990006F7200002F737461747573000D0A5468B0
:1029A0006520506F7274202564206973206C6F73EA
:1029B0007420636F6E6E6563740000002062746E35
:1029C0005F6F70656E0000000D0A546865204578E1
:1029D000697420427574746F6E206973206C6F7314
:1029E0007420636F6E6E6563740000000D0A546896
:1029F0006520446F6F722053656E736F7220697328
:102A0000206C6F737420636F6E6E656374000000DA
:102A1000636F6E6669675F6368616E67650000007B
:102A20000D0A52657475726E20636F64652066725C
:102A30006F6D207969656C642069732025640000DE
:102A40002F2100081CB5012104200BF094F804206C
:102A5000009003208DF8040069462E480AF0B2FE6B
:102A60001CBD10B5012186B008020BF08EF8FFF7EF
:102A7000E9FF00208DF8040000908DF80500039018
:102A800004900120244C8DF81400694620460AF079
:102A900097FA01231A460C2120460AF006FB012171
:102AA00020460AF0CFFA06B010BD10B51A4C01232B
:102AB00001461A4620460AF0F8FA20460AF02FFB93
:102AC000022120460AF0F3FB0028F9D02046BDE899
:102AD00010400AF056BB08B1012801D00C20704705
:102AE0000D2070471CB5012102200BF044F8202076
:102AF000009000208DF8040001218DF807108DF85A
:102B00000600694605480AF05DFE1CBD2021034809
:102B10000AF0A9BE00080240002001400004024063
:102B20000EB519A00EF080F81A4C00901E200DF082
:102B3000DCFD002202A920680DF04BFA9DF8080088
:102B40000728F3D100224FF41651104601F010FD72
:102B500001F04CFD01208DF805008DF804000E48B1
:102B600000231A46694600680CF027FF01F060FD5B
:102B7000FCE71CB50023CDE90013024602A107487B
:102B80000DF046FC1CBD0000525334383520534C28
:102B9000415645000800002004000020212B0008B9
:102BA0002DE9F04190460E4605464FF0FF370024D0
:102BB0000DE0404600F0E7FB034628693246011964
:102BC000686DD0F808C0E047002807DB0444B44231
:102BD00004DA404600F0DFFB0028EAD0B44207D117
:102BE00005F15800A96900F0CAFB0020BDE8F0819A
:102BF0003846FBE72DE9F0410446DDE90765069F0D
:102C000041650020014604EBC00C401CCCF82810A4
:102C10000528F8DB216266616162C4E90127C4E925
:102C20000353217701202165206004F1580000F052
:102C3000BBFB04F16400BDE8F04100F0B5BB2DE939
:102C4000F84F04464FF000088B464546084600F012
:102C50009AFB0346606D616901224668B0470646EB
:102C6000012849D18146584600F08DFB0126824655
:102C700000277F1C042F11DC606D53460122D0F821
:102C800004C06946E047012808D19DF8000000F023
:102C90007F0101FB0655F6010006EAD4606929466A
:102CA000401C00F097FD00EB0906E068801BA8427D
:102CB00002D26FF001061FE0002D11DD584600F032
:102CC00062FB034660692A468119606D4668B04719
:102CD000A84201D0012000E0002008B100260BE04E
:102CE00060690178404661F30700A169060919B1DE
:102CF00004F1640000F043FB3046BDE8F88F2DE995
:102D0000FC4791460E4680464FF0FF37002408EB03
:102D1000C405A96AC9B3304600F026FE68BBD6E9EF
:102D200001100A18AB6A1FE090F800C0BCF12F0F29
:102D30000AD02B290BD0232913D0614518D12B2978
:102D400005D023290DD00DE02F2911D10AE0411C17
:102D500001E0811C401C914204D209782F29F8D14E
:102D600000E0501E401C5B1C197809B19042DBD377
:102D700090420AD111F0FF0F07D1E86A28B1CDE9DE
:102D80000096E96A684688470027641C052CBEDB6C
:102D9000781C09D1D8F8500030B1CDE90096D8F8A8
:102DA00050106846884700273846BDE8FC873EB586
:102DB00004468069002520B304F1580000F0EBFAC6
:102DC00020B904F1640000F0E6FAD0B1207F10B120
:102DD0004FF0FF3515E0684600F0E6FA4FF47A71DF
:102DE000684600F0C9FAA168206900F07EFC011E67
:102DF00007DD6A462046FFF7D3FE050001D101201A
:102E0000207728463EBD00210A4600EBC103491C3D
:102E10009A620529F9DB7047002101770162416A56
:102E2000002900D0EFE770472DE9F0418EB08846C9
:102E300004460025FFF703FF00214F1E06460E281B
:102E400008D2DFE800F06E076E096E48486E076E24
:102E5000076E076D05466AE0089108AA6169E06897
:102E60000292CDE9031007AB09A8CDE9000305A83C
:102E7000031D421C0CA9801C00F042FC01285FD1FC
:102E80000C988DF8140005AA09A92046FFF737FF12
:102E90009DF81400F0B3012802D0022808D012E0F7
:102EA000BDF81800009000230422A168206906E004
:102EB000BDF81800009000230522A168206900F0E9
:102EC00059FE011E01DC3D4623E042462046FFF745
:102ED00067FE05461DE0E068009001AA02A903A86C
:102EE000636900F053FC0128EDD1BDF804000090A7
:102EF000052E13D007220023A168206900F03AFEB6
:102F00000028E0DD014642462046FFF749FE050065
:102F1000D9D100E005E0681C0AD002E00622EAE709
:102F200021772046FFF743FF08B13D4600E03DB161
:102F3000206A10B12046FFF76FFF28460EB055E615
:102F40003546FAE7FEB505460E460024684600F011
:102F50002BFA3146684600F00FFA69462846FFF71B
:102F600063FF002802DA4FF0FF3404E0684600F007
:102F700012FA0028F1D02046FEBD006A70470EB557
:102F80000446684600F010FA4FF4FA752946684680
:102F900000F0F2F969462046FFF746FFF6E72DE913
:102FA000F04116460D4607464FF0FF34304600F01C
:102FB000F2F940B931463846FFF736FF0446A842D9
:102FC00001D0002CF2DA204610E62DE9F0419AB04B
:102FD00016460F4604464FF0FF3845465822D24960
:102FE00068460EF0E3FC206A88BB16A800F0DCF906
:102FF00016A8616800F0C0F907B96F46398BA16166
:10300000B87E606204F1640000F0B9F93A46A16844
:10301000206900F09EFA00281FDD014616AA20460E
:10302000FFF7BEFD050018D116AA02212046FFF7C2
:10303000B6FF02280AD10027377077703146701C1E
:10304000E368626900F008FB012801D0454604E00E
:10305000357815B901202062277728461AB0C5E5D2
:1030600008B56A46FFF7B1FF08BD2DE9F0471746DE
:10307000894605464FF0FF36002405EBC408D8F812
:10308000280018B149460EF0DAFC30B1641C052C5A
:10309000F3DBDFB1701C09D012E02FB905EBC401DE
:1030A00000208862C8F82C000026F2E7002405EB17
:1030B000C400806A18B1641C052CF8DB06E0002609
:1030C000052C03DA05EBC400C0E90A973046BDE8D9
:1030D000F0872DE9FF478AB00027169E0446079720
:1030E000089706914FF0FF38006A9A468946454690
:1030F00020B303A800F058F903A8616800F03CF978
:10310000204600F005F983B20CAA06A901208DE83B
:1031100007000022A168206900F07BFD011E0DDD83
:1031200003AA2046FFF73CFD050007D103AA0921A9
:103130002046FFF734FF092803D04546681C18D005
:103140001AE002973770E1686069CDE90001334603
:1031500002AA012109A800F0A2FD0128EED13078D1
:103160008028EBD0524649462046FFF77EFF0546B1
:10317000E4E72046FFF750FE28460EB0A7E71CB54F
:1031800001AC0094FFF7A5FF1CBDF0B589B0044663
:1031900000200690059107904FF0FF36206A0F46F9
:1031A000354620B302A800F0FFF802A8616800F0DD
:1031B000E3F8204600F0ACF883B205A90120CDE980
:1031C00000010022A168206900F0BDFD00280EDD8D
:1031D000014602AA2046FFF7E3FC050007D102AA38
:1031E0000B212046FFF7DBFE0B2803D03546681C79
:1031F0000DD00FE06846E268616900F0E2FD012849
:10320000F5D1002239462046FFF72FFFEFE7204691
:10321000FFF702FE09B02846F0BD2DE9F043054650
:103220004FF0FF37006A8BB014463E464FF000095E
:10323000884670B307A800F0B7F807A8696800F0DF
:103240009BF82078012801D0022803D1284600F0FD
:103250005FF8A080D4E90201CDE90501CDE902893A
:10326000CDF81090A1886078CDE900012378002284
:10327000A968286900F03BFC011E25DD07AA284645
:10328000FFF78EFC06001FD12078012802D002280B
:1032900008D019E007AA04212846FFF780FE042879
:1032A00007D010E007AA07212846FFF778FE072875
:1032B00009D1E868009001AA02A903A86B6900F08F
:1032C00065FA012800D03E46701C02D12846FFF75F
:1032D000A3FD0BB03046BDE8F0833EB504464FF089
:1032E000FF35684600F060F86846616800F044F811
:1032F000A168206900F0F7F9011E04DD6A46204646
:10330000FFF74EFC05462046FFF786FD28463EBDEA
:1033100001460068A0F57F42FF3A02D0401C0860D9
:1033200070470120FBE70000F42001082DE9FC4173
:10333000064615460F4640F28A2400200DF02EFA6C
:10334000CDE900062B46224661A138460DF060F813
:10335000BDE8FC8110B5044601200CF0D0FB2060D4
:1033600010BD00684FF0FF310CF0FABB002300687D
:103370001A4619460CF021BB02C00DF0E6BD4FF411
:103380007A725143F8E710B504460146001D0DF06E
:10339000FFFD206810BD10B50146001D0DF0F8FDC1
:1033A000012800D0002010BD002101604160816033
:1033B00070472DE9FF47064615460F46002402A830
:1033C00001930DF0C2FD4FF0040841F2060940F6EA
:1033D000FF7ACDF8008001AB4A465146306802F0D2
:1033E000C0FF2A1B39190023306802F069FC00284D
:1033F00001DD044402E001DA044607E0AC4205DAEC
:1034000001A902A80DF0C4FD0028E2D0204604B0B6
:10341000BDE8F0872DE9FF47064615460F46002414
:1034200002A801930DF091FD4FF0040841F2060946
:10343000CDF8008001AB4A460021306802F091FFD0
:103440002A1B39190023306802F098FC002801DD9E
:10345000044402E001DA044607E0AC4205DA01A9BF
:1034600002A80DF095FD0028E2D02046CFE70068C5
:1034700002F0E8BA00210160AFF2C9014160AFF289
:103480006B018160AFF21901C16070477FB50446DE
:1034900002208DF801000E464FF0FF3590B207F084
:1034A00036FAADF80200062201210220019602F050
:1034B00097FC2060002808DB1022694602F0DFFA42
:1034C000050002D5206802F0BDFA04B0284670BDA0
:1034D0004D5154545461736B0000000070B50446A4
:1034E000007A0025032802D0042802D002E00C252F
:1034F00000E00A2504F10C0007C800F02EFA05448C
:10350000E07EAD1C78B1243494E80700243C00F040
:1035100024FA3034064694E80700303C00F01DFAE7
:10352000304405442D1D206C08B9A16C29B1D4E9A3
:10353000111200F012FA0544AD1CE06C08B9616D7F
:1035400029B1D4E9141200F008FA0544AD1C28464C
:1035500070BD2DE9F84306460090884614460025C4
:103560001046FFF7BBFF814600F063F9404502DDDE
:10357000A81EBDE8F8832F46394667F30701684661
:10358000103100F089F94946009800F023F90099BC
:1035900008440090207A04281DD055A1684600F008
:1035A00090F90321684600F077F9A07E67F30705DC
:1035B00060F34105E07E08B145F00405680707D5D2
:1035C00094F83D0060F3C40594F83C0060F34515A1
:1035D000206C40B905E048A1684600F072F904216A
:1035E000E0E7A06C08B145F08005E06C08B9606DBB
:1035F00008B145F040052946684600F04DF9218B99
:10360000684600F04FF904F10C0168460EC900F05D
:1036100071F9E07E68B12434684694E80E00243CD9
:1036200000F068F93034684694E80E00303C00F051
:1036300061F9280605D504F1400168460EC900F07D
:1036400059F9680605D54C34684694E80E0000F038
:1036500051F90098801B8CE72DE9FC4107460024B6
:103660000E4625466846009200F010F901462046B5
:1036700061F307000009022819D101A9009800F0A0
:10368000F7F8009905460844019900900144081A8A
:1036900002280CDB684600F0F9F860F3070404F038
:1036A00001003870684600F0F1F8307001252846B6
:1036B000BDE8FC8138B5002304460090022901DAF8
:1036C000981E38BD194663F3070162F30711684677
:1036D00000F0E2F80021009800F07CF80099014425
:1036E000081B009138BD0E22E4E70C22E2E700003F
:1036F0004D514973647000004D5154540000000056
:103700002DE9FC5F8046DDE90EA00024CDE9000430
:10371000994617460E462546DDF834B0684600F057
:10372000B5F860F30704200903282CD1C4F3C001C5
:1037300088F80010C4F34100306004F001003870D4
:1037400001A9009800F094F80099054608440199F1
:1037500000904418224669460C9800F0E4F890B1B5
:103760000098201A0FD43068002804DD684600F065
:1037700084F8A9F800000098211ACAF800100099EE
:103780000125CBF800102846BDE8FC9F2DE9FC413F
:10379000074615460E4600246846009300F076F86A
:1037A00060F30704C4F3C00030702009387001A929
:1037B000009800F05DF80099019A014400910A44D4
:1037C000511A022904DB684600F057F828800120CE
:1037D000BDE8FC8110B504460020CA1701EB526316
:1037E00023F07F02891ACAB2D911002901DD42F003
:1037F0008002225400F10100EFDC10BDF8B5012475
:1038000000250E4607460D606D1C042D0FDC0121BE
:103810006846B84701280AD19DF80000316800F0D9
:103820007F0202FB0411E40131600006ECD428465B
:10383000F8BD401C802801DA401C7047B0F5804F6D
:1038400001DA801C7047A049884201DAC01C704729
:10385000001D704730B500229C4C05E02368521CC7
:1038600013F8015B057023608A42F7DB084630BD20
:10387000964A1060AFF22300C0E701684A7811F859
:10388000023B016002EB032210467047016811F809
:10389000012B016010467047026811700168491CD5
:1038A0000160704710B5CA17046801EB12631A0A69
:1038B00022700268521C026011700168491C01608C
:1038C00010BD70B504460D4608460EF0B1F8064628
:1038D00001462046FFF7E6FF3246294620680EF0F3
:1038E00065F820683044206070BD4178007801EBB5
:1038F0000020704770B5141E1E4605460BDD1146AC
:10390000FFF7D0FF2246314628680EF04FF82868AE
:103910002044286070BD11B1BDE87040D1E7BDE81A
:1039200070400021BEE7F0B5054608680026101A71
:1039300017460C4601280CDD0846FFF79EFF68601D
:1039400021680A18BA4204D8A960216801260844EF
:103950002060002028603046F0BD0200084602D0FA
:1039600010460EF065B8704770B5024600680D4607
:1039700020B106460EF05CF8044601E0D2E90146AB
:1039800028460EF055F8844205D122462946304695
:103990000EF08DF808B1002070BD012070BD2DE93A
:1039A000F84300258846164604464FF0FF370121AC
:1039B0000095B047012816D169463046FFF71EFF33
:1039C000601C0099FFF706FF0099401C0B18434547
:1039D00009DC21B12044B0470099884203D1207806
:1039E00060F307052F093846BDE8F8832DE9F84351
:1039F00007464FF0FF35107D14468946A84600263D
:103A000020B101280FD002283ED02675D4E900301D
:103A1000012239469847411C53D00028E4D0266142
:103A2000207D401C2075206910B90120C4E90206E0
:103A30002069042818DAD4E9003001226946984741
:103A4000411C11D0A0B32069401C20619DF80000EA
:103A5000D4E9021200F07F0303FB0122C901C4E98B
:103A600002120006E4D42569681C2AD0F5B1781C3E
:103A7000E168FFF7AFFE401C2061E1680144494561
:103A80001FDC207D401C2075E268A2B12069C119AD
:103A9000D4E900309847411C13D00028A4D0E16835
:103AA000091AE16022691044206104D000209BE7DC
:103AB000FFE70025D8E73978304661F307004FEA81
:103AC0001018267540468FE7FFFF1F003C000020BE
:103AD00070B50E46114604461A463046049DFFF75F
:103AE0003CFF2844801C002C00DD801C70BD2DE9AB
:103AF000FC5F1C46129ECDE90060DDF838B09046B0
:103B0000DDF830A0DDE90F238946054659462046F9
:103B1000FFF7DEFF0746FFF78CFE484503DD6FF039
:103B20000100BDE8FC9F302168F3C30164F342014A
:103B30006AF3000101A8FFF7AFFE39460198FFF7CD
:103B400049FE019908440190DDE90F23594601A877
:103B5000FFF7D0FE002C03DD01A80D99FFF7A2FEB0
:103B60003246119901980DF021FF019830440190DF
:103B7000401BD6E7F8B50024069E054600900429B0
:103B800001DAA01EF8BD62F3071463F3C304062A2A
:103B900024F0060200D1921CD1B26846FFF77CFEE9
:103BA00002210098FFF716FE009908440090314664
:103BB0006846FFF777FE0098401BF8BD08B5002364
:103BC00000920422FFF7D6FF08BD08B50093134604
:103BD0000622FFF7CFFF08BD08B500230092072299
:103BE000FFF7C8FF08BD2DE9F04102250E46074644
:103BF000002409E004EB440006EB800007C8FFF74F
:103C0000ACFE0544641CED1CBC42F3DB2846BDE859
:103C1000F0812DE9FF4F83B08A46DDE91087064623
:103C2000002501909346DDF848902C4639464046E1
:103C3000FFF7D9FF0090FFF7FCFD504503DDA81EFC
:103C400007B0BDE8F08F65F3070580356BF3C3055A
:103C500025F00600801CC1B201A8FFF71DFEDDE9BA
:103C60000010FFF7B7FD01990844019001A80699DB
:103C7000FFF718FE0EE004EB440007EB800501A8F7
:103C800095E80E00FFF736FE19F8241001A8FFF79B
:103C900003FE641C4445EEDB0198801BD0E72DE950
:103CA000FC4782464FF000090A9800901E461446D1
:103CB00088464D464F466846FFF7E8FD60F3070526
:103CC0002809092826D101A90098FFF7D1FD0099FC
:103CD00007460844019900904518281A022819DB64
:103CE0006846FFF7CAFDAAF80000C4F800900DE08E
:103CF0002168414502DD4FF0FF370BE06846FFF7D2
:103D0000C5FD21688A00491C2160B0500098A84276
:103D1000EED301273846BDE8FC872DE9F0410225A6
:103D20000E460746002409E004EB440006EB800041
:103D300007C8FFF712FE0544641CAD1CBC42F3DB50
:103D40002846BDE8F0812DE9FC5F8A46DDE90C8755
:103D50000646002501909B4691462C463946404632
:103D6000FFF7DBFF0090FFF764FD504502DDA81E62
:103D7000BDE8FC9F65F30705A03569F3C30525F091
:103D80000600801CC1B201A8FFF786FDDDE9001026
:103D9000FFF720FD019908440190594601A8FFF75B
:103DA00081FD09E004EB440007EB800501A895E8DC
:103DB0000E00FFF79FFD641C4445F3DB0198801B58
:103DC000D6E73EB5002400920B4602468DF804402B
:103DD0008DF8084002A901A8FFF7D8FC9DF804104F
:103DE0000B2900D101203EBD70B5094DFF231A46B5
:103DF00005F5807605E010F8014B54402A5D5A40E5
:103E0000335D491E89B2F6D242EA032070BD00003C
:103E10004C21010870B5CC08654201EBC5018B400F
:103E2000012595406D1E8D400219015D567841EACD
:103E30000621A94319430155080A507070BD10B5F9
:103E4000CB085C4201EBC40401219140C25C1844E0
:103E5000407842EA0020E040491E0840C0B210BD50
:103E6000002804D0012803D0062803D0062070477C
:103E7000052070470720704710B50022022104205A
:103E80000BF008FD1C490028086000D0012010BD7F
:103E900008B500238DF8000017488DF801101A4668
:103EA000694600680BF04AFF012800D0002008BDD9
:103EB00038B5114D04464FF0FF32694628680CF0C2
:103EC00088F89DF8000020709DF8010001280AD0B4
:103ED000022808D0042806D0082804D01E200CF0A0
:103EE00004FC002038BD60700022694628680BF091
:103EF000E4FF012038BD000040000020F0B4DB4AA0
:103F0000DB4B95154FF48064961459B1E8B1012844
:103F10001DD002281DD003281ED110211046F0BC50
:103F200009F0B5BC50B101280AD002280AD00328F4
:103F300012D110211046F0BC09F0ABBC2146F9E7C4
:103F4000294600E031461846F5E72146E6E72946CE
:103F500000E031461846E2E7F0BC704738B101286E
:103F600007D0022807D0032800D1C2487047C248B2
:103F70007047C2487047C248704738B504468DF84C
:103F8000000001208DF80100BE4D40F2255320466F
:103F900079B1FFF7E3FF0122194608F05AFF00212B
:103FA0002046FFF7ABFF0022694628680BF085FF2B
:103FB00038BDFFF7D3FF0022194608F04AFF012160
:103FC0002046FFF79BFF00231A46694628680BF03E
:103FD000F4FC38BD08B5AB4CAB4D4FF0FF36324664
:103FE000694620680BF069FF29689DF80000884742
:103FF000F5E738B1012807D0022807D0032800D1FF
:10400000262070472720704747207047342070478C
:104010007CB501218DF8041002218DF807108DF870
:1040200005100021914E8DF80610A8B1904D012881
:104030001FD0022820D003280DD11020009001218C
:10404000082009F07AFD6946304609F0BBFB1021D3
:10405000304609F01EFC7CBD4FF48064012108202D
:10406000009409F06AFD6946304609F0ABFB214631
:10407000EEE74FF4807401E04FF4805401210420F6
:10408000009409F05AFD6946284609F09BFB214639
:104090002846DEE7F0B587B01C4616460D460746B3
:1040A000FFF75CFF07F0FAFA3846FFF757FF07F013
:1040B00032FB3846FFF7ACFF3846FFF79AFF8DF822
:1040C000180006208DF819008DF81A7001208DF85F
:1040D0001B0006A808F015FF0295002524B1012C4D
:1040E00005D0022C35D105E0ADF8105006E04FF4B4
:1040F000C06001E04FF48060ADF81000072E06D0DC
:10410000082E26D124B17002ADF80C0002E004B3F1
:10411000ADF80C500C20ADF81200ADF80E50ADF813
:1041200014503846FFF71AFF02A908F082FD3846FE
:10413000FFF714FF012240F2255108F08AFE3846AD
:10414000FFF70CFF012108F0E5FD4E4C206818B187
:1041500011E0002007B0F0BD0022022104200BF086
:1041600099FB20600D20CDE900050023822247A1A4
:1041700049480CF04DF90120ECE738B50446FFF74B
:10418000EDFE08F0EDFD2046FFF7E8FE402108F0C7
:1041900078FE0028F7D08DF8004001208DF801004E
:1041A000384800231A46694600680BF006FC0120D7
:1041B00038BD10B50C46FFF7D1FE08F0D5FD2070D4
:1041C000012010BD38B50446FFF713FF8DF800003D
:1041D00006208DF8010000208DF802008DF8030004
:1041E000684608F08EFE2046FFF7B8FE002108F072
:1041F00091FD38BD10B540F225511E4808F04BFE28
:10420000002804D0BDE81040032000F02BB810BDFA
:1042100010B540F22551184808F03DFE002804D0A2
:10422000BDE81040002000F01DB810BD10B540F2F0
:104230002551134808F02FFE002804D0BDE8104097
:10424000022000F00FB810BD10B540F225510B4808
:1042500008F021FE002804D0BDE81040012000F045
:1042600001B810BD0D49096808470000000C024064
:104270000008024000440040004800400014014093
:10428000004C0040440000207000002073657269FB
:10429000616C20706F6C6C00D53F00086C000020D2
:1042A0002DE9F041574E86B00446718030780025E4
:1042B000A8BB0121084609F05EFC1C208DF80C000B
:1042C00007208DF80D008DF80E5001278DF80F7026
:1042D00003A808F016FE7802ADF8080064200190EB
:1042E000ADF802501420ADF800004FF080488DF872
:1042F0000A506946404609F08FFE0121404609F008
:10430000E9FE0521404609F0C9FE012140460AF0B8
:104310002CFA0122114640460AF007FA37703A4E4D
:1043200056F8240078B90022042101200BF0B2FADB
:1043300046F824008DF810500023ADF812505A1E94
:1043400004A90BF03AFB06B00120BDE8F0811CB5D2
:104350000021019101218DF800102A49022301AAB0
:104360004988ADF80210284951F8200069460BF041
:10437000E5FC4FF080440021204609F08FFE01212A
:10438000204609F0C1FE1CBD1CB50021ADF8061089
:1043900000918DF804101C4902236A4651F8200050
:1043A00001A90BF0CBFC1CBD2DE9FC410026174FE9
:1043B000154D3446019655F8240069460BF0E0FE91
:1043C0009DF80000012813D1BDF80200401E000432
:1043D000000CADF8020004D18DF800603968204669
:1043E000884755F82400022301AA69460BF0A6FC71
:1043F000641CE4B2042CDED3BDE8FC410121880733
:104400000AF0B3B948000020B40300207400002073
:10441000F0B500EB80045548322300EB8400012501
:10442000036380F82E5000260B7837464FF0020CBD
:10443000012B05D0022B0BD00024032B18D008E051
:1044400090F82D00012801D04D7017E04F7015E055
:10445000012400231C4311D090F82F309C060BD56B
:1044600003F00F03012B05D04D7080F82F7005E08D
:104470000123EFE74F70F8E781F801C082F800C030
:104480003046F0BD30B500EB80053848322400EBF3
:10449000850000230463012480F82E4090F82D004D
:1044A000012804D0062008701470184630BD002082
:1044B000F9E7F0B5034603EB83042C4B322503EBFD
:1044C000840400202563012584F82E5094F82D30B3
:1044D000012B01D0062315E094F82F30DB0613D40E
:1044E0000B780C2B10D2002305E0CE5CE7185B1C88
:1044F00087F83460DBB20E789E42F6D2102384F83F
:104500002F3000230B7000E003201570F0BDF0B5D4
:10451000034603EB8304154B322503EB8404002090
:104520002563012584F82E5094F82D30012B01D0FD
:10453000062315E094F82F30DB0613D40B780C2BF0
:1045400010D2002305E0CE5CE7185B1C87F83460CE
:10455000DBB20E789E42F6D2102384F82F3000236F
:104560000B7000E003201570F0BD0000D0020020A9
:104570002DE9F0411746884608B1012521E0644E37
:1045800062483061634870616348F0606348B061BD
:104590000020F06162483062624870626248002424
:1045A000B0623A464146204600F0CAF8641CE4B2C4
:1045B0000546042CF5D325B9FFF75EFC20B1012098
:1045C00030702846BDE8F0810225FAE702465048DF
:1045D00010B501780024012902D00524204610BD21
:1045E000C1690029FAD010468847F7E770B5484DF1
:1045F00000262878012802D00526304670BD002408
:10460000296920468847641CE4B2042CF8D30020B2
:104610002870F2E710B53E4C217819B1012905D078
:10462000052010BD6169884701202070002010BD61
:1046300038B5374C207808B1052038BD6846FFF7FB
:1046400037FC01285AD19DF80100012856D00228D4
:1046500002D0042852D10EE02D4BA4691B1D1A1D57
:104660009DF80000D11FA047F0BB9DF80000042179
:10467000FFF70EFC42E0A0684078A0702BA00DF080
:104680002FFB0225E570224A0021A3782C3212F874
:10469000310078B198420AD102EBC1011C4A4B6843
:1046A0009DF80000121DA1689847E07002E0491CC7
:1046B0000529ECDBE178D1B10022A280A06802706C
:1046C000A288521C92B2A280A37843F08003835444
:1046D000A288521C92B2A2808554A288521C92B227
:1046E000A2808154A08800E008E0401CA080A3883C
:1046F000D4E902249DF800000021A047002038BD25
:1047000030B4034CE468A44630BC60478B470008D3
:104710004C000020B14700082B480008D147000892
:10472000BB4800082B490008974900080D0A20469D
:1047300072616D6520726563697665643A20000078
:104740002DE9F04117460D46064600240BF0C8FF40
:104750003B46082229463046FFF79CFC01280ED133
:10476000B5F5964F01D9232003E096496800B1FBC7
:10477000F0F081B23046FFF793FD012800D002240B
:104780000BF01FFF2046BDE8F08110B504460BF08A
:10479000A7FF8D4900200855024601212046FFF75A
:1047A000ECFB2046FFF7D3FDBDE810400BF009BF3E
:1047B00010B504460BF094FF002211462046FFF787
:1047C000DCFB2046FFF7E0FDBDE810400BF0F9BE32
:1047D0002DE9F05F9B4690468A46044600270BF081
:1047E0007FFF79480C3030F81420784901EB04251C
:1047F0006E1C082A06D330F8141081462846FFF7AD
:10480000F3FA38B10427C8F800600BF0DAFE384636
:10481000BDE8F09F29788AF8001039F81400C01E0E
:10482000ABF80000C8F80060EDE72DE9F0479A46C4
:1048300016468946044600270BF052FF6248005D89
:10484000012805D004270BF0BCFE3846BDE8F087F0
:104850005F485D4D761E2D1D40F824604FF0010825
:1048600025F8148086F8009035F8142002EB0A0130
:1048700025F8141035F8141050F82400FFF7B4FA96
:10488000014635F81400514A02EB04221318401C6B
:1048900025F81400197035F81400090A0244401C68
:1048A00025F814001170A5F1080000F80480012219
:1048B00000212046FFF761FBC5E7F8B50446002557
:1048C0006946FFF776FC404B185D50B13F4903F154
:1048D0000C0201EB0421012808D0022814D003287F
:1048E00002D12046FFF733FD2846F8BD002022F80C
:1048F00014009DF8006032F814000144401C22F8B6
:1049000014000E7002200EE032F81400FF2809D8BF
:104910009DF8003032F814000144401C22F81400C5
:104920000B70DEE703201855DBE72DE9F041264D3B
:10493000002604462D1F285D10B1012829D105E06D
:10494000002201212046FFF718FB22E01E4F3F1DE9
:1049500037F8140088B11E4D55F824000178204620
:10496000FFF70BFC55F82400401C45F8240037F8ED
:104970001400401E27F814000BE008212046FFF722
:1049800087FA0646002201212046FFF7F6FA0020AA
:1049900028553046F7E670B50B4E05460024705D8D
:1049A00010B1022807D101E0012100E002212846D0
:1049B000FFF76EFA04462846FFF7E6FC0120705523
:1049C000204670BDA07F1700A4000020C403002073
:1049D000C407002038B514468A780025012A02D081
:1049E0000125284638BD012222804A702288521CA7
:1049F000228002228A702288C91C521C22806A46A8
:104A0000FFF706FD18B1FFF72BFA0546E9E7208806
:104A10009DF8001008442080E3E738B514468A78F2
:104A20000025012A02D00125284638BD0122228016
:104A300004224A702288521C228002228A70228814
:104A4000C91C521C22806A46FFF733FD18B1FFF7DC
:104A500007FA0546E8E720889DF800100844208002
:104A6000E2E738B514468A780025012A02D00125EC
:104A7000284638BD0122228005224A702288521C15
:104A8000228002228A702288C91C521C22806A4617
:104A9000FFF73DFD18B1FFF7E3F90546E8E7208889
:104AA0009DF8001008442080E2E7000030B50D4674
:104AB00085B0114600F05DFB040016D0B0480090B0
:104AC0008DF808506846019401F029FE207A60B103
:104AD000E06806F094FD206906F003FD21460620FB
:104AE00002F0FEFE002005B030BD2046FBE710B509
:104AF00086B004000AD0A348CDE90004684601F05E
:104B00000EFE00206060204600F0FFFA002006B094
:104B100010BD10B5040086B06FF00900F7D0002971
:104B2000F5D0002AF3D09848CDE90004CDE902126F
:104B30008DF81030684601F0F2FD94F90800E6E7C0
:104B400010B586B004000BD09048CDE90004029166
:104B5000ADF80C20684601F0E2FD94F90800D6E7B4
:104B60006FF00900D3E710B586B004000BD0884879
:104B7000CDE900040291ADF80C20684601F0CFFDAC
:104B800094F90800C3E76FF00900C0E710B586B0DC
:104B9000040008D07F48CDE90004684601F0BFFD5D
:104BA00094F90800B3E76FF00900B0E710B586B0DC
:104BB00004000AD07848CDE900048DF80810684652
:104BC00001F0ADFD94F90800A1E76FF009009EE740
:104BD00010B586B0040018D06069002897D005A9E8
:104BE000E26906F0A1FC401C11D0E36A1BB100226F
:104BF000012120469847059828B16848CDE900046E
:104C0000684601F08CFD059881E700207FE70020D1
:104C10000590F8E730B587B04FF000050400009527
:104C20005ED020696FF00701F0B194F9082012F10D
:104C3000040F55DB2278102A18D06946E26906F085
:104C400073FC401C57D0009858B10268218C12891F
:104C5000891A2184E36A23B1006801210289204670
:104C60009847009807B030BD217239E0607802287B
:104C7000FAD0052002F025FE009068B106A9E2698D
:104C8000206906F051FC401C08D0069868B10289E2
:104C9000208C801A208409E0FF2004E00520009980
:104CA00002F01EFEFD2020721AE00022E36A13B11A
:104CB000012120469847069961B100980160069944
:104CC0004160858135498560CDE9011460B1006896
:104CD00000890AE00520009902F002FE207A08B15E
:104CE0000020BFE7F920DEE70120ADF80C0001A8A5
:104CF00001F015FDB5E70095B3E710B586B00400E7
:104D000009D02748CDE900040291684601F007FD6B
:104D100094F90800FBE66FF00900F8E611B18A602B
:104D20008B81EAE76FF00800704710B586B0040089
:104D300005D02078102805D06FF00800E7E66FF066
:104D40000900E4E61748CDE9000402918DF810301F
:104D50006846039201F0E3FC94F90800D7E610B529
:104D600086B0040008D01048CDE90004684601F080
:104D7000D6FC94F90800CAE66FF00900C7E6000007
:104D80003D5200085952000845550008BF5200081E
:104D900047530008AD530008CF530008D55400080E
:104DA0007954000811550008B75500082DE9F04165
:104DB00016460F4604002FD0206910B33189002217
:104DC000032002F085FE050026D0314602F09BFF4D
:104DD000A0B9052002F075FD06000FD035607560A2
:104DE000686831460C30B060387CB081206906F0CC
:104DF0008EFB38B1304600F043FC0DE0284602F04F
:104E000045FE09E0208C298908442084E36A1BB10F
:104E10002A890021204698470020BDE8F0812DE92D
:104E2000F0411F46DDF818801646040015D02069B1
:104E300098B1052002F045FD050010D02E60C5E9AF
:104E40000167A5F80C802946206906F060FB58B17F
:104E50002846BDE8F04100F013BC104600E03046A3
:104E6000BDE8F04102F012BE208C31890844208454
:104E7000E36A002BD1D032892046BDE8F041002101
:104E80001847CAE770B51146040008D0206930B150
:104E9000237239B10D89208C2844208403E06FF0FF
:104EA000080070BD0025206906F031FB10B14FF0FD
:104EB000FF3070BDE36A1BB12A46002120469847A7
:104EC000002070BD70B50025456004460172006980
:104ED00048B1E36A1BB100221146204698470021E1
:104EE000206906F007FBE06830B16078032803D141
:104EF0006570E06806F07EFB606948B1E36A1BB14B
:104F000000221146204698470021606906F0F2FA17
:104F10006078012801D0042805D16570E068BDE8FB
:104F2000704006F067BB70BD2DE9F041426A04464F
:104F3000806A5168936801440026181AB0F5803FD2
:104F400002D34FF6FF7500E085B26768B7F86E00D0
:104F5000A84200D20546137B2A46384604F0C0FD1D
:104F6000002718B1411C36D020722EE0A06A2844D8
:104F7000A062616A8968884203D16762A7620126DC
:104F800067706068816F61B190F8221011F0440F72
:104F900007D1416F41B10A681AB98989028F9142DC
:104FA00002D304F033FE00E00020207260B9606894
:104FB00040F2B451B0F86E00884205D8E36A1BB1E4
:104FC0002A460321204698471EB16770E06806F024
:104FD00011FB002021E7606804F018FEF9E770B5C6
:104FE000044640781546012802D0042804D006E083
:104FF0002046FFF799FF02E0204600F011F86CB15F
:10500000606858B1B0F86E0040F2B451884205D9DA
:10501000E36A1BB12A46022120469847002070BD52
:1050200010B504464068002103F033FD6068017C40
:1050300001294FF0000129D003F02DFD0021606807
:1050400003F032FD0021606803F028FD04220021F6
:10505000606803F02BFD0021606803F022FD6068AA
:1050600003F02CFAA8B1FE49606803F017FD042292
:10507000FC49606803F01AFDFB49606803F011FD0C
:1050800021466068BDE8104003F003BD03F00CFD4D
:10509000E5E70020607060602072E36A4BB1002297
:1050A000114620469847E36A1BB1002202212046A0
:1050B0009847E068BDE8104006F09CBA10B541780A
:1050C000012902D0042903D004E0FFF72DFF01E0FD
:1050D000FFF7A6FF002010BD10B54468014620462A
:1050E00003F0D7FCE149204603F0D5FCDC4920461B
:1050F00003F0D4FC0422DB49204603F0D7FC204611
:10510000BDE81040D84903F0CCBC38B5044600696E
:10511000002530B90FE02078102800980ED000F05C
:10512000AFFA6946206906F023FA401CF3D12069E2
:1051300006F0D7F92561606940B911E00028F0D088
:1051400002F0A4FCEDE70098FFF7D1FC6946606926
:1051500006F00EFA401CF6D1606906F0C2F96561EE
:10516000E06806F04CFA21460620E56002F0B8FB44
:1051700038BD2DE9F04105460F46062002F0A1FB9F
:10518000041E25D000262672257005F0F0004FF48D
:10519000FA616660102805D0202803D0402802D18B
:1051A000002500E00D46002006F0EFF9E06080B138
:1051B000284606F091F9206188B1666166704FF06B
:1051C000FF30E762A06126846662A6622046E6613F
:1051D00023E62146062002F083FB00201DE6E0685E
:1051E00006F00DFAF5E72DE9F041044640699046D6
:1051F0000F46C0B12078E16AFFF7BBFF05004FF012
:10520000FF360ED06F60FFF767FF85F808802946EC
:10521000606906F07CF948B1002068602846FFF715
:1052200074FF3046F9E56FF00800F6E5E36A1BB15C
:1052300000221146204698470020EEE510B50446AE
:105240000068406810B9204600F0C5F92068C068C1
:10525000BDE8104006F0CEB910B5026804465168AA
:1052600091B1107800F0F000102821D0202805D04E
:10527000402809D1084602F083FE05E00020C861FD
:105280002068406805F03DF82068C36A43B10022F9
:10529000114698472068C36A13B10022022198473B
:1052A0002068C068002809D0BDE8104006F0A2B907
:1052B000042050702068BDE81040B1E610BD10B564
:1052C0000446006890F9081011F1040F1FDB4368D1
:1052D000DBB1007800F0F000102810D0202806D0B4
:1052E000402814D11846616802F0F6FD04E02289D6
:1052F0001846616804F03BFF2168087207E02289C4
:105300001846616803F026FAF6E7F7210172206873
:10531000C068BDE8104006F06DB910B5040004D0B7
:1053200022722078102803D006E06FF0080010BD2C
:1053300012B92046FFF7D0FE00206070E06806F04A
:1053400059F9002010BD10B50446006843685BB1F0
:10535000017801F0F001102919D020290ED0402940
:1053600007D0F721017210E0C068BDE8104006F0D8
:1053700041B91846616802F0B4FD04E0228918467C
:10538000616804F08EFF216808722068ECE7032151
:1053900041702068FFF7A0FE2289D4E90001344B58
:1053A000406803F092FA2168087210BD10B50168D8
:1053B000044602220878B2EB101F02D1486804F0BC
:1053C00093FF2068C068BDE8104006F013B970B5BF
:1053D0000446006890F9081011F1040F08DB4268D8
:1053E00032B10178102903D1117C39B1F821017251
:1053F0002068C068BDE8704006F0FCB8217910460E
:1054000003F008FA05004FF0FF360BD02068006962
:1054100020B106F066F82168002008612068406924
:1054200018B10AE020680672E2E74FF4FA6006F06D
:1054300053F8216800284861F4D02068017A0029D7
:10544000D6D102214170206845602846216803F0CA
:1054500020FB20680749406803F026FBC8E70000EE
:10546000DF4F0008BD500008C54E0008854E0008FB
:105470001B530008E751000810B50168044691F974
:10548000080010F1040F10DB486870B1097801F0D2
:10549000F001202912D0402907D161688A68096883
:1054A0004AB102F026FD216808722068C068BDE894
:1054B000104006F09FB802F061FDF4E761688A6869
:1054C00022B18B89096804F0D5FEECE7096804F085
:1054D000E5FEE8E710B50168044691F9080010F10F
:1054E000040F0ADB486840B10978102905D1017C16
:1054F000012908D0A18803F047F82068C068BDE8FA
:10550000104006F077B810F8211F491E0170F4E72B
:10551000016891F9082012F1040F06DB4A6812B104
:105520000A78102A05D0F7220A720068C06806F0CF
:1055300061B801224A7001684862026800219162E4
:105540000068F1E430B402686FF00703516861B39A
:10555000027B002A426801D0096800E049681160B6
:1055600001680A7802F0F002102A15D0202A08D02B
:10557000402A1BD1027B12B14968097C12E00B72F0
:1055800014E0027B12B14968498A0BE04A68147C36
:105590006407F4D5918A05E0027B49680AB1098B5A
:1055A00000E0098C8268118000E013720068C06816
:1055B00030BC06F01FB801684A6812B10A78102A98
:1055C00005D0F7220A720068C06806F013B80422FA
:1055D0004A70006824E570B50446002021684FF049
:1055E000FF3508722168087800F0F00010282AD0F2
:1055F000202814D0402805D0F7200872206890F9A0
:10560000080070BD207902F0CFFC21684860226854
:1056100018B1134902F06AFCF0E71572EEE704F0E6
:1056200084FE21684860216818B10978222902D0D7
:1056300003E00D72E2E70121017422680949506814
:1056400004F05CFEDAE703F022FA01002068416012
:10565000206802D0FFF740FDD0E70572CEE70000DA
:10566000AD4D00081F4E000810B5052002F029F9C5
:10567000002804D00021016041608160818110BD5B
:1056800010B504000CD0206820B102F0FFF9002012
:10569000606020602146BDE81040052002F020B97E
:1056A00010BD70B50D4604000ED0206808B102F0A0
:1056B000EDF900222946104602F00AFA206000287F
:1056C00001D06060406870BD002070BD10B504005E
:1056D00006D0206808B102F0D9F90020606020608F
:1056E00010BD70B515460E46040013D0206808B1F1
:1056F00002F0CCF900210222084602F0E9F920600C
:1057000058B1466020680581206845812068606046
:10571000002070BD6FF0090070BD00206060401E69
:1057200070BD70B50D4604000DD0002D0BD029685A
:10573000206802F0B9FA206860602946BDE8704030
:10574000052002F0CDB870BD6FF0090350B149B12A
:1057500042B1436843B15B680B6040684089108088
:1057600000207047184670476FF0010070474FF0F7
:10577000FF3238B14168096821B14160086818B149
:10578000002070471046704701207047002801D064
:10579000016841607047000010B5012005F0F5FE7A
:1057A000F84C6060012005F0F0FEA06010BD70B5FF
:1057B000F44D0646686802F03FFCF348002404EB11
:1057C000840150F8211041B1641C042CF7DB686897
:1057D00005F010FF4FF0FF3070BD04EB8402002194
:1057E00040F8226000EB820001224160018141818A
:1057F0008281C1810161686805F0FCFE204670BDB0
:105800002DE9F0410E46050069D0AC69DD4F002C52
:105810000DDA786802F010FCAC69002C04DA0EB9DD
:10582000641EAC61786856E0786805F0E3FE2046B7
:1058300000F03AFE050052D0B86802F0FDFB3100DE
:105840004FF0010606D0012907D0022909D003290B
:105850000BD108E06889401C01E06889401E68811E
:1058600003E0AE8101E00020A881B86805F0C2FE27
:10587000B86802F0E1FB38682AE0016939BB416889
:1058800079B1E21704EB527201EBE20104F0070276
:10589000097806FA02F2114203D0B5F90A1000297C
:1058A0000FDC816899B1E21704EB527201EBE2015F
:1058B00004F00702097806FA02F2114207D0A9891A
:1058C00029B138B10661406905F094FECDE7006862
:1058D0000028D2D1B868BDE8F04105F08BBEBDE824
:1058E000F0812DE9F04F87B016468B4600F0DCFDC5
:1058F00004004FF0FF3A08D0E089000509D5B4F95B
:105900000A00002805DC0B2026E0504607B0BDE861
:10591000F08F2068FFF75CF9DFF8708205000DD08A
:10592000002305AA04A9FFF7F4F8070016D02846BB
:10593000FFF7DDF878420F280BD308E0206890F9D4
:10594000080041420F2902D2A8EB800003E00520A5
:1059500002E0A8EB870000682061D6E74FF000095D
:10596000BBF1000F1ED0CDF8009010278DF800700D
:1059700002208DF80100CDF80490CDF80890CDF804
:105980000C90BDF8140004F0C2FFADF802000498BA
:1059900001903068102800D937606946584632684F
:1059A0000CF004F82846FFF702FF0646401C1AD008
:1059B0007748E8627449DFF8CC8106EB860001EB9A
:1059C0008007D8F8040002F037FB298B7889C94397
:1059D00008447881AE61D8F8040005F00BFE30462B
:1059E000C4F8109092E72846FFF781F81720B3E734
:1059F000F8B517460D4600F057FD04004FF0FF368E
:105A000002D0102F05D101E03046F8BD6878022899
:105A100001D0052011E068680090688804F079FFE3
:105A2000024669462068FFF78BF840B141420F29D2
:105A3000EFD25649A1EB800000682061E4E7002026
:105A40002061F8BD70B500F02FFD040014D020686F
:105A5000FFF74DF84B4D686802F0EEFA606808B148
:105A6000FFF70EFE002060602081206020616868E2
:105A700005F0C0FD002070BD4FF0FF3070BDF8B5DF
:105A800017460D4600F010FD04004FF0FF3602D01F
:105A9000102F05D101E03046F8BD6878022801D00A
:105AA000052011E068680090688804F032FF024623
:105AB00069462068FFF757F840B141420F29EFD2FD
:105AC0003249A1EB800000682061E4E700202061FA
:105AD000F8BD70B50D4600F0E7FC04004FF0FF364E
