:020000040800F2
:1000000028E20120212F0108450E0008470E0008B4
:10001000490E00084B0E00084D0E000800000000BD
:100020000000000000000000000000009D0100082A
:10003000510E000800000000F9010008550E0008EC
:100040003B2F01083B2F01083B2F01083B2F0108E4
:100050003B2F01083B2F01083B2F01083B2F0108D4
:100060003B2F01083B2F01083B2F01083B2F0108C4
:100070003B2F01083B2F01083B2F01083B2F0108B4
:100080003B2F01083B2F01083B2F01083B2F0108A4
:100090003B2F01083B2F01083B2F01083B2F010894
:1000A0003B2F01083B2F01083B2F01083B2F010884
:1000B000EB5B00085B0E00083B2F01083B2F01089B
:1000C0003B2F01083B2F01083B2F01083B2F010864
:1000D0003B2F01083B2F0108A3590008CB5900080A
:1000E0003B2F01083B2F01083B2F01083B2F010844
:1000F0003B2F01083B2F01083B2F01083B2F010834
:100100003B2F01083B2F01083B2F01083B2F010823
:10011000E75900083B2F01083B2F01083B2F01083E
:100120003B2F01083B2F01083B2F01083B2F010803
:100130003B2F0108590E00083B2F01083B2F0108F7
:100140003B2F01083B2F01083B2F01083B2F0108E3
:100150003B2F01083B2F01083B2F0108035A0008E1
:100160003B2F01083B2F01083B2F01083B2F0108C3
:100170003B2F01083B2F01083B2F01083B2F0108B3
:100180003B2F01083B2F0108DFF80CD013F00AFECB
:1001900000480047950A000828E201202C4B196806
:1001A0000868B0E8F04F80F30988BFF36F8F4FF015
:1001B000000080F3118870470000000008480068C4
:1001C000006880F308884FF0000080F3148862B65E
:1001D00061B6BFF34F8FBFF36F8F00DF00BF00BF6B
:1001E00008ED00E0DFF80C00016841F470010160E7
:1001F000704700BF88ED00E0EFF30980BFF36F8F19
:10020000134B1A681EF0100F08BF20ED108A20E96A
:10021000F04F106009B44FF0500080F31188BFF325
:100220004F8FBFF36F8F11F0FFFD4FF0000080F391
:10023000118809BC19680868B0E8F04F1EF0100F6B
:1002400008BFB0EC108A80F30988BFF36F8F704746
:1002500018020020EFF305807047000008B541F256
:10026000883011F00DFD012442F202154FF4FA76A8
:1002700002232A4601210020009405F039FEF6A051
:1002800013F060FE304611F0FBFCF1E72DE9F04180
:10029000FA48C025A82705704770012484703221D0
:1002A000C170FF210171417181710026C671057213
:1002B00047728472C4720673F1A1103013F0A8FA69
:1002C000EE48EFA11C3013F0A3FAEC48C721283008
:1002D00000F8015B00F8017B00F8024B00F8011CFC
:1002E000E9A113F095FAE548EAA16C3013F090FA11
:1002F000E248EAA1783013F08BFAE048E9A18430B3
:1003000013F086FADD4A0620903210701471547191
:1003100010765676022082F82C0082F82D400320B9
:1003200000EB800102EB8101401C0E714E711178CF
:10033000C0B28142F4D8BDE8F04102F097B801267E
:1003400086B000208DF80C008DF8100005464FF0A7
:10035000040A4FF0030B4FF005080EE06FB10020C8
:100360000CF046FF01200CF043FF02200CF040FF90
:1003700003200CF03DFF002722E000200CF00EFFD0
:1003800001200CF00BFF02200CF008FF03200CF002
:1003900005FF012714E0DFF8E492022409F1900937
:1003A00004EB840109EB810080790128A4F10200AB
:1003B000C0B221D00CF0F2FE641CE4B2062CEFD3E4
:1003C000BA4C207868B100F076FF50B172B602F0F6
:1003D0004DF862B600F078FF00202070B4A013F052
:1003E000B1FD9DF80C000A2877D2DFE800F0081074
:1003F0004E69FBF9C59A7BF80CF0FAFEDCE7B0A079
:1004000013F0A0FD01208DF80C00B1A03AE0B7A0D8
:1004100013F098FD002201A9606811F014F801287A
:100420005BD1B3A011F0CCFE01998842F8D19DF8C0
:1004300008000128F4D19DF809000328F0D1AFA0ED
:1004400013F080FDB5A013F07DFD8C4EF078009088
:10045000B37872783178BBA013F074FDF079009016
:10046000B37972793179C4A013F06CFDF07A009001
:10047000B37A727A317ACDA013F064FD02208DF840
:100480000C00D7A013F05EFD71E298A013F05AFDA6
:10049000002201A9606810F0D6FF0128C0D1D7A0C2
:1004A00011F08EFE019988424FD19DF80800012875
:1004B000B6D19DF809000228B2D18DF80CB056E2F1
:1004C00002F05EF86D4828300068411C06D028B163
:1004D00008208DF80C00CCA0D4E795E0D04813F0AC
:1004E00031FD79E081A013F02DFD002201A96068A3
:1004F00010F0A9FF012814D1CAA011F061FE0199E2
:1005000088420ED19DF8080001280AD19DF8090003
:10051000012806D107208DF80C000126C4A013F095
:1005200011FD72A013F00EFD002201A9606810F009
:100530008AFF0128B2D1C5A011F042FE019988427C
:10054000ACD19DF80800012806D0C3A011F038FEF8
:10055000019988422DD008E29DF809000128FAD1BE
:1005600006208DF80C00C0A013F0ECFC06214FF41F
:100570007A7003F01AFAFAE1002201A9606810F01B
:1005800062FF0128E7D1BFA011F01AFE019988424D
:1005900009D19DF808000128DDD19DF80900012846
:1005A000D9D1092045E0ACA011F00AFE019988429A
:1005B00004D19DF8080001284CD0D6E1B4A011F078
:1005C000FFFD019988421FD19DF8080001281BD129
:1005D0009DF80900012817D18DF80CA0C7E161E151
:1005E0002AE0FFE7002201A9606810F02CFF012833
:1005F0000AD182A011F0E4FD0199884204D19DF84E
:100600000800012801D060B1AFE19DF80900012880
:1006100021D10CF031FE9BA011F0D2FD11F0E9F9CF
:100620004BE79DF80900022815D10CF025FE9DF836
:1006300010008DF80C009AE1FFF728FEBFF34F8FF2
:1006400096490868964A00F4E06010430860BFF3DA
:100650004F8FFEE763E134E10D0A2053656E64209D
:100660006461746120746F204465737420776974C9
:100670006820655374617475733A2000C0020020CD
:1006800061646D696E0000006C6F63616C686F730C
:10069000740000004443303200000000746573743D
:1006A0000000000031323334000000000000002060
:1006B0000D0A466C61736820757064617465000092
:1006C0000D0A53797374656D207374617274000040
:1006D0000D0A53797374656D20636F6E6E65637474
:1006E0002045746865726E65740000002E0000007D
:1006F00044484350205461736B0000000D0A0945C3
:10070000746865726E6574206164617074657220CE
:1007100045746865726E65743A0000000D0A090937
:10072000436F6E6E656374696F6E2D737065636978
:1007300066696320444E53205375666669782020AD
:100740002E203A000D0A090949507634204164648C
:10075000726573732E202E202E202E202E202E2008
:100760002E202E202E202E202E203A2025642E25CD
:10077000642E25642E2564000D0A09095375626EE6
:100780006574204D61736B202E202E202E202E208C
:100790002E202E202E202E202E202E202E203A20DD
:1007A00025642E25642E25642E2564000D0A090972
:1007B00044656661756C7420476174657761792062
:1007C0002E202E202E202E202E202E202E202E20B9
:1007D0002E203A2025642E25642E25642E256400C3
:1007E0000D0A53797374656D207374617274207788
:1007F000656273657276657200000000485454505B
:10080000205461736B0000000D0A53797374656D99
:1008100020737461727420544350204D42000000D4
:1008200054D60108544350204D42205461736B004C
:100830000D0A2053797374656D207374617274208E
:100840005253343835204D420000000052533438A2
:100850003520534C415645004B4559205343414E9A
:10086000205461736B0000000D0A53797374656D39
:1008700020636F6E6E65637420746F20736572768B
:10088000657200004D515454205461736B00000098
:10089000554450205461736B000000000CED00E0E3
:1008A0000400FA050A2011F0EBF9002201A96068A2
:1008B00010F0C9FD012858D19DF8080010B1012899
:1008C00018D052E0AFF2D81011F07AFC01998842AA
:1008D0004BD0AFF2D80011F073FC0199884244D09C
:1008E000AFF2600011F06CFC019988423DD19DF897
:1008F00009503AE0AFF2082011F062FC01998842F9
:1009000033D0AFF2081011F05BFC019988422CD073
:10091000AFF2BC0011F054FC0199884206D19DF859
:100920000900022821D18DF80C801EE0AFF2AC0046
:1009300011F046FC0199884217D19DF8090005285D
:100940000AD0032808D0022806D0062804D0092897
:1009500005D0012808D008E00CF08EFC05E00CF072
:100960008BFC0CF081FC00E00025012E0BD1002255
:1009700004A9A06810F067FD00231A4603A9A06827
:1009800010F0E1FA0026FA2011F07AF90CF054FC8C
:100990000CF06EFC9DF80C0009283FF4FCACDDE483
:1009A00030B40020A34B0246322400EB800103EB5D
:1009B0008101401C4A71CA718A71C0B28C600628DC
:1009C000F3D330BC01F044BE1CB500200FF0D9FCBD
:1009D00011208DF8070001208DF805008DF8060024
:1009E0008DF8040001A900200FF07DFD40208DF856
:1009F000030000208DF800008DF801008DF8020042
:100A000069460FF0F6FC01200FF0BBFC43F2F22127
:100A1000002010F04DF81CBD10B5012186B008076C
:100A20000EF06FFB012010F017F900200EF03FFBD5
:100A300001200EF079FA012104200EF044FB4FF45E
:100A40008040009003207C4C8DF8040069462046CD
:100A50000EF07EF94FF400410091694620460EF0F9
:100A600077F941200EF028FA0028FAD04FF4807070
:100A70000EF008FB01200EF01AFB0FF0BBFB7F20ED
:100A80000390FF2004904020029002A80FF04DFC3C
:100A900006B010BD1CB5FFF7BFFF002010F010F826
:100AA000A0F54851F23901D0FFF78EFF4FF4E13144
:100AB00062480CF062F9002461A013F043FA641C50
:100AC000E4B2142CF8D3FFF76BFF01F0B0FD594CE2
:100AD000903C2068411C03D0002200286CD000E02C
:100AE00001220020024304D056A013F02BFAFFF796
:100AF000CDFB00200CF05AFB01200CF057FB02202C
:100B00000CF054FB03200CF051FB002108460CF0C4
:100B1000B6FB0CF095FB0CF07DFB0CF0A9FB00F094
:100B200031FB01210022084610F07AF94C4D0022D9
:100B30000821A860052010F073F9686000283AD0F9
:100B4000A868002837D03B4A237B883A211DA2F1B0
:100B5000080000F091F900240420CDE900042346A8
:100B6000822240A1424810F019FF0621822003F0A2
:100B70006EF8032001F082FB0221822003F011F9BC
:100B800002214FF4C37003F0C2F8052500234FF48F
:100B9000827238A1AFF65900CDE9005410F0FEFE84
:100BA0000023822237A1AFF64B10CDE9005410F09C
:100BB000F5FE11F079FAFEE7012093E710B5002069
:100BC0000CF0A7FB80B1002025494A8840EA42008A
:100BD00080B240F460404880A0F57F41FF3901D0E9
:100BE000002010BD012010BD0120EDE7502080F352
:100BF0001188BFF34F8FBFF36F8F12F086F9014654
:100C000025A013F09FF9FEE7502080F31188BFF371
:100C10004F8FBFF36F8F25A013F094F9FEE750209C
:100C200080F31188BFF34F8FBFF36F8F1FA013F0B6
:100C300089F9FEE75003002000080240001001403F
:100C40000D0A00000D0A53797374656D20646566A2
:100C500061756C742073657474696E6700000000C0
:100C600000000020455448205461736B00000000D0
:100C7000D1110008436F6E74726F6C205461736BF6
:100C80000000000054657374206D6F6462757320FA
:100C90005461736B000000000D0A6672656548655B
:100CA000617073697A65203D202564000D0A5374D4
:100CB00061636B204F766572666C6F7720486F6F4B
:100CC0006B0000000CB500225449009201920868A4
:100CD00040F4803008604FF4A063086800F40030EE
:100CE00001900098401C0090019810B9009898421B
:100CF000F3D10868800334D5012001904748403083
:100D0000026842F0805202604548026842F4804224
:100D100002604248083002680260026842F4004201
:100D20000260026842F4A0520260031F3D4A1A604A
:100D30000A6842F080720A600A689201FCD53A495A
:100D400040F205220A60016821F003010160016898
:100D500041F0020101600168C1F381010229FAD169
:100D60000CBD01920CBD314810B5016841F4700111
:100D700001602A48016841F001010160274A002111
:100D80000832116002682A4B1A400260031D294A8A
:100D90001A60026822F48022026020480C30016050
:100DA000FFF790FF21494FF000608039086010BDC7
:100DB00070B51A4D083528681F4B204910F00C00FB
:100DC00004D01F4E042803D0082803D00B601BE07A
:100DD0000E6019E0114A121D1068C0F380541068AB
:100DE00000F03F0014B1B6FBF0F001E0B3FBF0F00F
:100DF00013681268C3F388135843C2F30142521CAC
:100E00005200B0FBF2F0086028680C4AC0F30310EF
:100E1000121D105C0A68C2400A6070BD00380240B2
:100E2000007000400C544007003C024088ED00E098
:100E3000FFFFF6FE103000240024F4000C00002018
:100E4000001BB7007047FEE7FEE7FEE7FEE77047CE
:100E50007047704711F09FBF704710B5054C0121D6
:100E600020460EF048FF2046BDE8104000210EF05D
:100E700011BC000000040040F0B506465E4887B093
:100E80000D460660C0E9012100211F4614460846B0
:100E900006F023FF38004FF0000703D003970497B4
:100EA00005971AE03068F17800BA20F0FF00084397
:100EB0000AF046FF03902868E97800BA20F0FF00A6
:100EC00008430AF03DFF04902068E17800BA20F062
:100ED000FF0008430AF034FF05904848484900974E
:100EE000CDE9011005AB04AA03A9464808F013F8A0
:100EF000444808F034F8434808F06BF807B0F0BDF8
:100F00000EB5002540A011F05BF900900120DFF83C
:100F100004813C4F404E8DF804000024002202A9B9
:100F2000D8F8000010F01BFB34B1012C0DD0022CBE
:100F300050D0032C56D159E0324807F04EFC10B97E
:100F4000002001247860022041E078680025A0B3E9
:100F5000294A030E02241168CB70030C8B70030A1C
:100F60004B700870F868010E5068C170F968090C80
:100F70008170B989090A4170397B0170B868010E26
:100F80009068C170B968090C81703989090A41708B
:100F9000397A0170386A856C1A4807F05AFB0320C9
:100FA0008DF805009DF8080001281BD100231A4682
:100FB000694630680FF0C7FF14E0FFE7386AC07C6D
:100FC00005280FD903240F4807F043FB04208DF8B0
:100FD0000500EBE72DB14FF42F706D1E10F050FEA1
:100FE00000E00024FA2010F04BFE97E74FF4FA607F
:100FF00010F046FEF5E7000020000020A37B00086B
:10100000C7C80008CC0300204448435020546173F3
:101010006B000000080000200400002000B5AFB005
:1010200068460CF02DFB0120009000204FF4007169
:10103000CDE90A10090407901190CDE920010E9026
:10104000149013900A111590259026902392042055
:10105000CDE9280180032A9080012B9040122C902A
:1010600040002E90012168460CF09CFB9849486096
:10107000012198480CF03CFF2FB000BDFEB50121C6
:1010800047200EF020F8012188030EF044F80120DB
:101090000EF006F98E20009003208DF80500022541
:1010A0008DF8045000248C4E8DF806408DF80740D2
:1010B000694630460DF04CFE0B22012130460DF002
:1010C000BBFE0B22022130460DF0B6FE0B2203219F
:1010D00030460DF0B1FE0B22072130460DF0ACFE7C
:1010E0004FF460507D4F0090694638460DF030FE59
:1010F0000B22114638460DF09FFE0B220C2138467C
:101100000DF09AFE0B220D2138460DF095FE32208F
:10111000734F0090694638460DF01AFE0B220121EC
:1011200038460DF089FE0B22042138460DF084FE6E
:101130000B22052138460DF07FFE01208DF80400BA
:101140008DF806408DF8070000908DF8055069462F
:1011500030460DF0FDFD012130460DF060FE44F6F5
:10116000206502940298401C0290A842FAD3012103
:1011700030460DF052FE02940298401C0290A842A4
:10118000FAD3FEBD08B5FFF779FF4FF440700DF0BC
:1011900079F93D208DF8000006208DF8010000202F
:1011A0008DF8020001208DF8030068460DF06FF9FC
:1011B00001214FF060600DF086FF0CF055FA0CF045
:1011C0007FFE0CF083FE0128FBD0BDE8084025E738
:1011D00086B00027434C0497002205A9206810F030
:1011E000BEF99DF814000128F6D13FA010F0E8FFE9
:1011F000029040480124364E8DF80C4090F80C8047
:10120000B4603D4D4FF4FA7AB9F1000F4FD001218F
:1012100008460CF09FFA400739D5B06800283078AE
:101220002FD0002843D134708DF80D4000231A468A
:1012300002A928680FF087FEFFF7F0FE0CF0F1FB23
:10124000B8F1000F0DD0049800BB04A90C20CDE923
:10125000000100234FF4827228A12B4810F09EFB5E
:1012600025E026A010F0ACFF02908DF80C40032082
:101270008DF80D0000231A4602A928680FF063FEBE
:1012800015E018B10CF0DDFB377077600FE03770B8
:101290008DF80D7000231A4602A928680FF053FE3E
:1012A0000CF0CFFB049810B110F0A3FB049750464C
:1012B00010F0E6FCA8E7064800218160406808B10C
:1012C0000020704701207047014901208860704765
:1012D0002C000020400001000000024000040240F9
:1012E0000008024008000020455448205461736BF8
:1012F00000000000C00200200400002044484350C9
:10130000205461736B000000010F00082DE9F041CB
:101310000646002131480D4601EB410200EBC202B6
:10132000127D32B1491C0A29F6DB2F4647B12C4CFD
:101330000FE001EB410100EBC10701223A75F5E72F
:101340000020BDE8F0813046616812F032FA30B119
:101350002468002CF7D1384600F02CF8F0E7A0689C
:101360003860E0687860E068C7E90205207C38747E
:101370003846E6E700F01EB870B505461346D5E9D5
:1013800001200E46904202D14FF0FF3070BD141A7A
:101390009C4200DD1C46296822460144304612F07A
:1013A000BFF9A8682044A860204670BDD0E90110AC
:1013B000081A7047094A002101EB410302EBC303FD
:1013C000834206D101EB410102EBC1010020087507
:1013D0007047491C0A29EFDB704700000804002011
:1013E000E0D101082DE9F04F884600268346F249F6
:1013F000ADF2846D3446304651F82020521C41F83D
:101400002020401CC0B20228F6D30020EA4D074637
:10141000083DD8F8042055F82030934203D1012428
:1014200041F8207007E051F82020C82A03D941F87C
:10143000207045F82070401CC0B20228E9D3BBF1EF
:1014400000000BDB40F2DC52694605F0F8FECDF8F7
:101450007C06002806DC584605F0BAFD0DF2846DC6
:10146000BDE8F08FDDF87C26B94664210DF80270E6
:101470000DF2DC5012F06DF901208DF8DC0501F061
:10148000B8F8CEA1684612F07BF9CDF87C0634217D
:101490000DF5C86012F05DF9CBA10DF5C86012F032
:1014A00063F9CC490DF5C86012F05EF9CAA10DF5DB
:1014B000C86012F059F9C7490DF5C8600C3112F037
:1014C00053F92322C7A1684612F0ABF900287DD05A
:1014D0002022CDA1684612F0A4F9002877D01E2260
:1014E000D2A1684612F09DF9002871D01D22D7A123
:1014F000684612F096F900286BD01C22DBA16846E2
:1015000012F08FF9002865D01B22E0A1684612F086
:1015100088F900287DD01F22E3A1684612F081F9E6
:10152000E94FDFF8A8A3002874D02022E8A168467C
:1015300012F077F900286ED01422EEA1684612F05E
:1015400070F9002868D01522F0A1684612F069F9F8
:1015500000286FD01722F3A1684612F062F9002824
:1015600069D01622F5A1684612F05BF900286FD009
:101570001722F8A1684612F054F9002869D00E220B
:10158000FAA1684612F04DF900286FD00F22FBA196
:10159000684612F046F9002869D00F22FBA1684680
:1015A00012F03FF900287CD01022FCA1684612F00E
:1015B00038F9002876D00F22FDA1684612F031F9E3
:1015C000002870D01022FEA1684604E034E039E023
:1015D00040E045E04CE012F024F900287ED00E22D5
:1015E000FCA1684612F01DF9002878D00D22FDA15B
:1015F000684612F016F9002872D00B22FDA1684649
:1016000012F00FF900286CD000270C22FCA16846CC
:1016100003E066E294E2F6E2FBE212F002F900284F
:101620007ED0002007437CD0002C7BD001F0CEFC84
:10163000F7A0F0E2F0E2F2E2002CF6D0684601F00A
:1016400024F839E2002CF0D0684601F0CBF933E2FF
:1016500020E369E3002CE8D0684601F0CAFB2BE2E6
:10166000002CE2D0684601F01CFC25E2B6E3B9E3A9
:10167000002CDAD00DF2746100200EF00AFF0DF597
:10168000CF6100200EF07DFF64210DF2DC5012F0DE
:1016900060F89DF874060A2808D2E1A10DF2DC502A
:1016A00002E0A5E3A8E3ADE312F05EF89DF874064E
:1016B000C8B30A2100F0A2FE01460DF2DC5012F080
:1016C00053F8D8A10DF2DC5012F04EF89DF87506D3
:1016D0000A2809D2D2A10DF2DC5003E095E399E388
:1016E0009DE39FE312F040F89DF8750660B30A2170
:1016F00000F084FE01460DF2DC5012F035F8C9A16D
:101700000DF2DC5012F030F89DF876060A2804D26B
:10171000C3A10DF2DC5012F027F89DF8760603E025
:1017200084E384E35EE20DE080B10A2100F066FE0E
:1017300001460DF2DC5012F017F89DF8770638B12B
:10174000B9A106E0B6A1B8E7B5A1D4E7B4A1F0E726
:10175000B7A10DF2DC5012F007F89DF878060828C2
:101760000CD2DFE800F00B04062827262524B2A1BE
:1017700000E0B3A10DF2DC5011F0F6FFB2A10DF2C2
:10178000DC5011F0F1FF9DF87A060A2804D2A4A1DA
:101790000DF2DC5011F0E8FF9DF87A0630B10A2115
:1017A00000F02CFE01460DF2DC504FE18FE18CE1A0
:1017B00089E186E183E180E1400000207573657274
:1017C0006E616D6500000000757365726E616D6518
:1017D0003D000000D00200202670617373776F72A5
:1017E000643D0000504F5354202F70726F74656336
:1017F000742F6367692F6E6574776F726B636F6E9A
:101800006669672E63676900504F5354202F7072CA
:101810006F746563742F6367692F686F7374636F88
:101820006E6669672E63676900000000504F53546D
:10183000202F70726F746563742F6367692F7061F6
:101840007373776F72642E6367690000504F53544F
:10185000202F70726F746563742F6367692F7365CF
:101860007454696D652E6367690000004745542014
:101870002F70726F746563742F6367692F67657467
:1018800054696D652E636769000000004745542068
:101890002F70726F746563742F6367692F7265624E
:1018A0006F6F742E63676900474554202F70726F05
:1018B000746563742F6367692F706F7274636F6EE2
:1018C0006669672E636769002C03002050030020BF
:1018D000504F5354202F70726F746563742F636779
:1018E000692F706F7274636F6E6669672E636769C4
:1018F00000000000474554202F7374796C652F73E6
:1019000074796C652E6373730000000047455420A2
:101910002F7363726970742F636F6D6D6F6E2E6AB3
:1019200073000000474554202F7363726970742F51
:1019300064617461686F73742E6A73004745542044
:101940002F7363726970742F646174616C616E2EA1
:101950006A730000474554202F7363726970742FB7
:1019600064617461706F72742E6A7300474554200D
:101970002F6C616E636F6E6669670000504F535441
:10198000202F6C616E636F6E666967004745542057
:101990002F706F7274636F6E66696700504F535497
:1019A000202F706F7274636F6E66696700000000AD
:1019B000474554202F686F7374636F6E66696700C4
:1019C000504F5354202F686F7374636F6E6669674E
:1019D00000000000504F5354202F6D61696E7461F8
:1019E000696E0000474554202F6D61696E7461690E
:1019F0006E000000474554202F5265626F6F7400DF
:101A0000504F5354202F5265626F6F7400000000D6
:101A10002F7265626F6F742E68746D6C0000000029
:101A2000300000003A00000020504D20000000006F
:101A300020414D20000000004D6F6E646179000070
:101A400054756573646179002C20000011F08CFEE0
:101A5000F7A10DF2DC5011F087FE9DF879060A28F7
:101A600005D2AFF244010DF2DC5011F07DFE9DF87D
:101A7000790678B30A2100F0C1FC01460DF2DC5072
:101A800011F072FEEAA10DF2DC5011F06DFE9DF82E
:101A90007B060A2805D2AFF278010DF2DC5011F076
:101AA00063FE9DF87B06C8B10A2100F0A7FC014641
:101AB0000DF2DC5011F058FE37E3DEA15AE6E0A14A
:101AC00058E6E2A156E6E3A154E6E5A152E6AFF2FC
:101AD000B00168E6FFE7AFF2B801CFE7AFF2C001AF
:101AE000E6E7002C7ED01022DF49584605F066FC60
:101AF000DD4903221139584605F060FCDA4903221A
:101B00001139584605F05AFC0DF2DC5011F04AFE2E
:101B100002460DF2DC51584605F050FC584605F0DF
:101B200057FA0A2010F0ACF8BFF34F8FCF4908687E
:101B3000CF4A00F4E06010430860BFF34F8FFEE728
:101B4000002C76D040F2DC51684611F002FE00F025
:101B50007FFDC54968460E3911F006FEC249684648
:101B6000113911F001FEC0496846113911F0FCFD30
:101B7000C0A1684611F0F8FD3946684611F0F4FD41
:101B8000002457463BE0BEA1684611F0EDFD0A2156
:101B9000204600F033FC0146684611F0E5FDBAA18D
:101BA000684611F0E1FD04EB840007EB80050A2193
:101BB000287900F023FC0146684611F0D5FDB4A158
:101BC000684611F0D1FDB3A1684611F0CDFD0A21A0
:101BD000204600F013FC0146684611F0C5FDAFA198
:101BE000684600E09CE011F0BFFD68790A2100F032
:101BF00005FC0146684611F0B7FD641CE4B2387874
:101C0000A042C0D8E1E0002C9BD0684600F0F8FF6D
:101C10008BE2AFF21C307BE2AFF20C3078E2002CAA
:101C20007ED000F0ADFC40F2DC51684611F091FD31
:101C300000E02DE29CA1684611F096FDA2A1684645
:101C400011F092FDA649684611F08EFDA5A16846E7
:101C500011F08AFDA24968460C3111F085FDA8A15A
:101C6000684611F081FD9E4C503C20680AF0EBF86C
:101C70000146684611F078FDA8A1684611F074FD90
:101C8000211D684611F070FDABA1684611F06CFD96
:101C900039463FE0002CC3D040F2DC51684611F0D9
:101CA00058FD00F0C4FC80A1684611F05DFDAAA1BA
:101CB000684611F059FD3946684611F055FDACA152
:101CC000684611F051FDB04C20680AF0BCF801469E
:101CD000684611F049FDADA1684611F045FD606808
:101CE0000AF0B1F80146684611F03EFDAFA1684622
:101CF00011F03AFDA0680AF0A6F80146684611F016
:101D000033FDB1A1684611F02FFD207B0A2100F0C0
:101D100075FB0146684611F027FDB1A1684600E059
:101D200083E011F021FD50E0002CB4D040F2DC51F2
:101D3000684611F00EFD00F08BFC5BA1684611F0C7
:101D400013FD002457463DE0A6A1684611F00CFDA6
:101D50000A21204600F052FB0146684611F004FDBE
:101D6000A4A1684611F000FD04EB840007EB800598
:101D70000A21287900F042FB0146684611F0F4FC84
:101D800097A1684611F0F0FC96A1684611F0ECFCB2
:101D90000A21204600F032FB0146684611F0E4FCBF
:101DA00097A1684611F0E0FC68790A2100F026FB53
:101DB0000146684611F0D8FC89A1684611F0D4FCB0
:101DC000641CE4B23878A042BED8684611F0EAFC40
:101DD00002466946584605F0F1FAA5E1002C24D0E8
:101DE0008AA095E1002C20D0684600F006FDF7E7B8
:101DF000002C1AD089A08BE1002C16D0684600F088
:101E0000FFFEF7E78CB18AA082E174B1684600F06A
:101E100063FEF8E74CB1684600F0EBFF00E024B148
:101E200088A075E10127FFF7F0BB7DE112E114E125
:101E30002F0000005765646E6573646179000000CF
:101E400054687572736461790000000046726964B9
:101E5000617900005361747572646179000000005B
:101E600053756E646179000005D201080CED00E045
:101E70000400FA0564657669636549443D00000025
:101E800026706F72740000005F747970653D000009
:101E900026000000706F7274000000005F616374C0
:101EA0006976653D000000007661722044617461CE
:101EB000537472696E67203D206E6577204F626AA9
:101EC00065637428293B0A00446174615374726924
:101ED0006E672E757365726E616D65203D20220000
:101EE00038030020223B0A44617461537472696EA6
:101EF000672E70617373776F7264203D202200003B
:101F0000223B0A44617461537472696E672E686F74
:101F100073746970203D202200000000223B0A44B7
:101F2000617461537472696E672E686F73746E6149
:101F30006D65203D20220000223B0A4461746153FC
:101F40007472696E672E4465766963655F4E616D74
:101F500065203D2022000000446174615374726961
:101F60006E672E6465766963656964203D20220092
:101F7000223B0A44617461537472696E672E697002
:101F8000203D202200000000C0020020223B0A4425
:101F9000617461537472696E672E7375626E6574D5
:101FA0006D61736B203D202200000000223B0A443B
:101FB000617461537472696E672E676174657761CD
:101FC00079203D2022000000223B0A4461746153C5
:101FD0007472696E672E64686370203D2022000071
:101FE000223B0A0044617461537472696E672E70FB
:101FF0006F7274005F74797065203D2022000000CC
:102000005F616374697665203D2022002F6C616EEC
:10201000636F6E6669672E68746D6C002F706F72E7
:1020200074636F6E6669672E68746D6C00000000E3
:102030002F686F7374636F6E6669672E68746D6C5A
:10204000000000002F6D61696E7461696E2E687406
:102050006D6C00000120FFF7E5BA0A228CA16846EA
:1020600011F0DFFB88B306228CA1684611F0D9FB82
:1020700058B30B228BA1684611F0D3FB48B10B2259
:102080008BA1684611F0CDFB90B102208DF8DC05E4
:1020900070E0D8F80410002055F820208A4202D1C0
:1020A00045F8209033E0401CC0B20228F4D33BE056
:1020B000002455F8240080B90DF5C861DDF87C06D0
:1020C00011F077FB10B17DA013E020E00DF5C860A2
:1020D000DDF87C1611F06DFB30B1641CE4B2022C0B
:1020E000E7D3022C13D01FE0D8F8040045F82400F1
:1020F00075A0FFF70BF905465846D5E9001205F023
:102100005DF9002DEDD02846FFF734F9E9E76BA023
:10211000FFF7FCF804465846D4E9001205F04EF9E2
:1021200014B12046FFF726F916B11022694924E0C0
:10213000022E1FD0AEB1674903221139584605F06F
:102140003DF9644903221139584605F037F90DF27B
:10215000DC5011F027FB02460DF2DC51584605F029
:102160002DF9584604F034FF00F034FF0DF2846D71
:10217000BDE8F08F574911221031584605F01EF97D
:10218000D9E790B04FF47A700E9053A010F018F881
:10219000544E554D00244FF4967701901E200FF0B9
:1021A0006FFD00220DA930680FF0D9F99DF83400B9
:1021B0000228F3D10FE04DA011F0C4FE8DF80940C4
:1021C0008DF8084000231A4601A928680EF0BBFECE
:1021D00038460FF055FD00220121022005F0C6F817
:1021E00007900028E7DB02268DF80D60502009F0EB
:1021F00054FEADF80E0004944FF001080FE041A02A
:1022000011F0A0FE8DF809808DF8084000231A46D1
:1022100001A928680EF097FE38460FF031FD102214
:1022200003A9079804F0AAFE0028E8DB0421079818
:1022300004F015FF10200C908DF809608DF80880CF
:1022400000231A4601A928680EF07DFE042441F2FD
:102250000605EE1F0A200FF013FD0EAB2A4631468D
:102260000094079805F043FB0CAA08A9079804F00E
:10227000FEFD08A90090FFF7B5F8EBE708B54FF4AD
:102280007A7300900022244913A00AF0A1FC08BD33
:10229000474554202F6C6F67696E000047455420F6
:1022A0002F200000474554202F6C6F676F75740016
:1022B000504F5354202F6C6F67696E002F6C6F67FF
:1022C000696E2E68746D6C002F696E6465782E6877
:1022D000746D6C0005D20108485454502054617349
:1022E0006B000000080000200400002063616E20E5
:1022F0006E6F742063726561746520736F636B65C4
:102300007400000063616E206E6F742062696E64F9
:1023100020736F636B6574008321000800F00F0069
:10232000102829D2DFE800F0080A0C0E101214164B
:10233000181A1C1E20222426302070473120704796
:102340003220704733207047342070473520704763
:102350003620704737207047382070473920704743
:102360004120704742207047432070474420704707
:1023700045207047462070477820704700F00F00D6
:102380000A281AD2DFE800F00507090B0D0F111318
:1023900015173020704731207047322070473320A6
:1023A00070473420704735207047362070473720FB
:1023B000704738207047392070477820704730B513
:1023C00004464FF000000D00107001D0002311E012
:1023D000012030BDE05C00F00F00FFF79FFF02EB33
:1023E00043014870E05C0009FFF798FF02F8130012
:1023F0005B1CDBB2AB42EDD3002030BD30B5154BDA
:102400001E2218B9302098771D220CE0B0FBF1F4A1
:1024100001FB1404B0FBF1F00FA52C5D9C54521E7F
:1024200008B1002AF2D19818401C30BD00887047CE
:102430000870000A487070470178D0F8010041EA3E
:10244000002070470870020A4A70020C8A70000E61
:10245000C8707047F80400203031323334353637D5
:1024600038396162636465660000000070B50DF084
:1024700029FDF1200DF0B0FE022130200DF05CFDB1
:102480000828F9D1FE4CFD4821680DF0D5FDFB4828
:102490006168001D0DF0D0FDF848A16808300DF00E
:1024A000CBFDF648217B0C300DF0C6FDF34DF54E0B
:1024B00010350024284656F824100DF0BDFD641C8C
:1024C0002D1D032CF6D3ED4D2035002406EB8400A2
:1024D000C16828460DF0B0FD641C2D1D032CF5D3FA
:1024E000E94DE648303029680DF0A6FDE34E403650
:1024F000002405EB8400416830460DF09DFD641C0E
:10250000361D102CF5D3DD4E9036002405EB8400EB
:10251000416C30460DF090FD641C361D032CF5D344
:10252000D64EA036002405EB8400016D30460DF038
:1025300083FD641C361D032CF5D3D04EB036002429
:1025400005EB8400C16D30460DF076FD641C361D30
:10255000032CF5D3C94E0024CC4DC03609E004EB62
:10256000840105EB810106EB840089880DF081FD73
:10257000641C2878A042F2D80DF0B0FC012070BD98
:10258000C34810B5417811B10121017010BDBB489D
:10259000BD4A3030B949006840311060002002EB7C
:1025A000800408C9401CC0B263601028F7D3B34947
:1025B0009031002002EB800408C9401CC0B2636463
:1025C0000328F7D3AD49A031002002EB800408C9ED
:1025D000401CC0B223650328F7D3A849B0310020BE
:1025E00002EB800408C9401CC0B2E3650328F7D39E
:1025F00010BDA74810B5417811B10121017010BD7F
:102600009E49A04A1031002008C942F82030401CE1
:10261000C0B20328F8D399492031002002EB80048E
:1026200008C9401CC0B2E3600328F7D310BD984826
:10263000417811B1012101707047904890490268BA
:102640000A6042684A6082688A60007B087370474B
:1026500030B58F48417811B10121017030BD8B4BED
:102660000620864C1870002004EB800100EB8002ED
:1026700003EB820211F8C05F157149785171401C5B
:102680001978C0B28142EFD830BD70B50546FFF76A
:1026900077FFFFF7CCFFFFF7ACFFFFF7D9FF7DA176
:1026A000284611F06DF8764C38B17DA111F068F82C
:1026B00018B1401C11F0D4F820707AA1284611F00E
:1026C0005FF838B176A111F05BF818B1401C11F039
:1026D000C7F8607076A1284611F052F838B170A1A1
:1026E00011F04EF818B1401C11F0BAF8A07073A1A7
:1026F000284611F045F838B169A111F041F818B138
:10270000401C11F0ADF8E0706FA1284611F038F8C8
:1027100038B163A111F034F818B1401C11F0A0F8E1
:1027200020716CA1284611F02BF838B15CA111F092
:1027300027F818B1401C11F093F8607168A1284681
:1027400011F01EF838B156A111F01AF818B1401C5A
:1027500011F086F8A07165A1284611F011F838B182
:102760004FA111F00DF818B1401C11F079F8E0718B
:1027700061A1284611F004F838B149A111F000F820
:1027800018B1401C11F06CF820725EA1284610F0C0
:10279000F7FF38B142A110F0F3FF18B1401C11F05F
:1027A0005FF860725AA1284610F0EAFF38B13CA1E8
:1027B00010F0E6FF18B1401C11F052F8A07257A1BA
:1027C000284610F0DDFF38B135A110F0D9FF18B15F
:1027D000401C11F045F8E07253A1284610F0D0FFDC
:1027E00038B12FA110F0CCFF18B1401C11F038F80F
:1027F000207327490120487070BDF0B589B00646A6
:10280000FFF7BEFEFFF713FFFFF7F3FEFFF720FF12
:1028100047A1304610F0B4FF194DB8B120A110F017
:10282000AFFF401C044644A110F0AAFF07466CB15C
:1028300067B12021684610F08CFF3A1B214668469C
:1028400010F0D2FF684609F0F4FA28603BA1304648
:1028500010F096FF80B112A110F092FF401C0446C8
:1028600035A110F08DFF074634B12FB12021684605
:1028700010F06FFF3A1B65E06CE0000000000408F8
:10288000C0020020D0020020E802002050030020F7
:102890004800002064657669636569703100000056
:1028A0003D00000064657669636569703200000070
:1028B00064657669636569703300000064657669F4
:1028C00063656970340000006465766963656D61F5
:1028D000736B31006465766963656D61736B32009B
:1028E0006465766963656D61736B330064657669F1
:1028F00063656D61736B34006465766963656761F8
:10290000746531006465766963656761746532007A
:1029100064657669636567617465330064657669CB
:10292000636567617465340044686370000000008B
:102930005365745F69700000260000005375626E75
:10294000657400002146684610F04EFF684609F0A5
:1029500070FA6860FAA1304610F012FFC8B1AFF209
:10296000C00110F00DFF401C0446AFF2340110F01E
:1029700007FF07466CB167B12021684610F0E9FEF9
:102980003A1B2146684610F02FFF684609F051FABD
:10299000A860AFF26C01304610F0F2FEE8B1AFF281
:1029A000001110F0EDFE401C040016D0E6A110F05E
:1029B00047FF06462021684610F0CBFE0EB1321BC1
:1029C00003E0204610F0EEFE02462146684610F075
:1029D0000BFF684610F044FF2873DC490120487063
:1029E00009B0F0BD70B50646FFF7CAFDFFF71FFE40
:1029F000FFF7FFFDFFF72CFED5A1304610F0C0FE1B
:102A0000D54C40B1AFF2681110F0BAFE18B1401CBD
:102A100010F026FF2070D1A1304610F0B1FE40B179
:102A2000AFF2841110F0ACFE18B1401C10F018FF8A
:102A30006070CCA1304610F0A3FE40B1AFF2A011FF
:102A400010F09EFE18B1401C10F00AFFA070C7A144
:102A5000304610F095FE40B1AFF2BC1110F090FE80
:102A600018B1401C10F0FCFEE070C2A1304610F01E
:102A700087FE98B1AFF2D81110F082FE70B1451CFC
:102A80004021201D10F065FEAFF25411284610F0D1
:102A900077FE421B2946201D10F0A6FEB8A1304645
:102AA00010F06EFEA0B1AFF2082110F069FE78B10F
:102AB000451C00206064A064AFF28411E0642846E5
:102AC00010F05EFE421BA4482946443010F08CFEF4
:102AD0009E490120487070BD2DE9F04188B08046C4
:102AE000FFF74EFDFFF7A3FDFFF783FDFFF7B0FDF6
:102AF000A6A1404610F044FE974CE8B1AFF2602129
:102B000010F03EFEC0B1401C05468FA110F098FEAB
:102B100006462021684610F01CFE0EB1721B03E031
:102B2000284610F03FFE02462946684610F05CFE3B
:102B3000684609F07EF920608EA1404610F020FE24
:102B4000C8B1AFF2A42110F01BFEA0B1401C054695
:102B50007DA110F075FE06464021201D10F0F9FD04
:102B60000EB1721B03E0284610F01CFE02462946F7
:102B7000201D10F039FE87A1404610F001FE00250F
:102B8000C8B1AFF2E42110F0FBFDA0B1401C064635
:102B90006DA110F055FE25656F4F65655037A56531
:102BA00008B1821B03E0304610F0FCFD02463146BE
:102BB000384610F019FE7AA1404610F0E1FDC8B188
:102BC000AFF2243110F0DCFDA0B1401C06465EA13E
:102BD00010F036FEE565256665665F4C5C3408B12D
:102BE000821B03E0304610F0DDFD024631462046F0
:102BF00010F0FAFD55490120487008B0BDE8F08199
:102C00002DE9F04190B08046FFF7BAFCFFF70FFDC9
:102C1000FFF7EFFCFFF71CFD0024644D6AE06846F7
:102C200010F097FD224662A1684611F0B3F969469B
:102C3000404610F0A5FD38B3AFF29C3110F0A0FD76
:102C400010B3401C064640A110F0FAFD07462021B3
:102C5000684610F07EFD0FB1BA1B03E0304610F05D
:102C6000A1FD02463146684610F0BEFD684610F0F0
:102C7000F7FD04EB840105EB81010871C87940F090
:102C80004000C871322088602021684610F061FD44
:102C900022464AA1684611F07DF96946404610F087
:102CA0006FFD28B3AFF2084110F06AFD00B3401C7D
:102CB000064625A110F0C4FD07462021684610F005
:102CC00048FD0FB1BA1B03E0304610F06BFD024621
:102CD0003146684610F088FD684610F0C1FD04EBEF
:102CE000840105EB81014871C87940F04000C8714A
:102CF000641CE4B228784FF02001A0428FD808A8C5
:102D000010F027FD31A108A811F044F908A94046A8
:102D100010F036FD88B1AFF2784110F031FD60B1AE
:102D2000401C054608A110F08BFD0B49002201F163
:102D300044044A6410B1421B52E055E04CE00000EC
:102D40004761746577617900262000004800002003
:102D5000686F737469703100E8020020686F7374E3
:102D600069703200686F737469703300686F7374D0
:102D700069703400686F73746E616D6500000000E7
:102D80006465766963656E616D650000686F737474
:102D900069700000757365726E616D6500000000FA
:102DA00070617373776F726400000000500300203D
:102DB000706F727425645F7479706500706F7274DF
:102DC00025645F61637469766500000064657669F7
:102DD0006365494400000000284610F0E3FC024609
:102DE0002946204610F000FDA0490120487010B08F
:102DF00004E72DE9F0410646FFF7C2FBFFF717FC99
:102E0000FFF7F7FBFFF724FCAFF27801304610F034
:102E1000B7FC002844D0AFF2785110F0B1FC002884
:102E20003ED0471CAFF2E001384610F009FD904C4F
:102E3000002525606560A56028B1C21B3946204683
:102E400010F0D2FC03E03946894810F08DFC89A1CE
:102E5000304610F095FC20B988A1304610F090FC67
:102E6000D0B1AFF2C45110F08BFCA8B1401C0646A3
:102E7000AFF22C1110F0E4FCE5607D4B25610C33C2
:102E8000656128B1821B3146184610F0ADFC03E0A5
:102E90003146184610F068FC7449012048700870EB
:102EA000ACE61CB50446694600200DF0F2FA01A913
:102EB00000200DF066FB74A1204610F061FC78B193
:102EC000AFF2246110F05CFC50B1401C10F0C8FC63
:102ED00010F0FF008DF8030000D040208DF80300B3
:102EE0006BA1204610F04CFC48B1AFF24C6110F0E1
:102EF00047FC20B1401C10F0B3FC8DF8020067A124
:102F0000204610F03DFC48B1AFF26C6110F038FC87
:102F100020B1401C10F0A4FC8DF8010062A12046F5
:102F200010F02EFC48B1AFF2886110F029FC20B1FE
:102F3000401C10F095FC8DF800005EA1204610F0BA
:102F40001FFC48B1AFF2A86110F01AFC20B1401C80
:102F500010F086FC8DF8040059A1204610F010FCFA
:102F600048B1AFF2C46110F00BFC20B1401C10F06E
:102F700077FC8DF8060054A1204610F001FC48B102
:102F8000AFF2E46110F0FCFB20B1401C10F068FCD3
:102F90008DF805004FA1204610F0F2FB48B1AFF2CA
:102FA000007110F0EDFB20B1401C10F059FC8DF8C1
:102FB0000700694600200DF01CFA0128F9D101A98B
:102FC00000200DF090FA0128F9D11CBD27490120FD
:102FD00088707047254810B542784049012A07D1CA
:102FE0000278012A04D100224270027001220A7084
:102FF0008078002811D008780028FDD10A200EF032
:103000003FFEBFF34F8F36480168364A01F4E06156
:1030100011430160BFF34F8FFEE710BD324900201E
:1030200000EB800201EB820200F10100D279C0B214
:10303000920601D40628F3D370472B4A002101EBF6
:10304000810302EB8303DB799B0603D4491CC9B2DD
:103050000629F4D3012908D1020024484FF4006165
:1030600001D00BF0DABE0BF0DABE7047480000204A
:10307000D00200206E65777061737300636F6E66B7
:1030800069726D706173730073657431324800004A
:103090007365747365636F6E647300007365746D3C
:1030A000696E757465730000736574686F7572730B
:1030B000000000007365747765656B6461790000DA
:1030C00073657464617465007365746D6F6E7468A4
:1030D00000000000736574796561720000000020D3
:1030E0000CED00E00400FA05500300200008024047
:1030F0002DE9F047064600688AB0002581680091F6
:10310000C3687068D0E90112EFA010F01BFFF84F00
:10311000DFF8E0A3A94605EB85010AEB810460799D
:10312000012859D1202101A810F013FBF24901A870
:1031300010F01AFBF1A101A810F016FB0A21284695
:10314000FFF75CF9014601A810F00EFBEDA101A804
:1031500010F00AFB706801A9806810F011FB5FEAAB
:10316000000839D037F815000A21FFF747F9014662
:103170003068806810F004FB70B3E6A1404610F0A0
:10318000FFFA20B1E07900F0F000401C1DE0E4A15E
:10319000404610F0F5FA28B1E07900F0F000401C4C
:1031A000E07115E0E0A1404610F0EAFA20B1E079C4
:1031B00000F0F000801C08E0DDA1404610F0E0FACD
:1031C00030B1E07900F0F000C01CE07127F81590F4
:1031D000E07940F02000E0716D1CEDB2062D9AD32D
:1031E0000AB0BDE8F087ADF5047D5822D24935A874
:1031F00010F096FA00200746829081468190824620
:103200008090CEA00EF0DCFFCF4C33901E200EF04D
:1032100037FD002283A920680EF0A1F99DF80C0269
:103220000628F3D100F077FCB3484FF0010B539020
:1032300054A801F04DFA50206CA9CDE9000102908C
:1032400058AB47F2305254A903A800F001FEFFF733
:1032500097F9A94C443CE0780090A37862782178F3
:10326000BAA010F06FFE40F25B7507E0E0780090C6
:10327000A37862782178BFA010F064FE2A4654A893
:10328000216801F031FA0028F0D10026C64D8DF8F2
:10329000D1B08DF8D0605C463346324633A92868F9
:1032A0000DF051FEFFF76CF903208DF8DC00539808
:1032B00038909148A8460C3045900C304890BBA0FF
:1032C0003E908DF8EF4053980024419015E0BAA04D
:1032D00010F038FE02208DF8D1008DF8D060002368
:1032E0001A4633A9D8F800000DF02DFE641CE4B294
:1032F000052C2BD8C8200EF0C3FC35A903A800F07C
:10330000DDFF0028E3D1002520214BA810F021FA91
:10331000539810F047FA02464BA8539910F064FAFC
:10332000B0A14BA810F020FA444616E003208DF817
:10333000D10000208DF8D0000346024633A9206852
:103340000DF001FE6D1CEDB20A2D03D9549803F067
:103350003FFE6DE7C8200EF093FCAFF26B23002216
:103360004BA903A801F039F80028DFD18E488DF869
:10337000D1B08DF8D0B000231A4633A900680DF003
:10338000E2FD9BA010F0DEFD504600F0FEFB00F0D9
:10339000E6FBDFF86081044698F80500012865D156
:1033A000BAF1000F62D1642C60D340F2A460844271
:1033B00007D288F806B03220C8F8080001208190B2
:1033C00054E088F806B03222C8F80820819958469F
:1033D00001294BD100218DF8BC00834681910E4616
:1033E0008DF8BD101FA82021319010F0B2F940498E
:1033F0000888401C80B208800A21FEF7FFFF0146C2
:103400001FA810F0B1F980A11FA810F0ADF91FA8F6
:1034100010F0C8F93290202127A810F09AF953989B
:1034200010F0C0F9024627A8539910F0DDF97AA1EF
:1034300027A810F099F92FAA27A903A801F01BF8D3
:1034400028B104208DF8D1008DF8D06004E005206B
:103450008DF8D1008DF8D0B0534800231A4633A917
:1034600000680DF070FD6FA010F06CFD2148407EEB
:10347000012802D1BAF1010F03D0BAF1000F21D017
:103480003BE1642C02D20627002019E040F2A46040
:1034900084420BD2B9F1010F15D01648082732210A
:1034A00080F81AB04FF00109C161CFE0B9F1020F05
:1034B00009D010493220072781F81AB0C8610220CC
:1034C0008146BFE032E1BBE00D0A4D657373616771
:1034D000652061727269766564206F6E20746F700A
:1034E000696320252E2A733A20252E2A73000000B6
:1034F00018050020500300202C0300202F706F724D
:1035000074732F002F6163636573735F61757468F3
:1035100000000000666F7263656F70656E000000EA
:1035200070617373000000006661696C0000000048
:103530006572726F7200000028D201084D51545418
:10354000205461736B000000080000200D0A09433D
:103550006F6E6E65637420746F20746865205365A8
:10356000727665722025642E25642E25642E2564CE
:103570000000000009436F6E6E6563742046616948
:103580006C0D0A09436F6E6E65637420746F20744E
:103590006865205365727665722025642E25642E39
:1035A00025642E256400000004000020646576690F
:1035B000636577696C6C2F000D0A09506C65617347
:1035C0006520636865636B20557365726E616D6518
:1035D00020616E642050617373776F72642061673D
:1035E00061696E002F706F7274732F2300000000EA
:1035F00009436F6E6E6563742053756363657373FF
:1036000066756C0D0A0000002F62746E5F70726543
:1036100073736564000000002F706F7274732F3035
:10362000000000000D0A5468652045786974204246
:103630007574746F6E206973207072657373000007
:10364000082F03D00020072F3FD000E001200021E9
:10365000084352D0B9F1000F4FD08DF8BCB000260E
:103660001FA85C468DF8BD602021319010F071F8E4
:10367000072F2CD0D2A11FA810F08CFC1FA810F08F
:1036800091F83290202127A810F063F8539810F099
:1036900089F8024627A8539910F0A6F8CBA127A8CD
:1036A00010F062F82FAA27A903A800F0E4FE80B169
:1036B00004208DF8D100C8488DF8D06000231A4648
:1036C00033A900680DF03FFC16E00121C0E7C3A15B
:1036D000D1E7072F26D008208DF8D100BE488DF8FD
:1036E000D04000231A4633A900680DF02CFC072FA8
:1036F0001AD0BDA010F026FC0027002082464FF013
:103700000208BE4908EB880001EB8004E07942061C
:1037100004D5012220F040008092E07160790128F8
:1037200006D086E00720D7E7B5A0E3E70120E5E76C
:10373000A07901287DD1E079C0067AD58DF8BCB09A
:1037400000208DF8BD001FA83190B24830F8181045
:10375000491C8EB220F8186020211FA80FF0F9FF35
:103760000A213046FEF74AFE01461FA80FF0FCFF73
:103770001FA810F017F8024632901FA82F2181547D
:103780003298401C32902079022801D003281CD1A5
:10379000002617E0A0190090407B0009FEF7BEFD4F
:1037A0001FA9329A01EB460150540098407B00F06B
:1037B0000F00FEF7B3FD329A1FA90A440BEB460136
:1037C000761C5054207BB042E4DCE07920F01000FD
:1037D000E0711FA80FF0E6FF3290202127A80FF01C
:1037E000B8FF53980FF0DEFF024627A853990FF059
:1037F000FBFFAFF2F82127A80FF0B6FF0A214046E1
:10380000FEF7FCFD014627A80FF0AEFF2FAA27A95F
:1038100003A800F030FE18B16D1CEDB2052D02D9E1
:10382000002502E005E00028F0D141467AA010F022
:1038300089FB08F10108B8F1060FFFF662AF6F4E81
:10384000002404EB840006EB8000816811B1491E5E
:10385000816042E00021817132228260407901283A
:103860003BD18DF8BCB08DF8BD101FA82021319040
:103870000FF06FFF70A11FA80FF076FF0A212046FE
:10388000FEF7BCFD01461FA80FF06EFFE4B36CA16C
:103890001FA80FF069FF1FA80FF084FF32902021AE
:1038A00027A80FF056FF53980FF07CFF024627A879
:1038B00053990FF099FF64A127A80FF055FF2FAA85
:1038C00027A903A800F0D7FD0CB3012C21D0214675
:1038D0005FA010F037FB01208290641C062CB0DB47
:1038E000829868B10020829002208DF8D1003A4879
:1038F0008DF8D0B000231A4633A900680DF023FBE1
:103900008098012809D030E0FFE759A1C0E75BA00B
:1039100000E063A010F016FBDDE700208DF8BCB0DE
:1039200080908DF8BD001FA8202131900FF011FF6D
:1039300064A11FA80FF018FF1FA80FF033FF3290EB
:10394000202127A80FF005FF53980FF02BFF024608
:1039500027A853990FF048FF3BA127A80FF004FFB9
:103960002FAA27A903A800F086FD03A800F033FCC6
:1039700048B1C82103A800F013FC90B1014655A03E
:1039800010F0E0FA00E502208DF8D10000208DF85B
:10399000D00003460246104833A900680DF0D3FA60
:1039A000D4E40A200EF06CF9EEE41CB50023CDE956
:1039B00000130246AFF27C414E480DF0EFFF1CBDF4
:1039C000446F6F725F636C6F736500002F706F726E
:1039D00074732F310000000004000020446F6F72E8
:1039E0005F6F70656E0000000D0A54686520446FBB
:1039F0006F7220697320636C6F7365005003002041
:103A00000D0A54686520446F6F72206973206F70CF
:103A1000656E0000180500200D0A52656365697621
:103A2000656420446174612066726F6D20706F72EE
:103A30007420256400000000706F7274732F000002
:103A4000206572726F7200002F7374617475730059
:103A50000D0A54686520506F7274202564206973C4
:103A6000206C6F737420636F6E6E6563740000006A
:103A70002062746E5F6F70656E0000000D0A5468FE
:103A800065204578697420427574746F6E2069737F
:103A9000206C6F737420636F6E6E6563740000003A
:103AA0000D0A54686520446F6F722053656E736F02
:103AB00072206973206C6F737420636F6E6E656320
:103AC00074000000636F6E6669675F6368616E67AC
:103AD000650000000D0A52657475726E20636F6494
:103AE000652066726F6D207969656C64206973204A
:103AF00025640000E73100081CB5012104200BF00B
:103B000000FB0420009003208DF8040069462E4835
:103B10000BF01EF91CBD10B5012186B008020BF098
:103B2000FAFAFFF7E9FF00208DF8040000908DF805
:103B30000500039004900120244C8DF81400694680
:103B400020460AF003FD01231A460C2120460AF004
:103B500072FD012120460AF03BFD06B010BD10B5F4
:103B60001A4C012301461A4620460AF064FD2046FD
:103B70000AF09BFD022120460AF05FFE0028F9D0E2
:103B80002046BDE810400AF0C2BD08B1012801D0AE
:103B90000C2070470D2070471CB5012102200BF04E
:103BA000B0FA2020009000208DF8040001218DF84B
:103BB00007108DF80600694605480BF0C9F81CBDD2
:103BC000202103480BF015B90008024000200140F5
:103BD000000402400EB5002422A00EF0F1FA254D9B
:103BE00000901E200EF04CF8002202A928680DF06B
:103BF000B6FC9DF808000128F3D1FFF7CDFF0125A1
:103C00001D4E8DF805508DF8045000231A46694664
:103C100030680DF098F902270020FFF7D1FF08B1B6
:103C2000002410E0641CE4B2642C0CD18DF8057003
:103C30008DF8045000231A46694630680DF083F968
:103C40000EA010F07FF964200EF01AF8E4E71CB51E
:103C50000023CDE90013024602A10F480DF09EFE9D
:103C60001CBD00004B4559205343414E2054617305
:103C70006B00000008000020040000200D0A5379AA
:103C80007374656D20697320666163746F72792047
:103C90007265736574000000D53B00080EB521A065
:103CA0000EF08EFA224C00901E200DF0E9FF00224B
:103CB00002A920680DF053FC9DF808000728F3D1F5
:103CC00000224FF41651104601F0D2F9002001F005
:103CD00011FA012001F00EFA022001F00BFA032084
:103CE00001F008FA64200DF0CBFF01208DF80500EB
:103CF0008DF804000F4800231A46694600680DF04D
:103D000022F901F02DFA19200DF0BAFFF9E71CB5E0
:103D10000023CDE90013024602A107480DF03EFE44
:103D20001CBD0000525334383520534C41564500D9
:103D300008000020040000209D3C00080EB51EA0D5
:103D40000EF03EFA1F4C00901E200DF099FF00224D
:103D500002A920680DF003FC9DF808000828F3D1A3
:103D600019A010F0EFF801210E231E4A08460FF0AB
:103D70006FFC00200FF0EDF801208DF805008DF8A4
:103D80000400194800231A46694600680DF0DBF864
:103D900016A010F0D7F80FF059F919200DF070FFA8
:103DA000F9E71CB50023CDE90013024602A1124831
:103DB0000DF0F4FD1CBD0000544350204D42205432
:103DC00061736B00080000200D0A20537461727447
:103DD000696E6720746F20696E6974205443504D7A
:103DE000420000004B000020040000200D0A20507B
:103DF0006F6C6C696E6700003D3D00082DE9F04175
:103E000090460E4605464FF0FF3700240DE0404631
:103E100000F0E7FB0346286932460119686DD0F8C7
:103E200008C0E047002807DB0444B44204DA4046F7
:103E300000F0DFFB0028EAD0B44207D105F15800BA
:103E4000A96900F0CAFB0020BDE8F0813846FBE715
:103E50002DE9F0410446DDE90765069F4165002034
:103E6000014604EBC00C401CCCF828100528F8DBF8
:103E7000216266616162C4E90127C4E903532177C5
:103E800001202165206004F1580000F0BBFB04F123
:103E90006400BDE8F04100F0B5BB2DE9F84F0446E1
:103EA0004FF000088B464546084600F09AFB034653
:103EB000606D616901224668B0470646012849D114
:103EC0008146584600F08DFB0126824600277F1C64
:103ED000042F11DC606D53460122D0F804C06946FE
:103EE000E047012808D19DF8000000F07F0101FBA8
:103EF0000655F6010006EAD460692946401C00F028
:103F000097FD00EB0906E068801BA84202D26FF023
:103F100001061FE0002D11DD584600F062FB03464C
:103F200060692A468119606D4668B047A84201D091
:103F3000012000E0002008B100260BE06069017854
:103F4000404661F30700A169060919B104F1640054
:103F500000F043FB3046BDE8F88F2DE9FC47914661
:103F60000E4680464FF0FF37002408EBC405A96ACF
:103F7000C9B3304600F026FE68BBD6E901100A1826
:103F8000AB6A1FE090F800C0BCF12F0F0AD02B29BC
:103F90000BD0232913D0614518D12B2905D0232913
:103FA0000DD00DE02F2911D10AE0411C01E0811C48
:103FB000401C914204D209782F29F8D100E0501E0C
:103FC000401C5B1C197809B19042DBD390420AD1A6
:103FD00011F0FF0F07D1E86A28B1CDE90096E96A30
:103FE000684688470027641C052CBEDB781C09D175
:103FF000D8F8500030B1CDE90096D8F85010684696
:10400000884700273846BDE8FC873EB504468069EE
:10401000002520B304F1580000F0EBFA20B904F1B8
:10402000640000F0E6FAD0B1207F10B14FF0FF3508
:1040300015E0684600F0E6FA4FF47A71684600F041
:10404000C9FAA168206900F07EFC011E07DD6A46FE
:104050002046FFF7D3FE050001D101202077284636
:104060003EBD00210A4600EBC103491C9A620529A6
:10407000F9DB7047002101770162416A002900D015
:10408000EFE770472DE9F0418EB0884604460025E1
:10409000FFF703FF00214F1E06460E2808D2DFE877
:1040A00000F06E076E096E48486E076E076E076D6A
:1040B00005466AE0089108AA6169E0680292CDE9C4
:1040C000031007AB09A8CDE9000305A8031D421C96
:1040D0000CA9801C00F042FC01285FD10C988DF8DF
:1040E000140005AA09A92046FFF737FF9DF8140020
:1040F000F0B3012802D0022808D012E0BDF8180061
:10410000009000230422A168206906E0BDF8180091
:10411000009000230522A168206900F059FE011ECD
:1041200001DC3D4623E042462046FFF767FE054698
:104130001DE0E068009001AA02A903A8636900F0ED
:1041400053FC0128EDD1BDF804000090052E13D0DA
:1041500007220023A168206900F03AFE0028E0DD74
:10416000014642462046FFF749FE0500D9D100E04E
:1041700005E0681C0AD002E00622EAE72177204623
:10418000FFF743FF08B13D4600E03DB1206A10B1A2
:104190002046FFF76FFF28460EB055E63546FAE792
:1041A000FEB505460E460024684600F02BFA31465F
:1041B000684600F00FFA69462846FFF763FF0028BB
:1041C00002DA4FF0FF3404E0684600F012FA0028EB
:1041D000F1D02046FEBD006A70470EB50446684621
:1041E00000F010FA4FF4FA752946684600F0F2F92B
:1041F00069462046FFF746FFF6E72DE9F0411646EF
:104200000D4607464FF0FF34304600F0F2F940B952
:1042100031463846FFF736FF0446A84201D0002C4D
:10422000F2DA204610E62DE9F0419AB016460F4624
:1042300004464FF0FF3845465822D24968460FF0F1
:104240006FFA206A88BB16A800F0DCF916A861682E
:1042500000F0C0F907B96F46398BA161B87E606282
:1042600004F1640000F0B9F93A46A168206900F051
:104270009EFA00281FDD014616AA2046FFF7BEFD64
:10428000050018D116AA02212046FFF7B6FF022822
:104290000AD10027377077703146701CE368626975
:1042A00000F008FB012801D0454604E0357815B937
:1042B00001202062277728461AB0C5E508B56A466E
:1042C000FFF7B1FF08BD2DE9F047174689460546BF
:1042D0004FF0FF36002405EBC408D8F8280018B1C9
:1042E00049460FF066FA30B1641C052CF3DBDFB1F0
:1042F000701C09D012E02FB905EBC40100208862C0
:10430000C8F82C000026F2E7002405EBC400806A00
:1043100018B1641C052CF8DB06E00026052C03DA36
:1043200005EBC400C0E90A973046BDE8F0872DE9E7
:10433000FF478AB00027169E044607970897069104
:104340004FF0FF38006A9A468946454620B303A8D5
:1043500000F058F903A8616800F03CF9204600F02D
:1043600005F983B20CAA06A901208DE807000022F6
:10437000A168206900F07BFD011E0DDD03AA204627
:10438000FFF73CFD050007D103AA09212046FFF7EE
:1043900034FF092803D04546681C18D01AE002975C
:1043A0003770E1686069CDE90001334602AA012156
:1043B00009A800F0A2FD0128EED130788028EBD0CA
:1043C000524649462046FFF77EFF0546E4E7204671
:1043D000FFF750FE28460EB0A7E71CB501AC0094CD
:1043E000FFF7A5FF1CBDF0B589B00446002006907C
:1043F000059107904FF0FF36206A0F46354620B3EF
:1044000002A800F0FFF802A8616800F0E3F8204677
:1044100000F0ACF883B205A90120CDE9000100222B
:10442000A168206900F0BDFD00280EDD014602AA4A
:104430002046FFF7E3FC050007D102AA0B21204626
:10444000FFF7DBFE0B2803D03546681C0DD00FE0CC
:104450006846E268616900F0E2FD0128F5D10022BA
:1044600039462046FFF72FFFEFE72046FFF702FE11
:1044700009B02846F0BD2DE9F04305464FF0FF375F
:10448000006A8BB014463E464FF00009884670B370
:1044900007A800F0B7F807A8696800F09BF8207833
:1044A000012801D0022803D1284600F05FF8A0803F
:1044B000D4E90201CDE90501CDE90289CDF81090DA
:1044C000A1886078CDE9000123780022A9682869D5
:1044D00000F03BFC011E25DD07AA2846FFF78EFCF5
:1044E00006001FD12078012802D0022808D019E048
:1044F00007AA04212846FFF780FE042807D010E011
:1045000007AA07212846FFF778FE072809D1E8689F
:10451000009001AA02A903A86B6900F065FA0128BE
:1045200000D03E46701C02D12846FFF7A3FD0BB019
:104530003046BDE8F0833EB504464FF0FF3568468F
:1045400000F060F86846616800F044F8A1682069EE
:1045500000F0F7F9011E04DD6A462046FFF74EFC25
:1045600005462046FFF786FD28463EBD0146006809
:10457000A0F57F42FF3A02D0401C0860704701203E
:10458000FBE7000080D201082DE9FC4106461546F4
:104590000F4640F28A2400200DF0CBFBCDE9000647
:1045A0002B46224661A138460DF0F8F9BDE8FC81A2
:1045B00010B5044601200CF068FD206010BD0068B5
:1045C0004FF0FF310CF092BD002300681A461946E7
:1045D0000CF0B9BC02C00DF084BF4FF47A725143A5
:1045E000F8E710B504460146001D0DF09EFF206857
:1045F00010BD10B50146001D0DF097FF012800D039
:10460000002010BD002101604160816070472DE9EC
:10461000FF47064615460F46002402A801930DF0F9
:1046200060FF4FF0040841F2060940F6FF7ACDF82A
:10463000008001AB4A465146306803F058F92A1B06
:1046400039190023306802F001FE002801DD04441E
:1046500002E001DA044607E0AC4205DA01A902A84B
:104660000DF063FF0028E2D0204604B0BDE8F087DB
:104670002DE9FF47064615460F46002402A8019380
:104680000DF02FFF4FF0040841F20609CDF800802D
:1046900001AB4A460021306803F029F92A1B391979
:1046A0000023306802F030FE002801DD044402E0FF
:1046B00001DA044607E0AC4205DA01A902A80DF0D0
:1046C00034FF0028E2D02046CFE7006802F080BC2B
:1046D00000210160AFF2C9014160AFF26B0181605E
:1046E000AFF21901C16070477FB5044602208DF812
:1046F00001000E464FF0FF3590B207F0CEFBADF84B
:104700000200062201210220019602F02FFE206005
:10471000002808DB1022694602F077FC050002D56C
:10472000206802F055FC04B0284670BD4D51545429
:104730005461736B0000000070B50446007A0025D8
:10474000032802D0042802D002E00C2500E00A254C
:1047500004F10C0007C800F02EFA0544E07EAD1C01
:1047600078B1243494E80700243C00F024FA303473
:10477000064694E80700303C00F01DFA304405443A
:104780002D1D206C08B9A16C29B1D4E9111200F0DB
:1047900012FA0544AD1CE06C08B9616D29B1D4E989
:1047A000141200F008FA0544AD1C284670BD2DE92E
:1047B000F843064600908846144600251046FFF749
:1047C000BBFF814600F063F9404502DDA81EBDE84D
:1047D000F8832F46394667F307016846103100F029
:1047E00089F94946009800F023F90099084400909F
:1047F000207A04281DD055A1684600F090F90321C5
:10480000684600F077F9A07E67F3070560F341057D
:10481000E07E08B145F00405680707D594F83D002F
:1048200060F3C40594F83C0060F34515206C40B972
:1048300005E048A1684600F072F90421E0E7A06CA9
:1048400008B145F08005E06C08B9606D08B145F02D
:1048500040052946684600F04DF9218B684600F076
:104860004FF904F10C0168460EC900F071F9E07EC1
:1048700068B12434684694E80E00243C00F068F9DE
:104880003034684694E80E00303C00F061F92806A8
:1048900005D504F1400168460EC900F059F96806D3
:1048A00005D54C34684694E80E0000F051F90098A4
:1048B000801B8CE72DE9FC41074600240E46254667
:1048C0006846009200F010F90146204661F30700A7
:1048D0000009022819D101A9009800F0F7F8009901
:1048E00005460844019900900144081A02280CDB8F
:1048F000684600F0F9F860F3070404F0010038702E
:10490000684600F0F1F8307001252846BDE8FC81CA
:1049100038B5002304460090022901DA981E38BDFC
:10492000194663F3070162F30711684600F0E2F8E5
:104930000021009800F07CF800990144081B0091C8
:1049400038BD0E22E4E70C22E2E700004D51497326
:10495000647000004D515454000000002DE9FC5FCC
:104960008046DDE90EA00024CDE9000499461746F3
:104970000E462546DDF834B0684600F0B5F860F321
:104980000704200903282CD1C4F3C00188F80010C3
:10499000C4F34100306004F00100387001A90098B0
:1049A00000F094F8009905460844019900904418D5
:1049B000224669460C9800F0E4F890B10098201A5D
:1049C0000FD43068002804DD684600F084F8A9F8A8
:1049D00000000098211ACAF8001000990125CBF8B0
:1049E00000102846BDE8FC9F2DE9FC41074615460E
:1049F0000E4600246846009300F076F860F3070442
:104A0000C4F3C00030702009387001A9009800F08C
:104A10005DF80099019A014400910A44511A022953
:104A200004DB684600F057F828800120BDE8FC81CF
:104A300010B504460020CA1701EB526323F07F0231
:104A4000891ACAB2D911002901DD42F0800222542C
:104A500000F10100EFDC10BDF8B5012400250E4681
:104A600007460D606D1C042D0FDC01216846B84718
:104A700001280AD19DF80000316800F07F0202FB96
:104A80000411E40131600006ECD42846F8BD401C56
:104A9000802801DA401C7047B0F5804F01DA801C95
:104AA0007047A049884201DAC01C7047001D70475A
:104AB00030B500229C4C05E02368521C13F8015BC2
:104AC000057023608A42F7DB084630BD964A1060C5
:104AD000AFF22300C0E701684A7811F8023B016099
:104AE00002EB032210467047016811F8012B0160A8
:104AF00010467047026811700168491C01607047D8
:104B000010B5CA17046801EB12631A0A2270026812
:104B1000521C026011700168491C016010BD70B523
:104B200004460D4608460EF03DFE06460146204668
:104B3000FFF7E6FF3246294620680EF0F1FD2068B7
:104B40003044206070BD4178007801EB0020704750
:104B500070B5141E1E4605460BDD1146FFF7D0FF4B
:104B60002246314628680EF0DBFD28682044286084
:104B700070BD11B1BDE87040D1E7BDE870400021C3
:104B8000BEE7F0B5054608680026101A17460C4621
:104B900001280CDD0846FFF79EFF686021680A18AF
:104BA000BA4204D8A9602168012608442060002088
:104BB00028603046F0BD0200084602D010460EF0D4
:104BC000F1BD704770B5024600680D4620B106463B
:104BD0000EF0E8FD044601E0D2E9014628460EF059
:104BE000E1FD844205D12246294630460EF019FEE9
:104BF00008B1002070BD012070BD2DE9F8430025EB
:104C00008846164604464FF0FF3701210095B0470D
:104C1000012816D169463046FFF71EFF601C009937
:104C2000FFF706FF0099401C0B18434509DC21B132
:104C30002044B0470099884203D1207860F30705EB
:104C40002F093846BDE8F8832DE9F84307464FF0B1
:104C5000FF35107D14468946A846002620B101285C
:104C60000FD002283ED02675D4E900300122394603
:104C70009847411C53D00028E4D02661207D401C79
:104C80002075206910B90120C4E9020620690428B2
:104C900018DAD4E90030012269469847411C11D046
:104CA000A0B32069401C20619DF80000D4E90212E5
:104CB00000F07F0303FB0122C901C4E902120006D0
:104CC000E4D42569681C2AD0F5B1781CE168FFF7A7
:104CD000AFFE401C2061E168014449451FDC207D96
:104CE000401C2075E268A2B12069C119D4E90030E6
:104CF0009847411C13D00028A4D0E168091AE1604C
:104D000022691044206104D000209BE7FFE70025C2
:104D1000D8E73978304661F307004FEA1018267556
:104D200040468FE7FFFF1F005C00002070B50E4675
:104D3000114604461A463046049DFFF73CFF2844BE
:104D4000801C002C00DD801C70BD2DE9FC5F1C4622
:104D5000129ECDE90060DDF838B09046DDF830A055
:104D6000DDE90F238946054659462046FFF7DEFF59
:104D70000746FFF78CFE484503DD6FF00100BDE8F4
:104D8000FC9F302168F3C30164F342016AF3000120
:104D900001A8FFF7AFFE39460198FFF749FE0199D8
:104DA00008440190DDE90F23594601A8FFF7D0FE22
:104DB000002C03DD01A80D99FFF7A2FE32461199E0
:104DC00001980EF0ADFC019830440190401BD6E7ED
:104DD000F8B50024069E05460090042901DAA01EBD
:104DE000F8BD62F3071463F3C304062A24F0060235
:104DF00000D1921CD1B26846FFF77CFE02210098D8
:104E0000FFF716FE00990844009031466846FFF708
:104E100077FE0098401BF8BD08B5002300920422DD
:104E2000FFF7D6FF08BD08B5009313460622FFF72B
:104E3000CFFF08BD08B5002300920722FFF7C8FF87
:104E400008BD2DE9F04102250E460746002409E081
:104E500004EB440006EB800007C8FFF7ACFE0544F6
:104E6000641CED1CBC42F3DB2846BDE8F0812DE953
:104E7000FF4F83B08A46DDE9108706460025019082
:104E80009346DDF848902C4639464046FFF7D9FF57
:104E90000090FFF7FCFD504503DDA81E07B0BDE8FC
:104EA000F08F65F3070580356BF3C30525F0060029
:104EB000801CC1B201A8FFF71DFEDDE90010FFF75D
:104EC000B7FD01990844019001A80699FFF718FE63
:104ED0000EE004EB440007EB800501A895E80E0006
:104EE000FFF736FE19F8241001A8FFF703FE641C33
:104EF0004445EEDB0198801BD0E72DE9FC47824654
:104F00004FF000090A9800901E46144688464D4608
:104F10004F466846FFF7E8FD60F3070528090928B2
:104F200026D101A90098FFF7D1FD00990746084452
:104F3000019900904518281A022819DB6846FFF7E6
:104F4000CAFDAAF80000C4F800900DE021684145B0
:104F500002DD4FF0FF370BE06846FFF7C5FD216823
:104F60008A00491C2160B0500098A842EED3012766
:104F70003846BDE8FC872DE9F04102250E4607467C
:104F8000002409E004EB440006EB800007C8FFF7AB
:104F900012FE0544641CAD1CBC42F3DB2846BDE890
:104FA000F0812DE9FC5F8A46DDE90C870646002585
:104FB00001909B4691462C4639464046FFF7DBFF61
:104FC0000090FFF764FD504502DDA81EBDE8FC9F80
:104FD00065F30705A03569F3C30525F00600801CBD
:104FE000C1B201A8FFF786FDDDE90010FFF720FD43
:104FF000019908440190594601A8FFF781FD09E095
:1050000004EB440007EB800501A895E80E00FFF7CC
:105010009FFD641C4445F3DB0198801BD6E73EB539
:10502000002400920B4602468DF804408DF808409B
:1050300002A901A8FFF7D8FC9DF804100B2900D1A4
:1050400001203EBD70B5094DFF231A4605F5807657
:1050500005E010F8014B54402A5D5A40335D491E6B
:1050600089B2F6D242EA032070BD0000D8D201080E
:105070002DE9F0411746884608B1012425E0974EF6
:105080009548F061964830629648B06196487062E3
:105090000020B0629548F06295483063954800253D
:1050A00070633A464146284600F036F9040002D1C2
:1050B000284600F071FE6D1CEDB2042DF1D324B929
:1050C00000F022FE20B1012030702046BDE8F081C2
:1050D0000224FAE70246814810B50178002401292C
:1050E00002D00524204610BD816A0029FAD010465E
:1050F0008847F7E770B5794D0024E9698847287833
:10510000012802D00524204670BD00202870FAE74F
:1051100010B5724C217829B1032903D0012905D09B
:10512000052010BD216A884701202070002010BD95
:105130006A480078032801D000207047012070479A
:1051400066491031085C704764491431085C704747
:10515000624A103211547047604A0C321154704741
:10516000F8B55E4C207818B1032801D00520F8BDB1
:10517000684600F0E5FD01280CD1584D9DF801006E
:105180001035052806D2DFE800F003061D5569003A
:105190000320207096E0514B646A1B1D1A1D9DF878
:1051A0000000D11FA04700289DF8000008D0012171
:1051B0002954042100F0B4FD04208DF8010081E0A1
:1051C000022131E0A26802201678A670E070072E56
:1051D00002D95078E0701FE0404B0020383313F8BC
:1051E0003010C9B1B14214D13C4E9DF800C001212C
:1051F0000C3603EBC00006F80C104768A6F1080354
:1052000061786046B847E0709DF800100020705447
:1052100002E0401C0528E2DBE07800289DF8000051
:1052200005D002212954042100F07AFD4AE000F063
:10523000DDFD43E029499DF80000083100F0EEF95A
:105240009DF8000000F0F8F9034624499DF800009D
:105250001431A268095C00F0D5F833E09DF8000035
:105260001E492D5C083100F0D9F923A00EF06AFE2A
:1052700025B1012D0DD0022D20D115E09DF80000A3
:1052800000F0DAF902469DF80000A16800F0A8FDE0
:1052900014E09DF8000000F0CFF902469DF80000F0
:1052A000A16800F09FFD09E09DF8000000F0C4F93E
:1052B00002469DF80000A16800F096FD9DF80000F0
:1052C00000F086FD0020F8BD04490C31085C7047F1
:1052D000024A1432115470476953000860000020DC
:1052E0009153000805540008B15300089B5400086E
:1052F0001F550008875500080A0D205253343835D1
:105300004275735F6D2E632054616F206275672054
:10531000726F69206E6520002DE9F04117460D4639
:10532000064600240CF0A7FCC849002088553B46DF
:1053300008222946304600F038FA01280ED1B5F58A
:10534000964F01D9232003E0C1496800B1FBF0F07A
:1053500081B2304600F080FB012800D002240CF01E
:10536000FBFB2046BDE8F08110B504460CF083FC41
:10537000B6490020091F085502460121204600F0C9
:10538000B9FA204600F0C5FBBDE810400CF0E4BBC4
:1053900010B504460CF06FFC00221146204600F0C8
:1053A000A9FA204600F011FCBDE810400CF0D4BB77
:1053B0002DE9F047984692468946044600260CF0AF
:1053C0005AFCA24F183737F8140006280CD337F8C8
:1053D0001410A04800EB04252846FFF733FE28B13F
:1053E00004260CF0B9FB3046BDE8F08715F8011B28
:1053F00089F8001037F81400C01EA8F80000CAF899
:105400000050EEE72DE9F0479A46164689460446D5
:1054100000270CF030FC8D48001F005D012804D0EF
:1054200004270CF099FB3846DEE78B48874D761E43
:10543000103540F824604FF0010825F8148086F8F4
:10544000009035F8142002EB0A0125F8141035F805
:10545000141050F82400FFF7F5FD014635F814004C
:1054600004EB4402C2EB04237C4A1A441318401C88
:1054700025F81400197035F81400090A0244401C7C
:1054800025F814001170A5F1180000F8048001221D
:105490000021204600F02EFAC3E72DE9F843044628
:1054A0004FF00008694600F073FA684E361F305D11
:1054B00050B1684906F11C0701EB0425012809D009
:1054C00002281BD0032802D1204600F022FB4046D0
:1054D000BDE8F883204600F078FB5C4900200839DD
:1054E000085527F814009DF8001037F814002A1802
:1054F000401C27F81400117002200EE037F8140049
:10550000FF2809D89DF8001037F814002A18401C0D
:1055100027F814001170D7E703203055D4E72DE9A0
:10552000F0414A4D00260446083D285D10B101288F
:1055300027D105E000220121204600F0DBF920E020
:10554000424F103737F81400A0B1434D55F82400EE
:105550000178204600F00CFA55F82400401C45F86C
:10556000240037F81400401E27F8140001200CF026
:1055700087FB06E000220121204600F0BBF9022053
:1055800028553046EEE62DE9F041304E0025044620
:10559000361F305D20B1022804D0032807D110E067
:1055A000002100E00121204600F0BAFB05464FF043
:1055B000010806F80480254F083F385D022812D103
:1055C00005E001212046FFF7C3FD0421EBE71F485A
:1055D000005D40B900212046FFF7BAFD04212046B6
:1055E00000F09EFB054600203855204600F0EDFAFD
:1055F0001648001D005D022804D10221204600F05B
:105600008FFB054606F804802846ABE600EB400217
:10561000C2EB0020114A10440860704700EB4002C2
:10562000C2EB00200D4A1044401C08607047074A36
:10563000083222F8101070470449083131F8100080
:105640007047024A121D115470470000C800002024
:10565000A07F170018090020180D00202405002045
:1056600038B50446042801D9022038BD00F0A6FB55
:1056700098B169462046FFF7D1FF009902222046E3
:105680000A704A701146FFF7D2FF0321204600F04E
:1056900047FB204600F0ACFB38BD052038BD10B5F7
:1056A00010780024022802D00124204610BD02A058
:1056B0000EF048FCF9E700005265636976656420E6
:1056C000746865207265706F6E64000008B5D54C13
:1056D000D54D4FF0FF363246694620680BF03FFF4C
:1056E00029689DF800008847F5E738B1012807D000
:1056F000022807D0032800D1CC487047CC48704717
:10570000CC487047CC48704738B1012807D00228F0
:1057100007D0032800D14720704727207047262054
:105720007047342070477CB501218DF804100221A8
:105730008DF807108DF805100021C04E8DF8061069
:10574000A8B1BF4D01281FD0022820D003280DD1B9
:10575000102000900121082009F0B5FC6946304670
:1057600009F0F6FA1021304609F059FB7CBD4FF4E0
:10577000806401210820009409F0A5FC69463046A8
:1057800009F0E6FA2146EEE74FF4807401E04FF4A9
:10579000805401210420009409F095FC69462846B4
:1057A00009F0D6FA21462846DEE72DE9F04188B017
:1057B0001C4616460F468046FFF797FF07F034FA5F
:1057C0004046FFF792FF07F06CFA4046FFF7ABFF49
:1057D0004046FFF799FF8DF8180006208DF8190054
:1057E00000258DF81A5001208DF81B0006A808F03E
:1057F0004EFE029724B1012C05D0022C35D105E0D4
:10580000ADF8105006E04FF4C06001E04FF4806046
:10581000ADF81000072E06D0082E26D124B1700254
:10582000ADF80C0002E004B3ADF80C500C20ADF85C
:105830001200ADF80E50ADF814504046FFF755FF7A
:1058400002A908F0BCFC4046FFF74FFF002240F2DF
:10585000277108F0C4FD4046FFF747FF012108F01B
:105860001FFD704C206820B112E0002008B0BDE898
:10587000F0810022022104200BF0D2FA20600D20DA
:10588000CDE90005002382226EA171480CF086F854
:105890000120EBE7F0B4694A694B95144FF480643A
:1058A000961559B1E8B101281DD002281ED0032851
:1058B0001ED131461846F0BC09F0AFBA50B10128EC
:1058C0000AD002280BD0032812D131461846F0BC6A
:1058D00009F0A5BA214600E010211046F7E7294655
:1058E000F4E7214600E010211046E4E72946E1E70D
:1058F000F0BC704738B504468DF800000120494DD2
:105900008DF8010089B100212046FFF7C3FF204632
:10591000FFF7EBFE012240F2255108F060FD002266
:10592000694628680BF08FFD38BD01212046FFF73E
:10593000B1FF00231A46694628680BF004FB38BD06
:1059400038B50446FFF7E0FE8DF8000006208DF81C
:10595000010000208DF802008DF80300684608F071
:1059600096FD2046FFF7C1FE002108F099FC38BDE6
:1059700010B50446FFF7B9FE08F0B8FC2046FFF763
:10598000B4FE402108F043FD0028F7D0012010BDEF
:1059900010B50C46FFF7A9FE08F0ACFC2070012002
:1059A00010BD70B5234D40F225542146284608F01D
:1059B00038FD002808D0012000F031F821462846A3
:1059C000BDE8704008F02ABD70BD10B540F2255109
:1059D000174808F026FD002804D0BDE8104000203C
:1059E00000F01DB810BD10B540F22551124808F066
:1059F00018FD002804D0BDE81040022000F00FB8C8
:105A000010BD10B540F22551084808F00AFD0028E5
:105A100004D0BDE81040032000F001B810BD0D49CE
:105A200009680847E80000209000002000140140A9
:105A30000048004000440040004C0040000C024080
:105A40000008024073657269616C20706F6C6C00B5
:105A5000CD5600088C0000202DE9FF417C4E044605
:105A60004FF0804871803078C8BB0121084609F0AA
:105A700048FB1C208DF80C0007208DF80D00002538
:105A80008DF80E5001278DF80F7003A808F0FFFC69
:105A90007802ADF808006420ADF80250019028208B
:105AA000ADF800008DF80A5069464546404609F0B9
:105AB00079FD0021284609F0C9FD0121284609F099
:105AC000CFFD0521284609F0AFFD012128460AF047
:105AD00012F90122114628460AF0EDF837705D4DA3
