:020000040800F2
:10000000F0E101205D2D0108A90D0008AB0D0008ED
:10001000AD0D0008AF0D0008B10D00080000000094
:100020000000000000000000000000009D0100082A
:10003000B50D000800000000F9010008B90D000826
:10004000772D0108772D0108772D0108772D0108FC
:10005000772D0108772D0108772D0108772D0108EC
:10006000772D0108772D0108772D0108772D0108DC
:10007000772D0108772D0108772D0108772D0108CC
:10008000772D0108772D0108772D0108772D0108BC
:10009000772D0108772D0108772D0108772D0108AC
:1000A000772D0108772D0108772D0108772D01089C
:1000B000135B0008FD0D0008772D0108772D01085E
:1000C000772D0108772D0108772D0108772D01087C
:1000D000772D0108772D0108CB580008F358000848
:1000E000772D0108772D0108772D0108772D01085C
:1000F000772D0108772D0108772D0108772D01084C
:10010000772D0108772D0108772D0108772D01083B
:100110000F590008772D0108772D0108772D010868
:10012000772D0108772D0108772D0108772D01081B
:10013000772D0108BD0D0008772D0108772D0108E6
:10014000772D0108772D0108772D0108772D0108FB
:10015000772D0108772D0108772D01082B5900080C
:10016000772D0108772D0108772D0108772D0108DB
:10017000772D0108772D0108772D0108772D0108CB
:10018000772D0108772D0108DFF80CD013F0C0FCA3
:10019000004800470D0A0008F0E101202C4B1968C7
:1001A0000868B0E8F04F80F30988BFF36F8F4FF015
:1001B000000080F3118870470000000008480068C4
:1001C000006880F308884FF0000080F3148862B65E
:1001D00061B6BFF34F8FBFF36F8F00DF00BF00BF6B
:1001E00008ED00E0DFF80C00016841F470010160E7
:1001F000704700BF88ED00E0EFF30980BFF36F8F19
:10020000134B1A681EF0100F08BF20ED108A20E96A
:10021000F04F106009B44FF0500080F31188BFF325
:100220004F8FBFF36F8F11F01EFD4FF0000080F372
:10023000118809BC19680868B0E8F04F1EF0100F6B
:1002400008BFB0EC108A80F30988BFF36F8F704746
:1002500008020020EFF305807047000008B541F266
:10026000883011F02CFC01244FF4FA75AF230122E1
:1002700002210020009405F07BFDF8A013F028FD7A
:10028000284611F01CFCF1E72DE9F041F848C025A3
:10029000A82705704770012484703221C170FF21A6
:1002A0000171417181710026C671057247728472B5
:1002B000C4720673EFA1103013F060F9EC48EDA1A1
:1002C0001C3013F05BF9EA48C721283000F8015BC5
:1002D00000F8017B00F8024B00F8011CE7A113F0C5
:1002E0004DF9E348E8A16C3013F048F9E048E8A183
:1002F000783013F043F9DE48E7A1843013F03EF97B
:10030000DB4A0620903210701471547110765676C4
:10031000022082F82C0082F82D40032000EB80019F
:1003200002EB8101401C0E714E711178C0B2814206
:10033000F4D8BDE8F04102F06BB8012786B0002088
:100340008DF80C008DF8100005464FF0040A4FF0B0
:10035000030B4FF005080EE06EB100200CF06CFEB0
:1003600001200CF069FE02200CF066FE03200CF068
:1003700063FE002622E000200CF034FE01200CF089
:1003800031FE02200CF02EFE03200CF02BFE012685
:1003900014E0DFF8DC92022409F1900904EB8401F7
:1003A00009EB810080790128A4F10200C0B221D0BC
:1003B0000CF018FE641CE4B2062CEFD3B84C207885
:1003C00068B100F04CFF50B172B602F021F862B68D
:1003D00000F04EFF00202070B2A013F079FC9DF8D1
:1003E0000C000A2876D2DFE800F008104E69DAFA2D
:1003F000A77C75F90CF020FEDCE7AEA013F068FCDA
:1004000001208DF80C00AFA03AE0B5A013F060FC1D
:10041000002201A9606810F03AFF01285AD1B1A06A
:1004200011F0ECFD01998842F8D19DF808000128EF
:10043000F4D19DF809000328F0D1ADA013F048FCD9
:10044000B3A013F045FC8A4FF8780090BB787A7817
:100450003978B9A013F03CFCF8790090BB797A792F
:100460003979C2A013F034FCF87A0090BB7A7A7A1A
:10047000397ACBA013F02CFC02208DF80C00D5A00B
:1004800013F026FC2FE296A013F022FC002201A913
:10049000606810F0FCFE0128C0D1D5A011F0AEFDBF
:1004A0000199884231D19DF808000128B6D19DF804
:1004B00009000228B2D18DF80CB014E202F032F833
:1004C0006B4828300068411C07D030B107208DF8F8
:1004D0000C0000E075E0C9A0D2E7CD4813F0F8FBAE
:1004E0005AE07FA013F0F4FB002201A9606810F02D
:1004F000CEFE012892D1C7A011F080FD019988425B
:100500008CD19DF80800012806D0C5A011F076FD19
:10051000019988422DD0E4E19DF809000128FAD123
:1005200006208DF80C00C2A013F0D2FB02214FF47C
:100530007A7003F00CFAD6E1002201A9606810F08D
:10054000A6FE0128E7D1C1A011F058FD019988420B
:1005500009D19DF808000128DDD19DF80900012886
:10056000D9D1092044E0AEA011F048FD019988429C
:1005700004D19DF8080001286DD0B2E1B6A011F0B9
:100580003DFD019988421CD19DF80800012818D131
:100590009DF80900012814D18DF80CA0A3E10022D8
:1005A00001A9606810F073FE01280AD190A011F033
:1005B00025FD0199884204D19DF80800012801D049
:1005C00070B18EE19DF8090001282ED10CF078FD64
:1005D0009EA011F013FD11F030F96CE719E00AE06C
:1005E0009DF80900022820D10CF06AFD9DF810004A
:1005F0008DF80C0077E1FFF747FEBFF34F8F994965
:100600000868994A00F4E06010430860BFF34F8F18
:10061000FEE7002201A9606810F039FE012804D12C
:100620009DF8080010B1012816D05AE12DA011F054
:10063000E5FC019988420DD06DA011F0DFFC019915
:10064000884207D081A011F0D9FC0199884201D1DC
:100650009DF8095045E11EE108E1000053656E6414
:10066000206461746120746F20446573740000001D
:10067000AC02002061646D696E0000006C6F636104
:100680006C686F7374000000444330320000000057
:1006900074657374000000003132333400000000D0
:1006A000000000200D0A466C61736820757064615B
:1006B000746500000D0A53797374656D207374615D
:1006C000727400000D0A53797374656D20636F6E48
:1006D0006E6563742045746865726E657400000011
:1006E0002E00000044484350205461736B0000000A
:1006F0000D0A0945746865726E65742061646170E5
:100700007465722045746865726E65743A00000005
:100710000D0A0909436F6E6E656374696F6E2D7300
:100720007065636966696320444E5320537566663D
:10073000697820202E203A000D0A090949507634A4
:1007400020416464726573732E202E202E202E208B
:100750002E202E202E202E202E202E202E203A201D
:1007600025642E25642E25642E2564000D0A0909B2
:100770005375626E6574204D61736B202E202E20A0
:100780002E202E202E202E202E202E202E202E20F9
:100790002E203A2025642E25642E25642E25640003
:1007A0000D0A090944656661756C742047617465BA
:1007B000776179202E202E202E202E202E202E20F4
:1007C0002E202E202E203A2025642E25642E2564EE
:1007D0002E2564000D0A53797374656D207374615E
:1007E000727420776562736572766572000000002E
:1007F00048545450205461736B0000000D0A537923
:100800007374656D20737461727420706F727400FC
:10081000E0D30108525334383520534C415645003B
:100820004B4559205343414E205461736B000000E7
:100830000D0A53797374656D20636F6E6E65637412
:1008400020746F2073657276657200004D515454A8
:10085000205461736B000000554450205461736B49
:10086000000000000CED00E00400FA05AFF28C106F
:1008700011F0C4FB0199884233D0AFF28C0011F023
:10088000BDFB019988422CD0AFF26C0011F0B6FB91
:100890000199884206D19DF80900022821D18DF8DE
:1008A0000C801EE0AFF25C0011F0A8FB01998842B9
:1008B00017D19DF8090005280AD0032808D002287E
:1008C00006D0062804D0092805D0012808D008E061
:1008D0000CF0F6FB05E00CF0F3FB0CF0E9FB00E09C
:1008E0000025012F0BD1002204A9A06810F0CFFC35
:1008F00000231A4603A9A06810F049FA0027FA203D
:1009000011F0DDF80CF0BCFB0CF0D6FB9DF80C00F0
:1009100009283FF43EAD1FE530B400209E4B02464F
:10092000322400EB800103EB8101401C4A71CA7143
:100930008A71C0B28C600628F3D330BC01F05ABE75
:100940001CB500200FF041FC11208DF8070001209C
:100950008DF805008DF806008DF8040001A900202F
:100960000FF0E5FC40208DF8030000208DF800001A
:100970008DF801008DF8020069460FF05EFC012041
:100980000FF023FC43F2F22100200FF0B5FF1CBD55
:1009900010B5012186B008070EF0D7FA012010F03B
:1009A0007FF800200EF0A7FA01200EF0E1F90121F6
:1009B00004200EF0ACFA4FF4804000900320774CF6
:1009C0008DF80400694620460EF0E6F84FF4004129
:1009D0000091694620460EF0DFF841200EF090F9B4
:1009E0000028FAD04FF480700EF070FA01200EF05B
:1009F00082FA0FF023FB7F200390FF200490402019
:100A0000029002A80FF0B5FB06B010BD1CB5FFF7B1
:100A1000BFFF00200FF078FFA0F54851F23901D058
:100A2000FFF78EFF4FF4E1315D480CF0CAF8002467
:100A30005CA013F04DF9641CE4B2142CF8D3FFF75A
:100A40006BFF01F0C6FD544C903C2068411C03D064
:100A5000002200286CD000E001220020024304D0D4
:100A600051A013F035F9FFF70FFC00200CF0C2FA8B
:100A700001200CF0BFFA02200CF0BCFA03200CF0AD
:100A8000B9FA002108460CF01EFB0CF0FDFA0CF040
:100A9000E5FA0CF011FB00F049FB012100220846A9
:100AA00010F0E2F8474D00220821A860052010F060
:100AB000DBF8686000283AD0A868002837D0364AAA
:100AC000237B883A211DA2F1080000F0A9F9002437
:100AD0000420CDE90004234682223BA13D4810F0CA
:100AE00081FE0621822003F084F8032001F097FBA9
:100AF0000521822003F003F94FF482760521304668
:100B000003F0D4F805250023324633A1AFF2D570A7
:100B1000CDE9005410F066FE0023324632A1AFF654
:100B2000C300CDE9005410F05DFE11F0DCF9FEE7E2
:100B3000012093E710B500200CF00FFB80B10020DE
:100B400020494A8840EA420080B240F46040488030
:100B5000A0F57F41FF3901D0002010BD012010BD5C
:100B60000120EDE7502080F31188BFF34F8FBFF3D2
:100B70006F8F12F0E8F8014620A013F0A9F8FEE705
:100B8000502080F31188BFF34F8FBFF36F8F20A0E9
:100B900013F09EF8FEE700003C030020000802402E
:100BA000001001400D0A00000D0A53797374656D41
:100BB0002064656661756C742073657474696E6712
:100BC0000000000000000020455448205461736B71
:100BD0000000000079110008436F6E74726F6C2082
:100BE0005461736B0000000054657374206D6F6472
:100BF000627573205461736B000000000D0A667209
:100C000065654865617073697A65203D20256400DB
:100C10000D0A537461636B204F766572666C6F7753
:100C200020486F6F6B0000000CB500225449009201
:100C30000192086840F4803008604FF4A0630868AF
:100C400000F4003001900098401C0090019810B909
:100C500000989842F3D10868800334D501200190B0
:100C600047484030026842F08052026045480268BE
:100C700042F4804202604248083002680260026822
:100C800042F400420260026842F4A0520260031F74
:100C90003D4A1A600A6842F080720A600A6892014E
:100CA000FCD53A4940F205220A60016821F00301AF
:100CB0000160016841F0020101600168C1F3810136
:100CC0000229FAD10CBD01920CBD314810B5016862
:100CD00041F4700101602A48016841F0010101609E
:100CE000274A00210832116002682A4B1A4002602C
:100CF000031D294A1A60026822F4802202602048FB
:100D00000C300160FFF790FF21494FF000608039FF
:100D1000086010BD70B51A4D083528681F4B204972
:100D200010F00C0004D01F4E042803D0082803D074
:100D30000B601BE00E6019E0114A121D1068C0F331
:100D40008054106800F03F0014B1B6FBF0F001E0F1
:100D5000B3FBF0F013681268C3F388135843C2F36F
:100D60000142521C5200B0FBF2F0086028680C4AA5
:100D7000C0F30310121D105C0A68C2400A6070BD07
:100D800000380240007000400C544007003C024014
:100D900088ED00E0FFFFF6FE103000240024F40090
:100DA0000C000020001BB7007047FEE7FEE7FEE7DF
:100DB000FEE770477047704711F00BBF08B5002081
:100DC000009040200CF0ADFF012804D11148694685
:100DD000006810F0FBF940200CF0C8FF4FF48030A1
:100DE0000CF0C4FF0098002807D00B494FF080504A
:100DF0000860BFF34F8FBFF36F8F08BD10B5074C6E
:100E0000012120460EF09BFE2046BDE81040002147
:100E10000EF064BBA401002004ED00E000040040DB
:100E2000F0B506465E4887B00D460660C0E9012170
:100E300000211F461446084606F073FE38004FF0A6
:100E4000000703D00397049705971AE03068F178FC
:100E500000BA20F0FF0008430AF096FE03902868CD
:100E6000E97800BA20F0FF0008430AF08DFE0490F4
:100E70002068E17800BA20F0FF0008430AF084FE01
:100E80000590484848490097CDE9011005AB04AAF0
:100E900003A9464807F063FF444807F084FF43482E
:100EA00007F0BBFF07B0F0BD0EB5002540A011F064
:100EB000A5F800900120DFF804813C4F404E8DF8EA
:100EC00004000024002202A9D8F8000010F06BFAF8
:100ED00034B1012C0DD0022C50D0032C56D159E046
:100EE000324807F09EFB10B90020012478600220F0
:100EF00041E078680025A0B3294A030E0224116856
:100F0000CB70030C8B70030A4B700870F868010EED
:100F10005068C170F968090C8170B989090A41707B
:100F2000397B0170B868010E9068C170B968090C0E
:100F300081703989090A4170397A0170386A856C83
:100F40001A4807F0AAFA03208DF805009DF808005A
:100F500001281BD100231A46694630680FF017FF9D
:100F600014E0FFE7386AC07C05280FD903240F4836
:100F700007F093FA04208DF80500EBE72DB14FF44C
:100F80002F706D1E10F09BFD00E00024FA2010F081
:100F900096FD97E74FF4FA6010F091FDF5E7000039
:100FA00020000020EB7900080FC70008B8030020DC
:100FB00044484350205461736B0000000800002037
:100FC0000400002000B5AFB068460CF07DFA0120A7
:100FD000009000204FF40071CDE90A100904079039
:100FE0001190CDE920010E90149013900A111590E4
:100FF0002590269023920420CDE9280180032A9091
:1010000080012B9040122C9040002E9001216846C8
:101010000CF0ECFA98494860012198480CF08CFEDD
:101020002FB000BDFEB5012147200DF070FF01215A
:1010300088030DF094FF01200EF056F88E200090EA
:1010400003208DF8050002258DF8045000248C4EF5
:101050008DF806408DF80740694630460DF09CFD3E
:101060000B22012130460DF00BFE0B2202213046EF
:101070000DF006FE0B22032130460DF001FE0B227F
:10108000072130460DF0FCFD4FF460507D4F00907D
:10109000694638460DF080FD0B22114638460DF0AA
:1010A000EFFD0B220C2138460DF0EAFD0B220D213D
:1010B00038460DF0E5FD3220734F00906946384602
:1010C0000DF06AFD0B22012138460DF0D9FD0B22EF
:1010D000042138460DF0D4FD0B22052138460DF0D1
:1010E000CFFD01208DF804008DF806408DF8070033
:1010F00000908DF80550694630460DF04DFD0121F8
:1011000030460DF0B0FD44F6206502940298401C74
:101110000290A842FAD3012130460DF0A2FD0294BC
:101120000298401C0290A842FAD3FEBD08B5FFF712
:1011300079FF4FF440700DF0C9F83D208DF80000A4
:1011400006208DF8010000208DF8020001208DF8A6
:10115000030068460DF0BFF801214FF060600DF00C
:10116000D6FE0CF0A5F90CF0CFFD0CF0D3FD012854
:10117000FBD0BDE8084025E786B00027434C049724
:10118000002205A9206810F00EF99DF8140001282E
:10119000F6D13FA010F032FF029040480124364EB5
:1011A0008DF80C4090F80C80B4603D4D4FF4FA7A05
:1011B000B9F1000F4FD0012108460CF0EFF94007BC
:1011C00039D5B068002830782FD0002843D134704A
:1011D0008DF80D4000231A4602A928680FF0D7FDAC
:1011E000FFF7F0FE0CF041FBB8F1000F0DD00498B2
:1011F00000BB04A90C20CDE9000100234FF482724A
:1012000028A12B4810F0EEFA25E026A010F0F6FEFB
:1012100002908DF80C4003208DF80D0000231A4633
:1012200002A928680FF0B3FD15E018B10CF02DFBF2
:10123000377077600FE037708DF80D7000231A4615
:1012400002A928680FF0A3FD0CF01FFB049810B151
:1012500010F0F3FA0497504610F031FCA8E7064866
:1012600000218160406808B100207047012070476C
:1012700001490120886070472C00002040000100D7
:101280000000024000040240000802400800002064
:10129000455448205461736B00000000AC020020EC
:1012A0000400002044484350205461736B00000048
:1012B000A90E00082DE9F0410646002131480D46EF
:1012C00001EB410200EBC202127D32B1491C0A2936
:1012D000F6DB2F4647B12C4C0FE001EB410100EB50
:1012E000C10701223A75F5E70020BDE8F0813046DC
:1012F000616812F014F930B12468002CF7D1384637
:1013000000F02CF8F0E7A0683860E0687860E068EA
:10131000C7E90205207C38743846E6E700F01EB8BD
:1013200070B505461346D5E901200E46904202D11C
:101330004FF0FF3070BD141A9C4200DD1C46296836
:1013400022460144304612F0A1F8A8682044A86063
:10135000204670BDD0E90110081A7047094A0021E3
:1013600001EB410302EBC303834206D101EB4101D0
:1013700002EBC101002008757047491C0A29EFDB08
:1013800070470000F40300206CCF01082DE9F04FF6
:10139000884600268346F249ADF2846D34463046D5
:1013A00051F82020521C41F82020401CC0B20228D5
:1013B000F6D30020EA4D0746083DD8F8042055F83A
:1013C0002030934203D1012441F8207007E051F806
:1013D0002020C82A03D941F8207045F82070401C0D
:1013E000C0B20228E9D3BBF100000BDB40F2DC52B3
:1013F000694605F048FECDF87C06002806DC584614
:1014000005F00AFD0DF2846DBDE8F08FDDF87C2655
:10141000B94664210DF802700DF2DC5012F04FF85D
:1014200001208DF8DC0501F0B6F8CEA1684612F077
:101430005DF8CDF87C0634210DF5C86012F03FF858
:10144000CBA10DF5C86012F045F8CC490DF5C86088
:1014500012F040F8CAA10DF5C86012F03BF8C74978
:101460000DF5C8600C3112F035F82322C7A168468B
:1014700012F08DF800287DD02022CDA1684612F010
:1014800086F8002877D01E22D2A1684612F07FF895
:10149000002871D01D22D7A1684612F078F80028E4
:1014A0006BD01C22DBA1684612F071F8002865D0D1
:1014B0001B22E0A1684612F06AF800287DD01F22A6
:1014C000E3A1684612F063F8E94FDFF8A8A300280B
:1014D00074D02022E8A1684612F059F800286ED096
:1014E0001422EEA1684612F052F8002868D01522A6
:1014F000F0A1684612F04BF800286FD01722F3A134
:10150000684612F044F8002869D01622F5A1684612
:1015100012F03DF800286FD01722F8A1684612F0AB
:1015200036F8002869D00E22FAA1684612F02FF88A
:1015300000286FD00F22FBA1684612F028F800287F
:1015400069D00F22FBA1684612F021F800287CD058
:101550001022FCA1684612F01AF8002876D00F225B
:10156000FDA1684612F013F8002870D01022FEA1E9
:10157000684604E034E039E040E045E04CE012F039
:1015800006F800287ED00E22FCA1684611F0FFFF6D
:10159000002878D00D22FDA1684611F0F8FF002840
:1015A00072D00B22FDA1684611F0F1FF00286CD02B
:1015B00000270C22FCA1684603E066E294E2F6E212
:1015C000FBE211F0E4FF00287ED0002007437CD02E
:1015D000002C7BD001F0CCFCF7A0F0E2F0E2F2E2CC
:1015E000002CF6D0684601F022F839E2002CF0D049
:1015F000684601F0C9F933E220E369E3002CE8D042
:10160000684601F0C8FB2BE2002CE2D0684601F0EE
:101610001AFC25E2B6E3B9E3002CDAD00DF27461CE
:1016200000200EF05AFE0DF5CF6100200EF0CDFE29
:1016300064210DF2DC5011F042FF9DF874060A2877
:1016400008D2E1A10DF2DC5002E0A5E3A8E3ADE38E
:1016500011F040FF9DF87406C8B30A2100F0A0FE07
:1016600001460DF2DC5011F035FFD8A10DF2DC502F
:1016700011F030FF9DF875060A2809D2D2A10DF2AB
:10168000DC5003E095E399E39DE39FE311F022FF33
:101690009DF8750660B30A2100F082FE01460DF246
:1016A000DC5011F017FFC9A10DF2DC5011F012FF50
:1016B0009DF876060A2804D2C3A10DF2DC5011F081
:1016C00009FF9DF8760603E084E384E35EE20DE023
:1016D00080B10A2100F064FE01460DF2DC5011F0E9
:1016E000F9FE9DF8770638B1B9A106E0B6A1B8E7D2
:1016F000B5A1D4E7B4A1F0E7B7A10DF2DC5011F029
:10170000E9FE9DF8780608280CD2DFE800F00B040B
:10171000062827262524B2A100E0B3A10DF2DC5053
:1017200011F0D8FEB2A10DF2DC5011F0D3FE9DF8FD
:101730007A060A2804D2A4A10DF2DC5011F0CAFEE8
:101740009DF87A0630B10A2100F02AFE01460DF21A
:10175000DC504FE18FE18CE189E186E183E180E1BA
:1017600040000020757365726E616D6500000000B9
:10177000757365726E616D653D000000BC020020EE
:101780002670617373776F72643D0000504F53543D
:10179000202F70726F746563742F6367692F6E6595
:1017A00074776F726B636F6E6669672E636769002B
:1017B000504F5354202F70726F746563742F63679A
:1017C000692F686F7374636F6E6669672E636769EC
:1017D00000000000504F5354202F70726F746563E7
:1017E000742F6367692F70617373776F72642E63F0
:1017F00067690000504F5354202F70726F746563F7
:10180000742F6367692F73657454696D652E636700
:1018100069000000474554202F70726F746563742F
:101820002F6367692F67657454696D652E636769F7
:1018300000000000474554202F70726F7465637478
:101840002F6367692F7265626F6F742E636769001B
:10185000474554202F70726F746563742F636769F6
:101860002F706F7274636F6E6669672E63676900AD
:10187000180300203C030020504F5354202F707257
:101880006F746563742F6367692F706F7274636F11
:101890006E6669672E636769000000004745542043
:1018A0002F7374796C652F7374796C652E63737301
:1018B00000000000474554202F7363726970742F35
:1018C000636F6D6D6F6E2E6A730000004745542084
:1018D0002F7363726970742F64617461686F7374BD
:1018E0002E6A7300474554202F7363726970742FFA
:1018F000646174616C616E2E6A7300004745542008
:101900002F7363726970742F64617461706F727485
:101910002E6A7300474554202F6C616E636F6E66AC
:1019200069670000504F5354202F6C616E636F6ED7
:1019300066696700474554202F706F7274636F6E3D
:1019400066696700504F5354202F706F7274636F35
:101950006E66696700000000474554202F686F736A
:1019600074636F6E66696700504F5354202F686F21
:101970007374636F6E66696700000000504F5354C4
:10198000202F6D61696E7461696E000047455420B7
:101990002F6D61696E7461696E00000047455420C7
:1019A0002F5265626F6F7400504F5354202F526551
:1019B000626F6F74000000002F7265626F6F742E8B
:1019C00068746D6C00000000300000003A000000F8
:1019D00020504D200000000020414D20000000005C
:1019E0004D6F6E64617900005475657364617900B0
:1019F0002C20000011F06EFDF7A10DF2DC5011F06B
:101A000069FD9DF879060A2805D2AFF244010DF26E
:101A1000DC5011F05FFD9DF8790678B30A2100F0E3
:101A2000BFFC01460DF2DC5011F054FDEAA10DF2AD
:101A3000DC5011F04FFD9DF87B060A2805D2AFF26D
:101A400078010DF2DC5011F045FD9DF87B06C8B120
:101A50000A2100F0A5FC01460DF2DC5011F03AFD20
:101A600037E3DEA15AE6E0A158E6E2A156E6E3A19B
:101A700054E6E5A152E6AFF2B00168E6FFE7AFF247
:101A8000B801CFE7AFF2C001E6E7002C7ED010220C
:101A9000DF49584605F0B6FBDD49032211395846A7
:101AA00005F0B0FBDA4903221139584605F0AAFBCC
:101AB0000DF2DC5011F02CFD02460DF2DC515846BF
:101AC00005F0A0FB584605F0A7F90A200FF0F7FF34
:101AD000BFF34F8FCF490868CF4A00F4E06010434E
:101AE0000860BFF34F8FFEE7002C76D040F2DC5148
:101AF000684611F0E4FC00F07DFDC54968460E39EA
:101B000011F0E8FCC2496846113911F0E3FCC04904
:101B10006846113911F0DEFCC0A1684611F0DAFC0C
:101B20003946684611F0D6FC002457463BE0BEA17A
:101B3000684611F0CFFC0A21204600F031FC014636
:101B4000684611F0C7FCBAA1684611F0C3FC04EB6B
:101B5000840007EB80050A21287900F021FC01466A
:101B6000684611F0B7FCB4A1684611F0B3FCB3A10C
:101B7000684611F0AFFC0A21204600F011FC014636
:101B8000684611F0A7FCAFA1684600E09CE011F0A8
:101B9000A1FC68790A2100F003FC0146684611F0B7
:101BA00099FC641CE4B23878A042C0D8E1E0002C73
:101BB0009BD0684600F0F6FF8BE2AFF21C307BE270
:101BC000AFF20C3078E2002C7ED000F0ABFC40F29B
:101BD000DC51684611F073FC00E02DE29CA16846E0
:101BE00011F078FCA2A1684611F074FCA649684681
:101BF00011F070FCA5A1684611F06CFCA249684682
:101C00000C3111F067FCA8A1684611F063FC9E4CF2
:101C1000503C20680AF03BF80146684611F05AFC37
:101C2000A8A1684611F056FC211D684611F052FC2F
:101C3000ABA1684611F04EFC39463FE0002CC3D002
:101C400040F2DC51684611F03AFC00F0C2FC80A181
:101C5000684611F03FFCAAA1684611F03BFC3946EA
:101C6000684611F037FCACA1684611F033FCB04C6B
:101C700020680AF00CF80146684611F02BFCADA173
:101C8000684611F027FC60680AF001F801466846D2
:101C900011F020FCAFA1684611F01CFCA06809F00F
:101CA000F6FF0146684611F015FCB1A1684611F037
:101CB00011FC207B0A2100F073FB0146684611F0FD
:101CC00009FCB1A1684600E083E011F003FC50E09C
:101CD000002CB4D040F2DC51684611F0F0FB00F06B
:101CE00089FC5BA1684611F0F5FB002457463DE0F6
:101CF000A6A1684611F0EEFB0A21204600F050FB39
:101D00000146684611F0E6FBA4A1684611F0E2FB2B
:101D100004EB840007EB80050A21287900F040FBE2
:101D20000146684611F0D6FB97A1684611F0D2FB38
:101D300096A1684611F0CEFB0A21204600F030FB48
:101D40000146684611F0C6FB97A1684611F0C2FB38
:101D500068790A2100F024FB0146684611F0BAFBBD
:101D600089A1684611F0B6FB641CE4B23878A04241
:101D7000BED8684611F0CCFB02466946584605F0CD
:101D800041FAA5E1002C24D08AA095E1002C20D0B6
:101D9000684600F004FDF7E7002C1AD089A08BE11B
:101DA000002C16D0684600F0FDFEF7E78CB18AA043
:101DB00082E174B1684600F061FEF8E74CB1684614
:101DC00000F0E9FF00E024B188A075E10127FFF7EA
:101DD000F0BB7DE112E114E12F0000005765646E55
:101DE0006573646179000000546875727364617989
:101DF00000000000467269646179000053617475E7
:101E0000726461790000000053756E6461790000AE
:101E100091CF01080CED00E00400FA0564657669D5
:101E2000636549443D00000026706F727400000035
:101E30005F747970653D000026000000706F727459
:101E4000000000005F6163746976653D000000007A
:101E50007661722044617461537472696E67203DCB
:101E6000206E6577204F626A65637428293B0A00FB
:101E700044617461537472696E672E757365726E16
:101E8000616D65203D20220024030020223B0A448E
:101E9000617461537472696E672E70617373776FCA
:101EA0007264203D20220000223B0A446174615389
:101EB0007472696E672E686F73746970203D20229A
:101EC00000000000223B0A44617461537472696E21
:101ED000672E686F73746E616D65203D202200006F
:101EE000223B0A44617461537472696E672E4465C3
:101EF000766963655F4E616D65203D2022000000BC
:101F000044617461537472696E672E6465766963A7
:101F1000656964203D202200223B0A4461746153BC
:101F20007472696E672E6970203D202200000000E7
:101F3000AC020020223B0A44617461537472696EE2
:101F4000672E7375626E65746D61736B203D202220
:101F500000000000223B0A44617461537472696E90
:101F6000672E67617465776179203D20220000004B
:101F7000223B0A44617461537472696E672E64680F
:101F80006370203D20220000223B0A0044617461FE
:101F9000537472696E672E706F7274005F7479701B
:101FA00065203D20220000005F6163746976652032
:101FB0003D2022002F6C616E636F6E6669672E682C
:101FC000746D6C002F706F7274636F6E6669672E2C
:101FD00068746D6C000000002F686F7374636F6E1F
:101FE0006669672E68746D6C000000002F6D616972
:101FF0006E7461696E2E68746D6C00000120FFF7CD
:10200000E5BA0A228BA1684611F0C1FA88B306220C
:102010008BA1684611F0BBFA58B30B228AA168461F
:1020200011F0B5FA48B10B228AA1684611F0AFFA57
:1020300090B102208DF8DC0570E0D8F80410002083
:1020400055F820208A4202D145F8209033E0401C08
:10205000C0B20228F4D33BE0002455F8240080B934
:102060000DF5C861DDF87C0611F059FA10B17CA0BD
:1020700013E020E00DF5C860DDF87C1611F04FFA92
:1020800030B1641CE4B2022CE7D3022C13D01FE061
:10209000D8F8040045F8240074A0FFF70BF90546B2
:1020A0005846D5E9001205F0ADF8002DEDD02846D0
:1020B000FFF734F9E9E76AA0FFF7FCF80446584651
:1020C000D4E9001205F09EF814B12046FFF726F976
:1020D00016B11022684924E0022E1FD0AEB1664925
:1020E00003221139584605F08DF86349032211394E
:1020F000584605F087F80DF2DC5011F009FA024657
:102100000DF2DC51584605F07DF8584604F084FE87
:1021100000F032FF0DF2846DBDE8F08F56491122B8
:102120001031584605F06EF8D9E790B04FF47A7048
:102130000E9052A00FF062FF534E544D00244FF406
:10214000967701901E200FF0BAFC00220DA930688E
:102150000FF029F99DF834000228F3D10FE04CA0CC
:1021600011F0B6FD8DF809408DF8084000231A469D
:1021700001A928680EF00BFE38460FF0A0FC0022E3
:102180000121022005F016F807900028E7DB02265F
:102190008DF80D60502009F0A4FDADF80E000494F8
:1021A0004FF001080FE040A011F092FD8DF809807A
:1021B0008DF8084000231A4601A928680EF0E7FDB3
:1021C00038460FF07CFC102203A9079804F0FAFDB2
:1021D0000028E8DB0421079804F065FE10200C902D
:1021E0008DF809608DF8088000231A4601A9286837
:1021F0000EF0CDFD042441F20605EE1F0EAB2A467B
:1022000031460094079805F096FA0CAA08A9079899
:1022100004F051FD08A90090FFF7B8F8EEE708B503
:102220004FF47A7300900022244914A00AF0F4FBC2
:1022300008BD0000474554202F6C6F67696E000091
:10224000474554202F200000474554202F6C6F67CE
:102250006F757400504F5354202F6C6F67696E0078
:102260002F6C6F67696E2E68746D6C002F696E64D9
:1022700065782E68746D6C0091CF010848545450F5
:10228000205461736B00000008000020040000204F
:1022900063616E206E6F7420637265617465207374
:1022A0006F636B657400000063616E206E6F742055
:1022B00062696E6420736F636B6574002B21000884
:1022C00000F00F00102829D2DFE800F0080A0C0EF9
:1022D00010121416181A1C1E2022242630207047B3
:1022E00031207047322070473320704734207047C8
:1022F00035207047362070473720704738207047A8
:102300003920704741207047422070474320704772
:10231000442070474520704746207047782070471A
:1023200000F00F000A281AD2DFE800F00507090BB9
:102330000D0F1113151730207047312070473220D0
:10234000704733207047342070473520704736205F
:102350007047372070473820704739207047782001
:10236000704730B504464FF000000D00107001D0EA
:10237000002311E0012030BDE05C00F00F00FFF70A
:102380009FFF02EB43014870E05C0009FFF798FFF4
:1023900002F813005B1CDBB2AB42EDD3002030BD72
:1023A00030B5154B1E2218B9302098771D220CE04D
:1023B000B0FBF1F401FB1404B0FBF1F00FA52C5DB0
:1023C0009C54521E08B1002AF2D19818401C30BD0E
:1023D000008870470870000A487070470178D0F88C
:1023E000010041EA002070470870020A4A70020C9E
:1023F0008A70000EC8707047E40400203031323318
:102400003435363738396162636465660000000030
:1024100070B50DF07BFCF1200DF002FE02213020A2
:102420000DF0AEFC0828F9D1FE4CFD4821680DF0F6
:1024300027FDFB486168001D0DF022FDF848A168EA
:1024400008300DF01DFDF648217B0C300DF018FD15
:10245000F34DF54E10350024284656F824100DF0A3
:102460000FFD641C2D1D032CF6D3ED4D20350024EB
:1024700006EB8400C16828460DF002FD641C2D1D8A
:10248000032CF5D3E94DE648303029680DF0F8FC0F
:10249000E34E4036002405EB8400416830460DF0E1
:1024A000EFFC641C361D102CF5D3DD4E9036002455
:1024B00005EB8400416C30460DF0E2FC641C361DD7
:1024C000032CF5D3D64EA036002405EB8400016D15
:1024D00030460DF0D5FC641C361D032CF5D3D04ED0
:1024E000B036002405EB8400C16D30460DF0C8FC09
:1024F000641C361D032CF5D3C94E0024CC4DC036C8
:1025000009E004EB840105EB810106EB8400898876
:102510000DF0D3FC641C2878A042F2D80DF002FC28
:10252000012070BDC34810B5417811B1012101707F
:1025300010BDBB48BD4A3030B94900684031106019
:10254000002002EB800408C9401CC0B26360102860
:10255000F7D3B3499031002002EB800408C9401C36
:10256000C0B263640328F7D3AD49A031002002EB69
:10257000800408C9401CC0B223650328F7D3A849CA
:10258000B031002002EB800408C9401CC0B2E365F2
:102590000328F7D310BDA74810B5417811B1012128
:1025A000017010BD9E49A04A1031002008C942F8B0
:1025B0002030401CC0B20328F8D3994920310020B4
:1025C00002EB800408C9401CC0B2E3600328F7D3C3
:1025D00010BD9848417811B10121017070479048B1
:1025E000904902680A6042684A6082688A60007B9B
:1025F0000873704730B58F48417811B101210170DF
:1026000030BD8B4B0620864C1870002004EB8001F7
:1026100000EB800203EB820211F8C05F157149786C
:102620005171401C1978C0B28142EFD830BD70B5ED
:102630000546FFF777FFFFF7CCFFFFF7ACFFFFF78B
:10264000D9FF7DA1284610F051FF764C38B17DA10D
:1026500010F04CFF18B1401C10F0B8FF20707AA1A8
:10266000284610F043FF38B176A110F03FFF18B1B3
:10267000401C10F0ABFF607076A1284610F036FFCA
:1026800038B170A110F032FF18B1401C10F09EFF5D
:10269000A07073A1284610F029FF38B169A110F08D
:1026A00025FF18B1401C10F091FFE0706FA1284683
:1026B00010F01CFF38B163A110F018FF18B1401CD6
:1026C00010F084FF20716CA1284610F00FFF38B184
:1026D0005CA110F00BFF18B1401C10F077FF607187
:1026E00068A1284610F002FF38B156A110F0FEFE96
:1026F00018B1401C10F06AFFA07165A1284610F0C7
:10270000F5FE38B14FA110F0F1FE18B1401C10F0E9
:102710005DFFE07161A1284610F0E8FE38B149A1E3
:1027200010F0E4FE18B1401C10F050FF20725EA1C2
:10273000284610F0DBFE38B142A110F0D7FE18B1E8
:10274000401C10F043FF60725AA1284610F0CEFEE4
:1027500038B13CA110F0CAFE18B1401C10F036FF91
:10276000A07257A1284610F0C1FE38B135A110F073
:10277000BDFE18B1401C10F029FFE07253A128469D
:1027800010F0B4FE38B12FA110F0B0FE18B1401C0B
:1027900010F01CFF207327490120487070BDF0B570
:1027A00089B00646FFF7BEFEFFF713FFFFF7F3FE03
:1027B000FFF720FF47A1304610F098FE194DB8B141
:1027C00020A110F093FE401C044644A110F08EFEA0
:1027D00007466CB167B12021684610F070FE3A1BC5
:1027E0002146684610F0B6FE684609F046FA2860B1
:1027F0003BA1304610F07AFE80B112A110F076FEB7
:10280000401C044635A110F071FE074634B12FB1CB
:102810002021684610F053FE3A1B65E06CE0000092
:1028200000000408AC020020BC020020D4020020FA
:102830003C03002048000020646576696365697088
:10284000310000003D0000006465766963656970D1
:1028500032000000646576696365697033000000CA
:102860006465766963656970340000006465766943
:1028700063656D61736B31006465766963656D6175
:10288000736B32006465766963656D61736B3300E9
:102890006465766963656D61736B34006465766940
:1028A0006365676174653100646576696365676156
:1028B00074653200646576696365676174653300C9
:1028C0006465766963656761746534004468637044
:1028D000000000005365745F69700000260000006E
:1028E0005375626E657400002146684610F032FE32
:1028F000684609F0C2F96860FAA1304610F0F6FDAA
:10290000C8B1AFF2C00110F0F1FD401C0446AFF2B7
:10291000340110F0EBFD07466CB167B12021684629
:1029200010F0CDFD3A1B2146684610F013FE6846B4
:1029300009F0A3F9A860AFF26C01304610F0D6FDA3
:10294000E8B1AFF2001110F0D1FD401C040016D028
:10295000E6A110F02BFE06462021684610F0AFFDE0
:102960000EB1321B03E0204610F0D2FD0246214694
:10297000684610F0EFFD684610F028FE2873DC4929
:102980000120487009B0F0BD70B50646FFF7CAFDDA
:10299000FFF71FFEFFF7FFFDFFF72CFED5A1304626
:1029A00010F0A4FDD54C40B1AFF2681110F09EFDBF
:1029B00018B1401C10F00AFE2070D1A1304610F072
:1029C00095FD40B1AFF2841110F090FD18B1401C9C
:1029D00010F0FCFD6070CCA1304610F087FD40B1D6
:1029E000AFF2A01110F082FD18B1401C10F0EEFD06
:1029F000A070C7A1304610F079FD40B1AFF2BC1114
:102A000010F074FD18B1401C10F0E0FDE070C2A1A0
:102A1000304610F06BFD98B1AFF2D81110F066FDA2
:102A200070B1451C4021201D10F049FDAFF254113A
:102A3000284610F05BFD421B2946201D10F08AFD40
:102A4000B8A1304610F052FDA0B1AFF2082110F04D
:102A50004DFD78B1451C00206064A064AFF2841184
:102A6000E064284610F042FD421BA4482946443049
:102A700010F070FD9E490120487070BD2DE9F041B5
:102A800088B08046FFF74EFDFFF7A3FDFFF783FDFB
:102A9000FFF7B0FDA6A1404610F028FD974CE8B125
:102AA000AFF2602110F022FDC0B1401C05468FA19D
:102AB00010F07CFD06462021684610F000FD0EB1A6
:102AC000721B03E0284610F023FD024629466846A3
:102AD00010F040FD684609F0D0F820608EA1404615
:102AE00010F004FDC8B1AFF2A42110F0FFFCA0B1BA
:102AF000401C05467DA110F059FD06464021201DD1
:102B000010F0DDFC0EB1721B03E0284610F000FD52
:102B100002462946201D10F01DFD87A1404610F0F9
:102B2000E5FC0025C8B1AFF2E42110F0DFFCA0B154
:102B3000401C06466DA110F039FD25656F4F656597
:102B40005037A56508B1821B03E0304610F0E0FC69
:102B500002463146384610F0FDFC7AA1404610F09E
:102B6000C5FCC8B1AFF2243110F0C0FCA0B1401CCC
:102B700006465EA110F01AFDE565256665665F4CA8
:102B80005C3408B1821B03E0304610F0C1FC024601
:102B90003146204610F0DEFC55490120487008B04F
:102BA000BDE8F0812DE9F04190B08046FFF7BAFC16
:102BB000FFF70FFDFFF7EFFCFFF71CFD0024644D4E
:102BC0006AE0684610F07BFC224662A1684611F07C
:102BD000A7F86946404610F089FC38B3AFF29C3143
:102BE00010F084FC10B3401C064640A110F0DEFC3F
:102BF00007462021684610F062FC0FB1BA1B03E0C3
:102C0000304610F085FC02463146684610F0A2FCC2
:102C1000684610F0DBFC04EB840105EB81010871D0
:102C2000C87940F04000C871322088602021684691
:102C300010F045FC22464AA1684611F071F8694639
:102C4000404610F053FC28B3AFF2084110F04EFCA0
:102C500000B3401C064625A110F0A8FC0746202121
:102C6000684610F02CFC0FB1BA1B03E0304610F0A0
:102C70004FFC02463146684610F06CFC684610F086
:102C8000A5FC04EB840105EB81014871C87940F093
:102C90004000C871641CE4B228784FF02001A042C3
:102CA0008FD808A810F00BFC31A108A811F038F853
:102CB00008A9404610F01AFC88B1AFF2784110F034
:102CC00015FC60B1401C054608A110F06FFC0B49D3
:102CD000002201F144044A6410B1421B52E055E065
:102CE0004CE00000476174657761790026200000A0
:102CF00048000020686F737469703100D4020020AE
:102D0000686F737469703200686F73746970330030
:102D1000686F737469703400686F73746E616D6589
:102D2000000000006465766963656E616D65000092
:102D3000686F737469700000757365726E616D659C
:102D40000000000070617373776F72640000000010
:102D50003C030020706F727425645F7479706500A5
:102D6000706F727425645F6163746976650000003A
:102D7000646576696365494400000000284610F0E8
:102D8000C7FB02462946204610F0E4FBA04901207B
:102D9000487010B004E72DE9F0410646FFF7C2FB8A
:102DA000FFF717FCFFF7F7FBFFF724FCAFF2780102
:102DB000304610F09BFB002844D0AFF2785110F061
:102DC00095FB00283ED0471CAFF2E001384610F0DA
:102DD000EDFB904C002525606560A56028B1C21B05
:102DE0003946204610F0B6FB03E03946894810F01A
:102DF00071FB89A1304610F079FB20B988A13046DB
:102E000010F074FBD0B1AFF2C45110F06FFBA8B159
:102E1000401C0646AFF22C1110F0C8FBE5607D4B5C
:102E200025610C33656128B1821B3146184610F0CC
:102E300091FB03E03146184610F04CFB7449012029
:102E400048700870ACE61CB50446694600200DF0D9
:102E500044FA01A900200DF0B8FA74A1204610F040
:102E600045FB78B1AFF2246110F040FB50B1401C3B
:102E700010F0ACFB10F0FF008DF8030000D04020F4
:102E80008DF803006BA1204610F030FB48B1AFF283
:102E90004C6110F02BFB20B1401C10F097FB8DF81B
:102EA000020067A1204610F021FB48B1AFF26C612F
:102EB00010F01CFB20B1401C10F088FB8DF80100C5
:102EC00062A1204610F012FB48B1AFF2886110F009
:102ED0000DFB20B1401C10F079FB8DF800005EA1C5
:102EE000204610F003FB48B1AFF2A86110F0FEFAE3
:102EF00020B1401C10F06AFB8DF8040059A1204657
:102F000010F0F4FA48B1AFF2C46110F0EFFA20B15A
:102F1000401C10F05BFB8DF8060054A1204610F019
:102F2000E5FA48B1AFF2E46110F0E0FA20B1401CDC
:102F300010F04CFB8DF805004FA1204610F0D6FA9A
:102F400048B1AFF2007110F0D1FA20B1401C10F07E
:102F50003DFB8DF80700694600200DF06EF9012851
:102F6000F9D101A900200DF0E2F90128F9D11CBD29
:102F70002749012088707047254810B5427840499C
:102F8000012A07D10278012A04D10022427002707E
:102F900001220A708078002811D008780028FDD11D
:102FA0000A200EF08CFDBFF34F8F36480168364A79
:102FB00001F4E06111430160BFF34F8FFEE710BDE4
:102FC0003249002000EB800201EB820200F1010097
:102FD000D279C0B2920601D40628F3D370472B4AA7
:102FE000002101EB810302EB8303DB799B0603D411
:102FF000491CC9B20629F4D3012908D1020024488A
:103000004FF4006101D00BF02CBE0BF02CBE7047CA
:1030100048000020BC0200206E6577706173730069
:10302000636F6E6669726D7061737300736574317E
:10303000324800007365747365636F6E64730000DB
:103040007365746D696E757465730000736574687B
:103050006F757273000000007365747765656B644B
:103060006179000073657464617465007365746DE3
:103070006F6E74680000000073657479656172009A
:10308000000000200CED00E00400FA053C030020E5
:10309000000802402DE9F047064600688AB0002586
:1030A00081680091C3687068D0E90112EFA010F048
:1030B0000FFEF84FDFF8E0A3A94605EB85010AEB08
:1030C00081046079012859D1202101A810F0F7F975
:1030D000F24901A810F0FEF9F1A101A810F0FAF9E7
:1030E0000A212846FFF75CF9014601A810F0F2F921
:1030F000EDA101A810F0EEF9706801A9806810F048
:10310000F5F95FEA000839D037F815000A21FFF712
:1031100047F901463068806810F0E8F970B3E6A11D
:10312000404610F0E3F920B1E07900F0F000401CD7
:103130001DE0E4A1404610F0D9F928B1E07900F093
:10314000F000401CE07115E0E0A1404610F0CEF91F
:1031500020B1E07900F0F000801C08E0DDA14046DD
:1031600010F0C4F930B1E07900F0F000C01CE0715B
:1031700027F81590E07940F02000E0716D1CEDB269
:10318000062D9AD30AB0BDE8F087ADF5047D58222C
:10319000D24935A810F07AF900200746829081467E
:1031A000819082468090CEA00EF028FFCF4C3390C5
:1031B0001E200EF084FC002283A920680EF0F3F894
:1031C0009DF80C020628F3D100F077FCB3484FF0CD
:1031D000010B539054A801F023FA50206CA9CDE9BB
:1031E0000001029058AB47F2305254A903A800F0F6
:1031F000D7FDFFF797F9A94C443CE0780090A378FD
:1032000062782178BAA010F063FD40F25B7507E0A8
:10321000E0780090A37862782178BFA010F058FD84
:103220002A4654A8216801F007FA0028F0D10026A8
:10323000C64D8DF8D1B08DF8D0605C46334632462D
:1032400033A928680DF0A3FDFFF76CF903208DF872
:10325000DC00539838909148A8460C3045900C30CB
:103260004890BBA03E908DF8EF40539800244190C9
:1032700015E0BAA010F02CFD02208DF8D1008DF8D9
:10328000D06000231A4633A9D8F800000DF07FFD66
:10329000641CE4B2052C2BD8C8200EF010FC35A914
:1032A00003A800F0B3FF0028E3D1002520214BA89C
:1032B00010F005F9539810F02BF902464BA85399DA
:1032C00010F048F9B0A14BA810F004F9444616E0FC
:1032D00003208DF8D10000208DF8D000034602466F
:1032E00033A920680DF053FD6D1CEDB20A2D03D9F2
:1032F000549803F091FD6DE7C8200EF0E0FBAFF2AB
:103300006B2300224BA903A801F00FF80028DFD19E
:103310008E488DF8D1B08DF8D0B000231A4633A96D
:1033200000680DF034FD9BA010F0D2FC504600F078
:10333000FEFB00F0E6FBDFF86081044698F805002C
:10334000012865D1BAF1000F62D1642C60D340F23C
:10335000A460844207D288F806B03220C8F808007A
:103360000120819054E088F806B03222C8F8082085
:103370008199584601294BD100218DF8BC00834624
:1033800081910E468DF8BD101FA82021319010F0BC
:1033900096F840490888401C80B208800A21FEF750
:1033A000FFFF01461FA810F095F880A11FA810F09C
:1033B00091F81FA810F0ACF83290202127A810F047
:1033C0007EF8539810F0A4F8024627A8539910F0FD
:1033D000C1F87AA127A810F07DF82FAA27A903A881
:1033E00000F0F1FF28B104208DF8D1008DF8D060F5
:1033F00004E005208DF8D1008DF8D0B053480023AB
:103400001A4633A900680DF0C2FC6FA010F060FCF2
:103410002148407E012802D1BAF1010F03D0BAF150
:10342000000F21D03BE1642C02D20627002019E0D6
:1034300040F2A46084420BD2B9F1010F15D01648B6
:103440000827322180F81AB04FF00109C161CFE09E
:10345000B9F1020F09D010493220072781F81AB0BC
:10346000C86102208146BFE032E1BBE00D0A4D6534
:1034700073736167652061727269766564206F6E2F
:1034800020746F70696320252E2A733A20252E2A16
:1034900073000000040500203C03002018030020F6
:1034A0002F706F7274732F002F6163636573735F86
:1034B0006175746800000000666F7263656F706507
:1034C0006E00000070617373000000006661696C3B
:1034D000000000006572726F72000000B4CF010836
:1034E0004D515454205461736B00000008000020BB
:1034F0000D0A09436F6E6E65637420746F207468E3
:1035000065205365727665722025642E25642E250C
:10351000642E25640000000009436F6E6E656374BD
:10352000204661696C0D0A09436F6E6E65637420F5
:10353000746F207468652053657276657220256407
:103540002E25642E25642E25640000000400002032
:1035500064657669636577696C6C2F000D0A0950A4
:103560006C6561736520636865636B205573657274
:103570006E616D6520616E642050617373776F7248
:103580006420616761696E002F706F7274732F23FE
:103590000000000009436F6E6E656374205375630D
:1035A0006365737366756C0D0A0000002F62746E9C
:1035B0005F70726573736564000000002F706F7236
:1035C00074732F30000000000D0A546865204578A0
:1035D000697420427574746F6E206973207072650F
:1035E00073730000082F03D00020072F3FD000E0A6
:1035F00001200021084352D0B9F1000F4FD08DF8BF
:10360000BCB000261FA85C468DF8BD60202131901B
:103610000FF055FF072F2CD0D2A11FA810F080FB70
:103620001FA80FF075FF3290202127A80FF047FF49
:1036300053980FF06DFF024627A853990FF08AFFA9
:10364000CBA127A80FF046FF2FAA27A903A800F0B7
:10365000BAFE80B104208DF8D100C8488DF8D06042
:1036600000231A4633A900680DF091FB16E00121F2
:10367000C0E7C3A1D1E7072F26D008208DF8D100DD
:10368000BE488DF8D04000231A4633A900680DF0DB
:103690007EFB072F1AD0BDA010F01AFB00270020D8
:1036A00082464FF00208BE4908EB880001EB800417
:1036B000E079420604D5012220F040008092E071BA
:1036C0006079012806D086E00720D7E7B5A0E3E7B8
:1036D0000120E5E7A07901287DD1E079C0067AD5FF
:1036E0008DF8BCB000208DF8BD001FA83190B24805
:1036F00030F81810491C8EB220F8186020211FA83D
:103700000FF0DDFE0A213046FEF74AFE01461FA8F3
:103710000FF0E0FE1FA80FF0FBFE024632901FA83C
:103720002F2181543298401C32902079022801D0F8
:1037300003281CD1002617E0A0190090407B000947
:10374000FEF7BEFD1FA9329A01EB460150540098C6
:10375000407B00F00F00FEF7B3FD329A1FA90A4428
:103760000BEB4601761C5054207BB042E4DCE07940
:1037700020F01000E0711FA80FF0CAFE3290202147
:1037800027A80FF09CFE53980FF0C2FE024627A810
:1037900053990FF0DFFEAFF2F82127A80FF09AFE41
:1037A0000A214046FEF7FCFD014627A80FF092FED5
:1037B0002FAA27A903A800F006FE18B16D1CEDB2D0
:1037C000052D02D9002502E005E00028F0D1414690
:1037D0007AA010F07DFA08F10108B8F1060FFFF6A3
:1037E00062AF6F4E002404EB840006EB800081681A
:1037F00011B1491E816042E0002181713222826054
:10380000407901283BD18DF8BCB08DF8BD101FA8C0
:10381000202131900FF053FE70A11FA80FF05AFE27
:103820000A212046FEF7BCFD01461FA80FF052FEFC
:10383000E4B36CA11FA80FF04DFE1FA80FF068FEA7
:103840003290202127A80FF03AFE53980FF060FE27
:10385000024627A853990FF07DFE64A127A80FF018
:1038600039FE2FAA27A903A800F0ADFD0CB3012C47
:1038700021D021465FA010F02BFA01208290641C19
:10388000062CB0DB829868B10020829002208DF86F
:10389000D1003A488DF8D0B000231A4633A9006809
:1038A0000DF075FA8098012809D030E0FFE759A1A2
:1038B000C0E75BA000E063A010F00AFADDE700209B
:1038C0008DF8BCB080908DF8BD001FA820213190EC
:1038D0000FF0F5FD64A11FA80FF0FCFD1FA80FF06D
:1038E00017FE3290202127A80FF0E9FD53980FF022
:1038F0000FFE024627A853990FF02CFE3BA127A8E4
:103900000FF0E8FD2FAA27A903A800F05CFD03A88B
:1039100000F009FC48B1C82103A800F0E9FB90B110
:10392000014655A010F0D4F900E502208DF8D10031
:1039300000208DF8D00003460246104833A90068E5
:103940000DF025FAD4E40A200EF0B9F8EEE41CB527
:103950000023CDE900130246AFF27C414E480DF042
:1039600041FF1CBD446F6F725F636C6F7365000035
:103970002F706F7274732F3100000000040000205C
:10398000446F6F725F6F70656E0000000D0A5468BF
:103990006520446F6F7220697320636C6F736500DC
:1039A0003C0300200D0A54686520446F6F72206943
:1039B00073206F70656E0000040500200D0A5265CB
:1039C00063656976656420446174612066726F6D19
:1039D00020706F727420256400000000706F727494
:1039E000732F0000206572726F7200002F73746174
:1039F000747573000D0A54686520506F7274202529
:103A000064206973206C6F737420636F6E6E6563DE
:103A1000740000002062746E5F6F70656E000000BD
:103A20000D0A546865204578697420427574746F76
:103A30006E206973206C6F737420636F6E6E6563A4
:103A4000740000000D0A54686520446F6F722053A3
:103A5000656E736F72206973206C6F737420636F6F
:103A60006E6E656374000000636F6E6669675F6306
:103A700068616E67650000000D0A52657475726EAC
:103A800020636F64652066726F6D207969656C6470
:103A900020697320256400008B3100081CB50121CA
:103AA00004200BF052FA0420009003208DF804004B
:103AB00069462E480BF070F81CBD10B5012186B088
:103AC00008020BF04CFAFFF7E9FF00208DF8040024
:103AD00000908DF80500039004900120244C8DF88F
:103AE0001400694620460AF055FC01231A460C21B1
:103AF00020460AF0C4FC012120460AF08DFC06B0E5
:103B000010BD10B51A4C012301461A4620460AF092
:103B1000B6FC20460AF0EDFC022120460AF0B1FD79
:103B20000028F9D02046BDE810400AF014BD08B1C5
:103B3000012801D00C2070470D2070471CB50121D1
:103B400002200BF002FA2020009000208DF80400E3
:103B500001218DF807108DF80600694605480BF025
:103B60001BF81CBD202103480BF067B80008024079
:103B700000200140000402400EB5002422A00EF0F7
:103B80003DFA254D00901E200DF099FF002202A95C
:103B900028680DF008FC9DF808000128F3D1FFF714
:103BA000CDFF01251D4E8DF805508DF804500023E2
:103BB0001A46694630680DF0EAF802270020FFF740
:103BC000D1FF08B1002410E0641CE4B2642C0CD1D5
:103BD0008DF805708DF8045000231A466946306848
:103BE0000DF0D5F80EA010F073F864200DF067FF0B
:103BF000E4E71CB50023CDE90013024602A10F48FB
:103C00000DF0F0FD1CBD00004B4559205343414EC3
:103C1000205461736B0000000800002004000020A5
:103C20000D0A53797374656D20697320666163743E
:103C30006F7279207265736574000000793B00082B
:103C40000EB51FA00EF0DAF9204C00901E200DF0EA
:103C500036FF002202A920680DF0A5FB9DF80800A0
:103C60000728F3D100224FF41651104601F0A8F9AD
:103C7000002001F0E7F9012001F0E4F9022001F051
:103C8000E1F9032001F0DEF964200DF018FF0120B6
:103C90008DF805008DF804000D4800231A4669468A
:103CA00000680DF074F801F003FAFCE71CB500237E
:103CB000CDE90013024602A106480DF093FD1CBD9C
:103CC000525334383520534C4156450008000020EB
:103CD00004000020413C000842F210700DF0EFFE9D
:103CE0000CA00FF0F5FF00200FF051F810A00FF01E
:103CF000EFFF0FF0C9F819200DF0E1FEF9E71CB550
:103D00000023CDE9001302460CA10F480DF06AFD17
:103D10001CBD00000D0A205374617274696E672027
:103D2000746F20696E6974205443504D4200000046
:103D30000D0A20506F6C6C696E6700005443502070
:103D40004D42205461736B00D93C00082DE9F041CD
:103D500090460E4605464FF0FF3700240DE04046E2
:103D600000F0E7FB0346286932460119686DD0F878
:103D700008C0E047002807DB0444B44204DA4046A8
:103D800000F0DFFB0028EAD0B44207D105F158006B
:103D9000A96900F0CAFB0020BDE8F0813846FBE7C6
:103DA0002DE9F0410446DDE90765069F41650020E5
:103DB000014604EBC00C401CCCF828100528F8DBA9
:103DC000216266616162C4E90127C4E90353217776
:103DD00001202165206004F1580000F0BBFB04F1D4
:103DE0006400BDE8F04100F0B5BB2DE9F84F044692
:103DF0004FF000088B464546084600F09AFB034604
:103E0000606D616901224668B0470646012849D1C4
:103E10008146584600F08DFB0126824600277F1C14
:103E2000042F11DC606D53460122D0F804C06946AE
:103E3000E047012808D19DF8000000F07F0101FB58
:103E40000655F6010006EAD460692946401C00F0D8
:103E500097FD00EB0906E068801BA84202D26FF0D4
:103E600001061FE0002D11DD584600F062FB0346FD
:103E700060692A468119606D4668B047A84201D042
:103E8000012000E0002008B100260BE06069017805
:103E9000404661F30700A169060919B104F1640005
:103EA00000F043FB3046BDE8F88F2DE9FC47914612
:103EB0000E4680464FF0FF37002408EBC405A96A80
:103EC000C9B3304600F026FE68BBD6E901100A18D7
:103ED000AB6A1FE090F800C0BCF12F0F0AD02B296D
:103EE0000BD0232913D0614518D12B2905D02329C4
:103EF0000DD00DE02F2911D10AE0411C01E0811CF9
:103F0000401C914204D209782F29F8D100E0501EBC
:103F1000401C5B1C197809B19042DBD390420AD156
:103F200011F0FF0F07D1E86A28B1CDE90096E96AE0
:103F3000684688470027641C052CBEDB781C09D125
:103F4000D8F8500030B1CDE90096D8F85010684646
:103F5000884700273846BDE8FC873EB5044680699F
:103F6000002520B304F1580000F0EBFA20B904F169
:103F7000640000F0E6FAD0B1207F10B14FF0FF35B9
:103F800015E0684600F0E6FA4FF47A71684600F0F2
:103F9000C9FAA168206900F07EFC011E07DD6A46AF
:103FA0002046FFF7D3FE050001D1012020772846E7
:103FB0003EBD00210A4600EBC103491C9A62052957
:103FC000F9DB7047002101770162416A002900D0C6
:103FD000EFE770472DE9F0418EB088460446002592
:103FE000FFF703FF00214F1E06460E2808D2DFE828
:103FF00000F06E076E096E48486E076E076E076D1B
:1040000005466AE0089108AA6169E0680292CDE974
:10401000031007AB09A8CDE9000305A8031D421C46
:104020000CA9801C00F042FC01285FD10C988DF88F
:10403000140005AA09A92046FFF737FF9DF81400D0
:10404000F0B3012802D0022808D012E0BDF8180011
:10405000009000230422A168206906E0BDF8180042
:10406000009000230522A168206900F059FE011E7E
:1040700001DC3D4623E042462046FFF767FE054649
:104080001DE0E068009001AA02A903A8636900F09E
:1040900053FC0128EDD1BDF804000090052E13D08B
:1040A00007220023A168206900F03AFE0028E0DD25
:1040B000014642462046FFF749FE0500D9D100E0FF
:1040C00005E0681C0AD002E00622EAE721772046D4
:1040D000FFF743FF08B13D4600E03DB1206A10B153
:1040E0002046FFF76FFF28460EB055E63546FAE743
:1040F000FEB505460E460024684600F02BFA314610
:10410000684600F00FFA69462846FFF763FF00286B
:1041100002DA4FF0FF3404E0684600F012FA00289B
:10412000F1D02046FEBD006A70470EB504466846D1
:1041300000F010FA4FF4FA752946684600F0F2F9DB
:1041400069462046FFF746FFF6E72DE9F04116469F
:104150000D4607464FF0FF34304600F0F2F940B903
:1041600031463846FFF736FF0446A84201D0002CFE
:10417000F2DA204610E62DE9F0419AB016460F46D5
:1041800004464FF0FF3845465822D24968460FF0A2
:104190007DF9206A88BB16A800F0DCF916A86168D2
:1041A00000F0C0F907B96F46398BA161B87E606233
:1041B00004F1640000F0B9F93A46A168206900F002
:1041C0009EFA00281FDD014616AA2046FFF7BEFD15
:1041D000050018D116AA02212046FFF7B6FF0228D3
:1041E0000AD10027377077703146701CE368626926
:1041F00000F008FB012801D0454604E0357815B9E8
:1042000001202062277728461AB0C5E508B56A461E
:10421000FFF7B1FF08BD2DE9F0471746894605466F
:104220004FF0FF36002405EBC408D8F8280018B179
:1042300049460FF074F930B1641C052CF3DBDFB193
:10424000701C09D012E02FB905EBC4010020886270
:10425000C8F82C000026F2E7002405EBC400806AB1
:1042600018B1641C052CF8DB06E00026052C03DAE7
:1042700005EBC400C0E90A973046BDE8F0872DE998
:10428000FF478AB00027169E0446079708970691B5
:104290004FF0FF38006A9A468946454620B303A886
:1042A00000F058F903A8616800F03CF9204600F0DE
:1042B00005F983B20CAA06A901208DE807000022A7
:1042C000A168206900F07BFD011E0DDD03AA2046D8
:1042D000FFF73CFD050007D103AA09212046FFF79F
:1042E00034FF092803D04546681C18D01AE002970D
:1042F0003770E1686069CDE90001334602AA012107
:1043000009A800F0A2FD0128EED130788028EBD07A
:10431000524649462046FFF77EFF0546E4E7204621
:10432000FFF750FE28460EB0A7E71CB501AC00947D
:10433000FFF7A5FF1CBDF0B589B00446002006902C
:10434000059107904FF0FF36206A0F46354620B39F
:1043500002A800F0FFF802A8616800F0E3F8204628
:1043600000F0ACF883B205A90120CDE900010022DC
:10437000A168206900F0BDFD00280EDD014602AAFB
:104380002046FFF7E3FC050007D102AA0B212046D7
:10439000FFF7DBFE0B2803D03546681C0DD00FE07D
:1043A0006846E268616900F0E2FD0128F5D100226B
:1043B00039462046FFF72FFFEFE72046FFF702FEC2
:1043C00009B02846F0BD2DE9F04305464FF0FF3710
:1043D000006A8BB014463E464FF00009884670B321
:1043E00007A800F0B7F807A8696800F09BF82078E4
:1043F000012801D0022803D1284600F05FF8A080F0
:10440000D4E90201CDE90501CDE90289CDF810908A
:10441000A1886078CDE9000123780022A968286985
:1044200000F03BFC011E25DD07AA2846FFF78EFCA5
:1044300006001FD12078012802D0022808D019E0F8
:1044400007AA04212846FFF780FE042807D010E0C1
:1044500007AA07212846FFF778FE072809D1E86850
:10446000009001AA02A903A86B6900F065FA01286F
:1044700000D03E46701C02D12846FFF7A3FD0BB0CA
:104480003046BDE8F0833EB504464FF0FF35684640
:1044900000F060F86846616800F044F8A16820699F
:1044A00000F0F7F9011E04DD6A462046FFF74EFCD6
:1044B00005462046FFF786FD28463EBD01460068BA
:1044C000A0F57F42FF3A02D0401C086070470120EF
:1044D000FBE700000CD001082DE9FC41064615461B
:1044E0000F4640F28A2400200DF042FBCDE9000681
:1044F0002B46224661A138460DF074F9BDE8FC81D7
:1045000010B5044601200CF0E4FC206010BD0068EA
:104510004FF0FF310CF00EBD002300681A4619461B
:104520000CF035BC02C00DF0FABE4FF47A72514364
:10453000F8E710B504460146001D0DF013FF206892
:1045400010BD10B50146001D0DF00CFF012800D074
:10455000002010BD002101604160816070472DE99D
:10456000FF47064615460F46002402A801930DF0AA
:10457000D6FE4FF0040841F2060940F6FF7ACDF866
:10458000008001AB4A465146306803F0D4F82A1B3C
:1045900039190023306802F07DFD002801DD044454
:1045A00002E001DA044607E0AC4205DA01A902A8FC
:1045B0000DF0D8FE0028E2D0204604B0BDE8F08718
:1045C0002DE9FF47064615460F46002402A8019331
:1045D0000DF0A5FE4FF0040841F20609CDF8008069
:1045E00001AB4A460021306803F0A5F82A1B3919AF
:1045F0000023306802F0ACFD002801DD044402E035
:1046000001DA044607E0AC4205DA01A902A80DF080
:10461000A9FE0028E2D02046CFE7006802F0FCBBEC
:1046200000210160AFF2C9014160AFF26B0181600E
:10463000AFF21901C16070477FB5044602208DF8C2
:1046400001000E464FF0FF3590B207F04AFBADF87F
:104650000200062201210220019602F0ABFD20603B
:10466000002808DB1022694602F0F3FB050002D5A2
:10467000206802F0D1FB04B0284670BD4D5154545F
:104680005461736B0000000070B50446007A002589
:10469000032802D0042802D002E00C2500E00A25FD
:1046A00004F10C0007C800F02EFA0544E07EAD1CB2
:1046B00078B1243494E80700243C00F024FA303424
:1046C000064694E80700303C00F01DFA30440544EB
:1046D0002D1D206C08B9A16C29B1D4E9111200F08C
:1046E00012FA0544AD1CE06C08B9616D29B1D4E93A
:1046F000141200F008FA0544AD1C284670BD2DE9DF
:10470000F843064600908846144600251046FFF7F9
:10471000BBFF814600F063F9404502DDA81EBDE8FD
:10472000F8832F46394667F307016846103100F0D9
:1047300089F94946009800F023F90099084400904F
:10474000207A04281DD055A1684600F090F9032175
:10475000684600F077F9A07E67F3070560F341052E
:10476000E07E08B145F00405680707D594F83D00E0
:1047700060F3C40594F83C0060F34515206C40B923
:1047800005E048A1684600F072F90421E0E7A06C5A
:1047900008B145F08005E06C08B9606D08B145F0DE
:1047A00040052946684600F04DF9218B684600F027
:1047B0004FF904F10C0168460EC900F071F9E07E72
:1047C00068B12434684694E80E00243C00F068F98F
:1047D0003034684694E80E00303C00F061F9280659
:1047E00005D504F1400168460EC900F059F9680684
:1047F00005D54C34684694E80E0000F051F9009855
:10480000801B8CE72DE9FC41074600240E46254617
:104810006846009200F010F90146204661F3070057
:104820000009022819D101A9009800F0F7F80099B1
:1048300005460844019900900144081A02280CDB3F
:10484000684600F0F9F860F3070404F001003870DE
:10485000684600F0F1F8307001252846BDE8FC817B
:1048600038B5002304460090022901DA981E38BDAD
:10487000194663F3070162F30711684600F0E2F896
:104880000021009800F07CF800990144081B009179
:1048900038BD0E22E4E70C22E2E700004D514973D7
:1048A000647000004D515454000000002DE9FC5F7D
:1048B0008046DDE90EA00024CDE9000499461746A4
:1048C0000E462546DDF834B0684600F0B5F860F3D2
:1048D0000704200903282CD1C4F3C00188F8001074
:1048E000C4F34100306004F00100387001A9009861
:1048F00000F094F800990546084401990090441886
:10490000224669460C9800F0E4F890B10098201A0D
:104910000FD43068002804DD684600F084F8A9F858
:1049200000000098211ACAF8001000990125CBF860
:1049300000102846BDE8FC9F2DE9FC4107461546BE
:104940000E4600246846009300F076F860F30704F2
:10495000C4F3C00030702009387001A9009800F03D
:104960005DF80099019A014400910A44511A022904
:1049700004DB684600F057F828800120BDE8FC8180
:1049800010B504460020CA1701EB526323F07F02E2
:10499000891ACAB2D911002901DD42F080022254DD
:1049A00000F10100EFDC10BDF8B5012400250E4632
:1049B00007460D606D1C042D0FDC01216846B847C9
:1049C00001280AD19DF80000316800F07F0202FB47
:1049D0000411E40131600006ECD42846F8BD401C07
:1049E000802801DA401C7047B0F5804F01DA801C46
:1049F0007047A049884201DAC01C7047001D70470B
:104A000030B500229C4C05E02368521C13F8015B72
:104A1000057023608A42F7DB084630BD964A106075
:104A2000AFF22300C0E701684A7811F8023B016049
:104A300002EB032210467047016811F8012B016058
:104A400010467047026811700168491C0160704788
:104A500010B5CA17046801EB12631A0A22700268C3
:104A6000521C026011700168491C016010BD70B5D4
:104A700004460D4608460EF04BFD0646014620460C
:104A8000FFF7E6FF3246294620680EF0FFFC20685B
:104A90003044206070BD4178007801EB0020704701
:104AA00070B5141E1E4605460BDD1146FFF7D0FFFC
:104AB0002246314628680EF0E9FC28682044286028
:104AC00070BD11B1BDE87040D1E7BDE87040002174
:104AD000BEE7F0B5054608680026101A17460C46D2
:104AE00001280CDD0846FFF79EFF686021680A1860
:104AF000BA4204D8A9602168012608442060002039
:104B000028603046F0BD0200084602D010460EF084
:104B1000FFBC704770B5024600680D4620B10646DE
:104B20000EF0F6FC044601E0D2E9014628460EF0FC
:104B3000EFFC844205D12246294630460EF027FD7F
:104B400008B1002070BD012070BD2DE9F84300259B
:104B50008846164604464FF0FF3701210095B047BE
:104B6000012816D169463046FFF71EFF601C0099E8
:104B7000FFF706FF0099401C0B18434509DC21B1E3
:104B80002044B0470099884203D1207860F307059C
:104B90002F093846BDE8F8832DE9F84307464FF062
:104BA000FF35107D14468946A846002620B101280D
:104BB0000FD002283ED02675D4E9003001223946B4
:104BC0009847411C53D00028E4D02661207D401C2A
:104BD0002075206910B90120C4E902062069042863
:104BE00018DAD4E90030012269469847411C11D0F7
:104BF000A0B32069401C20619DF80000D4E9021296
:104C000000F07F0303FB0122C901C4E90212000680
:104C1000E4D42569681C2AD0F5B1781CE168FFF757
:104C2000AFFE401C2061E168014449451FDC207D46
:104C3000401C2075E268A2B12069C119D4E9003096
:104C40009847411C13D00028A4D0E168091AE160FC
:104C500022691044206104D000209BE7FFE7002573
:104C6000D8E73978304661F307004FEA1018267507
:104C700040468FE7FFFF1F004C00002070B50E4636
:104C8000114604461A463046049DFFF73CFF28446F
:104C9000801C002C00DD801C70BD2DE9FC5F1C46D3
:104CA000129ECDE90060DDF838B09046DDF830A006
:104CB000DDE90F238946054659462046FFF7DEFF0A
:104CC0000746FFF78CFE484503DD6FF00100BDE8A5
:104CD000FC9F302168F3C30164F342016AF30001D1
:104CE00001A8FFF7AFFE39460198FFF749FE019989
:104CF00008440190DDE90F23594601A8FFF7D0FED3
:104D0000002C03DD01A80D99FFF7A2FE3246119990
:104D100001980EF0BBFB019830440190401BD6E790
:104D2000F8B50024069E05460090042901DAA01E6D
:104D3000F8BD62F3071463F3C304062A24F00602E5
:104D400000D1921CD1B26846FFF77CFE0221009888
:104D5000FFF716FE00990844009031466846FFF7B9
:104D600077FE0098401BF8BD08B50023009204228E
:104D7000FFF7D6FF08BD08B5009313460622FFF7DC
:104D8000CFFF08BD08B5002300920722FFF7C8FF38
:104D900008BD2DE9F04102250E460746002409E032
:104DA00004EB440006EB800007C8FFF7ACFE0544A7
:104DB000641CED1CBC42F3DB2846BDE8F0812DE904
:104DC000FF4F83B08A46DDE9108706460025019033
:104DD0009346DDF848902C4639464046FFF7D9FF08
:104DE0000090FFF7FCFD504503DDA81E07B0BDE8AD
:104DF000F08F65F3070580356BF3C30525F00600DA
:104E0000801CC1B201A8FFF71DFEDDE90010FFF70D
:104E1000B7FD01990844019001A80699FFF718FE13
:104E20000EE004EB440007EB800501A895E80E00B6
:104E3000FFF736FE19F8241001A8FFF703FE641CE3
:104E40004445EEDB0198801BD0E72DE9FC47824604
:104E50004FF000090A9800901E46144688464D46B9
:104E60004F466846FFF7E8FD60F307052809092863
:104E700026D101A90098FFF7D1FD00990746084403
:104E8000019900904518281A022819DB6846FFF797
:104E9000CAFDAAF80000C4F800900DE02168414561
:104EA00002DD4FF0FF370BE06846FFF7C5FD2168D4
:104EB0008A00491C2160B0500098A842EED3012717
:104EC0003846BDE8FC872DE9F04102250E4607462D
:104ED000002409E004EB440006EB800007C8FFF75C
:104EE00012FE0544641CAD1CBC42F3DB2846BDE841
:104EF000F0812DE9FC5F8A46DDE90C870646002536
:104F000001909B4691462C4639464046FFF7DBFF11
:104F10000090FFF764FD504502DDA81EBDE8FC9F30
:104F200065F30705A03569F3C30525F00600801C6D
:104F3000C1B201A8FFF786FDDDE90010FFF720FDF3
:104F4000019908440190594601A8FFF781FD09E045
:104F500004EB440007EB800501A895E80E00FFF77D
:104F60009FFD641C4445F3DB0198801BD6E73EB5EA
:104F7000002400920B4602468DF804408DF808404C
:104F800002A901A8FFF7D8FC9DF804100B2900D155
:104F900001203EBD70B5094DFF231A4605F5807608
:104FA00005E010F8014B54402A5D5A40335D491E1C
:104FB00089B2F6D242EA032070BD000064D0010835
:104FC0002DE9F0411746884608B1012425E0954EA9
:104FD0009348F061944830629448B061944870629C
:104FE0000020B0629348F0629348306393480025F4
:104FF00070633A464146284600F022F9040002D187
:10500000284600F05AFE6D1CEDB2042DF1D324B9F0
:1050100000F00EFE20B1012030702046BDE8F08186
:105020000224FAE702467F4810B5017800240129DE
:1050300002D00524204610BD816A0029FAD010460E
:105040008847F7E770B5774D0024E96988472878E5
:10505000012802D00524204670BD00202870FAE700
:1050600010B5704C217829B1032903D0012905D04E
:10507000052010BD216A884701202070002010BD46
:1050800068480078032801D000207047012070474D
:1050900064491031085C704762491431085C7047FC
:1050A000604A1032115470475E4A0C3211547047F6
:1050B000F8B55C4C207818B1032801D00520F8BD64
:1050C000684600F0D1FD012812D1564DBDF802000E
:1050D000103504281FD004DC012807D0022807D18E
:1050E00007E008284DD0102802D15EE00320207090
:1050F0008CE04C4B646A1B1D1A1D9DF80000D11FEB
:10510000A04700289DF8000001D0012133E00421D0
:1051100000F09AFD7AE0A26802201678A670E0708E
:10512000F00902D05078E0701FE03E4B0020383389
:1051300013F83010C9B1B14214D13A4E9DF800C0F5
:1051400001210C3603EBC00006F80C104768A6F1ED
:10515000080361786046B847E0709DF800100020B1
:10516000705402E0401C0528E2DBE07800289DF83E
:10517000000003D0022129541021C9E700F0C8FD26
:1051800040E028499DF80000083100F0DBF99DF867
:10519000000000F0E5F9034622499DF800001431B3
:1051A000A268095C00F0C2F830E09DF800001D49DB
:1051B0002D5C083100F0C6F925B1012D0DD0022D6E
:1051C00020D115E09DF8000000F0CAF902469DF8D4
:1051D0000000A16800F095FD14E09DF8000000F0CB
:1051E000BFF902469DF80000A16800F08CFD09E0BF
:1051F0009DF8000000F0B4F902469DF80000A16897
:1052000000F083FD9DF8000000F073FD0020F8BD64
:1052100004490C31085C7047024A1432115470473B
:105220009152000850000020B95200082D53000888
:10523000D9520008C353000847540008AF5400086F
:105240002DE9F04117460D46064600240CF032FCCD
:10525000C849002088553B4608222946304600F0C0
:1052600038FA01280ED1B5F5964F01D9232003E075
:10527000C1496800B1FBF0F081B2304600F080FB1C
:10528000012800D002240CF086FB2046BDE8F08106
:1052900010B504460CF00EFCB6490020091F085555
:1052A00002460121204600F0B9FA204600F0C5FB75
:1052B000BDE810400CF06FBB10B504460CF0FAFBD3
:1052C00000221146204600F0A9FA204600F011FC09
:1052D000BDE810400CF05FBB2DE9F04798469246C0
:1052E0008946044600260CF0E5FBA24F183737F834
:1052F000140006280CD337F81410A04800EB04253E
:105300002846FFF747FE28B104260CF044FB304640
:10531000BDE8F08715F8011B89F8001037F8140074
:10532000C01EA8F80000CAF80050EEE72DE9F047CB
:105330009A4616468946044600270CF0BBFB8D486A
:10534000001F005D012804D004270CF024FB384620
:10535000DEE78B48874D761E103540F824604FF00D
:10536000010825F8148086F8009035F8142002EB27
:105370000A0125F8141035F8141050F82400FFF72E
:1053800009FE014635F8140004EB4402C2EB042385
:105390007C4A1A441318401C25F81400197035F87B
:1053A0001400090A0244401C25F814001170A5F1EC
:1053B000180000F8048001220021204600F02EFA97
:1053C000C3E72DE9F84304464FF00008694600F0B2
:1053D00073FA684E361F305D50B1684906F11C07FC
:1053E00001EB0425012809D002281BD0032802D193
:1053F000204600F022FB4046BDE8F883204600F03E
:1054000078FB5C4900200839085527F814009DF8FE
:10541000001037F814002A18401C27F814001170E7
:1054200002200EE037F81400FF2809D89DF800107C
:1054300037F814002A18401C27F814001170D7E719
:1054400003203055D4E72DE9F0414A4D00260446AB
:10545000083D285D10B1012827D105E00022012177
:10546000204600F0DBF920E0424F103737F81400F7
:10547000A0B1434D55F824000178204600F00CFA05
:1054800055F82400401C45F8240037F81400401E4D
:1054900027F8140001200CF012FB06E00022012185
:1054A000204600F0BBF9022028553046EEE62DE9F3
:1054B000F041304E00250446361F305D20B10228F1
:1054C00004D0032807D110E0012100E0022120468A
:1054D00000F0BAFB05464FF0010806F80480254F9E
:1054E000083F385D022812D105E001212046FFF770
:1054F000D7FD1021EBE71F48005D40B90021204691
:10550000FFF7CEFD1021204600F09EFB054600204F
:105510003855204600F0EDFA1648001D005D0228BF
:1055200004D10421204600F08FFB054606F80480D4
:105530002846ABE600EB4002C2EB0020114A1044C3
:105540000860704700EB4002C2EB00200D4A104497
:10555000401C08607047074A083222F81010704754
:105560000449083131F810007047024A121D1154E5
:1055700070470000B8000020A07F17000409002039
:10558000040D00201005002038B50446042801D978
:10559000022038BD00F0A3FB98B169462046FFF712
:1055A000D1FF0099022220460A704A701146FFF787
:1055B000D2FF0821204600F047FB204600F0AAFB5E
:1055C00038BD052038BD10B510780024022802D05F
:1055D0000124204610BD02A00EF07AFBF9E700007E
:1055E0005265636976656420746865207265706FC2
:1055F0006E64000008B5D54CD54D4FF0FF363246ED
:10560000694620680BF0CFFE29689DF800008847A6
:10561000F5E738B1012807D0022807D0032800D1C8
:10562000CC487047CC487047CC487047CC4870474E
:1056300038B1012807D0022807D0032800D147201D
:1056400070472720704726207047342070477CB56C
:1056500001218DF8041002218DF807108DF8051036
:105660000021C04E8DF80610A8B1BF4D01281FD0F3
:10567000022820D003280DD11020009001210820FD
:1056800009F045FC6946304609F086FA102130469B
:1056900009F0E9FA7CBD4FF48064012108200094F0
:1056A00009F035FC6946304609F076FA2146EEE706
:1056B0004FF4807401E04FF48054012104200094E1
:1056C00009F025FC6946284609F066FA2146284675
:1056D000DEE72DE9F04188B01C4616460F468046AD
:1056E000FFF797FF07F0C4F94046FFF792FF07F076
:1056F000FCF94046FFF7ABFF4046FFF799FF8DF8F6
:10570000180006208DF8190000258DF81A50012088
:105710008DF81B0006A808F0DEFD029724B1012CCD
:1057200005D0022C35D105E0ADF8105006E04FF45D
:10573000C06001E04FF48060ADF81000072E06D085
:10574000082E26D124B17002ADF80C0002E004B39B
:10575000ADF80C500C20ADF81200ADF80E50ADF8BD
:1057600014504046FFF755FF02A908F04CFC404694
:10577000FFF74FFF002240F2277108F054FD40462A
:10578000FFF747FF012108F0AFFC704C206820B103
:1057900012E0002008B0BDE8F081002202210420C0
:1057A0000BF062FA20600D20CDE900050023822273
:1057B0006EA171480CF016F80120EBE7F0B4694ACD
:1057C000694B95154FF48064961459B1E8B10128DE
:1057D0001DD002281DD003281ED110211046F0BC78
:1057E00009F03FBA50B101280AD002280AD0032894
:1057F00012D110211046F0BC09F035BA2146F9E764
:10580000294600E031461846F5E72146E6E72946F5
:1058100000E031461846E2E7F0BC704738B5044670
:105820008DF800000120494D8DF8010089B100215B
:105830002046FFF7C3FF2046FFF7EBFE012240F2B0
:10584000255108F0F0FC0022694628680BF01FFD86
:1058500038BD01212046FFF7B1FF00231A466946F3
:1058600028680BF094FA38BD38B50446FFF7E0FE1F
:105870008DF8000006208DF8010000208DF8020050
:105880008DF80300684608F026FD2046FFF7C1FEAC
:10589000002108F029FC38BD10B50446FFF7B9FE19
:1058A00008F048FC2046FFF7B4FE402108F0D3FC86
:1058B0000028F7D0012010BD10B50C46FFF7A9FE57
:1058C00008F03CFC2070012010BD70B5234D40F263
:1058D00025542146284608F0C8FC002808D001209D
:1058E00000F031F821462846BDE8704008F0BABC07
:1058F00070BD10B540F22551174808F0B6FC0028DD
:1059000004D0BDE81040002000F01DB810BD10B557
:1059100040F22551124808F0A8FC002804D0BDE848
:105920001040022000F00FB810BD10B540F2255114
:10593000084808F09AFC002804D0BDE81040032075
:1059400000F001B810BD0D4909680847D8000020D3
:105950008000002000140140004800400044004046
:10596000004C0040000C0240000802407365726960
:10597000616C20706F6C6C00F55500087C00002095
:105980002DE9FF417C4E04464FF08048718030780D
:10599000C8BB0121084609F0D8FA1C208DF80C007C
:1059A00007208DF80D0000258DF80E5001278DF889
:1059B0000F7003A808F08FFC7802ADF8080064208F
:1059C000ADF8025001902820ADF800008DF80A5083
:1059D00069464546404609F009FD0021284609F080
:1059E00059FD0121284609F05FFD0521284609F0EF
:1059F0003FFD012128460AF0A2F80122114628465F
:105A00000AF07DF837705D4D55F8240030B900225A
:105A1000042101200BF028F945F82400032C08D1BB
:105A200000214446404609F023FD0121204609F0AB
:105A300055FD04B00120BDE8F0811CB504460020EE
:105A4000019001208DF800006420ADF802004B4861
:105A5000022301AA50F8240069460BF059FB0021EB
:105A60002046FFF782FD1CBD38B5044601208DF8A5
:105A7000000041483221002340885A1E48434049D3
:105A8000B1FBF0F0ADF802003C48694650F8240044
:105A90000BF07DF902212046FFF767FD38BD38B5D0
:105AA000044601208DF8000033483221002340884D
:105AB0005A1E48433349B1FBF0F0ADF802002F48BD
:105AC000694650F824000BF062F901212046FFF7E7
:105AD0004CFD4FF080440021204609F0C9FC012113
