:020000040800F2
:1000000028E20120012F0108190E00081B0E00082C
:100010001D0E00081F0E0008210E00080000000041
:100020000000000000000000000000009D0100082A
:10003000250E000800000000F9010008290E000844
:100040001B2F01081B2F01081B2F01081B2F010864
:100050001B2F01081B2F01081B2F01081B2F010854
:100060001B2F01081B2F01081B2F01081B2F010844
:100070001B2F01081B2F01081B2F01081B2F010834
:100080001B2F01081B2F01081B2F01081B2F010824
:100090001B2F01081B2F01081B2F01081B2F010814
:1000A0001B2F01081B2F01081B2F01081B2F010804
:1000B000D75B00086D0E00081B2F01081B2F0108DD
:1000C0001B2F01081B2F01081B2F01081B2F0108E4
:1000D0001B2F01081B2F01088F590008B759000872
:1000E0001B2F01081B2F01081B2F01081B2F0108C4
:1000F0001B2F01081B2F01081B2F01081B2F0108B4
:100100001B2F01081B2F01081B2F01081B2F0108A3
:10011000D35900081B2F01081B2F01081B2F0108B2
:100120001B2F01081B2F01081B2F01081B2F010883
:100130001B2F01082D0E00081B2F01081B2F010883
:100140001B2F01081B2F01081B2F01081B2F010863
:100150001B2F01081B2F01081B2F0108EF59000856
:100160001B2F01081B2F01081B2F01081B2F010843
:100170001B2F01081B2F01081B2F01081B2F010833
:100180001B2F01081B2F0108DFF80CD013F0FAFD1C
:10019000004800477D0A000828E201202C4B19681E
:1001A0000868B0E8F04F80F30988BFF36F8F4FF015
:1001B000000080F3118870470000000008480068C4
:1001C000006880F308884FF0000080F3148862B65E
:1001D00061B6BFF34F8FBFF36F8F00DF00BF00BF6B
:1001E00008ED00E0DFF80C00016841F470010160E7
:1001F000704700BF88ED00E0EFF30980BFF36F8F19
:10020000134B1A681EF0100F08BF20ED108A20E96A
:10021000F04F106009B44FF0500080F31188BFF325
:100220004F8FBFF36F8F11F0F0FD4FF0000080F3A0
:10023000118809BC19680868B0E8F04F1EF0100F6B
:1002400008BFB0EC108A80F30988BFF36F8F704746
:1002500018020020EFF305807047000008B541F256
:10026000883011F0FEFC01244FF4FA75AF2301220F
:1002700002210020009405F0DDFDFDA013F052FEE8
:10028000284611F0EEFCF1E72DE9F041FD48C025CC
:10029000A82705704770012484703221C170FF21A6
:1002A0000171417181710026C671057247728472B5
:1002B000C4720673F4A1103013F09AFAF148F2A157
:1002C0001C3013F095FAEF48C721283000F8015B85
:1002D00000F8017B00F8024B00F8011CECA113F0C0
:1002E00087FAE848EDA16C3013F082FAE548EDA1F9
:1002F000783013F07DFAE348ECA1843013F078FAFB
:10030000E04A0620903210701471547110765676BF
:10031000022082F82C0082F82D40032000EB80019F
:1003200002EB8101401C0E714E711178C0B2814206
:10033000F4D8BDE8F04102F0A3B8012686B0002051
:100340008DF80C008DF8100005464FF0040A4FF0B0
:10035000030B4FF005080EE06FB100200CF03EFFDC
:1003600001200CF03BFF02200CF038FF03200CF0C2
:1003700035FF002722E000200CF006FF01200CF0E2
:1003800003FF02200CF000FF03200CF0FDFE01270C
:1003900014E0DFF8F092022409F1900904EB8401E3
:1003A00009EB810080790128A4F10200C0B221D0BC
:1003B0000CF0EAFE641CE4B2062CEFD3BD4C2078AE
:1003C00068B100F084FF50B172B602F059F862B61D
:1003D00000F086FF00202070B7A013F0A3FD9DF869
:1003E0000C000A2877D2DFE800F008104E69FBF90C
:1003F000C59A7BF80CF0F2FEDCE7B3A013F092FD97
:1004000001208DF80C00B4A03AE0BAA013F08AFDE8
:10041000002201A9606811F00CF801285BD1B6A098
:1004200011F0BEFE01998842F8D19DF8080001281C
:10043000F4D19DF809000328F0D1B2A013F072FDA9
:10044000B8A013F06FFD8F4EF0780090B3787278FB
:100450003178BEA013F066FDF0790090B37972791F
:100460003179C7A013F05EFDF07A0090B37A727A0A
:10047000317AD0A013F056FD02208DF80C00DAA0DE
:1004800013F050FD67E29BA013F04CFD002201A980
:10049000606810F0CEFF0128C0D1DAA011F080FE14
:1004A000019988424FD19DF808000128B6D19DF8E6
:1004B00009000228B2D18DF80CB04CE202F06AF8C3
:1004C000704828300068411C06D028B108208DF8FB
:1004D0000C00CFA0D4E795E0D34813F023FD79E0DA
:1004E00084A013F01FFD002201A9606810F0A1FF95
:1004F000012814D1CDA011F053FE019988420ED1EC
:100500009DF8080001280AD19DF80900012806D1AC
:1005100007208DF80C000126C7A013F003FD75A07D
:1005200013F000FD002201A9606810F082FF01288D
:10053000B2D1C8A011F034FE01998842ACD19DF827
:100540000800012806D0C6A011F02AFE01998842B1
:100550002DD0FEE19DF809000128FAD106208DF882
:100560000C00C3A013F0DEFC02214FF47A7003F0FC
:1005700026FAF0E1002201A9606810F05AFF012874
:10058000E7D1C2A011F00CFE0199884209D19DF873
:1005900008000128DDD19DF809000128D9D10920E2
:1005A00045E0AFA011F0FCFD0199884204D19DF80F
:1005B0000800012859D0CCE1B7A011F0F1FD019954
:1005C00088421FD19DF8080001281BD19DF8090021
:1005D000012817D18DF80CA0BDE139E02AE0FFE732
:1005E000002201A9606810F024FF01280AD185A02B
:1005F00011F0D6FD0199884204D19DF80800012828
:1006000001D060B1A5E19DF8090001282CD10CF0C2
:1006100029FE9EA011F0C4FD11F0E1F94BE79DF811
:100620000900022820D10CF01DFE9DF810008DF865
:100630000C0090E1FFF728FEBFF34F8F994908683F
:10064000994A00F4E06010430860BFF34F8FFEE763
:10065000002201A9606810F0ECFE012804D19DF889
:10066000080018B1012802D073E14CE11EE135E128
:1006700053656E64206461746120746F20446573F7
:1006800074000000C002002061646D696E0000000B
:100690006C6F63616C686F737400000044433032A8
:1006A00000000000746573740000000031323334C0
:1006B00000000000000000200D0A466C61736820F5
:1006C00075706461746500000D0A53797374656D0B
:1006D00020737461727400000D0A53797374656D30
:1006E00020636F6E6E6563742045746865726E6515
:1006F000740000002E0000004448435020546173F1
:100700006B0000000D0A0945746865726E657420FF
:10071000616461707465722045746865726E657499
:100720003A0000000D0A0909436F6E6E6563746933
:100730006F6E2D737065636966696320444E532044
:1007400053756666697820202E203A000D0A090943
:100750004950763420416464726573732E202E20D4
:100760002E202E202E202E202E202E202E202E2019
:100770002E203A2025642E25642E25642E25640023
:100780000D0A09095375626E6574204D61736B2003
:100790002E202E202E202E202E202E202E202E20E9
:1007A0002E202E202E203A2025642E25642E25640E
:1007B0002E2564000D0A090944656661756C742074
:1007C00047617465776179202E202E202E202E20FF
:1007D0002E202E202E202E202E203A2025642E255D
:1007E000642E25642E2564000D0A53797374656D9B
:1007F00020737461727420776562736572766572B6
:100800000000000048545450205461736B000000F5
:100810000D0A53797374656D20737461727420547A
:100820004350204D4200000034D60108544350206C
:100830004D42205461736B000D0A20537973746527
:100840006D207374617274205253343835204D42D8
:1008500000000000525334383520534C41564500B7
:100860004B4559205343414E205461736B000000A7
:100870000D0A53797374656D20636F6E6E656374D2
:1008800020746F2073657276657200004D51545468
:10089000205461736B000000554450205461736B09
:1008A000000000000CED00E00400FA05AFF2B81003
:1008B00011F076FC019988424BD0AFF2B80011F0EC
:1008C0006FFC0199884244D0AFF2400011F068FCFF
:1008D000019988423DD19DF809503AE0AFF2E81005
:1008E00011F05EFC0199884233D0AFF2E80011F0BC
:1008F00057FC019988422CD0AFF29C0011F050FCBB
:100900000199884206D19DF80900022821D18DF86D
:100910000C801EE0AFF28C0011F042FC019988427D
:1009200017D19DF8090005280AD0032808D002280D
:1009300006D0062804D0092805D0012808D008E0F0
:100940000CF090FC05E00CF08DFC0CF083FC00E05A
:100950000025012E0BD1002204A9A06810F069FD2A
:1009600000231A4603A9A06810F0E3FA0026FA2033
:1009700011F077F90CF056FC0CF070FC9DF80C00AF
:1009800009283FF406ADE7E430B400209E4B024650
:10099000322400EB800103EB8101401C4A71CA71D3
:1009A0008A71C0B28C600628F3D330BC01F05ABE05
:1009B0001CB500200FF0DBFC11208DF80700012092
:1009C0008DF805008DF806008DF8040001A90020BF
:1009D0000FF07FFD40208DF8030000208DF800000F
:1009E0008DF801008DF8020069460FF0F8FC012037
:1009F0000FF0BDFC43F2F221002010F04FF81CBDB7
:100A000010B5012186B008070EF071FB012010F02F
:100A100019F900200EF041FB01200EF07BFA0121B4
:100A200004200EF046FB4FF4804000900320774CEA
:100A30008DF80400694620460EF080F94FF400411D
:100A40000091694620460EF079F941200EF02AFA0D
:100A50000028FAD04FF480700EF00AFB01200EF04F
:100A60001CFB0FF0BDFB7F200390FF200490402073
:100A7000029002A80FF04FFC06B010BD1CB5FFF7A6
:100A8000BFFF002010F012F8A0F54851F23901D054
:100A9000FFF78EFF4FF4E1315D480CF064F900245C
:100AA0005CA013F03FFA641CE4B2142CF8D3FFF7F7
:100AB0006BFF01F0C6FD544C903C2068411C03D0F4
:100AC000002200286CD000E001220020024304D064
:100AD00051A013F027FAFFF7D7FB00200CF05CFBC6
:100AE00001200CF059FB02200CF056FB03200CF007
:100AF00053FB002108460CF0B8FB0CF097FB0CF000
:100B00007FFB0CF0ABFB00F049FB01210022084603
:100B100010F07CF9474D00220821A860052010F054
:100B200075F9686000283AD0A868002837D0364A9E
:100B3000237B883A211DA2F1080000F0A9F90024C6
:100B40000420CDE90004234682223BA13D4810F059
:100B50001BFF0621822003F084F8032001F097FB9D
:100B60000521822003F027F94FF4827605213046D3
:100B700003F0D7F805250023324633A1AFF6450030
:100B8000CDE9005410F000FF0023324632A1AFF649
:100B90003310CDE9005410F0F7FE11F076FAFEE7BD
:100BA000012093E710B500200CF0A9FB80B10020D4
:100BB00020494A8840EA420080B240F460404880C0
:100BC000A0F57F41FF3901D0002010BD012010BDEC
:100BD0000120EDE7502080F31188BFF34F8FBFF362
:100BE0006F8F12F082F9014620A013F09BF9FEE707
:100BF000502080F31188BFF34F8FBFF36F8F20A079
:100C000013F090F9FEE700005003002000080240B6
:100C1000001001400D0A00000D0A53797374656DD0
:100C20002064656661756C742073657474696E67A1
:100C30000000000000000020455448205461736B00
:100C400000000000E9110008436F6E74726F6C20A1
:100C50005461736B0000000054657374206D6F6401
:100C6000627573205461736B000000000D0A667298
:100C700065654865617073697A65203D202564006B
:100C80000D0A537461636B204F766572666C6F77E3
:100C900020486F6F6B0000000CB500225449009291
:100CA0000192086840F4803008604FF4A06308683F
:100CB00000F4003001900098401C0090019810B999
:100CC00000989842F3D10868800334D50120019040
:100CD00047484030026842F080520260454802684E
:100CE00042F48042026042480830026802600268B2
:100CF00042F400420260026842F4A0520260031F04
:100D00003D4A1A600A6842F080720A600A689201DD
:100D1000FCD53A4940F205220A60016821F003013E
:100D20000160016841F0020101600168C1F38101C5
:100D30000229FAD10CBD01920CBD314810B50168F1
:100D400041F4700101602A48016841F0010101602D
:100D5000274A00210832116002682A4B1A400260BB
:100D6000031D294A1A60026822F48022026020488A
:100D70000C300160FFF790FF21494FF0006080398F
:100D8000086010BD70B51A4D083528681F4B204902
:100D900010F00C0004D01F4E042803D0082803D004
:100DA0000B601BE00E6019E0114A121D1068C0F3C1
:100DB0008054106800F03F0014B1B6FBF0F001E081
:100DC000B3FBF0F013681268C3F388135843C2F3FF
:100DD0000142521C5200B0FBF2F0086028680C4A35
:100DE000C0F30310121D105C0A68C2400A6070BD97
:100DF00000380240007000400C544007003C0240A4
:100E000088ED00E0FFFFF6FE103000240024F4001F
:100E10000C000020001BB7007047FEE7FEE7FEE76E
:100E2000FEE770477047704711F0A5BF08B5002076
:100E3000009040200DF047F8012804D11148694680
:100E4000006810F095FA40200DF062F84FF4803001
:100E50000DF05EF80098002807D00B494FF0805045
:100E60000860BFF34F8FBFF36F8F08BD10B5074CFD
:100E7000012120460EF035FF2046BDE8104000213C
:100E80000EF0FEBBB401002004ED00E000040040C1
:100E9000F0B506465E4887B00D460660C0E9012100
:100EA00000211F461446084606F00DFF38004FF09B
:100EB000000703D00397049705971AE03068F1788C
:100EC00000BA20F0FF0008430AF030FF03902868C2
:100ED000E97800BA20F0FF0008430AF027FF0490E9
:100EE0002068E17800BA20F0FF0008430AF01EFFF6
:100EF0000590484848490097CDE9011005AB04AA80
:100F000003A9464807F0FDFF444808F01EF843488F
:100F100008F055F807B0F0BD0EB5002540A011F05F
:100F20003FF900900120DFF804813C4F404E8DF8DE
:100F300004000024002202A9D8F8000010F005FBEC
:100F400034B1012C0DD0022C50D0032C56D159E0D5
:100F5000324807F038FC10B90020012478600220E4
:100F600041E078680025A0B3294A030E02241168E5
:100F7000CB70030C8B70030A4B700870F868010E7D
:100F80005068C170F968090C8170B989090A41700B
:100F9000397B0170B868010E9068C170B968090C9E
:100FA00081703989090A4170397A0170386A856C13
:100FB0001A4807F044FB03208DF805009DF808004F
:100FC00001281BD100231A46694630680FF0B1FF93
:100FD00014E0FFE7386AC07C05280FD903240F48C6
:100FE00007F02DFB04208DF80500EBE72DB14FF441
:100FF0002F706D1E10F035FE00E00024FA2010F076
:1010000030FE97E74FF4FA6010F02BFEF5E7000092
:10101000200000208F7B0008B3C80008CC0300200C
:1010200044484350205461736B00000008000020C6
:101030000400002000B5AFB068460CF017FB01209B
:10104000009000204FF40071CDE90A1009040790C8
:101050001190CDE920010E90149013900A11159073
:101060002590269023920420CDE9280180032A9020
:1010700080012B9040122C9040002E900121684658
:101080000CF086FB98494860012198480CF026FF37
:101090002FB000BDFEB5012147200EF00AF8012156
:1010A00088030EF02EF801200EF0F0F88E2000904C
:1010B00003208DF8050002258DF8045000248C4E85
:1010C0008DF806408DF80740694630460DF036FE33
:1010D0000B22012130460DF0A5FE0B2202213046E5
:1010E0000DF0A0FE0B22032130460DF09BFE0B22DB
:1010F000072130460DF096FE4FF460507D4F009072
:10110000694638460DF01AFE0B22114638460DF09E
:1011100089FE0B220C2138460DF084FE0B220D2196
:1011200038460DF07FFE3220734F009069463846F6
:101130000DF004FE0B22012138460DF073FE0B2248
:10114000042138460DF06EFE0B22052138460DF0C5
:1011500069FE01208DF804008DF806408DF8070027
:1011600000908DF80550694630460DF0E7FD0121ED
:1011700030460DF04AFE44F6206502940298401C69
:101180000290A842FAD3012130460DF03CFE0294B1
:101190000298401C0290A842FAD3FEBD08B5FFF7A2
:1011A00079FF4FF440700DF063F93D208DF8000099
:1011B00006208DF8010000208DF8020001208DF836
:1011C000030068460DF059F901214FF060600DF001
:1011D00070FF0CF03FFA0CF069FE0CF06DFE012878
:1011E000FBD0BDE8084025E786B00027434C0497B4
:1011F000002205A9206810F0A8F99DF81400012824
:10120000F6D13FA010F0CCFF029040480124364EAA
:101210008DF80C4090F80C80B4603D4D4FF4FA7A94
:10122000B9F1000F4FD0012108460CF089FA4007B0
:1012300039D5B068002830782FD0002843D13470D9
:101240008DF80D4000231A4602A928680FF071FEA0
:10125000FFF7F0FE0CF0DBFBB8F1000F0DD00498A7
:1012600000BB04A90C20CDE9000100234FF48272D9
:1012700028A12B4810F088FB25E026A010F090FF55
:1012800002908DF80C4003208DF80D0000231A46C3
:1012900002A928680FF04DFE15E018B10CF0C7FB4D
:1012A000377077600FE037708DF80D7000231A46A5
:1012B00002A928680FF03DFE0CF0B9FB049810B1AC
:1012C00010F08DFB0497504610F0CBFCA8E70648C1
:1012D00000218160406808B10020704701207047FC
:1012E00001490120886070472C0000204000010067
:1012F00000000240000402400008024008000020F4
:10130000455448205461736B00000000C002002067
:101310000400002044484350205461736B000000D7
:10132000190F00082DE9F0410646002131480D460D
:1013300001EB410200EBC202127D32B1491C0A29C5
:10134000F6DB2F4647B12C4C0FE001EB410100EBDF
:10135000C10701223A75F5E70020BDE8F08130466B
:10136000616812F016FA30B12468002CF7D13846C3
:1013700000F02CF8F0E7A0683860E0687860E0687A
:10138000C7E90205207C38743846E6E700F01EB84D
:1013900070B505461346D5E901200E46904202D1AC
:1013A0004FF0FF3070BD141A9C4200DD1C462968C6
:1013B00022460144304612F0A3F9A8682044A860F0
:1013C000204670BDD0E90110081A7047094A002173
:1013D00001EB410302EBC303834206D101EB410160
:1013E00002EBC101002008757047491C0A29EFDB98
:1013F0007047000008040020C0D101082DE9F04F1B
:10140000884600268346F249ADF2846D3446304664
:1014100051F82020521C41F82020401CC0B2022864
:10142000F6D30020EA4D0746083DD8F8042055F8C9
:101430002030934203D1012441F8207007E051F895
:101440002020C82A03D941F8207045F82070401C9C
:10145000C0B20228E9D3BBF100000BDB40F2DC5242
:10146000694605F0E2FECDF87C06002806DC584609
:1014700005F0A4FD0DF2846DBDE8F08FDDF87C264B
:10148000B94664210DF802700DF2DC5012F051F9EA
:1014900001208DF8DC0501F0B6F8CEA1684612F007
:1014A0005FF9CDF87C0634210DF5C86012F041F9E2
:1014B000CBA10DF5C86012F047F9CC490DF5C86015
:1014C00012F042F9CAA10DF5C86012F03DF9C74902
:1014D0000DF5C8600C3112F037F92322C7A1684618
:1014E00012F08FF900287DD02022CDA1684612F09D
:1014F00088F9002877D01E22D2A1684612F081F91F
:10150000002871D01D22D7A1684612F07AF9002870
:101510006BD01C22DBA1684612F073F9002865D05D
:101520001B22E0A1684612F06CF900287DD01F2232
:10153000E3A1684612F065F9E94FDFF8A8A3002897
:1015400074D02022E8A1684612F05BF900286ED022
:101550001422EEA1684612F054F9002868D0152232
:10156000F0A1684612F04DF900286FD01722F3A1C0
:10157000684612F046F9002869D01622F5A168469F
:1015800012F03FF900286FD01722F8A1684612F038
:1015900038F9002869D00E22FAA1684612F031F914
:1015A00000286FD00F22FBA1684612F02AF900280C
:1015B00069D00F22FBA1684612F023F900287CD0E5
:1015C0001022FCA1684612F01CF9002876D00F22E8
:1015D000FDA1684612F015F9002870D01022FEA176
:1015E000684604E034E039E040E045E04CE012F0C9
:1015F00008F900287ED00E22FCA1684612F001F9FD
:10160000002878D00D22FDA1684612F0FAF80028D3
:1016100072D00B22FDA1684612F0F3F800286CD0BE
:1016200000270C22FCA1684603E066E294E2F6E2A1
:10163000FBE212F0E6F800287ED0002007437CD0C1
:10164000002C7BD001F0CCFCF7A0F0E2F0E2F2E25B
:10165000002CF6D0684601F022F839E2002CF0D0D8
:10166000684601F0C9F933E220E369E3002CE8D0D1
:10167000684601F0C8FB2BE2002CE2D0684601F07E
:101680001AFC25E2B6E3B9E3002CDAD00DF274615E
:1016900000200EF0F4FE0DF5CF6100200EF067FF84
:1016A00064210DF2DC5012F044F89DF874060A280B
:1016B00008D2E1A10DF2DC5002E0A5E3A8E3ADE31E
:1016C00012F042F89DF87406C8B30A2100F0A0FE9B
:1016D00001460DF2DC5012F037F8D8A10DF2DC50C3
:1016E00012F032F89DF875060A2809D2D2A10DF23F
:1016F000DC5003E095E399E39DE39FE312F024F8C7
:101700009DF8750660B30A2100F082FE01460DF2D5
:10171000DC5012F019F8C9A10DF2DC5012F014F8E7
:101720009DF876060A2804D2C3A10DF2DC5012F00F
:101730000BF89DF8760603E084E384E35EE20DE0B7
:1017400080B10A2100F064FE01460DF2DC5011F078
:10175000FBFF9DF8770638B1B9A106E0B6A1B8E75E
:10176000B5A1D4E7B4A1F0E7B7A10DF2DC5011F0B8
:10177000EBFF9DF8780608280CD2DFE800F00B0498
:10178000062827262524B2A100E0B3A10DF2DC50E3
:1017900011F0DAFFB2A10DF2DC5011F0D5FF9DF887
:1017A0007A060A2804D2A4A10DF2DC5011F0CCFF75
:1017B0009DF87A0630B10A2100F02AFE01460DF2AA
:1017C000DC504FE18FE18CE189E186E183E180E14A
:1017D00040000020757365726E616D650000000049
:1017E000757365726E616D653D000000D00200206A
:1017F0002670617373776F72643D0000504F5354CD
:10180000202F70726F746563742F6367692F6E6524
:1018100074776F726B636F6E6669672E63676900BA
:10182000504F5354202F70726F746563742F636729
:10183000692F686F7374636F6E6669672E6367697B
:1018400000000000504F5354202F70726F74656376
:10185000742F6367692F70617373776F72642E637F
:1018600067690000504F5354202F70726F74656386
:10187000742F6367692F73657454696D652E636790
:1018800069000000474554202F70726F74656374BF
:101890002F6367692F67657454696D652E63676987
:1018A00000000000474554202F70726F7465637408
:1018B0002F6367692F7265626F6F742E63676900AB
:1018C000474554202F70726F746563742F63676986
:1018D0002F706F7274636F6E6669672E636769003D
:1018E0002C03002050030020504F5354202F7072BF
:1018F0006F746563742F6367692F706F7274636FA1
:101900006E6669672E6367690000000047455420D2
:101910002F7374796C652F7374796C652E63737390
:1019200000000000474554202F7363726970742FC4
:10193000636F6D6D6F6E2E6A730000004745542013
:101940002F7363726970742F64617461686F73744C
:101950002E6A7300474554202F7363726970742F89
:10196000646174616C616E2E6A7300004745542097
:101970002F7363726970742F64617461706F727415
:101980002E6A7300474554202F6C616E636F6E663C
:1019900069670000504F5354202F6C616E636F6E67
:1019A00066696700474554202F706F7274636F6ECD
:1019B00066696700504F5354202F706F7274636FC5
:1019C0006E66696700000000474554202F686F73FA
:1019D00074636F6E66696700504F5354202F686FB1
:1019E0007374636F6E66696700000000504F535454
:1019F000202F6D61696E7461696E00004745542047
:101A00002F6D61696E7461696E0000004745542056
:101A10002F5265626F6F7400504F5354202F5265E0
:101A2000626F6F74000000002F7265626F6F742E1A
:101A300068746D6C00000000300000003A00000087
:101A400020504D200000000020414D2000000000EB
:101A50004D6F6E646179000054756573646179003F
:101A60002C20000011F070FEF7A10DF2DC5011F0F7
:101A70006BFE9DF879060A2805D2AFF244010DF2FB
:101A8000DC5011F061FE9DF8790678B30A2100F070
:101A9000BFFC01460DF2DC5011F056FEEAA10DF23A
:101AA000DC5011F051FE9DF87B060A2805D2AFF2FA
:101AB00078010DF2DC5011F047FE9DF87B06C8B1AD
:101AC0000A2100F0A5FC01460DF2DC5011F03CFEAD
:101AD00037E3DEA15AE6E0A158E6E2A156E6E3A12B
:101AE00054E6E5A152E6AFF2B00168E6FFE7AFF2D7
:101AF000B801CFE7AFF2C001E6E7002C7ED010229C
:101B0000DF49584605F050FCDD490322113958469B
:101B100005F04AFCDA4903221139584605F044FC25
:101B20000DF2DC5011F02EFE02460DF2DC5158464B
:101B300005F03AFC584605F041FA0A2010F091F8F9
:101B4000BFF34F8FCF490868CF4A00F4E0601043DD
:101B50000860BFF34F8FFEE7002C76D040F2DC51D7
:101B6000684611F0E6FD00F07DFDC54968460E3976
:101B700011F0EAFDC2496846113911F0E5FDC0498E
:101B80006846113911F0E0FDC0A1684611F0DCFD96
:101B90003946684611F0D8FD002457463BE0BEA107
:101BA000684611F0D1FD0A21204600F031FC0146C3
:101BB000684611F0C9FDBAA1684611F0C5FD04EBF5
:101BC000840007EB80050A21287900F021FC0146FA
:101BD000684611F0B9FDB4A1684611F0B5FDB3A196
:101BE000684611F0B1FD0A21204600F011FC0146C3
:101BF000684611F0A9FDAFA1684600E09CE011F035
:101C0000A3FD68790A2100F003FC0146684611F043
:101C10009BFD641CE4B23878A042C0D8E1E0002CFF
:101C20009BD0684600F0F6FF8BE2AFF21C307BE2FF
:101C3000AFF20C3078E2002C7ED000F0ABFC40F22A
:101C4000DC51684611F075FD00E02DE29CA168466C
:101C500011F07AFDA2A1684611F076FDA64968460A
:101C600011F072FDA5A1684611F06EFDA24968460B
:101C70000C3111F069FDA8A1684611F065FD9E4C7C
:101C8000503C20680AF0D5F80146684611F05CFD2A
:101C9000A8A1684611F058FD211D684611F054FDB9
:101CA000ABA1684611F050FD39463FE0002CC3D08F
:101CB00040F2DC51684611F03CFD00F0C2FC80A10E
:101CC000684611F041FDAAA1684611F03DFD394674
:101CD000684611F039FDACA1684611F035FDB04CF5
:101CE00020680AF0A6F80146684611F02DFDADA166
:101CF000684611F029FD60680AF09BF801466846C5
:101D000011F022FDAFA1684611F01EFDA0680AF097
:101D100090F80146684611F017FDB1A1684611F030
:101D200013FD207B0A2100F073FB0146684611F089
:101D30000BFDB1A1684600E083E011F005FD50E025
:101D4000002CB4D040F2DC51684611F0F2FC00F0F7
:101D500089FC5BA1684611F0F7FC002457463DE082
:101D6000A6A1684611F0F0FC0A21204600F050FBC5
:101D70000146684611F0E8FCA4A1684611F0E4FCB5
:101D800004EB840007EB80050A21287900F040FB72
:101D90000146684611F0D8FC97A1684611F0D4FCC2
:101DA00096A1684611F0D0FC0A21204600F030FBD5
:101DB0000146684611F0C8FC97A1684611F0C4FCC2
:101DC00068790A2100F024FB0146684611F0BCFC4A
:101DD00089A1684611F0B8FC641CE4B23878A042CE
:101DE000BED8684611F0CEFC02466946584605F05A
:101DF000DBFAA5E1002C24D08AA095E1002C20D0AC
:101E0000684600F004FDF7E7002C1AD089A08BE1AA
:101E1000002C16D0684600F0FDFEF7E78CB18AA0D2
:101E200082E174B1684600F061FEF8E74CB16846A3
:101E300000F0E9FF00E024B188A075E10127FFF779
:101E4000F0BB7DE112E114E12F0000005765646EE4
:101E50006573646179000000546875727364617918
:101E60000000000046726964617900005361747576
:101E7000726461790000000053756E64617900003E
:101E8000E5D101080CED00E00400FA05646576690F
:101E9000636549443D00000026706F7274000000C5
:101EA0005F747970653D000026000000706F7274E9
:101EB000000000005F6163746976653D000000000A
:101EC0007661722044617461537472696E67203D5B
:101ED000206E6577204F626A65637428293B0A008B
:101EE00044617461537472696E672E757365726EA6
:101EF000616D65203D20220038030020223B0A440A
:101F0000617461537472696E672E70617373776F59
:101F10007264203D20220000223B0A446174615318
:101F20007472696E672E686F73746970203D202229
:101F300000000000223B0A44617461537472696EB0
:101F4000672E686F73746E616D65203D20220000FE
:101F5000223B0A44617461537472696E672E446552
:101F6000766963655F4E616D65203D20220000004B
:101F700044617461537472696E672E646576696337
:101F8000656964203D202200223B0A44617461534C
:101F90007472696E672E6970203D20220000000077
:101FA000C0020020223B0A44617461537472696E5E
:101FB000672E7375626E65746D61736B203D2022B0
:101FC00000000000223B0A44617461537472696E20
:101FD000672E67617465776179203D2022000000DB
:101FE000223B0A44617461537472696E672E64689F
:101FF0006370203D20220000223B0A00446174618E
:10200000537472696E672E706F7274005F747970AA
:1020100065203D20220000005F61637469766520C1
:102020003D2022002F6C616E636F6E6669672E68BB
:10203000746D6C002F706F7274636F6E6669672EBB
:1020400068746D6C000000002F686F7374636F6EAE
:102050006669672E68746D6C000000002F6D616901
:102060006E7461696E2E68746D6C00000120FFF75C
:10207000E5BA0A228BA1684611F0C3FB88B3062299
:102080008BA1684611F0BDFB58B30B228AA16846AC
:1020900011F0B7FB48B10B228AA1684611F0B1FBE1
:1020A00090B102208DF8DC0570E0D8F80410002013
:1020B00055F820208A4202D145F8209033E0401C98
:1020C000C0B20228F4D33BE0002455F8240080B9C4
:1020D0000DF5C861DDF87C0611F05BFB10B17CA04A
:1020E00013E020E00DF5C860DDF87C1611F051FB1F
:1020F00030B1641CE4B2022CE7D3022C13D01FE0F1
:10210000D8F8040045F8240074A0FFF70BF9054641
:102110005846D5E9001205F047F9002DEDD02846C4
:10212000FFF734F9E9E76AA0FFF7FCF804465846E0
:10213000D4E9001205F038F914B12046FFF726F96A
:1021400016B11022684924E0022E1FD0AEB16649B4
:1021500003221139584605F027F963490322113942
:10216000584605F021F90DF2DC5011F00BFB024648
:102170000DF2DC51584605F017F9584604F01EFFE1
:1021800000F032FF0DF2846DBDE8F08F5649112248
:102190001031584605F008F9D9E790B04FF47A703D
:1021A0000E9052A00FF0FCFF534E544D00244FF4FC
:1021B000967701901E200FF054FD00220DA9306883
:1021C0000FF0C3F99DF834000228F3D10FE04CA0C2
:1021D00011F0A8FE8DF809408DF8084000231A463A
:1021E00001A928680EF0A5FE38460FF03AFD00223E
:1021F0000121022005F0B0F807900028E7DB022655
:102200008DF80D60502009F03EFEADF80E000494EC
:102210004FF001080FE040A011F084FE8DF8098016
:102220008DF8084000231A4601A928680EF081FEA7
:1022300038460FF016FD102203A9079804F094FE0B
:102240000028E8DB0421079804F0FFFE10200C9022
:102250008DF809608DF8088000231A4601A92868C6
:102260000EF067FE042441F20605EE1F0EAB2A466F
:1022700031460094079805F030FB0CAA08A907988E
:1022800004F0EBFD08A90090FFF7B8F8EEE708B5F9
:102290004FF47A7300900022244914A00AF08EFCB7
:1022A00008BD0000474554202F6C6F67696E000021
:1022B000474554202F200000474554202F6C6F675E
:1022C0006F757400504F5354202F6C6F67696E0008
:1022D0002F6C6F67696E2E68746D6C002F696E6469
:1022E00065782E68746D6C00E5D10108485454502F
:1022F000205461736B0000000800002004000020DF
:1023000063616E206E6F7420637265617465207303
:102310006F636B657400000063616E206E6F7420E4
:1023200062696E6420736F636B6574009B210008A3
:1023300000F00F00102829D2DFE800F0080A0C0E88
:1023400010121416181A1C1E202224263020704742
:102350003120704732207047332070473420704757
:102360003520704736207047372070473820704737
:102370003920704741207047422070474320704702
:1023800044207047452070474620704778207047AA
:1023900000F00F000A281AD2DFE800F00507090B49
:1023A0000D0F111315173020704731207047322060
:1023B00070473320704734207047352070473620EF
:1023C0007047372070473820704739207047782091
:1023D000704730B504464FF000000D00107001D07A
:1023E000002311E0012030BDE05C00F00F00FFF79A
:1023F0009FFF02EB43014870E05C0009FFF798FF84
:1024000002F813005B1CDBB2AB42EDD3002030BD01
:1024100030B5154B1E2218B9302098771D220CE0DC
:10242000B0FBF1F401FB1404B0FBF1F00FA52C5D3F
:102430009C54521E08B1002AF2D19818401C30BD9D
:10244000008870470870000A487070470178D0F81B
:10245000010041EA002070470870020A4A70020C2D
:102460008A70000EC8707047F80400203031323393
:1024700034353637383961626364656600000000C0
:1024800070B50DF015FDF1200DF09CFE02213020FD
:102490000DF048FD0828F9D1FE4CFD4821680DF0EB
:1024A000C1FDFB486168001D0DF0BCFDF848A16846
:1024B00008300DF0B7FDF648217B0C300DF0B2FD71
:1024C000F34DF54E10350024284656F824100DF033
:1024D000A9FD641C2D1D032CF6D3ED4D20350024E1
:1024E00006EB8400C16828460DF09CFD641C2D1D80
:1024F000032CF5D3E94DE648303029680DF092FD04
:10250000E34E4036002405EB8400416830460DF070
:1025100089FD641C361D102CF5D3DD4E9036002449
:1025200005EB8400416C30460DF07CFD641C361DCB
:10253000032CF5D3D64EA036002405EB8400016DA4
:1025400030460DF06FFD641C361D032CF5D3D04EC4
:10255000B036002405EB8400C16D30460DF062FDFD
:10256000641C361D032CF5D3C94E0024CC4DC03657
:1025700009E004EB840105EB810106EB8400898806
:102580000DF06DFD641C2878A042F2D80DF09CFC83
:10259000012070BDC34810B5417811B1012101700F
:1025A00010BDBB48BD4A3030B949006840311060A9
:1025B000002002EB800408C9401CC0B263601028F0
:1025C000F7D3B3499031002002EB800408C9401CC6
:1025D000C0B263640328F7D3AD49A031002002EBF9
:1025E000800408C9401CC0B223650328F7D3A8495A
:1025F000B031002002EB800408C9401CC0B2E36582
:102600000328F7D310BDA74810B5417811B10121B7
:10261000017010BD9E49A04A1031002008C942F83F
:102620002030401CC0B20328F8D399492031002043
:1026300002EB800408C9401CC0B2E3600328F7D352
:1026400010BD9848417811B1012101707047904840
:10265000904902680A6042684A6082688A60007B2A
:102660000873704730B58F48417811B1012101706E
:1026700030BD8B4B0620864C1870002004EB800187
:1026800000EB800203EB820211F8C05F15714978FC
:102690005171401C1978C0B28142EFD830BD70B57D
:1026A0000546FFF777FFFFF7CCFFFFF7ACFFFFF71B
:1026B000D9FF7DA1284611F053F8764C38B17DA1A1
:1026C00011F04EF818B1401C11F0BAF820707AA140
:1026D000284611F045F838B176A111F041F818B14B
:1026E000401C11F0ADF8607076A1284611F038F862
:1026F00038B170A111F034F818B1401C11F0A0F8F5
:10270000A07073A1284611F02BF838B169A111F01F
:1027100027F818B1401C11F093F8E0706FA128461B
:1027200011F01EF838B163A111F01AF818B1401C6D
:1027300011F086F820716CA1284611F011F838B11B
:102740005CA111F00DF818B1401C11F079F860711E
:1027500068A1284611F004F838B156A111F000F82C
:1027600018B1401C11F06CF8A07165A1284610F05A
:10277000F7FF38B14FA110F0F3FF18B1401C11F072
:102780005FF8E07161A1284610F0EAFF38B149A175
:1027900010F0E6FF18B1401C11F052F820725EA153
:1027A000284610F0DDFF38B142A110F0D9FF18B172
:1027B000401C11F045F860725AA1284610F0D0FF75
:1027C00038B13CA110F0CCFF18B1401C11F038F822
:1027D000A07257A1284610F0C3FF38B135A110F000
:1027E000BFFF18B1401C11F02BF8E07253A128462E
:1027F00010F0B6FF38B12FA110F0B2FF18B1401C95
:1028000011F01EF8207327490120487070BDF0B503
:1028100089B00646FFF7BEFEFFF713FFFFF7F3FE92
:10282000FFF720FF47A1304610F09AFF194DB8B1CD
:1028300020A110F095FF401C044644A110F090FF29
:1028400007466CB167B12021684610F072FF3A1B51
:102850002146684610F0B8FF684609F0E0FA2860A3
:102860003BA1304610F07CFF80B112A110F078FF40
:10287000401C044635A110F073FF074634B12FB158
:102880002021684610F055FF3A1B65E06CE000001F
:1028900000000408C0020020D0020020E80200204E
:1028A0005003002048000020646576696365697004
:1028B000310000003D000000646576696365697061
:1028C000320000006465766963656970330000005A
:1028D00064657669636569703400000064657669D3
:1028E00063656D61736B31006465766963656D6105
:1028F000736B32006465766963656D61736B330079
:102900006465766963656D61736B340064657669CF
:1029100063656761746531006465766963656761E5
:102920007465320064657669636567617465330058
:1029300064657669636567617465340044686370D3
:10294000000000005365745F6970000026000000FD
:102950005375626E657400002146684610F034FFBE
:10296000684609F05CFA6860FAA1304610F0F8FE9B
:10297000C8B1AFF2C00110F0F3FE401C0446AFF244
:10298000340110F0EDFE07466CB167B120216846B6
:1029900010F0CFFE3A1B2146684610F015FF68463E
:1029A00009F03DFAA860AFF26C01304610F0D8FE95
:1029B000E8B1AFF2001110F0D3FE401C040016D0B5
:1029C000E6A110F02DFF06462021684610F0B1FE6A
:1029D0000EB1321B03E0204610F0D4FE0246214621
:1029E000684610F0F1FE684610F02AFF2873DC49B3
:1029F0000120487009B0F0BD70B50646FFF7CAFD6A
:102A0000FFF71FFEFFF7FFFDFFF72CFED5A13046B5
:102A100010F0A6FED54C40B1AFF2681110F0A0FE48
:102A200018B1401C10F00CFF2070D1A1304610F0FE
:102A300097FE40B1AFF2841110F092FE18B1401C25
:102A400010F0FEFE6070CCA1304610F089FE40B15F
:102A5000AFF2A01110F084FE18B1401C10F0F0FE8F
:102A6000A070C7A1304610F07BFE40B1AFF2BC11A0
:102A700010F076FE18B1401C10F0E2FEE070C2A12A
:102A8000304610F06DFE98B1AFF2D81110F068FE2C
:102A900070B1451C4021201D10F04BFEAFF25411C7
:102AA000284610F05DFE421B2946201D10F08CFECA
:102AB000B8A1304610F054FEA0B1AFF2082110F0DA
:102AC0004FFE78B1451C00206064A064AFF2841111
:102AD000E064284610F044FE421BA44829464430D6
:102AE00010F072FE9E490120487070BD2DE9F04142
:102AF00088B08046FFF74EFDFFF7A3FDFFF783FD8B
:102B0000FFF7B0FDA6A1404610F02AFE974CE8B1B1
:102B1000AFF2602110F024FEC0B1401C05468FA129
:102B200010F07EFE06462021684610F002FE0EB12F
:102B3000721B03E0284610F025FE0246294668462F
:102B400010F042FE684609F06AF920608EA1404606
:102B500010F006FEC8B1AFF2A42110F001FEA0B142
:102B6000401C05467DA110F05BFE06464021201D5D
:102B700010F0DFFD0EB1721B03E0284610F002FEDC
:102B800002462946201D10F01FFE87A1404610F086
:102B9000E7FD0025C8B1AFF2E42110F0E1FDA0B1DE
:102BA000401C06466DA110F03BFE25656F4F656524
:102BB0005037A56508B1821B03E0304610F0E2FDF6
:102BC00002463146384610F0FFFD7AA1404610F02B
:102BD000C7FDC8B1AFF2243110F0C2FDA0B1401C56
:102BE00006465EA110F01CFEE565256665665F4C35
:102BF0005C3408B1821B03E0304610F0C3FD02468E
:102C00003146204610F0E0FD55490120487008B0DB
:102C1000BDE8F0812DE9F04190B08046FFF7BAFCA5
:102C2000FFF70FFDFFF7EFFCFFF71CFD0024644DDD
:102C30006AE0684610F07DFD224662A1684611F008
:102C400099F96946404610F08BFD38B3AFF29C31DC
:102C500010F086FD10B3401C064640A110F0E0FDC8
:102C600007462021684610F064FD0FB1BA1B03E04F
:102C7000304610F087FD02463146684610F0A4FD4C
:102C8000684610F0DDFD04EB840105EB810108715D
:102C9000C87940F04000C871322088602021684621
:102CA00010F047FD22464AA1684611F063F96946D3
:102CB000404610F055FD28B3AFF2084110F050FD2A
:102CC00000B3401C064625A110F0AAFD07462021AE
:102CD000684610F02EFD0FB1BA1B03E0304610F02D
:102CE00051FD02463146684610F06EFD684610F010
:102CF000A7FD04EB840105EB81014871C87940F020
:102D00004000C871641CE4B228784FF02001A04252
:102D10008FD808A810F00DFD31A108A811F02AF9EC
:102D200008A9404610F01CFD88B1AFF2784110F0C0
:102D300017FD60B1401C054608A110F071FD0B495C
:102D4000002201F144044A6410B1421B52E055E0F4
:102D50004CE000004761746577617900262000002F
:102D600048000020686F737469703100E802002029
:102D7000686F737469703200686F737469703300C0
:102D8000686F737469703400686F73746E616D6519
:102D9000000000006465766963656E616D65000022
:102DA000686F737469700000757365726E616D652C
:102DB0000000000070617373776F726400000000A0
:102DC00050030020706F727425645F747970650021
:102DD000706F727425645F616374697665000000CA
:102DE000646576696365494400000000284610F078
:102DF000C9FC02462946204610F0E6FCA049012005
:102E0000487010B004E72DE9F0410646FFF7C2FB19
:102E1000FFF717FCFFF7F7FBFFF724FCAFF2780191
:102E2000304610F09DFC002844D0AFF2785110F0ED
:102E300097FC00283ED0471CAFF2E001384610F066
:102E4000EFFC904C002525606560A56028B1C21B91
:102E50003946204610F0B8FC03E03946894810F0A6
:102E600073FC89A1304610F07BFC20B988A1304664
:102E700010F076FCD0B1AFF2C45110F071FCA8B1E3
:102E8000401C0646AFF22C1110F0CAFCE5607D4BE9
:102E900025610C33656128B1821B3146184610F05C
:102EA00093FC03E03146184610F04EFC74490120B3
:102EB00048700870ACE61CB50446694600200DF069
:102EC000DEFA01A900200DF052FB74A1204610F09B
:102ED00047FC78B1AFF2246110F042FC50B1401CC5
:102EE00010F0AEFC10F0FF008DF8030000D0402081
:102EF0008DF803006BA1204610F032FC48B1AFF210
:102F00004C6110F02DFC20B1401C10F099FC8DF8A4
:102F1000020067A1204610F023FC48B1AFF26C61BB
:102F200010F01EFC20B1401C10F08AFC8DF801004E
:102F300062A1204610F014FC48B1AFF2886110F095
:102F40000FFC20B1401C10F07BFC8DF800005EA14E
:102F5000204610F005FC48B1AFF2A86110F000FC6B
:102F600020B1401C10F06CFC8DF8040059A12046E3
:102F700010F0F6FB48B1AFF2C46110F0F1FB20B1E4
:102F8000401C10F05DFC8DF8060054A1204610F0A6
:102F9000E7FB48B1AFF2E46110F0E2FB20B1401C66
:102FA00010F04EFC8DF805004FA1204610F0D8FB24
:102FB00048B1AFF2007110F0D3FB20B1401C10F00B
:102FC0003FFC8DF80700694600200DF008FA012843
:102FD000F9D101A900200DF07CFA0128F9D11CBD1E
:102FE0002749012088707047254810B5427840492C
:102FF000012A07D10278012A04D10022427002700E
:1030000001220A708078002811D008780028FDD1AC
:103010000A200EF026FEBFF34F8F36480168364A6D
:1030200001F4E06111430160BFF34F8FFEE710BD73
:103030003249002000EB800201EB820200F1010026
:10304000D279C0B2920601D40628F3D370472B4A36
:10305000002101EB810302EB8303DB799B0603D4A0
:10306000491CC9B20629F4D3012908D10200244819
:103070004FF4006101D00BF0C6BE0BF0C6BE704726
:1030800048000020D00200206E65777061737300E5
:10309000636F6E6669726D7061737300736574310E
:1030A000324800007365747365636F6E647300006B
:1030B0007365746D696E757465730000736574680B
:1030C0006F757273000000007365747765656B64DB
:1030D0006179000073657464617465007365746D73
:1030E0006F6E74680000000073657479656172002A
:1030F000000000200CED00E00400FA055003002061
:10310000000802402DE9F047064600688AB0002515
:1031100081680091C3687068D0E90112EFA010F0D7
:1031200001FFF84FDFF8E0A3A94605EB85010AEBA4
:1031300081046079012859D1202101A810F0F9FA01
:10314000F24901A810F000FBF1A101A810F0FCFA6F
:103150000A212846FFF75CF9014601A810F0F4FAAD
:10316000EDA101A810F0F0FA706801A9806810F0D4
:10317000F7FA5FEA000839D037F815000A21FFF79F
:1031800047F901463068806810F0EAFA70B3E6A1AA
:10319000404610F0E5FA20B1E07900F0F000401C64
:1031A0001DE0E4A1404610F0DBFA28B1E07900F020
:1031B000F000401CE07115E0E0A1404610F0D0FAAC
:1031C00020B1E07900F0F000801C08E0DDA140466D
:1031D00010F0C6FA30B1E07900F0F000C01CE071E8
:1031E00027F81590E07940F02000E0716D1CEDB2F9
:1031F000062D9AD30AB0BDE8F087ADF5047D5822BC
:10320000D24935A810F07CFA00200746829081460A
:10321000819082468090CEA00EF0C2FFCF4C3390BA
:103220001E200EF01EFD002283A920680EF08DF9ED
:103230009DF80C020628F3D100F077FCB3484FF05C
:10324000010B539054A801F04DFA50206CA9CDE920
:103250000001029058AB47F2305254A903A800F085
:1032600001FEFFF797F9A94C443CE0780090A37861
:1032700062782178BAA010F055FE40F25B7507E045
:10328000E0780090A37862782178BFA010F04AFE21
:103290002A4654A8216801F031FA0028F0D100260E
:1032A000C64D8DF8D1B08DF8D0605C4633463246BD
:1032B00033A928680DF03DFEFFF76CF903208DF867
:1032C000DC00539838909148A8460C3045900C305B
:1032D0004890BBA03E908DF8EF4053980024419059
:1032E00015E0BAA010F01EFE02208DF8D1008DF876
:1032F000D06000231A4633A9D8F800000DF019FE5B
:10330000641CE4B2052C2BD8C8200EF0AAFC35A909
:1033100003A800F0DDFF0028E3D1002520214BA801
:1033200010F007FA539810F02DFA02464BA8539963
:1033300010F04AFAB0A14BA810F006FA444616E085
:1033400003208DF8D10000208DF8D00003460246FE
:1033500033A920680DF0EDFD6D1CEDB20A2D03D9E7
:10336000549803F02BFE6DE7C8200EF07AFCAFF204
:103370006B2300224BA903A801F039F80028DFD104
:103380008E488DF8D1B08DF8D0B000231A4633A9FD
:1033900000680DF0CEFD9BA010F0C4FD504600F07B
:1033A000FEFB00F0E6FBDFF86081044698F80500BC
:1033B000012865D1BAF1000F62D1642C60D340F2CC
:1033C000A460844207D288F806B03220C8F808000A
:1033D0000120819054E088F806B03222C8F8082015
:1033E0008199584601294BD100218DF8BC008346B4
:1033F00081910E468DF8BD101FA82021319010F04C
:1034000098F940490888401C80B208800A21FEF7DC
:10341000FFFF01461FA810F097F980A11FA810F028
:1034200093F91FA810F0AEF93290202127A810F0D0
:1034300080F9539810F0A6F9024627A8539910F086
:10344000C3F97AA127A810F07FF92FAA27A903A80A
:1034500001F01BF828B104208DF8D1008DF8D06060
:1034600004E005208DF8D1008DF8D0B0534800233A
:103470001A4633A900680DF05CFD6FA010F052FDF4
:103480002148407E012802D1BAF1010F03D0BAF1E0
:10349000000F21D03BE1642C02D20627002019E066
:1034A00040F2A46084420BD2B9F1010F15D0164846
:1034B0000827322180F81AB04FF00109C161CFE02E
:1034C000B9F1020F09D010493220072781F81AB04C
:1034D000C86102208146BFE032E1BBE00D0A4D65C4
:1034E00073736167652061727269766564206F6EBF
:1034F00020746F70696320252E2A733A20252E2AA6
:103500007300000018050020500300202C03002049
:103510002F706F7274732F002F6163636573735F15
:103520006175746800000000666F7263656F706596
:103530006E00000070617373000000006661696CCA
:10354000000000006572726F7200000008D201086E
:103550004D515454205461736B000000080000204A
:103560000D0A09436F6E6E65637420746F20746872
:1035700065205365727665722025642E25642E259C
:10358000642E25640000000009436F6E6E6563744D
:10359000204661696C0D0A09436F6E6E6563742085
:1035A000746F207468652053657276657220256497
:1035B0002E25642E25642E256400000004000020C2
:1035C00064657669636577696C6C2F000D0A095034
:1035D0006C6561736520636865636B205573657204
:1035E0006E616D6520616E642050617373776F72D8
:1035F0006420616761696E002F706F7274732F238E
:103600000000000009436F6E6E656374205375639C
:103610006365737366756C0D0A0000002F62746E2B
:103620005F70726573736564000000002F706F72C5
:1036300074732F30000000000D0A5468652045782F
:10364000697420427574746F6E206973207072659E
:1036500073730000082F03D00020072F3FD000E035
:1036600001200021084352D0B9F1000F4FD08DF84E
:10367000BCB000261FA85C468DF8BD6020213190AB
:1036800010F057F8072F2CD0D2A11FA810F072FC11
:103690001FA810F077F83290202127A810F049F8E1
:1036A000539810F06FF8024627A8539910F08CF841
:1036B000CBA127A810F048F82FAA27A903A800F04B
:1036C000E4FE80B104208DF8D100C8488DF8D060A8
:1036D00000231A4633A900680DF02BFC16E00121E7
:1036E000C0E7C3A1D1E7072F26D008208DF8D1006D
:1036F000BE488DF8D04000231A4633A900680DF06B
:1037000018FC072F1AD0BDA010F00CFC00270020D9
:1037100082464FF00208BE4908EB880001EB8004A6
:10372000E079420604D5012220F040008092E07149
:103730006079012806D086E00720D7E7B5A0E3E747
:103740000120E5E7A07901287DD1E079C0067AD58E
:103750008DF8BCB000208DF8BD001FA83190B24894
:1037600030F81810491C8EB220F8186020211FA8CC
:103770000FF0DFFF0A213046FEF74AFE01461FA880
:103780000FF0E2FF1FA80FF0FDFF024632901FA8C6
:103790002F2181543298401C32902079022801D088
:1037A00003281CD1002617E0A0190090407B0009D7
:1037B000FEF7BEFD1FA9329A01EB46015054009856
:1037C000407B00F00F00FEF7B3FD329A1FA90A44B8
:1037D0000BEB4601761C5054207BB042E4DCE079D0
:1037E00020F01000E0711FA80FF0CCFF32902021D4
:1037F00027A80FF09EFF53980FF0C4FF024627A89A
:1038000053990FF0E1FFAFF2F82127A80FF09CFFCA
:103810000A214046FEF7FCFD014627A80FF094FF61
:103820002FAA27A903A800F030FE18B16D1CEDB235
:10383000052D02D9002502E005E00028F0D141461F
:103840007AA010F06FFB08F10108B8F1060FFFF63F
:1038500062AF6F4E002404EB840006EB80008168A9
:1038600011B1491E816042E00021817132228260E3
:10387000407901283BD18DF8BCB08DF8BD101FA850
:10388000202131900FF055FF70A11FA80FF05CFFB1
:103890000A212046FEF7BCFD01461FA80FF054FF89
:1038A000E4B36CA11FA80FF04FFF1FA80FF06AFF31
:1038B0003290202127A80FF03CFF53980FF062FFB1
:1038C000024627A853990FF07FFF64A127A80FF0A5
:1038D0003BFF2FAA27A903A800F0D7FD0CB3012CAA
:1038E00021D021465FA010F01DFB01208290641CB6
:1038F000062CB0DB829868B10020829002208DF8FF
:10390000D1003A488DF8D0B000231A4633A9006898
:103910000DF00FFB8098012809D030E0FFE759A196
:10392000C0E75BA000E063A010F0FCFADDE7002038
:103930008DF8BCB080908DF8BD001FA8202131907B
:103940000FF0F7FE64A11FA80FF0FEFE1FA80FF0F6
:1039500019FF3290202127A80FF0EBFE53980FF0AB
:1039600011FF024627A853990FF02EFF3BA127A86D
:103970000FF0EAFE2FAA27A903A800F086FD03A8EE
:1039800000F033FC48B1C82103A800F013FC90B14B
:10399000014655A010F0C6FA00E502208DF8D100CE
:1039A00000208DF8D00003460246104833A9006875
:1039B0000DF0BFFAD4E40A200EF053F9EEE41CB582
:1039C0000023CDE900130246AFF27C414E480DF0D2
:1039D000DBFF1CBD446F6F725F636C6F736500002B
:1039E0002F706F7274732F310000000004000020EC
:1039F000446F6F725F6F70656E0000000D0A54684F
:103A00006520446F6F7220697320636C6F7365006B
:103A1000500300200D0A54686520446F6F722069BE
:103A200073206F70656E0000180500200D0A526546
:103A300063656976656420446174612066726F6DA8
:103A400020706F727420256400000000706F727423
:103A5000732F0000206572726F7200002F73746103
:103A6000747573000D0A54686520506F72742025B8
:103A700064206973206C6F737420636F6E6E65636E
:103A8000740000002062746E5F6F70656E0000004D
:103A90000D0A546865204578697420427574746F06
:103AA0006E206973206C6F737420636F6E6E656334
:103AB000740000000D0A54686520446F6F72205333
:103AC000656E736F72206973206C6F737420636FFF
:103AD0006E6E656374000000636F6E6669675F6396
:103AE00068616E67650000000D0A52657475726E3C
:103AF00020636F64652066726F6D207969656C6400
:103B00002069732025640000FB3100081CB50121E9
:103B100004200BF0ECFA0420009003208DF8040040
:103B200069462E480BF00AF91CBD10B5012186B07C
:103B300008020BF0E6FAFFF7E9FF00208DF8040019
:103B400000908DF80500039004900120244C8DF81E
:103B50001400694620460AF0EFFC01231A460C21A6
:103B600020460AF05EFD012120460AF027FD06B03E
:103B700010BD10B51A4C012301461A4620460AF022
:103B800050FD20460AF087FD022120460AF04BFE38
:103B90000028F9D02046BDE810400AF0AEBD08B1BB
:103BA000012801D00C2070470D2070471CB5012161
:103BB00002200BF09CFA2020009000208DF80400D9
:103BC00001218DF807108DF80600694605480BF0B5
:103BD000B5F81CBD202103480BF001B900080240D4
:103BE00000200140000402400EB5002422A00EF087
:103BF000D7FA254D00901E200EF033F8002202A9BE
:103C000028680DF0A2FC9DF808000128F3D1FFF709
:103C1000CDFF01251D4E8DF805508DF80450002371
:103C20001A46694630680DF084F902270020FFF734
:103C3000D1FF08B1002410E0641CE4B2642C0CD164
:103C40008DF805708DF8045000231A4669463068D7
:103C50000DF06FF90EA010F065F964200EF001F878
:103C6000E4E71CB50023CDE90013024602A10F488A
:103C70000DF08AFE1CBD00004B4559205343414EB8
:103C8000205461736B000000080000200400002035
:103C90000D0A53797374656D2069732066616374CE
:103CA0006F7279207265736574000000E93B00084B
:103CB0000EB521A00EF074FA224C00901E200DF0DB
:103CC000D0FF002202A920680DF03FFC9DF80800FB
:103CD0000728F3D100224FF41651104601F0D2F913
:103CE000002001F011FA012001F00EFA022001F08B
:103CF0000BFA032001F008FA64200DF0B2FF012056
:103D00008DF805008DF804000F4800231A46694617
:103D100000680DF00EF901F02DFA19200DF0A1FF49
:103D2000F9E71CB50023CDE90013024602A10748BC
:103D30000DF02AFE1CBD0000525334383520534C80
:103D4000415645000800002004000020B13C000856
:103D50000EB51EA00EF024FA1F4C00901E200DF090
:103D600080FF002202A920680DF0EFFB9DF80800FB
:103D70000828F3D119A010F0D5F801210E231E4A0E
:103D800008460FF055FC00200FF0D3F801208DF805
:103D900005008DF80400194800231A46694600689A
:103DA0000DF0C7F816A010F0BDF80FF03FF919207C
:103DB0000DF057FFF9E71CB50023CDE900130246CB
:103DC00002A112480DF0E0FD1CBD0000544350203C
:103DD0004D42205461736B00080000200D0A2053EF
:103DE00074617274696E6720746F20696E697420E3
:103DF0005443504D420000004B00002004000020BE
:103E00000D0A20506F6C6C696E670000513D000810
:103E10002DE9F04190460E4605464FF0FF3700244D
:103E20000DE0404600F0E7FB0346286932460119E1
:103E3000686DD0F808C0E047002807DB0444B442AE
:103E400004DA404600F0DFFB0028EAD0B44207D194
:103E500005F15800A96900F0CAFB0020BDE8F08117
:103E60003846FBE72DE9F0410446DDE90765069F8A
:103E700041650020014604EBC00C401CCCF8281022
:103E80000528F8DB216266616162C4E90127C4E9A3
:103E90000353217701202165206004F1580000F0D0
:103EA000BBFB04F16400BDE8F04100F0B5BB2DE9B7
:103EB000F84F04464FF000088B464546084600F090
:103EC0009AFB0346606D616901224668B047064669
:103ED000012849D18146584600F08DFB01268246D3
:103EE00000277F1C042F11DC606D53460122D0F89F
:103EF00004C06946E047012808D19DF8000000F0A1
:103F00007F0101FB0655F6010006EAD460692946E7
:103F1000401C00F097FD00EB0906E068801BA842FA
:103F200002D26FF001061FE0002D11DD584600F0AF
:103F300062FB034660692A468119606D4668B04796
:103F4000A84201D0012000E0002008B100260BE0CB
:103F500060690178404661F30700A169060919B15B
:103F600004F1640000F043FB3046BDE8F88F2DE912
:103F7000FC4791460E4680464FF0FF37002408EB81
:103F8000C405A96AC9B3304600F026FE68BBD6E96D
:103F900001100A18AB6A1FE090F800C0BCF12F0FA7
:103FA0000AD02B290BD0232913D0614518D12B29F6
:103FB00005D023290DD00DE02F2911D10AE0411C95
:103FC00001E0811C401C914204D209782F29F8D1CC
:103FD00000E0501E401C5B1C197809B19042DBD3F5
:103FE00090420AD111F0FF0F07D1E86A28B1CDE95C
:103FF0000096E96A684688470027641C052CBEDBEA
:10400000781C09D1D8F8500030B1CDE90096D8F825
:1040100050106846884700273846BDE8FC873EB503
:1040200004468069002520B304F1580000F0EBFA43
:1040300020B904F1640000F0E6FAD0B1207F10B19D
:104040004FF0FF3515E0684600F0E6FA4FF47A715C
:10405000684600F0C9FAA168206900F07EFC011EE4
:1040600007DD6A462046FFF7D3FE050001D1012097
:10407000207728463EBD00210A4600EBC103491CBB
:104080009A620529F9DB7047002101770162416AD4
:10409000002900D0EFE770472DE9F0418EB0884647
:1040A00004460025FFF703FF00214F1E06460E2899
:1040B00008D2DFE800F06E076E096E48486E076EA2
:1040C000076E076D05466AE0089108AA6169E06815
:1040D0000292CDE9031007AB09A8CDE9000305A8BA
:1040E000031D421C0CA9801C00F042FC01285FD17A
:1040F0000C988DF8140005AA09A92046FFF737FF90
:104100009DF81400F0B3012802D0022808D012E074
:10411000BDF81800009000230422A168206906E081
:10412000BDF81800009000230522A168206900F066
:1041300059FE011E01DC3D4623E042462046FFF7C2
:1041400067FE05461DE0E068009001AA02A903A8E9
:10415000636900F053FC0128EDD1BDF80400009024
:10416000052E13D007220023A168206900F03AFE33
:104170000028E0DD014642462046FFF749FE0500E3
:10418000D9D100E005E0681C0AD002E00622EAE787
:1041900021772046FFF743FF08B13D4600E03DB1DF
:1041A000206A10B12046FFF76FFF28460EB055E693
:1041B0003546FAE7FEB505460E460024684600F08F
:1041C0002BFA3146684600F00FFA69462846FFF799
:1041D00063FF002802DA4FF0FF3404E0684600F085
:1041E00012FA0028F1D02046FEBD006A70470EB5D5
:1041F0000446684600F010FA4FF4FA7529466846FE
:1042000000F0F2F969462046FFF746FFF6E72DE990
:10421000F04116460D4607464FF0FF34304600F099
:10422000F2F940B931463846FFF736FF0446A84256
:1042300001D0002CF2DA204610E62DE9F0419AB0C8
:1042400016460F4604464FF0FF3845465822D249DD
:1042500068460FF055FA206A88BB16A800F0DCF912
:1042600016A8616800F0C0F907B96F46398BA161E3
:10427000B87E606204F1640000F0B9F93A46A168C2
:10428000206900F09EFA00281FDD014616AA20468C
:10429000FFF7BEFD050018D116AA02212046FFF740
:1042A000B6FF02280AD10027377077703146701C9C
:1042B000E368626900F008FB012801D0454604E08C
:1042C000357815B901202062277728461AB0C5E550
:1042D00008B56A46FFF7B1FF08BD2DE9F04717465C
:1042E000894605464FF0FF36002405EBC408D8F890
:1042F000280018B149460FF04CFA30B1641C052C67
:10430000F3DBDFB1701C09D012E02FB905EBC4015B
:1043100000208862C8F82C000026F2E7002405EB94
:10432000C400806A18B1641C052CF8DB06E0002686
:10433000052C03DA05EBC400C0E90A973046BDE856
:10434000F0872DE9FF478AB00027169E044607979D
:10435000089706914FF0FF38006A9A46894645460D
:1043600020B303A800F058F903A8616800F03CF9F5
:10437000204600F005F983B20CAA06A901208DE8B9
:1043800007000022A168206900F07BFD011E0DDD01
:1043900003AA2046FFF73CFD050007D103AA092127
:1043A0002046FFF734FF092803D04546681C18D083
:1043B0001AE002973770E1686069CDE90001334681
:1043C00002AA012109A800F0A2FD0128EED130784F
:1043D0008028EBD0524649462046FFF77EFF05462F
:1043E000E4E72046FFF750FE28460EB0A7E71CB5CD
:1043F00001AC0094FFF7A5FF1CBDF0B589B00446E1
:1044000000200690059107904FF0FF36206A0F4676
:10441000354620B302A800F0FFF802A8616800F05A
:10442000E3F8204600F0ACF883B205A90120CDE9FD
:1044300000010022A168206900F0BDFD00280EDD0A
:10444000014602AA2046FFF7E3FC050007D102AAB5
:104450000B212046FFF7DBFE0B2803D03546681CF6
:104460000DD00FE06846E268616900F0E2FD0128C6
:10447000F5D1002239462046FFF72FFFEFE720460F
:10448000FFF702FE09B02846F0BD2DE9F0430546CE
:104490004FF0FF37006A8BB014463E464FF00009DC
:1044A000884670B307A800F0B7F807A8696800F05D
:1044B0009BF82078012801D0022803D1284600F07B
:1044C0005FF8A080D4E90201CDE90501CDE90289B8
:1044D000CDF81090A1886078CDE900012378002202
:1044E000A968286900F03BFC011E25DD07AA2846C3
:1044F000FFF78EFC06001FD12078012802D0022889
:1045000008D019E007AA04212846FFF780FE0428F6
:1045100007D010E007AA07212846FFF778FE0728F2
:1045200009D1E868009001AA02A903A86B6900F00C
:1045300065FA012800D03E46701C02D12846FFF7DC
:10454000A3FD0BB03046BDE8F0833EB504464FF006
:10455000FF35684600F060F86846616800F044F88E
:10456000A168206900F0F7F9011E04DD6A462046C3
:10457000FFF74EFC05462046FFF786FD28463EBD68
:1045800001460068A0F57F42FF3A02D0401C086057
:1045900070470120FBE7000060D201082DE9FC41D3
:1045A000064615460F4640F28A2400200DF0B2FB65
:1045B000CDE900062B46224661A138460DF0E4F90C
:1045C000BDE8FC8110B5044601200CF054FD2060CC
:1045D00010BD00684FF0FF310CF07EBD0023006875
:1045E0001A4619460CF0A5BC02C00DF06ABF4FF484
:1045F0007A725143F8E710B504460146001D0DF0EC
:1046000083FF206810BD10B50146001D0DF07CFF32
:10461000012800D0002010BD0021016041608160B0
:1046200070472DE9FF47064615460F46002402A8AD
:1046300001930DF046FF4FF0040841F2060940F6E1
:10464000FF7ACDF8008001AB4A465146306803F04E
:1046500044F92A1B39190023306802F0EDFD0028C7
:1046600001DD044402E001DA044607E0AC4205DA69
:1046700001A902A80DF048FF0028E2D0204604B0AE
:10468000BDE8F0872DE9FF47064615460F46002492
:1046900002A801930DF015FF4FF0040841F206093E
:1046A000CDF8008001AB4A460021306803F015F9CF
:1046B0002A1B39190023306802F01CFE002801DD96
:1046C000044402E001DA044607E0AC4205DA01A93D
:1046D00002A80DF019FF0028E2D02046CFE70068BD
:1046E00002F06CBC00210160AFF2C9014160AFF281
:1046F0006B018160AFF21901C16070477FB504465C
:1047000002208DF801000E464FF0FF3590B207F001
:10471000BAFBADF80200062201210220019602F048
:104720001BFE2060002808DB1022694602F063FCB3
:10473000050002D5206802F041FC04B0284670BD97
:104740004D5154545461736B0000000070B5044621
:10475000007A0025032802D0042802D002E00C25AC
:1047600000E00A2504F10C0007C800F02EFA054409
:10477000E07EAD1C78B1243494E80700243C00F0BE
:1047800024FA3034064694E80700303C00F01DFA65
:10479000304405442D1D206C08B9A16C29B1D4E921
:1047A000111200F012FA0544AD1CE06C08B9616DFD
:1047B00029B1D4E9141200F008FA0544AD1C2846CA
:1047C00070BD2DE9F8430646009088461446002542
:1047D0001046FFF7BBFF814600F063F9404502DD5C
:1047E000A81EBDE8F8832F46394667F307016846DF
:1047F000103100F089F94946009800F023F900993A
:1048000008440090207A04281DD055A1684600F085
:1048100090F90321684600F077F9A07E67F3070559
:1048200060F34105E07E08B145F00405680707D54F
:1048300094F83D0060F3C40594F83C0060F345151E
:10484000206C40B905E048A1684600F072F90421E7
:10485000E0E7A06C08B145F08005E06C08B9606D38
:1048600008B145F040052946684600F04DF9218B16
:10487000684600F04FF904F10C0168460EC900F0DB
:1048800071F9E07E68B12434684694E80E00243C57
:1048900000F068F93034684694E80E00303C00F0CF
:1048A00061F9280605D504F1400168460EC900F0FB
:1048B00059F9680605D54C34684694E80E0000F0B6
:1048C00051F90098801B8CE72DE9FC410746002434
:1048D0000E4625466846009200F010F90146204633
:1048E00061F307000009022819D101A9009800F01E
:1048F000F7F8009905460844019900900144081A08
:1049000002280CDB684600F0F9F860F3070404F0B5
:1049100001003870684600F0F1F830700125284633
:10492000BDE8FC8138B5002304460090022901DA75
:10493000981E38BD194663F3070162F307116846F4
:1049400000F0E2F80021009800F07CF800990144A2
:10495000081B009138BD0E22E4E70C22E2E70000BC
:104960004D514973647000004D51545400000000D3
:104970002DE9FC5F8046DDE90EA00024CDE90004AE
:10498000994617460E462546DDF834B0684600F0D5
:10499000B5F860F30704200903282CD1C4F3C00143
:1049A00088F80010C4F34100306004F00100387052
:1049B00001A9009800F094F800990546084401996F
:1049C00000904418224669460C9800F0E4F890B133
:1049D0000098201A0FD43068002804DD684600F0E3
:1049E00084F8A9F800000098211ACAF8001000996C
:1049F0000125CBF800102846BDE8FC9F2DE9FC41BD
:104A0000074615460E4600246846009300F076F8E7
:104A100060F30704C4F3C00030702009387001A9A6
:104A2000009800F05DF80099019A014400910A4451
:104A3000511A022904DB684600F057F8288001204B
:104A4000BDE8FC8110B504460020CA1701EB526393
:104A500023F07F02891ACAB2D911002901DD42F080
:104A60008002225400F10100EFDC10BDF8B50124F2
:104A700000250E4607460D606D1C042D0FDC01213C
:104A80006846B84701280AD19DF80000316800F057
:104A90007F0202FB0411E40131600006ECD42846D9
:104AA000F8BD401C802801DA401C7047B0F5804FEB
:104AB00001DA801C7047A049884201DAC01C7047A7
:104AC000001D704730B500229C4C05E02368521C45
:104AD00013F8015B057023608A42F7DB084630BD9E
:104AE000964A1060AFF22300C0E701684A7811F8D7
:104AF000023B016002EB032210467047016811F887
:104B0000012B016010467047026811700168491C52
:104B10000160704710B5CA17046801EB12631A0AE6
:104B200022700268521C026011700168491C016009
:104B300010BD70B504460D4608460EF023FE06462D
:104B400001462046FFF7E6FF3246294620680EF070
:104B5000D7FD20683044206070BD4178007801EBBB
:104B60000020704770B5141E1E4605460BDD114629
:104B7000FFF7D0FF2246314628680EF0C1FD2868B5
:104B80002044286070BD11B1BDE87040D1E7BDE898
:104B900070400021BEE7F0B5054608680026101AEF
:104BA00017460C4601280CDD0846FFF79EFF68609B
:104BB00021680A18BA4204D8A9602168012608446D
:104BC0002060002028603046F0BD0200084602D078
:104BD00010460EF0D7BD704770B5024600680D460E
:104BE00020B106460EF0CEFD044601E0D2E90146B2
:104BF00028460EF0C7FD844205D12246294630469C
:104C00000EF0FFFD08B1002070BD012070BD2DE940
:104C1000F84300258846164604464FF0FF37012129
:104C20000095B047012816D169463046FFF71EFFB0
:104C3000601C0099FFF706FF0099401C0B184345C4
:104C400009DC21B12044B0470099884203D1207883
:104C500060F307052F093846BDE8F8832DE9F843CE
:104C600007464FF0FF35107D14468946A8460026BA
:104C700020B101280FD002283ED02675D4E900309B
:104C8000012239469847411C53D00028E4D02661C0
:104C9000207D401C2075206910B90120C4E902065E
:104CA0002069042818DAD4E90030012269469847BF
:104CB000411C11D0A0B32069401C20619DF8000068
:104CC000D4E9021200F07F0303FB0122C901C4E909
:104CD00002120006E4D42569681C2AD0F5B1781CBC
:104CE000E168FFF7AFFE401C2061E16801444945DF
:104CF0001FDC207D401C2075E268A2B12069C1192B
:104D0000D4E900309847411C13D00028A4D0E168B2
:104D1000091AE16022691044206104D000209BE759
:104D2000FFE70025D8E73978304661F307004FEAFE
:104D30001018267540468FE7FFFF1F005C0000201B
:104D400070B50E46114604461A463046049DFFF7DC
:104D50003CFF2844801C002C00DD801C70BD2DE928
:104D6000FC5F1C46129ECDE90060DDF838B090462D
:104D7000DDF830A0DDE90F23894605465946204677
:104D8000FFF7DEFF0746FFF78CFE484503DD6FF0B7
:104D90000100BDE8FC9F302168F3C30164F34201C8
:104DA0006AF3000101A8FFF7AFFE39460198FFF74B
:104DB00049FE019908440190DDE90F23594601A8F5
:104DC000FFF7D0FE002C03DD01A80D99FFF7A2FE2E
:104DD0003246119901980EF093FC019830440190ED
:104DE000401BD6E7F8B50024069E0546009004292E
:104DF00001DAA01EF8BD62F3071463F3C304062AA8
:104E000024F0060200D1921CD1B26846FFF77CFE66
:104E100002210098FFF716FE0099084400903146E1
:104E20006846FFF777FE0098401BF8BD08B50023E1
:104E300000920422FFF7D6FF08BD08B50093134681
:104E40000622FFF7CFFF08BD08B500230092072216
:104E5000FFF7C8FF08BD2DE9F04102250E460746C1
:104E6000002409E004EB440006EB800007C8FFF7CC
:104E7000ACFE0544641CED1CBC42F3DB2846BDE8D7
:104E8000F0812DE9FF4F83B08A46DDE910870646A1
:104E9000002501909346DDF848902C46394640465F
:104EA000FFF7D9FF0090FFF7FCFD504503DDA81E7A
:104EB00007B0BDE8F08F65F3070580356BF3C305D8
:104EC00025F00600801CC1B201A8FFF71DFEDDE938
:104ED0000010FFF7B7FD01990844019001A8069959
:104EE000FFF718FE0EE004EB440007EB800501A875
:104EF00095E80E00FFF736FE19F8241001A8FFF719
:104F000003FE641C4445EEDB0198801BD0E72DE9CD
:104F1000FC4782464FF000090A9800901E4614464E
:104F200088464D464F466846FFF7E8FD60F30705A3
:104F30002809092826D101A90098FFF7D1FD009979
:104F400007460844019900904518281A022819DBE1
:104F50006846FFF7CAFDAAF80000C4F800900DE00B
:104F60002168414502DD4FF0FF370BE06846FFF74F
:104F7000C5FD21688A00491C2160B0500098A842F4
:104F8000EED301273846BDE8FC872DE9F041022524
:104F90000E460746002409E004EB440006EB8000BF
:104FA00007C8FFF712FE0544641CAD1CBC42F3DBCE
:104FB0002846BDE8F0812DE9FC5F8A46DDE90C87D3
:104FC0000646002501909B4691462C4639464046B0
:104FD000FFF7DBFF0090FFF764FD504502DDA81EE0
:104FE000BDE8FC9F65F30705A03569F3C30525F00F
:104FF0000600801CC1B201A8FFF786FDDDE90010A4
:10500000FFF720FD019908440190594601A8FFF7D8
:1050100081FD09E004EB440007EB800501A895E859
:105020000E00FFF79FFD641C4445F3DB0198801BD5
:10503000D6E73EB5002400920B4602468DF80440A8
:105040008DF8084002A901A8FFF7D8FC9DF80410CC
:105050000B2900D101203EBD70B5094DFF231A4632
:1050600005F5807605E010F8014B54402A5D5A4062
:10507000335D491E89B2F6D242EA032070BD0000BA
:10508000B8D201082DE9F0411746884608B101243D
:1050900025E0954E9348F061944830629448B061A1
:1050A000944870620020B0629348F0629348306385
:1050B0009348002570633A464146284600F022F99D
:1050C000040002D1284600F05AFE6D1CEDB2042DFA
:1050D000F1D324B900F00EFE20B10120307020463B
:1050E000BDE8F0810224FAE702467F4810B5017856
:1050F0000024012902D00524204610BD816A002920
:10510000FAD010468847F7E770B5774D0024E96973
:1051100088472878012802D00524204670BD002049
:105120002870FAE710B5704C217829B1032903D013
:10513000012905D0052010BD216A88470120207073
:10514000002010BD68480078032801D00020704777
:105150000120704764491031085C7047624914317E
:10516000085C7047604A1032115470475E4A0C3236
:1051700011547047F8B55C4C207818B1032801D061
:105180000520F8BD684600F0D1FD012812D1564D2A
:10519000BDF80200103504281FD004DC012807D018
:1051A000022807D107E008284DD0102802D15EE080
:1051B000032020708CE04C4B646A1B1D1A1D9DF867
:1051C0000000D11FA04700289DF8000001D0012158
:1051D00033E0042100F09AFD7AE0A26802201678FC
:1051E000A670E070F00902D05078E0701FE03E4BEE
:1051F0000020383313F83010C9B1B14214D13A4EFF
:105200009DF800C001210C3603EBC00006F80C101D
:105210004768A6F1080361786046B847E0709DF8DA
:1052200000100020705402E0401C0528E2DBE0780A
:1052300000289DF8000003D0022129541021C9E75D
:1052400000F0C8FD40E028499DF80000083100F05A
:10525000DBF99DF8000000F0E5F9034622499DF8CE
:1052600000001431A268095C00F0C2F830E09DF83B
:1052700000001D492D5C083100F0C6F925B1012D53
:105280000DD0022D20D115E09DF8000000F0CAF9E4
:1052900002469DF80000A16800F095FD14E09DF81D
:1052A000000000F0BFF902469DF80000A16800F080
:1052B0008CFD09E09DF8000000F0B4F902469DF86D
:1052C0000000A16800F083FD9DF8000000F073FD70
:1052D0000020F8BD04490C31085C7047024A1432C2
:1052E0001154704755530008600000207D5300089A
:1052F000F15300089D530008875400080B5500081F
:10530000735500082DE9F04117460D460646002466
:105310000CF0A2FCC849002088553B4608222946CB
:10532000304600F038FA01280ED1B5F5964F01D974
:10533000232003E0C1496800B1FBF0F081B23046A0
:1053400000F080FB012800D002240CF0F6FB204680
:10535000BDE8F08110B504460CF07EFCB649002093
:10536000091F085502460121204600F0B9FA2046DF
:1053700000F0C5FBBDE810400CF0DFBB10B50446E3
:105380000CF06AFC00221146204600F0A9FA2046E3
:1053900000F011FCBDE810400CF0CFBB2DE9F04748
:1053A000984692468946044600260CF055FCA24FCA
:1053B000183737F8140006280CD337F81410A04813
:1053C00000EB04252846FFF747FE28B104260CF021
:1053D000B4FB3046BDE8F08715F8011B89F80010D2
:1053E00037F81400C01EA8F80000CAF80050EEE715
:1053F0002DE9F0479A4616468946044600270CF0E8
:105400002BFC8D48001F005D012804D004270CF000
:1054100094FB3846DEE78B48874D761E103540F802
:1054200024604FF0010825F8148086F8009035F8C4
:10543000142002EB0A0125F8141035F8141050F866
:105440002400FFF709FE014635F8140004EB44027E
:10545000C2EB04237C4A1A441318401C25F814009C
:10546000197035F81400090A0244401C25F814008C
:105470001170A5F1180000F80480012200212046D7
:1054800000F02EFAC3E72DE9F84304464FF0000878
:10549000694600F073FA684E361F305D50B16849B6
:1054A00006F11C0701EB0425012809D002281BD0B6
:1054B000032802D1204600F022FB4046BDE8F883D5
:1054C000204600F078FB5C4900200839085527F891
:1054D00014009DF8001037F814002A18401C27F813
:1054E0001400117002200EE037F81400FF2809D8CC
:1054F0009DF8001037F814002A18401C27F81400F3
:105500001170D7E703203055D4E72DE9F0414A4D1B
:1055100000260446083D285D10B1012827D105E08A
:1055200000220121204600F0DBF920E0424F103735
:1055300037F81400A0B1434D55F8240001782046F7
:1055400000F00CFA55F82400401C45F8240037F808
:105550001400401E27F8140001200CF082FB06E026
:1055600000220121204600F0BBF9022028553046D8
:10557000EEE62DE9F041304E00250446361F305D41
:1055800020B1022804D0032807D110E0012100E057
:105590000221204600F0BAFB05464FF0010806F84C
:1055A0000480254F083F385D022812D105E0012113
:1055B0002046FFF7D7FD1021EBE71F48005D40B9FB
:1055C00000212046FFF7CEFD1021204600F09EFB73
:1055D000054600203855204600F0EDFA1648001D1B
:1055E000005D022804D10421204600F08FFB05460F
:1055F00006F804802846ABE600EB4002C2EB002030
:10560000114A10440860704700EB4002C2EB0020D2
:105610000D4A1044401C08607047074A083222F8BF
:10562000101070470449083131F810007047024AE1
:10563000121D115470470000C8000020A07F170001
:1056400018090020180D00202405002038B5044654
:10565000042801D9022038BD00F0A3FB98B16946A7
:105660002046FFF7D1FF0099022220460A704A70B7
:105670001146FFF7D2FF0821204600F047FB2046E5
:1056800000F0AAFB38BD052038BD10B51078002405
:10569000022802D00124204610BD02A00EF042FCD8
:1056A000F9E70000526563697665642074686520D7
:1056B0007265706F6E64000008B5D54CD54D4FF023
:1056C000FF363246694620680BF03FFF29689DF897
:1056D00000008847F5E738B1012807D0022807D035
:1056E000032800D1CC487047CC487047CC4870475D
:1056F000CC48704738B1012807D0022807D00328CA
:1057000000D147207047272070472620704734205B
:1057100070477CB501218DF8041002218DF8071027
:105720008DF805100021C04E8DF80610A8B1BF4DB0
:1057300001281FD0022820D003280DD1102000906E
:105740000121082009F0B5FC6946304609F0F6FA57
:105750001021304609F059FB7CBD4FF480640121D3
:105760000820009409F0A5FC6946304609F0E6FAE5
:105770002146EEE74FF4807401E04FF4805401219C
:105780000420009409F095FC6946284609F0D6FAF1
:1057900021462846DEE72DE9F04188B01C46164632
:1057A0000F468046FFF797FF07F034FA4046FFF7B1
:1057B00092FF07F06CFA4046FFF7ABFF4046FFF759
:1057C00099FF8DF8180006208DF8190000258DF836
:1057D0001A5001208DF81B0006A808F04EFE029713
:1057E00024B1012C05D0022C35D105E0ADF81050C4
:1057F00006E04FF4C06001E04FF48060ADF81000A7
:10580000072E06D0082E26D124B17002ADF80C0068
:1058100002E004B3ADF80C500C20ADF81200ADF866
:105820000E50ADF814504046FFF755FF02A908F09E
:10583000BCFC4046FFF74FFF002240F2277108F002
:10584000C4FD4046FFF747FF012108F01FFD704CE3
:10585000206820B112E0002008B0BDE8F0810022ED
:10586000022104200BF0D2FA20600D20CDE90005C2
:10587000002382226EA171480CF086F80120EBE72C
:10588000F0B4694A694B95154FF48064961459B188
:10589000E8B101281DD002281DD003281ED11021F7
:1058A0001046F0BC09F0AFBA50B101280AD0022866
:1058B0000AD0032812D110211046F0BC09F0A5BA75
:1058C0002146F9E7294600E031461846F5E721462A
:1058D000E6E7294600E031461846E2E7F0BC7047AB
:1058E00038B504468DF800000120494D8DF80100BF
:1058F00089B100212046FFF7C3FF2046FFF7EBFEEA
:10590000012240F2255108F060FD00226946286816
:105910000BF08FFD38BD01212046FFF7B1FF0023BA
:105920001A46694628680BF004FB38BD38B50446B2
:10593000FFF7E0FE8DF8000006208DF80100002042
:105940008DF802008DF80300684608F096FD2046A9
:10595000FFF7C1FE002108F099FC38BD10B50446E0
:10596000FFF7B9FE08F0B8FC2046FFF7B4FE40216F
:1059700008F043FD0028F7D0012010BD10B50C46FB
:10598000FFF7A9FE08F0ACFC2070012010BD70B537
:10599000234D40F225542146284608F038FD0028C2
:1059A00008D0012000F031F821462846BDE87040BB
:1059B00008F02ABD70BD10B540F22551174808F017
:1059C00026FD002804D0BDE81040002000F01DB8DE
:1059D00010BD10B540F22551124808F018FD0028FE
:1059E00004D0BDE81040022000F00FB810BD10B583
:1059F00040F22551084808F00AFD002804D0BDE80F
:105A00001040032000F001B810BD0D490968084797
:105A1000E8000020900000200014014000480040F1
:105A200000440040004C0040000C024000080240CE
:105A300073657269616C20706F6C6C00B9560008F8
:105A40008C0000202DE9FF417C4E04464FF0804839
:105A500071803078C8BB0121084609F048FB1C2042
:105A60008DF80C0007208DF80D0000258DF80E50E4
:105A700001278DF80F7003A808F0FFFC7802ADF83D
:105A800008006420ADF8025001902820ADF8000015
:105A90008DF80A5069464546404609F079FD0021D7
:105AA000284609F0C9FD0121284609F0CFFD05214E
:105AB000284609F0AFFD012128460AF012F901221B
:105AC000114628460AF0EDF837705D4D55F8240070
:105AD00030B90022042101200BF098F945F8240088
